{
	"Node-Guardian_Cream_Rkt/Src/Contracts/SharkVault.sol": {
		"SharkVault": {
			"abi": [
				{
					"inputs": [
						{
							"internalType": "contract IERC20",
							"name": "_gold",
							"type": "address"
						},
						{
							"internalType": "contract IERC20",
							"name": "_seagold",
							"type": "address"
						}
					],
					"stateMutability": "nonpayable",
					"type": "constructor"
				},
				{
					"inputs": [],
					"name": "INTEREST_RATE_PERCENT",
					"outputs": [
						{
							"internalType": "uint256",
							"name": "",
							"type": "uint256"
						}
					],
					"stateMutability": "view",
					"type": "function"
				},
				{
					"inputs": [
						{
							"internalType": "uint256",
							"name": "_amount",
							"type": "uint256"
						}
					],
					"name": "borrow",
					"outputs": [],
					"stateMutability": "nonpayable",
					"type": "function"
				},
				{
					"inputs": [
						{
							"internalType": "uint256",
							"name": "_amount",
							"type": "uint256"
						}
					],
					"name": "depositGold",
					"outputs": [],
					"stateMutability": "payable",
					"type": "function"
				},
				{
					"inputs": [],
					"name": "gold",
					"outputs": [
						{
							"internalType": "contract IERC20",
							"name": "",
							"type": "address"
						}
					],
					"stateMutability": "view",
					"type": "function"
				},
				{
					"inputs": [
						{
							"internalType": "address",
							"name": "_borrower",
							"type": "address"
						}
					],
					"name": "liquidate",
					"outputs": [],
					"stateMutability": "nonpayable",
					"type": "function"
				},
				{
					"inputs": [
						{
							"internalType": "uint256",
							"name": "_amount",
							"type": "uint256"
						}
					],
					"name": "repay",
					"outputs": [],
					"stateMutability": "nonpayable",
					"type": "function"
				},
				{
					"inputs": [],
					"name": "seagold",
					"outputs": [
						{
							"internalType": "contract IERC20",
							"name": "",
							"type": "address"
						}
					],
					"stateMutability": "view",
					"type": "function"
				},
				{
					"inputs": [
						{
							"internalType": "address",
							"name": "_accountOwner",
							"type": "address"
						}
					],
					"name": "updatedAccount",
					"outputs": [
						{
							"components": [
								{
									"internalType": "uint256",
									"name": "depositedGold",
									"type": "uint256"
								},
								{
									"internalType": "uint256",
									"name": "borrowedSeagold",
									"type": "uint256"
								},
								{
									"internalType": "uint256",
									"name": "lastBlock",
									"type": "uint256"
								}
							],
							"internalType": "struct SharkVault.LoanAccount",
							"name": "account",
							"type": "tuple"
						}
					],
					"stateMutability": "view",
					"type": "function"
				},
				{
					"inputs": [
						{
							"internalType": "uint256",
							"name": "_amount",
							"type": "uint256"
						}
					],
					"name": "withdrawGold",
					"outputs": [],
					"stateMutability": "payable",
					"type": "function"
				}
			],
			"devdoc": {
				"kind": "dev",
				"methods": {
					"borrow(uint256)": {
						"details": "Seagold loan have be suffciently collateralized  by previously deposited gold.",
						"params": {
							"_amount": "Amount of seagold to borrow."
						}
					},
					"depositGold(uint256)": {
						"details": "Gold must be approved for transfer beforehand.",
						"params": {
							"_amount": "Amount of gold to deposit."
						}
					},
					"liquidate(address)": {
						"params": {
							"_borrower": "Owner of the loan."
						}
					},
					"repay(uint256)": {
						"details": "Seagold must be approved for transfer beforehand.",
						"params": {
							"_amount": "Amount of seagold to repay."
						}
					},
					"updatedAccount(address)": {
						"params": {
							"_accountOwner": "Owner of the loan."
						}
					},
					"withdrawGold(uint256)": {
						"details": "Any existing seagold loan must still be  sufficiently collateralized.",
						"params": {
							"_amount": "Amount of gold to withdraw."
						}
					}
				},
				"version": 1
			},
			"evm": {
				"assembly": "    /* \"Node-Guardian_Cream_Rkt/Src/Contracts/SharkVault.sol\":114:4356  contract SharkVault {... */\n  mstore(0x40, 0xc0)\n    /* \"Node-Guardian_Cream_Rkt/Src/Contracts/SharkVault.sol\":500:623  constructor(... */\n  callvalue\n  dup1\n  iszero\n  tag_1\n  jumpi\n  0x00\n  dup1\n  revert\ntag_1:\n  pop\n  mload(0x40)\n  sub(codesize, bytecodeSize)\n  dup1\n  bytecodeSize\n  dup4\n  codecopy\n  dup2\n  dup2\n  add\n  0x40\n  mstore\n  dup2\n  add\n  swap1\n  tag_2\n  swap2\n  swap1\n  tag_3\n  jump\t// in\ntag_2:\n    /* \"Node-Guardian_Cream_Rkt/Src/Contracts/SharkVault.sol\":583:588  _gold */\n  dup2\n    /* \"Node-Guardian_Cream_Rkt/Src/Contracts/SharkVault.sol\":575:588  gold =  _gold */\n  0xffffffffffffffffffffffffffffffffffffffff\n  and\n  0x80\n  dup2\n  0xffffffffffffffffffffffffffffffffffffffff\n  and\n  dup2\n  mstore\n  pop\n  pop\n    /* \"Node-Guardian_Cream_Rkt/Src/Contracts/SharkVault.sol\":608:616  _seagold */\n  dup1\n    /* \"Node-Guardian_Cream_Rkt/Src/Contracts/SharkVault.sol\":598:616  seagold = _seagold */\n  0xffffffffffffffffffffffffffffffffffffffff\n  and\n  0xa0\n  dup2\n  0xffffffffffffffffffffffffffffffffffffffff\n  and\n  dup2\n  mstore\n  pop\n  pop\n    /* \"Node-Guardian_Cream_Rkt/Src/Contracts/SharkVault.sol\":500:623  constructor(... */\n  pop\n  pop\n    /* \"Node-Guardian_Cream_Rkt/Src/Contracts/SharkVault.sol\":114:4356  contract SharkVault {... */\n  jump(tag_6)\n    /* \"#utility.yul\":88:205   */\ntag_8:\n    /* \"#utility.yul\":197:198   */\n  0x00\n    /* \"#utility.yul\":194:195   */\n  dup1\n    /* \"#utility.yul\":187:199   */\n  revert\n    /* \"#utility.yul\":334:460   */\ntag_10:\n    /* \"#utility.yul\":371:378   */\n  0x00\n    /* \"#utility.yul\":411:453   */\n  0xffffffffffffffffffffffffffffffffffffffff\n    /* \"#utility.yul\":404:409   */\n  dup3\n    /* \"#utility.yul\":400:454   */\n  and\n    /* \"#utility.yul\":389:454   */\n  swap1\n  pop\n    /* \"#utility.yul\":334:460   */\n  swap2\n  swap1\n  pop\n  jump\t// out\n    /* \"#utility.yul\":466:562   */\ntag_11:\n    /* \"#utility.yul\":503:510   */\n  0x00\n    /* \"#utility.yul\":532:556   */\n  tag_21\n    /* \"#utility.yul\":550:555   */\n  dup3\n    /* \"#utility.yul\":532:556   */\n  tag_10\n  jump\t// in\ntag_21:\n    /* \"#utility.yul\":521:556   */\n  swap1\n  pop\n    /* \"#utility.yul\":466:562   */\n  swap2\n  swap1\n  pop\n  jump\t// out\n    /* \"#utility.yul\":568:677   */\ntag_12:\n    /* \"#utility.yul\":618:625   */\n  0x00\n    /* \"#utility.yul\":647:671   */\n  tag_23\n    /* \"#utility.yul\":665:670   */\n  dup3\n    /* \"#utility.yul\":647:671   */\n  tag_11\n  jump\t// in\ntag_23:\n    /* \"#utility.yul\":636:671   */\n  swap1\n  pop\n    /* \"#utility.yul\":568:677   */\n  swap2\n  swap1\n  pop\n  jump\t// out\n    /* \"#utility.yul\":683:831   */\ntag_13:\n    /* \"#utility.yul\":769:806   */\n  tag_25\n    /* \"#utility.yul\":800:805   */\n  dup2\n    /* \"#utility.yul\":769:806   */\n  tag_12\n  jump\t// in\ntag_25:\n    /* \"#utility.yul\":762:767   */\n  dup2\n    /* \"#utility.yul\":759:807   */\n  eq\n    /* \"#utility.yul\":749:825   */\n  tag_26\n  jumpi\n    /* \"#utility.yul\":821:822   */\n  0x00\n    /* \"#utility.yul\":818:819   */\n  dup1\n    /* \"#utility.yul\":811:823   */\n  revert\n    /* \"#utility.yul\":749:825   */\ntag_26:\n    /* \"#utility.yul\":683:831   */\n  pop\n  jump\t// out\n    /* \"#utility.yul\":837:1006   */\ntag_14:\n    /* \"#utility.yul\":907:912   */\n  0x00\n    /* \"#utility.yul\":938:944   */\n  dup2\n    /* \"#utility.yul\":932:945   */\n  mload\n    /* \"#utility.yul\":923:945   */\n  swap1\n  pop\n    /* \"#utility.yul\":954:1000   */\n  tag_28\n    /* \"#utility.yul\":994:999   */\n  dup2\n    /* \"#utility.yul\":954:1000   */\n  tag_13\n  jump\t// in\ntag_28:\n    /* \"#utility.yul\":837:1006   */\n  swap3\n  swap2\n  pop\n  pop\n  jump\t// out\n    /* \"#utility.yul\":1012:1571   */\ntag_3:\n    /* \"#utility.yul\":1117:1123   */\n  0x00\n    /* \"#utility.yul\":1125:1131   */\n  dup1\n    /* \"#utility.yul\":1174:1176   */\n  0x40\n    /* \"#utility.yul\":1162:1171   */\n  dup4\n    /* \"#utility.yul\":1153:1160   */\n  dup6\n    /* \"#utility.yul\":1149:1172   */\n  sub\n    /* \"#utility.yul\":1145:1177   */\n  slt\n    /* \"#utility.yul\":1142:1261   */\n  iszero\n  tag_30\n  jumpi\n    /* \"#utility.yul\":1180:1259   */\n  tag_31\n  tag_8\n  jump\t// in\ntag_31:\n    /* \"#utility.yul\":1142:1261   */\ntag_30:\n    /* \"#utility.yul\":1300:1301   */\n  0x00\n    /* \"#utility.yul\":1325:1402   */\n  tag_32\n    /* \"#utility.yul\":1394:1401   */\n  dup6\n    /* \"#utility.yul\":1385:1391   */\n  dup3\n    /* \"#utility.yul\":1374:1383   */\n  dup7\n    /* \"#utility.yul\":1370:1392   */\n  add\n    /* \"#utility.yul\":1325:1402   */\n  tag_14\n  jump\t// in\ntag_32:\n    /* \"#utility.yul\":1315:1402   */\n  swap3\n  pop\n    /* \"#utility.yul\":1271:1412   */\n  pop\n    /* \"#utility.yul\":1451:1453   */\n  0x20\n    /* \"#utility.yul\":1477:1554   */\n  tag_33\n    /* \"#utility.yul\":1546:1553   */\n  dup6\n    /* \"#utility.yul\":1537:1543   */\n  dup3\n    /* \"#utility.yul\":1526:1535   */\n  dup7\n    /* \"#utility.yul\":1522:1544   */\n  add\n    /* \"#utility.yul\":1477:1554   */\n  tag_14\n  jump\t// in\ntag_33:\n    /* \"#utility.yul\":1467:1554   */\n  swap2\n  pop\n    /* \"#utility.yul\":1422:1564   */\n  pop\n    /* \"#utility.yul\":1012:1571   */\n  swap3\n  pop\n  swap3\n  swap1\n  pop\n  jump\t// out\n    /* \"Node-Guardian_Cream_Rkt/Src/Contracts/SharkVault.sol\":114:4356  contract SharkVault {... */\ntag_6:\n  mload(0x80)\n  mload(0xa0)\n  codecopy(0x00, dataOffset(sub_0), dataSize(sub_0))\n  0x00\n  assignImmutable(\"0x4d9fac5dc90d70d79ceac3589bb998755cf60ab2ff110225b2bffe4b0c0e4742\")\n  0x00\n  assignImmutable(\"0xac8a4843910b5569f3915173c70dbcbb8947a9742ff1536cccc8b4f26cbdef89\")\n  return(0x00, dataSize(sub_0))\nstop\n\nsub_0: assembly {\n        /* \"Node-Guardian_Cream_Rkt/Src/Contracts/SharkVault.sol\":114:4356  contract SharkVault {... */\n      mstore(0x40, 0x80)\n      jumpi(tag_1, lt(calldatasize, 0x04))\n      shr(0xe0, calldataload(0x00))\n      dup1\n      0x3c47d1ef\n      gt\n      tag_11\n      jumpi\n      dup1\n      0x3c47d1ef\n      eq\n      tag_6\n      jumpi\n      dup1\n      0x465a7007\n      eq\n      tag_7\n      jumpi\n      dup1\n      0x9835e092\n      eq\n      tag_8\n      jumpi\n      dup1\n      0xc5ebeaec\n      eq\n      tag_9\n      jumpi\n      dup1\n      0xfbec6f21\n      eq\n      tag_10\n      jumpi\n      jump(tag_1)\n    tag_11:\n      dup1\n      0x0e0359a0\n      eq\n      tag_2\n      jumpi\n      dup1\n      0x14547f8f\n      eq\n      tag_3\n      jumpi\n      dup1\n      0x2f865568\n      eq\n      tag_4\n      jumpi\n      dup1\n      0x371fd8e6\n      eq\n      tag_5\n      jumpi\n    tag_1:\n      0x00\n      dup1\n      revert\n        /* \"Node-Guardian_Cream_Rkt/Src/Contracts/SharkVault.sol\":3432:4021  function updatedAccount(... */\n    tag_2:\n      callvalue\n      dup1\n      iszero\n      tag_12\n      jumpi\n      0x00\n      dup1\n      revert\n    tag_12:\n      pop\n      tag_13\n      0x04\n      dup1\n      calldatasize\n      sub\n      dup2\n      add\n      swap1\n      tag_14\n      swap2\n      swap1\n      tag_15\n      jump\t// in\n    tag_14:\n      tag_16\n      jump\t// in\n    tag_13:\n      mload(0x40)\n      tag_17\n      swap2\n      swap1\n      tag_18\n      jump\t// in\n    tag_17:\n      mload(0x40)\n      dup1\n      swap2\n      sub\n      swap1\n      return\n        /* \"Node-Guardian_Cream_Rkt/Src/Contracts/SharkVault.sol\":284:315  IERC20 immutable public seagold */\n    tag_3:\n      callvalue\n      dup1\n      iszero\n      tag_19\n      jumpi\n      0x00\n      dup1\n      revert\n    tag_19:\n      pop\n      tag_20\n      tag_21\n      jump\t// in\n    tag_20:\n      mload(0x40)\n      tag_22\n      swap2\n      swap1\n      tag_23\n      jump\t// in\n    tag_22:\n      mload(0x40)\n      dup1\n      swap2\n      sub\n      swap1\n      return\n        /* \"Node-Guardian_Cream_Rkt/Src/Contracts/SharkVault.sol\":3039:3293  function liquidate(address _borrower) external {... */\n    tag_4:\n      callvalue\n      dup1\n      iszero\n      tag_24\n      jumpi\n      0x00\n      dup1\n      revert\n    tag_24:\n      pop\n      tag_25\n      0x04\n      dup1\n      calldatasize\n      sub\n      dup2\n      add\n      swap1\n      tag_26\n      swap2\n      swap1\n      tag_15\n      jump\t// in\n    tag_26:\n      tag_27\n      jump\t// in\n    tag_25:\n      stop\n        /* \"Node-Guardian_Cream_Rkt/Src/Contracts/SharkVault.sol\":2578:2844  function repay(uint256 _amount) external {... */\n    tag_5:\n      callvalue\n      dup1\n      iszero\n      tag_28\n      jumpi\n      0x00\n      dup1\n      revert\n    tag_28:\n      pop\n      tag_29\n      0x04\n      dup1\n      calldatasize\n      sub\n      dup2\n      add\n      swap1\n      tag_30\n      swap2\n      swap1\n      tag_31\n      jump\t// in\n    tag_30:\n      tag_32\n      jump\t// in\n    tag_29:\n      stop\n        /* \"Node-Guardian_Cream_Rkt/Src/Contracts/SharkVault.sol\":194:243  uint256 constant public INTEREST_RATE_PERCENT = 1 */\n    tag_6:\n      callvalue\n      dup1\n      iszero\n      tag_33\n      jumpi\n      0x00\n      dup1\n      revert\n    tag_33:\n      pop\n      tag_34\n      tag_35\n      jump\t// in\n    tag_34:\n      mload(0x40)\n      tag_36\n      swap2\n      swap1\n      tag_37\n      jump\t// in\n    tag_36:\n      mload(0x40)\n      dup1\n      swap2\n      sub\n      swap1\n      return\n        /* \"Node-Guardian_Cream_Rkt/Src/Contracts/SharkVault.sol\":797:979  function depositGold(uint256 _amount) external payable {... */\n    tag_7:\n      tag_38\n      0x04\n      dup1\n      calldatasize\n      sub\n      dup2\n      add\n      swap1\n      tag_39\n      swap2\n      swap1\n      tag_31\n      jump\t// in\n    tag_39:\n      tag_40\n      jump\t// in\n    tag_38:\n      stop\n        /* \"Node-Guardian_Cream_Rkt/Src/Contracts/SharkVault.sol\":1181:1523  function withdrawGold(uint256 _amount) external payable {... */\n    tag_8:\n      tag_41\n      0x04\n      dup1\n      calldatasize\n      sub\n      dup2\n      add\n      swap1\n      tag_42\n      swap2\n      swap1\n      tag_31\n      jump\t// in\n    tag_42:\n      tag_43\n      jump\t// in\n    tag_41:\n      stop\n        /* \"Node-Guardian_Cream_Rkt/Src/Contracts/SharkVault.sol\":1725:2405  function borrow(uint256 _amount) external {... */\n    tag_9:\n      callvalue\n      dup1\n      iszero\n      tag_44\n      jumpi\n      0x00\n      dup1\n      revert\n    tag_44:\n      pop\n      tag_45\n      0x04\n      dup1\n      calldatasize\n      sub\n      dup2\n      add\n      swap1\n      tag_46\n      swap2\n      swap1\n      tag_31\n      jump\t// in\n    tag_46:\n      tag_47\n      jump\t// in\n    tag_45:\n      stop\n        /* \"Node-Guardian_Cream_Rkt/Src/Contracts/SharkVault.sol\":250:278  IERC20 immutable public gold */\n    tag_10:\n      callvalue\n      dup1\n      iszero\n      tag_48\n      jumpi\n      0x00\n      dup1\n      revert\n    tag_48:\n      pop\n      tag_49\n      tag_50\n      jump\t// in\n    tag_49:\n      mload(0x40)\n      tag_51\n      swap2\n      swap1\n      tag_23\n      jump\t// in\n    tag_51:\n      mload(0x40)\n      dup1\n      swap2\n      sub\n      swap1\n      return\n        /* \"Node-Guardian_Cream_Rkt/Src/Contracts/SharkVault.sol\":3432:4021  function updatedAccount(... */\n    tag_16:\n        /* \"Node-Guardian_Cream_Rkt/Src/Contracts/SharkVault.sol\":3514:3540  LoanAccount memory account */\n      tag_52\n      tag_53\n      jump\t// in\n    tag_52:\n        /* \"Node-Guardian_Cream_Rkt/Src/Contracts/SharkVault.sol\":3563:3571  accounts */\n      0x00\n        /* \"Node-Guardian_Cream_Rkt/Src/Contracts/SharkVault.sol\":3563:3586  accounts[_accountOwner] */\n      dup1\n        /* \"Node-Guardian_Cream_Rkt/Src/Contracts/SharkVault.sol\":3572:3585  _accountOwner */\n      dup4\n        /* \"Node-Guardian_Cream_Rkt/Src/Contracts/SharkVault.sol\":3563:3586  accounts[_accountOwner] */\n      0xffffffffffffffffffffffffffffffffffffffff\n      and\n      0xffffffffffffffffffffffffffffffffffffffff\n      and\n      dup2\n      mstore\n      0x20\n      add\n      swap1\n      dup2\n      mstore\n      0x20\n      add\n      0x00\n      keccak256\n        /* \"Node-Guardian_Cream_Rkt/Src/Contracts/SharkVault.sol\":3553:3586  account = accounts[_accountOwner] */\n      mload(0x40)\n      dup1\n      0x60\n      add\n      0x40\n      mstore\n      swap1\n      dup2\n      0x00\n      dup3\n      add\n      sload\n      dup2\n      mstore\n      0x20\n      add\n      0x01\n      dup3\n      add\n      sload\n      dup2\n      mstore\n      0x20\n      add\n      0x02\n      dup3\n      add\n      sload\n      dup2\n      mstore\n      pop\n      pop\n      swap1\n      pop\n        /* \"Node-Guardian_Cream_Rkt/Src/Contracts/SharkVault.sol\":3627:3628  0 */\n      0x00\n        /* \"Node-Guardian_Cream_Rkt/Src/Contracts/SharkVault.sol\":3601:3608  account */\n      dup2\n        /* \"Node-Guardian_Cream_Rkt/Src/Contracts/SharkVault.sol\":3601:3624  account.borrowedSeagold */\n      0x20\n      add\n      mload\n        /* \"Node-Guardian_Cream_Rkt/Src/Contracts/SharkVault.sol\":3601:3628  account.borrowedSeagold > 0 */\n      gt\n        /* \"Node-Guardian_Cream_Rkt/Src/Contracts/SharkVault.sol\":3597:3971  if (account.borrowedSeagold > 0) {... */\n      iszero\n      tag_55\n      jumpi\n        /* \"Node-Guardian_Cream_Rkt/Src/Contracts/SharkVault.sol\":3644:3662  uint256 blockDelta */\n      0x00\n        /* \"Node-Guardian_Cream_Rkt/Src/Contracts/SharkVault.sol\":3680:3687  account */\n      dup2\n        /* \"Node-Guardian_Cream_Rkt/Src/Contracts/SharkVault.sol\":3680:3697  account.lastBlock */\n      0x40\n      add\n      mload\n        /* \"Node-Guardian_Cream_Rkt/Src/Contracts/SharkVault.sol\":3665:3677  block.number */\n      number\n        /* \"Node-Guardian_Cream_Rkt/Src/Contracts/SharkVault.sol\":3665:3697  block.number - account.lastBlock */\n      tag_56\n      swap2\n      swap1\n      tag_57\n      jump\t// in\n    tag_56:\n        /* \"Node-Guardian_Cream_Rkt/Src/Contracts/SharkVault.sol\":3644:3697  uint256 blockDelta = block.number - account.lastBlock */\n      swap1\n      pop\n        /* \"Node-Guardian_Cream_Rkt/Src/Contracts/SharkVault.sol\":3711:3727  uint256 interest */\n      0x00\n        /* \"Node-Guardian_Cream_Rkt/Src/Contracts/SharkVault.sol\":3810:3813  100 */\n      0x64\n        /* \"Node-Guardian_Cream_Rkt/Src/Contracts/SharkVault.sol\":242:243  1 */\n      0x01\n        /* \"Node-Guardian_Cream_Rkt/Src/Contracts/SharkVault.sol\":3756:3766  blockDelta */\n      dup4\n        /* \"Node-Guardian_Cream_Rkt/Src/Contracts/SharkVault.sol\":3730:3737  account */\n      dup6\n        /* \"Node-Guardian_Cream_Rkt/Src/Contracts/SharkVault.sol\":3730:3753  account.borrowedSeagold */\n      0x20\n      add\n      mload\n        /* \"Node-Guardian_Cream_Rkt/Src/Contracts/SharkVault.sol\":3730:3766  account.borrowedSeagold * blockDelta */\n      tag_58\n      swap2\n      swap1\n      tag_59\n      jump\t// in\n    tag_58:\n        /* \"Node-Guardian_Cream_Rkt/Src/Contracts/SharkVault.sol\":3730:3807  account.borrowedSeagold * blockDelta ... */\n      tag_60\n      swap2\n      swap1\n      tag_59\n      jump\t// in\n    tag_60:\n        /* \"Node-Guardian_Cream_Rkt/Src/Contracts/SharkVault.sol\":3730:3813  account.borrowedSeagold * blockDelta ... */\n      tag_61\n      swap2\n      swap1\n      tag_62\n      jump\t// in\n    tag_61:\n        /* \"Node-Guardian_Cream_Rkt/Src/Contracts/SharkVault.sol\":3711:3813  uint256 interest = account.borrowedSeagold * blockDelta ... */\n      swap1\n      pop\n        /* \"Node-Guardian_Cream_Rkt/Src/Contracts/SharkVault.sol\":3878:3886  interest */\n      dup1\n        /* \"Node-Guardian_Cream_Rkt/Src/Contracts/SharkVault.sol\":3853:3860  account */\n      dup4\n        /* \"Node-Guardian_Cream_Rkt/Src/Contracts/SharkVault.sol\":3853:3874  account.depositedGold */\n      0x00\n      add\n      mload\n        /* \"Node-Guardian_Cream_Rkt/Src/Contracts/SharkVault.sol\":3853:3886  account.depositedGold >= interest */\n      lt\n      iszero\n        /* \"Node-Guardian_Cream_Rkt/Src/Contracts/SharkVault.sol\":3852:3960  (account.depositedGold >= interest) ... */\n      tag_63\n      jumpi\n        /* \"Node-Guardian_Cream_Rkt/Src/Contracts/SharkVault.sol\":3959:3960  0 */\n      0x00\n        /* \"Node-Guardian_Cream_Rkt/Src/Contracts/SharkVault.sol\":3852:3960  (account.depositedGold >= interest) ... */\n      jump(tag_64)\n    tag_63:\n        /* \"Node-Guardian_Cream_Rkt/Src/Contracts/SharkVault.sol\":3931:3939  interest */\n      dup1\n        /* \"Node-Guardian_Cream_Rkt/Src/Contracts/SharkVault.sol\":3907:3914  account */\n      dup4\n        /* \"Node-Guardian_Cream_Rkt/Src/Contracts/SharkVault.sol\":3907:3928  account.depositedGold */\n      0x00\n      add\n      mload\n        /* \"Node-Guardian_Cream_Rkt/Src/Contracts/SharkVault.sol\":3907:3939  account.depositedGold - interest */\n      tag_65\n      swap2\n      swap1\n      tag_57\n      jump\t// in\n    tag_65:\n        /* \"Node-Guardian_Cream_Rkt/Src/Contracts/SharkVault.sol\":3852:3960  (account.depositedGold >= interest) ... */\n    tag_64:\n        /* \"Node-Guardian_Cream_Rkt/Src/Contracts/SharkVault.sol\":3828:3835  account */\n      dup4\n        /* \"Node-Guardian_Cream_Rkt/Src/Contracts/SharkVault.sol\":3828:3849  account.depositedGold */\n      0x00\n      add\n        /* \"Node-Guardian_Cream_Rkt/Src/Contracts/SharkVault.sol\":3828:3960  account.depositedGold = (account.depositedGold >= interest) ... */\n      dup2\n      dup2\n      mstore\n      pop\n      pop\n        /* \"Node-Guardian_Cream_Rkt/Src/Contracts/SharkVault.sol\":3630:3971  {... */\n      pop\n      pop\n        /* \"Node-Guardian_Cream_Rkt/Src/Contracts/SharkVault.sol\":3597:3971  if (account.borrowedSeagold > 0) {... */\n    tag_55:\n        /* \"Node-Guardian_Cream_Rkt/Src/Contracts/SharkVault.sol\":4001:4013  block.number */\n      number\n        /* \"Node-Guardian_Cream_Rkt/Src/Contracts/SharkVault.sol\":3981:3988  account */\n      dup2\n        /* \"Node-Guardian_Cream_Rkt/Src/Contracts/SharkVault.sol\":3981:3998  account.lastBlock */\n      0x40\n      add\n        /* \"Node-Guardian_Cream_Rkt/Src/Contracts/SharkVault.sol\":3981:4013  account.lastBlock = block.number */\n      dup2\n      dup2\n      mstore\n      pop\n      pop\n        /* \"Node-Guardian_Cream_Rkt/Src/Contracts/SharkVault.sol\":3432:4021  function updatedAccount(... */\n      swap2\n      swap1\n      pop\n      jump\t// out\n        /* \"Node-Guardian_Cream_Rkt/Src/Contracts/SharkVault.sol\":284:315  IERC20 immutable public seagold */\n    tag_21:\n      immutable(\"0x4d9fac5dc90d70d79ceac3589bb998755cf60ab2ff110225b2bffe4b0c0e4742\")\n      dup2\n      jump\t// out\n        /* \"Node-Guardian_Cream_Rkt/Src/Contracts/SharkVault.sol\":3039:3293  function liquidate(address _borrower) external {... */\n    tag_27:\n        /* \"Node-Guardian_Cream_Rkt/Src/Contracts/SharkVault.sol\":3097:3131  LoanAccount memory borrowerAccount */\n      0x00\n        /* \"Node-Guardian_Cream_Rkt/Src/Contracts/SharkVault.sol\":3134:3159  updatedAccount(_borrower) */\n      tag_67\n        /* \"Node-Guardian_Cream_Rkt/Src/Contracts/SharkVault.sol\":3149:3158  _borrower */\n      dup3\n        /* \"Node-Guardian_Cream_Rkt/Src/Contracts/SharkVault.sol\":3134:3148  updatedAccount */\n      tag_16\n        /* \"Node-Guardian_Cream_Rkt/Src/Contracts/SharkVault.sol\":3134:3159  updatedAccount(_borrower) */\n      jump\t// in\n    tag_67:\n        /* \"Node-Guardian_Cream_Rkt/Src/Contracts/SharkVault.sol\":3097:3159  LoanAccount memory borrowerAccount = updatedAccount(_borrower) */\n      swap1\n      pop\n        /* \"Node-Guardian_Cream_Rkt/Src/Contracts/SharkVault.sol\":3179:3216  _hasEnoughCollateral(borrowerAccount) */\n      tag_68\n        /* \"Node-Guardian_Cream_Rkt/Src/Contracts/SharkVault.sol\":3200:3215  borrowerAccount */\n      dup2\n        /* \"Node-Guardian_Cream_Rkt/Src/Contracts/SharkVault.sol\":3179:3199  _hasEnoughCollateral */\n      tag_69\n        /* \"Node-Guardian_Cream_Rkt/Src/Contracts/SharkVault.sol\":3179:3216  _hasEnoughCollateral(borrowerAccount) */\n      jump\t// in\n    tag_68:\n        /* \"Node-Guardian_Cream_Rkt/Src/Contracts/SharkVault.sol\":3178:3216  !_hasEnoughCollateral(borrowerAccount) */\n      iszero\n        /* \"Node-Guardian_Cream_Rkt/Src/Contracts/SharkVault.sol\":3170:3249  require(!_hasEnoughCollateral(borrowerAccount), \"Borrower has good collateral\") */\n      tag_70\n      jumpi\n      mload(0x40)\n      0x08c379a000000000000000000000000000000000000000000000000000000000\n      dup2\n      mstore\n      0x04\n      add\n      tag_71\n      swap1\n      tag_72\n      jump\t// in\n    tag_71:\n      mload(0x40)\n      dup1\n      swap2\n      sub\n      swap1\n      revert\n    tag_70:\n        /* \"Node-Guardian_Cream_Rkt/Src/Contracts/SharkVault.sol\":3266:3274  accounts */\n      0x00\n        /* \"Node-Guardian_Cream_Rkt/Src/Contracts/SharkVault.sol\":3266:3285  accounts[_borrower] */\n      dup1\n        /* \"Node-Guardian_Cream_Rkt/Src/Contracts/SharkVault.sol\":3275:3284  _borrower */\n      dup4\n        /* \"Node-Guardian_Cream_Rkt/Src/Contracts/SharkVault.sol\":3266:3285  accounts[_borrower] */\n      0xffffffffffffffffffffffffffffffffffffffff\n      and\n      0xffffffffffffffffffffffffffffffffffffffff\n      and\n      dup2\n      mstore\n      0x20\n      add\n      swap1\n      dup2\n      mstore\n      0x20\n      add\n      0x00\n      keccak256\n      0x00\n        /* \"Node-Guardian_Cream_Rkt/Src/Contracts/SharkVault.sol\":3259:3285  delete accounts[_borrower] */\n      dup1\n      dup3\n      add\n      0x00\n      swap1\n      sstore\n      0x01\n      dup3\n      add\n      0x00\n      swap1\n      sstore\n      0x02\n      dup3\n      add\n      0x00\n      swap1\n      sstore\n      pop\n      pop\n        /* \"Node-Guardian_Cream_Rkt/Src/Contracts/SharkVault.sol\":3086:3293  {... */\n      pop\n        /* \"Node-Guardian_Cream_Rkt/Src/Contracts/SharkVault.sol\":3039:3293  function liquidate(address _borrower) external {... */\n      pop\n      jump\t// out\n        /* \"Node-Guardian_Cream_Rkt/Src/Contracts/SharkVault.sol\":2578:2844  function repay(uint256 _amount) external {... */\n    tag_32:\n        /* \"Node-Guardian_Cream_Rkt/Src/Contracts/SharkVault.sol\":2630:2656  LoanAccount memory account */\n      0x00\n        /* \"Node-Guardian_Cream_Rkt/Src/Contracts/SharkVault.sol\":2659:2685  updatedAccount(msg.sender) */\n      tag_74\n        /* \"Node-Guardian_Cream_Rkt/Src/Contracts/SharkVault.sol\":2674:2684  msg.sender */\n      caller\n        /* \"Node-Guardian_Cream_Rkt/Src/Contracts/SharkVault.sol\":2659:2673  updatedAccount */\n      tag_16\n        /* \"Node-Guardian_Cream_Rkt/Src/Contracts/SharkVault.sol\":2659:2685  updatedAccount(msg.sender) */\n      jump\t// in\n    tag_74:\n        /* \"Node-Guardian_Cream_Rkt/Src/Contracts/SharkVault.sol\":2630:2685  LoanAccount memory account = updatedAccount(msg.sender) */\n      swap1\n      pop\n        /* \"Node-Guardian_Cream_Rkt/Src/Contracts/SharkVault.sol\":2722:2729  _amount */\n      dup2\n        /* \"Node-Guardian_Cream_Rkt/Src/Contracts/SharkVault.sol\":2695:2702  account */\n      dup2\n        /* \"Node-Guardian_Cream_Rkt/Src/Contracts/SharkVault.sol\":2695:2718  account.borrowedSeagold */\n      0x20\n      add\n        /* \"Node-Guardian_Cream_Rkt/Src/Contracts/SharkVault.sol\":2695:2729  account.borrowedSeagold -= _amount */\n      dup2\n      dup2\n      mload\n      tag_75\n      swap2\n      swap1\n      tag_57\n      jump\t// in\n    tag_75:\n      swap2\n      pop\n      dup2\n      dup2\n      mstore\n      pop\n      pop\n        /* \"Node-Guardian_Cream_Rkt/Src/Contracts/SharkVault.sol\":2762:2769  account */\n      dup1\n        /* \"Node-Guardian_Cream_Rkt/Src/Contracts/SharkVault.sol\":2739:2747  accounts */\n      0x00\n        /* \"Node-Guardian_Cream_Rkt/Src/Contracts/SharkVault.sol\":2739:2759  accounts[msg.sender] */\n      dup1\n        /* \"Node-Guardian_Cream_Rkt/Src/Contracts/SharkVault.sol\":2748:2758  msg.sender */\n      caller\n        /* \"Node-Guardian_Cream_Rkt/Src/Contracts/SharkVault.sol\":2739:2759  accounts[msg.sender] */\n      0xffffffffffffffffffffffffffffffffffffffff\n      and\n      0xffffffffffffffffffffffffffffffffffffffff\n      and\n      dup2\n      mstore\n      0x20\n      add\n      swap1\n      dup2\n      mstore\n      0x20\n      add\n      0x00\n      keccak256\n        /* \"Node-Guardian_Cream_Rkt/Src/Contracts/SharkVault.sol\":2739:2769  accounts[msg.sender] = account */\n      0x00\n      dup3\n      add\n      mload\n      dup2\n      0x00\n      add\n      sstore\n      0x20\n      dup3\n      add\n      mload\n      dup2\n      0x01\n      add\n      sstore\n      0x40\n      dup3\n      add\n      mload\n      dup2\n      0x02\n      add\n      sstore\n      swap1\n      pop\n      pop\n        /* \"Node-Guardian_Cream_Rkt/Src/Contracts/SharkVault.sol\":2780:2787  seagold */\n      immutable(\"0x4d9fac5dc90d70d79ceac3589bb998755cf60ab2ff110225b2bffe4b0c0e4742\")\n        /* \"Node-Guardian_Cream_Rkt/Src/Contracts/SharkVault.sol\":2780:2800  seagold.transferFrom */\n      0xffffffffffffffffffffffffffffffffffffffff\n      and\n      0x23b872dd\n        /* \"Node-Guardian_Cream_Rkt/Src/Contracts/SharkVault.sol\":2801:2811  msg.sender */\n      caller\n        /* \"Node-Guardian_Cream_Rkt/Src/Contracts/SharkVault.sol\":2821:2825  this */\n      address\n        /* \"Node-Guardian_Cream_Rkt/Src/Contracts/SharkVault.sol\":2828:2835  _amount */\n      dup6\n        /* \"Node-Guardian_Cream_Rkt/Src/Contracts/SharkVault.sol\":2780:2836  seagold.transferFrom(msg.sender, address(this), _amount) */\n      mload(0x40)\n      dup5\n      0xffffffff\n      and\n      0xe0\n      shl\n      dup2\n      mstore\n      0x04\n      add\n      tag_76\n      swap4\n      swap3\n      swap2\n      swap1\n      tag_77\n      jump\t// in\n    tag_76:\n      0x20\n      mload(0x40)\n      dup1\n      dup4\n      sub\n      dup2\n      0x00\n      dup8\n      gas\n      call\n      iszero\n      dup1\n      iszero\n      tag_79\n      jumpi\n      returndatasize\n      0x00\n      dup1\n      returndatacopy\n      revert(0x00, returndatasize)\n    tag_79:\n      pop\n      pop\n      pop\n      pop\n      mload(0x40)\n      returndatasize\n      not(0x1f)\n      0x1f\n      dup3\n      add\n      and\n      dup3\n      add\n      dup1\n      0x40\n      mstore\n      pop\n      dup2\n      add\n      swap1\n      tag_80\n      swap2\n      swap1\n      tag_81\n      jump\t// in\n    tag_80:\n      pop\n        /* \"Node-Guardian_Cream_Rkt/Src/Contracts/SharkVault.sol\":2619:2844  {... */\n      pop\n        /* \"Node-Guardian_Cream_Rkt/Src/Contracts/SharkVault.sol\":2578:2844  function repay(uint256 _amount) external {... */\n      pop\n      jump\t// out\n        /* \"Node-Guardian_Cream_Rkt/Src/Contracts/SharkVault.sol\":194:243  uint256 constant public INTEREST_RATE_PERCENT = 1 */\n    tag_35:\n        /* \"Node-Guardian_Cream_Rkt/Src/Contracts/SharkVault.sol\":242:243  1 */\n      0x01\n        /* \"Node-Guardian_Cream_Rkt/Src/Contracts/SharkVault.sol\":194:243  uint256 constant public INTEREST_RATE_PERCENT = 1 */\n      dup2\n      jump\t// out\n        /* \"Node-Guardian_Cream_Rkt/Src/Contracts/SharkVault.sol\":797:979  function depositGold(uint256 _amount) external payable {... */\n    tag_40:\n        /* \"Node-Guardian_Cream_Rkt/Src/Contracts/SharkVault.sol\":901:908  _amount */\n      dup1\n        /* \"Node-Guardian_Cream_Rkt/Src/Contracts/SharkVault.sol\":863:871  accounts */\n      0x00\n        /* \"Node-Guardian_Cream_Rkt/Src/Contracts/SharkVault.sol\":863:883  accounts[msg.sender] */\n      dup1\n        /* \"Node-Guardian_Cream_Rkt/Src/Contracts/SharkVault.sol\":872:882  msg.sender */\n      caller\n        /* \"Node-Guardian_Cream_Rkt/Src/Contracts/SharkVault.sol\":863:883  accounts[msg.sender] */\n      0xffffffffffffffffffffffffffffffffffffffff\n      and\n      0xffffffffffffffffffffffffffffffffffffffff\n      and\n      dup2\n      mstore\n      0x20\n      add\n      swap1\n      dup2\n      mstore\n      0x20\n      add\n      0x00\n      keccak256\n        /* \"Node-Guardian_Cream_Rkt/Src/Contracts/SharkVault.sol\":863:897  accounts[msg.sender].depositedGold */\n      0x00\n      add\n      0x00\n        /* \"Node-Guardian_Cream_Rkt/Src/Contracts/SharkVault.sol\":863:908  accounts[msg.sender].depositedGold += _amount */\n      dup3\n      dup3\n      sload\n      tag_83\n      swap2\n      swap1\n      tag_84\n      jump\t// in\n    tag_83:\n      swap3\n      pop\n      pop\n      dup2\n      swap1\n      sstore\n      pop\n        /* \"Node-Guardian_Cream_Rkt/Src/Contracts/SharkVault.sol\":918:922  gold */\n      immutable(\"0xac8a4843910b5569f3915173c70dbcbb8947a9742ff1536cccc8b4f26cbdef89\")\n        /* \"Node-Guardian_Cream_Rkt/Src/Contracts/SharkVault.sol\":918:935  gold.transferFrom */\n      0xffffffffffffffffffffffffffffffffffffffff\n      and\n      0x23b872dd\n        /* \"Node-Guardian_Cream_Rkt/Src/Contracts/SharkVault.sol\":936:946  msg.sender */\n      caller\n        /* \"Node-Guardian_Cream_Rkt/Src/Contracts/SharkVault.sol\":956:960  this */\n      address\n        /* \"Node-Guardian_Cream_Rkt/Src/Contracts/SharkVault.sol\":963:970  _amount */\n      dup5\n        /* \"Node-Guardian_Cream_Rkt/Src/Contracts/SharkVault.sol\":918:971  gold.transferFrom(msg.sender, address(this), _amount) */\n      mload(0x40)\n      dup5\n      0xffffffff\n      and\n      0xe0\n      shl\n      dup2\n      mstore\n      0x04\n      add\n      tag_85\n      swap4\n      swap3\n      swap2\n      swap1\n      tag_77\n      jump\t// in\n    tag_85:\n      0x20\n      mload(0x40)\n      dup1\n      dup4\n      sub\n      dup2\n      0x00\n      dup8\n      gas\n      call\n      iszero\n      dup1\n      iszero\n      tag_87\n      jumpi\n      returndatasize\n      0x00\n      dup1\n      returndatacopy\n      revert(0x00, returndatasize)\n    tag_87:\n      pop\n      pop\n      pop\n      pop\n      mload(0x40)\n      returndatasize\n      not(0x1f)\n      0x1f\n      dup3\n      add\n      and\n      dup3\n      add\n      dup1\n      0x40\n      mstore\n      pop\n      dup2\n      add\n      swap1\n      tag_88\n      swap2\n      swap1\n      tag_81\n      jump\t// in\n    tag_88:\n      pop\n        /* \"Node-Guardian_Cream_Rkt/Src/Contracts/SharkVault.sol\":797:979  function depositGold(uint256 _amount) external payable {... */\n      pop\n      jump\t// out\n        /* \"Node-Guardian_Cream_Rkt/Src/Contracts/SharkVault.sol\":1181:1523  function withdrawGold(uint256 _amount) external payable {... */\n    tag_43:\n        /* \"Node-Guardian_Cream_Rkt/Src/Contracts/SharkVault.sol\":1248:1274  LoanAccount memory account */\n      0x00\n        /* \"Node-Guardian_Cream_Rkt/Src/Contracts/SharkVault.sol\":1277:1303  updatedAccount(msg.sender) */\n      tag_90\n        /* \"Node-Guardian_Cream_Rkt/Src/Contracts/SharkVault.sol\":1292:1302  msg.sender */\n      caller\n        /* \"Node-Guardian_Cream_Rkt/Src/Contracts/SharkVault.sol\":1277:1291  updatedAccount */\n      tag_16\n        /* \"Node-Guardian_Cream_Rkt/Src/Contracts/SharkVault.sol\":1277:1303  updatedAccount(msg.sender) */\n      jump\t// in\n    tag_90:\n        /* \"Node-Guardian_Cream_Rkt/Src/Contracts/SharkVault.sol\":1248:1303  LoanAccount memory account = updatedAccount(msg.sender) */\n      swap1\n      pop\n        /* \"Node-Guardian_Cream_Rkt/Src/Contracts/SharkVault.sol\":1338:1345  _amount */\n      dup2\n        /* \"Node-Guardian_Cream_Rkt/Src/Contracts/SharkVault.sol\":1313:1320  account */\n      dup2\n        /* \"Node-Guardian_Cream_Rkt/Src/Contracts/SharkVault.sol\":1313:1334  account.depositedGold */\n      0x00\n      add\n        /* \"Node-Guardian_Cream_Rkt/Src/Contracts/SharkVault.sol\":1313:1345  account.depositedGold -= _amount */\n      dup2\n      dup2\n      mload\n      tag_91\n      swap2\n      swap1\n      tag_57\n      jump\t// in\n    tag_91:\n      swap2\n      pop\n      dup2\n      dup2\n      mstore\n      pop\n      pop\n        /* \"Node-Guardian_Cream_Rkt/Src/Contracts/SharkVault.sol\":1364:1393  _hasEnoughCollateral(account) */\n      tag_92\n        /* \"Node-Guardian_Cream_Rkt/Src/Contracts/SharkVault.sol\":1385:1392  account */\n      dup2\n        /* \"Node-Guardian_Cream_Rkt/Src/Contracts/SharkVault.sol\":1364:1384  _hasEnoughCollateral */\n      tag_69\n        /* \"Node-Guardian_Cream_Rkt/Src/Contracts/SharkVault.sol\":1364:1393  _hasEnoughCollateral(account) */\n      jump\t// in\n    tag_92:\n        /* \"Node-Guardian_Cream_Rkt/Src/Contracts/SharkVault.sol\":1356:1430  require(_hasEnoughCollateral(account), \"Undercollateralized $SEAGLD loan\") */\n      tag_93\n      jumpi\n      mload(0x40)\n      0x08c379a000000000000000000000000000000000000000000000000000000000\n      dup2\n      mstore\n      0x04\n      add\n      tag_94\n      swap1\n      tag_95\n      jump\t// in\n    tag_94:\n      mload(0x40)\n      dup1\n      swap2\n      sub\n      swap1\n      revert\n    tag_93:\n        /* \"Node-Guardian_Cream_Rkt/Src/Contracts/SharkVault.sol\":1463:1470  account */\n      dup1\n        /* \"Node-Guardian_Cream_Rkt/Src/Contracts/SharkVault.sol\":1440:1448  accounts */\n      0x00\n        /* \"Node-Guardian_Cream_Rkt/Src/Contracts/SharkVault.sol\":1440:1460  accounts[msg.sender] */\n      dup1\n        /* \"Node-Guardian_Cream_Rkt/Src/Contracts/SharkVault.sol\":1449:1459  msg.sender */\n      caller\n        /* \"Node-Guardian_Cream_Rkt/Src/Contracts/SharkVault.sol\":1440:1460  accounts[msg.sender] */\n      0xffffffffffffffffffffffffffffffffffffffff\n      and\n      0xffffffffffffffffffffffffffffffffffffffff\n      and\n      dup2\n      mstore\n      0x20\n      add\n      swap1\n      dup2\n      mstore\n      0x20\n      add\n      0x00\n      keccak256\n        /* \"Node-Guardian_Cream_Rkt/Src/Contracts/SharkVault.sol\":1440:1470  accounts[msg.sender] = account */\n      0x00\n      dup3\n      add\n      mload\n      dup2\n      0x00\n      add\n      sstore\n      0x20\n      dup3\n      add\n      mload\n      dup2\n      0x01\n      add\n      sstore\n      0x40\n      dup3\n      add\n      mload\n      dup2\n      0x02\n      add\n      sstore\n      swap1\n      pop\n      pop\n        /* \"Node-Guardian_Cream_Rkt/Src/Contracts/SharkVault.sol\":1481:1485  gold */\n      immutable(\"0xac8a4843910b5569f3915173c70dbcbb8947a9742ff1536cccc8b4f26cbdef89\")\n        /* \"Node-Guardian_Cream_Rkt/Src/Contracts/SharkVault.sol\":1481:1494  gold.transfer */\n      0xffffffffffffffffffffffffffffffffffffffff\n      and\n      0xa9059cbb\n        /* \"Node-Guardian_Cream_Rkt/Src/Contracts/SharkVault.sol\":1495:1505  msg.sender */\n      caller\n        /* \"Node-Guardian_Cream_Rkt/Src/Contracts/SharkVault.sol\":1507:1514  _amount */\n      dup5\n        /* \"Node-Guardian_Cream_Rkt/Src/Contracts/SharkVault.sol\":1481:1515  gold.transfer(msg.sender, _amount) */\n      mload(0x40)\n      dup4\n      0xffffffff\n      and\n      0xe0\n      shl\n      dup2\n      mstore\n      0x04\n      add\n      tag_96\n      swap3\n      swap2\n      swap1\n      tag_97\n      jump\t// in\n    tag_96:\n      0x20\n      mload(0x40)\n      dup1\n      dup4\n      sub\n      dup2\n      0x00\n      dup8\n      gas\n      call\n      iszero\n      dup1\n      iszero\n      tag_99\n      jumpi\n      returndatasize\n      0x00\n      dup1\n      returndatacopy\n      revert(0x00, returndatasize)\n    tag_99:\n      pop\n      pop\n      pop\n      pop\n      mload(0x40)\n      returndatasize\n      not(0x1f)\n      0x1f\n      dup3\n      add\n      and\n      dup3\n      add\n      dup1\n      0x40\n      mstore\n      pop\n      dup2\n      add\n      swap1\n      tag_100\n      swap2\n      swap1\n      tag_81\n      jump\t// in\n    tag_100:\n      pop\n        /* \"Node-Guardian_Cream_Rkt/Src/Contracts/SharkVault.sol\":1237:1523  {... */\n      pop\n        /* \"Node-Guardian_Cream_Rkt/Src/Contracts/SharkVault.sol\":1181:1523  function withdrawGold(uint256 _amount) external payable {... */\n      pop\n      jump\t// out\n        /* \"Node-Guardian_Cream_Rkt/Src/Contracts/SharkVault.sol\":1725:2405  function borrow(uint256 _amount) external {... */\n    tag_47:\n        /* \"Node-Guardian_Cream_Rkt/Src/Contracts/SharkVault.sol\":1778:1812  LoanAccount memory borrowerAccount */\n      0x00\n        /* \"Node-Guardian_Cream_Rkt/Src/Contracts/SharkVault.sol\":1815:1841  updatedAccount(msg.sender) */\n      tag_102\n        /* \"Node-Guardian_Cream_Rkt/Src/Contracts/SharkVault.sol\":1830:1840  msg.sender */\n      caller\n        /* \"Node-Guardian_Cream_Rkt/Src/Contracts/SharkVault.sol\":1815:1829  updatedAccount */\n      tag_16\n        /* \"Node-Guardian_Cream_Rkt/Src/Contracts/SharkVault.sol\":1815:1841  updatedAccount(msg.sender) */\n      jump\t// in\n    tag_102:\n        /* \"Node-Guardian_Cream_Rkt/Src/Contracts/SharkVault.sol\":1778:1841  LoanAccount memory borrowerAccount = updatedAccount(msg.sender) */\n      swap1\n      pop\n        /* \"Node-Guardian_Cream_Rkt/Src/Contracts/SharkVault.sol\":1886:1893  _amount */\n      dup2\n        /* \"Node-Guardian_Cream_Rkt/Src/Contracts/SharkVault.sol\":1851:1866  borrowerAccount */\n      dup2\n        /* \"Node-Guardian_Cream_Rkt/Src/Contracts/SharkVault.sol\":1851:1882  borrowerAccount.borrowedSeagold */\n      0x20\n      add\n        /* \"Node-Guardian_Cream_Rkt/Src/Contracts/SharkVault.sol\":1851:1893  borrowerAccount.borrowedSeagold += _amount */\n      dup2\n      dup2\n      mload\n      tag_103\n      swap2\n      swap1\n      tag_84\n      jump\t// in\n    tag_103:\n      swap2\n      pop\n      dup2\n      dup2\n      mstore\n      pop\n      pop\n        /* \"Node-Guardian_Cream_Rkt/Src/Contracts/SharkVault.sol\":1966:1988  uint256 seagoldBalance */\n      0x00\n        /* \"Node-Guardian_Cream_Rkt/Src/Contracts/SharkVault.sol\":1991:1998  seagold */\n      immutable(\"0x4d9fac5dc90d70d79ceac3589bb998755cf60ab2ff110225b2bffe4b0c0e4742\")\n        /* \"Node-Guardian_Cream_Rkt/Src/Contracts/SharkVault.sol\":1991:2008  seagold.balanceOf */\n      0xffffffffffffffffffffffffffffffffffffffff\n      and\n      0x70a08231\n        /* \"Node-Guardian_Cream_Rkt/Src/Contracts/SharkVault.sol\":2017:2021  this */\n      address\n        /* \"Node-Guardian_Cream_Rkt/Src/Contracts/SharkVault.sol\":1991:2023  seagold.balanceOf(address(this)) */\n      mload(0x40)\n      dup3\n      0xffffffff\n      and\n      0xe0\n      shl\n      dup2\n      mstore\n      0x04\n      add\n      tag_104\n      swap2\n      swap1\n      tag_105\n      jump\t// in\n    tag_104:\n      0x20\n      mload(0x40)\n      dup1\n      dup4\n      sub\n      dup2\n      dup7\n      gas\n      staticcall\n      iszero\n      dup1\n      iszero\n      tag_107\n      jumpi\n      returndatasize\n      0x00\n      dup1\n      returndatacopy\n      revert(0x00, returndatasize)\n    tag_107:\n      pop\n      pop\n      pop\n      pop\n      mload(0x40)\n      returndatasize\n      not(0x1f)\n      0x1f\n      dup3\n      add\n      and\n      dup3\n      add\n      dup1\n      0x40\n      mstore\n      pop\n      dup2\n      add\n      swap1\n      tag_108\n      swap2\n      swap1\n      tag_109\n      jump\t// in\n    tag_108:\n        /* \"Node-Guardian_Cream_Rkt/Src/Contracts/SharkVault.sol\":1966:2023  uint256 seagoldBalance = seagold.balanceOf(address(this)) */\n      swap1\n      pop\n        /* \"Node-Guardian_Cream_Rkt/Src/Contracts/SharkVault.sol\":2052:2066  seagoldBalance */\n      dup1\n        /* \"Node-Guardian_Cream_Rkt/Src/Contracts/SharkVault.sol\":2041:2048  _amount */\n      dup4\n        /* \"Node-Guardian_Cream_Rkt/Src/Contracts/SharkVault.sol\":2041:2066  _amount <= seagoldBalance */\n      gt\n      iszero\n        /* \"Node-Guardian_Cream_Rkt/Src/Contracts/SharkVault.sol\":2033:2099  require(_amount <= seagoldBalance, \"Insufficient $SEAGLD to lend\") */\n      tag_110\n      jumpi\n      mload(0x40)\n      0x08c379a000000000000000000000000000000000000000000000000000000000\n      dup2\n      mstore\n      0x04\n      add\n      tag_111\n      swap1\n      tag_112\n      jump\t// in\n    tag_111:\n      mload(0x40)\n      dup1\n      swap2\n      sub\n      swap1\n      revert\n    tag_110:\n        /* \"Node-Guardian_Cream_Rkt/Src/Contracts/SharkVault.sol\":2179:2216  _hasEnoughCollateral(borrowerAccount) */\n      tag_113\n        /* \"Node-Guardian_Cream_Rkt/Src/Contracts/SharkVault.sol\":2200:2215  borrowerAccount */\n      dup3\n        /* \"Node-Guardian_Cream_Rkt/Src/Contracts/SharkVault.sol\":2179:2199  _hasEnoughCollateral */\n      tag_69\n        /* \"Node-Guardian_Cream_Rkt/Src/Contracts/SharkVault.sol\":2179:2216  _hasEnoughCollateral(borrowerAccount) */\n      jump\t// in\n    tag_113:\n        /* \"Node-Guardian_Cream_Rkt/Src/Contracts/SharkVault.sol\":2171:2253  require(_hasEnoughCollateral(borrowerAccount), \"Undercollateralized $SEAGLD loan\") */\n      tag_114\n      jumpi\n      mload(0x40)\n      0x08c379a000000000000000000000000000000000000000000000000000000000\n      dup2\n      mstore\n      0x04\n      add\n      tag_115\n      swap1\n      tag_95\n      jump\t// in\n    tag_115:\n      mload(0x40)\n      dup1\n      swap2\n      sub\n      swap1\n      revert\n    tag_114:\n        /* \"Node-Guardian_Cream_Rkt/Src/Contracts/SharkVault.sol\":2312:2319  seagold */\n      immutable(\"0x4d9fac5dc90d70d79ceac3589bb998755cf60ab2ff110225b2bffe4b0c0e4742\")\n        /* \"Node-Guardian_Cream_Rkt/Src/Contracts/SharkVault.sol\":2312:2328  seagold.transfer */\n      0xffffffffffffffffffffffffffffffffffffffff\n      and\n      0xa9059cbb\n        /* \"Node-Guardian_Cream_Rkt/Src/Contracts/SharkVault.sol\":2329:2339  msg.sender */\n      caller\n        /* \"Node-Guardian_Cream_Rkt/Src/Contracts/SharkVault.sol\":2341:2348  _amount */\n      dup6\n        /* \"Node-Guardian_Cream_Rkt/Src/Contracts/SharkVault.sol\":2312:2349  seagold.transfer(msg.sender, _amount) */\n      mload(0x40)\n      dup4\n      0xffffffff\n      and\n      0xe0\n      shl\n      dup2\n      mstore\n      0x04\n      add\n      tag_116\n      swap3\n      swap2\n      swap1\n      tag_97\n      jump\t// in\n    tag_116:\n      0x20\n      mload(0x40)\n      dup1\n      dup4\n      sub\n      dup2\n      0x00\n      dup8\n      gas\n      call\n      iszero\n      dup1\n      iszero\n      tag_118\n      jumpi\n      returndatasize\n      0x00\n      dup1\n      returndatacopy\n      revert(0x00, returndatasize)\n    tag_118:\n      pop\n      pop\n      pop\n      pop\n      mload(0x40)\n      returndatasize\n      not(0x1f)\n      0x1f\n      dup3\n      add\n      and\n      dup3\n      add\n      dup1\n      0x40\n      mstore\n      pop\n      dup2\n      add\n      swap1\n      tag_119\n      swap2\n      swap1\n      tag_81\n      jump\t// in\n    tag_119:\n      pop\n        /* \"Node-Guardian_Cream_Rkt/Src/Contracts/SharkVault.sol\":2382:2397  borrowerAccount */\n      dup2\n        /* \"Node-Guardian_Cream_Rkt/Src/Contracts/SharkVault.sol\":2359:2367  accounts */\n      0x00\n        /* \"Node-Guardian_Cream_Rkt/Src/Contracts/SharkVault.sol\":2359:2379  accounts[msg.sender] */\n      dup1\n        /* \"Node-Guardian_Cream_Rkt/Src/Contracts/SharkVault.sol\":2368:2378  msg.sender */\n      caller\n        /* \"Node-Guardian_Cream_Rkt/Src/Contracts/SharkVault.sol\":2359:2379  accounts[msg.sender] */\n      0xffffffffffffffffffffffffffffffffffffffff\n      and\n      0xffffffffffffffffffffffffffffffffffffffff\n      and\n      dup2\n      mstore\n      0x20\n      add\n      swap1\n      dup2\n      mstore\n      0x20\n      add\n      0x00\n      keccak256\n        /* \"Node-Guardian_Cream_Rkt/Src/Contracts/SharkVault.sol\":2359:2397  accounts[msg.sender] = borrowerAccount */\n      0x00\n      dup3\n      add\n      mload\n      dup2\n      0x00\n      add\n      sstore\n      0x20\n      dup3\n      add\n      mload\n      dup2\n      0x01\n      add\n      sstore\n      0x40\n      dup3\n      add\n      mload\n      dup2\n      0x02\n      add\n      sstore\n      swap1\n      pop\n      pop\n        /* \"Node-Guardian_Cream_Rkt/Src/Contracts/SharkVault.sol\":1767:2405  {... */\n      pop\n      pop\n        /* \"Node-Guardian_Cream_Rkt/Src/Contracts/SharkVault.sol\":1725:2405  function borrow(uint256 _amount) external {... */\n      pop\n      jump\t// out\n        /* \"Node-Guardian_Cream_Rkt/Src/Contracts/SharkVault.sol\":250:278  IERC20 immutable public gold */\n    tag_50:\n      immutable(\"0xac8a4843910b5569f3915173c70dbcbb8947a9742ff1536cccc8b4f26cbdef89\")\n      dup2\n      jump\t// out\n        /* \"Node-Guardian_Cream_Rkt/Src/Contracts/SharkVault.sol\":4171:4352  function _hasEnoughCollateral(LoanAccount memory _account) private pure returns (bool) {... */\n    tag_69:\n        /* \"Node-Guardian_Cream_Rkt/Src/Contracts/SharkVault.sol\":4252:4256  bool */\n      0x00\n        /* \"Node-Guardian_Cream_Rkt/Src/Contracts/SharkVault.sol\":4311:4319  _account */\n      dup2\n        /* \"Node-Guardian_Cream_Rkt/Src/Contracts/SharkVault.sol\":4311:4335  _account.borrowedSeagold */\n      0x20\n      add\n      mload\n        /* \"Node-Guardian_Cream_Rkt/Src/Contracts/SharkVault.sol\":4307:4308  4 */\n      0x04\n        /* \"Node-Guardian_Cream_Rkt/Src/Contracts/SharkVault.sol\":4307:4335  4 * _account.borrowedSeagold */\n      tag_121\n      swap2\n      swap1\n      tag_59\n      jump\t// in\n    tag_121:\n        /* \"Node-Guardian_Cream_Rkt/Src/Contracts/SharkVault.sol\":4281:4289  _account */\n      dup3\n        /* \"Node-Guardian_Cream_Rkt/Src/Contracts/SharkVault.sol\":4281:4303  _account.depositedGold */\n      0x00\n      add\n      mload\n        /* \"Node-Guardian_Cream_Rkt/Src/Contracts/SharkVault.sol\":4277:4278  3 */\n      0x03\n        /* \"Node-Guardian_Cream_Rkt/Src/Contracts/SharkVault.sol\":4277:4303  3 * _account.depositedGold */\n      tag_122\n      swap2\n      swap1\n      tag_59\n      jump\t// in\n    tag_122:\n        /* \"Node-Guardian_Cream_Rkt/Src/Contracts/SharkVault.sol\":4277:4335  3 * _account.depositedGold >= 4 * _account.borrowedSeagold */\n      lt\n      iszero\n        /* \"Node-Guardian_Cream_Rkt/Src/Contracts/SharkVault.sol\":4269:4336  return (3 * _account.depositedGold >= 4 * _account.borrowedSeagold) */\n      swap1\n      pop\n        /* \"Node-Guardian_Cream_Rkt/Src/Contracts/SharkVault.sol\":4171:4352  function _hasEnoughCollateral(LoanAccount memory _account) private pure returns (bool) {... */\n      swap2\n      swap1\n      pop\n      jump\t// out\n    tag_53:\n      mload(0x40)\n      dup1\n      0x60\n      add\n      0x40\n      mstore\n      dup1\n      0x00\n      dup2\n      mstore\n      0x20\n      add\n      0x00\n      dup2\n      mstore\n      0x20\n      add\n      0x00\n      dup2\n      mstore\n      pop\n      swap1\n      jump\t// out\n        /* \"#utility.yul\":88:205   */\n    tag_124:\n        /* \"#utility.yul\":197:198   */\n      0x00\n        /* \"#utility.yul\":194:195   */\n      dup1\n        /* \"#utility.yul\":187:199   */\n      revert\n        /* \"#utility.yul\":334:460   */\n    tag_126:\n        /* \"#utility.yul\":371:378   */\n      0x00\n        /* \"#utility.yul\":411:453   */\n      0xffffffffffffffffffffffffffffffffffffffff\n        /* \"#utility.yul\":404:409   */\n      dup3\n        /* \"#utility.yul\":400:454   */\n      and\n        /* \"#utility.yul\":389:454   */\n      swap1\n      pop\n        /* \"#utility.yul\":334:460   */\n      swap2\n      swap1\n      pop\n      jump\t// out\n        /* \"#utility.yul\":466:562   */\n    tag_127:\n        /* \"#utility.yul\":503:510   */\n      0x00\n        /* \"#utility.yul\":532:556   */\n      tag_161\n        /* \"#utility.yul\":550:555   */\n      dup3\n        /* \"#utility.yul\":532:556   */\n      tag_126\n      jump\t// in\n    tag_161:\n        /* \"#utility.yul\":521:556   */\n      swap1\n      pop\n        /* \"#utility.yul\":466:562   */\n      swap2\n      swap1\n      pop\n      jump\t// out\n        /* \"#utility.yul\":568:690   */\n    tag_128:\n        /* \"#utility.yul\":641:665   */\n      tag_163\n        /* \"#utility.yul\":659:664   */\n      dup2\n        /* \"#utility.yul\":641:665   */\n      tag_127\n      jump\t// in\n    tag_163:\n        /* \"#utility.yul\":634:639   */\n      dup2\n        /* \"#utility.yul\":631:666   */\n      eq\n        /* \"#utility.yul\":621:684   */\n      tag_164\n      jumpi\n        /* \"#utility.yul\":680:681   */\n      0x00\n        /* \"#utility.yul\":677:678   */\n      dup1\n        /* \"#utility.yul\":670:682   */\n      revert\n        /* \"#utility.yul\":621:684   */\n    tag_164:\n        /* \"#utility.yul\":568:690   */\n      pop\n      jump\t// out\n        /* \"#utility.yul\":696:835   */\n    tag_129:\n        /* \"#utility.yul\":742:747   */\n      0x00\n        /* \"#utility.yul\":780:786   */\n      dup2\n        /* \"#utility.yul\":767:787   */\n      calldataload\n        /* \"#utility.yul\":758:787   */\n      swap1\n      pop\n        /* \"#utility.yul\":796:829   */\n      tag_166\n        /* \"#utility.yul\":823:828   */\n      dup2\n        /* \"#utility.yul\":796:829   */\n      tag_128\n      jump\t// in\n    tag_166:\n        /* \"#utility.yul\":696:835   */\n      swap3\n      swap2\n      pop\n      pop\n      jump\t// out\n        /* \"#utility.yul\":841:1170   */\n    tag_15:\n        /* \"#utility.yul\":900:906   */\n      0x00\n        /* \"#utility.yul\":949:951   */\n      0x20\n        /* \"#utility.yul\":937:946   */\n      dup3\n        /* \"#utility.yul\":928:935   */\n      dup5\n        /* \"#utility.yul\":924:947   */\n      sub\n        /* \"#utility.yul\":920:952   */\n      slt\n        /* \"#utility.yul\":917:1036   */\n      iszero\n      tag_168\n      jumpi\n        /* \"#utility.yul\":955:1034   */\n      tag_169\n      tag_124\n      jump\t// in\n    tag_169:\n        /* \"#utility.yul\":917:1036   */\n    tag_168:\n        /* \"#utility.yul\":1075:1076   */\n      0x00\n        /* \"#utility.yul\":1100:1153   */\n      tag_170\n        /* \"#utility.yul\":1145:1152   */\n      dup5\n        /* \"#utility.yul\":1136:1142   */\n      dup3\n        /* \"#utility.yul\":1125:1134   */\n      dup6\n        /* \"#utility.yul\":1121:1143   */\n      add\n        /* \"#utility.yul\":1100:1153   */\n      tag_129\n      jump\t// in\n    tag_170:\n        /* \"#utility.yul\":1090:1153   */\n      swap2\n      pop\n        /* \"#utility.yul\":1046:1163   */\n      pop\n        /* \"#utility.yul\":841:1170   */\n      swap3\n      swap2\n      pop\n      pop\n      jump\t// out\n        /* \"#utility.yul\":1176:1253   */\n    tag_130:\n        /* \"#utility.yul\":1213:1220   */\n      0x00\n        /* \"#utility.yul\":1242:1247   */\n      dup2\n        /* \"#utility.yul\":1231:1247   */\n      swap1\n      pop\n        /* \"#utility.yul\":1176:1253   */\n      swap2\n      swap1\n      pop\n      jump\t// out\n        /* \"#utility.yul\":1259:1367   */\n    tag_131:\n        /* \"#utility.yul\":1336:1360   */\n      tag_173\n        /* \"#utility.yul\":1354:1359   */\n      dup2\n        /* \"#utility.yul\":1336:1360   */\n      tag_130\n      jump\t// in\n    tag_173:\n        /* \"#utility.yul\":1331:1334   */\n      dup3\n        /* \"#utility.yul\":1324:1361   */\n      mstore\n        /* \"#utility.yul\":1259:1367   */\n      pop\n      pop\n      jump\t// out\n        /* \"#utility.yul\":1443:2155   */\n    tag_132:\n        /* \"#utility.yul\":1596:1600   */\n      0x60\n        /* \"#utility.yul\":1591:1594   */\n      dup3\n        /* \"#utility.yul\":1587:1601   */\n      add\n        /* \"#utility.yul\":1692:1696   */\n      0x00\n        /* \"#utility.yul\":1685:1690   */\n      dup3\n        /* \"#utility.yul\":1681:1697   */\n      add\n        /* \"#utility.yul\":1675:1698   */\n      mload\n        /* \"#utility.yul\":1711:1774   */\n      tag_175\n        /* \"#utility.yul\":1768:1772   */\n      0x00\n        /* \"#utility.yul\":1763:1766   */\n      dup6\n        /* \"#utility.yul\":1759:1773   */\n      add\n        /* \"#utility.yul\":1745:1757   */\n      dup3\n        /* \"#utility.yul\":1711:1774   */\n      tag_131\n      jump\t// in\n    tag_175:\n        /* \"#utility.yul\":1611:1784   */\n      pop\n        /* \"#utility.yul\":1877:1881   */\n      0x20\n        /* \"#utility.yul\":1870:1875   */\n      dup3\n        /* \"#utility.yul\":1866:1882   */\n      add\n        /* \"#utility.yul\":1860:1883   */\n      mload\n        /* \"#utility.yul\":1896:1959   */\n      tag_176\n        /* \"#utility.yul\":1953:1957   */\n      0x20\n        /* \"#utility.yul\":1948:1951   */\n      dup6\n        /* \"#utility.yul\":1944:1958   */\n      add\n        /* \"#utility.yul\":1930:1942   */\n      dup3\n        /* \"#utility.yul\":1896:1959   */\n      tag_131\n      jump\t// in\n    tag_176:\n        /* \"#utility.yul\":1794:1969   */\n      pop\n        /* \"#utility.yul\":2056:2060   */\n      0x40\n        /* \"#utility.yul\":2049:2054   */\n      dup3\n        /* \"#utility.yul\":2045:2061   */\n      add\n        /* \"#utility.yul\":2039:2062   */\n      mload\n        /* \"#utility.yul\":2075:2138   */\n      tag_177\n        /* \"#utility.yul\":2132:2136   */\n      0x40\n        /* \"#utility.yul\":2127:2130   */\n      dup6\n        /* \"#utility.yul\":2123:2137   */\n      add\n        /* \"#utility.yul\":2109:2121   */\n      dup3\n        /* \"#utility.yul\":2075:2138   */\n      tag_131\n      jump\t// in\n    tag_177:\n        /* \"#utility.yul\":1979:2148   */\n      pop\n        /* \"#utility.yul\":1565:2155   */\n      pop\n        /* \"#utility.yul\":1443:2155   */\n      pop\n      pop\n      jump\t// out\n        /* \"#utility.yul\":2161:2495   */\n    tag_18:\n        /* \"#utility.yul\":2310:2314   */\n      0x00\n        /* \"#utility.yul\":2348:2350   */\n      0x60\n        /* \"#utility.yul\":2337:2346   */\n      dup3\n        /* \"#utility.yul\":2333:2351   */\n      add\n        /* \"#utility.yul\":2325:2351   */\n      swap1\n      pop\n        /* \"#utility.yul\":2361:2488   */\n      tag_179\n        /* \"#utility.yul\":2485:2486   */\n      0x00\n        /* \"#utility.yul\":2474:2483   */\n      dup4\n        /* \"#utility.yul\":2470:2487   */\n      add\n        /* \"#utility.yul\":2461:2467   */\n      dup5\n        /* \"#utility.yul\":2361:2488   */\n      tag_132\n      jump\t// in\n    tag_179:\n        /* \"#utility.yul\":2161:2495   */\n      swap3\n      swap2\n      pop\n      pop\n      jump\t// out\n        /* \"#utility.yul\":2501:2561   */\n    tag_133:\n        /* \"#utility.yul\":2529:2532   */\n      0x00\n        /* \"#utility.yul\":2550:2555   */\n      dup2\n        /* \"#utility.yul\":2543:2555   */\n      swap1\n      pop\n        /* \"#utility.yul\":2501:2561   */\n      swap2\n      swap1\n      pop\n      jump\t// out\n        /* \"#utility.yul\":2567:2709   */\n    tag_134:\n        /* \"#utility.yul\":2617:2626   */\n      0x00\n        /* \"#utility.yul\":2650:2703   */\n      tag_182\n        /* \"#utility.yul\":2668:2702   */\n      tag_183\n        /* \"#utility.yul\":2677:2701   */\n      tag_184\n        /* \"#utility.yul\":2695:2700   */\n      dup5\n        /* \"#utility.yul\":2677:2701   */\n      tag_126\n      jump\t// in\n    tag_184:\n        /* \"#utility.yul\":2668:2702   */\n      tag_133\n      jump\t// in\n    tag_183:\n        /* \"#utility.yul\":2650:2703   */\n      tag_126\n      jump\t// in\n    tag_182:\n        /* \"#utility.yul\":2637:2703   */\n      swap1\n      pop\n        /* \"#utility.yul\":2567:2709   */\n      swap2\n      swap1\n      pop\n      jump\t// out\n        /* \"#utility.yul\":2715:2841   */\n    tag_135:\n        /* \"#utility.yul\":2765:2774   */\n      0x00\n        /* \"#utility.yul\":2798:2835   */\n      tag_186\n        /* \"#utility.yul\":2829:2834   */\n      dup3\n        /* \"#utility.yul\":2798:2835   */\n      tag_134\n      jump\t// in\n    tag_186:\n        /* \"#utility.yul\":2785:2835   */\n      swap1\n      pop\n        /* \"#utility.yul\":2715:2841   */\n      swap2\n      swap1\n      pop\n      jump\t// out\n        /* \"#utility.yul\":2847:2986   */\n    tag_136:\n        /* \"#utility.yul\":2910:2919   */\n      0x00\n        /* \"#utility.yul\":2943:2980   */\n      tag_188\n        /* \"#utility.yul\":2974:2979   */\n      dup3\n        /* \"#utility.yul\":2943:2980   */\n      tag_135\n      jump\t// in\n    tag_188:\n        /* \"#utility.yul\":2930:2980   */\n      swap1\n      pop\n        /* \"#utility.yul\":2847:2986   */\n      swap2\n      swap1\n      pop\n      jump\t// out\n        /* \"#utility.yul\":2992:3149   */\n    tag_137:\n        /* \"#utility.yul\":3092:3142   */\n      tag_190\n        /* \"#utility.yul\":3136:3141   */\n      dup2\n        /* \"#utility.yul\":3092:3142   */\n      tag_136\n      jump\t// in\n    tag_190:\n        /* \"#utility.yul\":3087:3090   */\n      dup3\n        /* \"#utility.yul\":3080:3143   */\n      mstore\n        /* \"#utility.yul\":2992:3149   */\n      pop\n      pop\n      jump\t// out\n        /* \"#utility.yul\":3155:3403   */\n    tag_23:\n        /* \"#utility.yul\":3261:3265   */\n      0x00\n        /* \"#utility.yul\":3299:3301   */\n      0x20\n        /* \"#utility.yul\":3288:3297   */\n      dup3\n        /* \"#utility.yul\":3284:3302   */\n      add\n        /* \"#utility.yul\":3276:3302   */\n      swap1\n      pop\n        /* \"#utility.yul\":3312:3396   */\n      tag_192\n        /* \"#utility.yul\":3393:3394   */\n      0x00\n        /* \"#utility.yul\":3382:3391   */\n      dup4\n        /* \"#utility.yul\":3378:3395   */\n      add\n        /* \"#utility.yul\":3369:3375   */\n      dup5\n        /* \"#utility.yul\":3312:3396   */\n      tag_137\n      jump\t// in\n    tag_192:\n        /* \"#utility.yul\":3155:3403   */\n      swap3\n      swap2\n      pop\n      pop\n      jump\t// out\n        /* \"#utility.yul\":3409:3531   */\n    tag_138:\n        /* \"#utility.yul\":3482:3506   */\n      tag_194\n        /* \"#utility.yul\":3500:3505   */\n      dup2\n        /* \"#utility.yul\":3482:3506   */\n      tag_130\n      jump\t// in\n    tag_194:\n        /* \"#utility.yul\":3475:3480   */\n      dup2\n        /* \"#utility.yul\":3472:3507   */\n      eq\n        /* \"#utility.yul\":3462:3525   */\n      tag_195\n      jumpi\n        /* \"#utility.yul\":3521:3522   */\n      0x00\n        /* \"#utility.yul\":3518:3519   */\n      dup1\n        /* \"#utility.yul\":3511:3523   */\n      revert\n        /* \"#utility.yul\":3462:3525   */\n    tag_195:\n        /* \"#utility.yul\":3409:3531   */\n      pop\n      jump\t// out\n        /* \"#utility.yul\":3537:3676   */\n    tag_139:\n        /* \"#utility.yul\":3583:3588   */\n      0x00\n        /* \"#utility.yul\":3621:3627   */\n      dup2\n        /* \"#utility.yul\":3608:3628   */\n      calldataload\n        /* \"#utility.yul\":3599:3628   */\n      swap1\n      pop\n        /* \"#utility.yul\":3637:3670   */\n      tag_197\n        /* \"#utility.yul\":3664:3669   */\n      dup2\n        /* \"#utility.yul\":3637:3670   */\n      tag_138\n      jump\t// in\n    tag_197:\n        /* \"#utility.yul\":3537:3676   */\n      swap3\n      swap2\n      pop\n      pop\n      jump\t// out\n        /* \"#utility.yul\":3682:4011   */\n    tag_31:\n        /* \"#utility.yul\":3741:3747   */\n      0x00\n        /* \"#utility.yul\":3790:3792   */\n      0x20\n        /* \"#utility.yul\":3778:3787   */\n      dup3\n        /* \"#utility.yul\":3769:3776   */\n      dup5\n        /* \"#utility.yul\":3765:3788   */\n      sub\n        /* \"#utility.yul\":3761:3793   */\n      slt\n        /* \"#utility.yul\":3758:3877   */\n      iszero\n      tag_199\n      jumpi\n        /* \"#utility.yul\":3796:3875   */\n      tag_200\n      tag_124\n      jump\t// in\n    tag_200:\n        /* \"#utility.yul\":3758:3877   */\n    tag_199:\n        /* \"#utility.yul\":3916:3917   */\n      0x00\n        /* \"#utility.yul\":3941:3994   */\n      tag_201\n        /* \"#utility.yul\":3986:3993   */\n      dup5\n        /* \"#utility.yul\":3977:3983   */\n      dup3\n        /* \"#utility.yul\":3966:3975   */\n      dup6\n        /* \"#utility.yul\":3962:3984   */\n      add\n        /* \"#utility.yul\":3941:3994   */\n      tag_139\n      jump\t// in\n    tag_201:\n        /* \"#utility.yul\":3931:3994   */\n      swap2\n      pop\n        /* \"#utility.yul\":3887:4004   */\n      pop\n        /* \"#utility.yul\":3682:4011   */\n      swap3\n      swap2\n      pop\n      pop\n      jump\t// out\n        /* \"#utility.yul\":4017:4135   */\n    tag_140:\n        /* \"#utility.yul\":4104:4128   */\n      tag_203\n        /* \"#utility.yul\":4122:4127   */\n      dup2\n        /* \"#utility.yul\":4104:4128   */\n      tag_130\n      jump\t// in\n    tag_203:\n        /* \"#utility.yul\":4099:4102   */\n      dup3\n        /* \"#utility.yul\":4092:4129   */\n      mstore\n        /* \"#utility.yul\":4017:4135   */\n      pop\n      pop\n      jump\t// out\n        /* \"#utility.yul\":4141:4363   */\n    tag_37:\n        /* \"#utility.yul\":4234:4238   */\n      0x00\n        /* \"#utility.yul\":4272:4274   */\n      0x20\n        /* \"#utility.yul\":4261:4270   */\n      dup3\n        /* \"#utility.yul\":4257:4275   */\n      add\n        /* \"#utility.yul\":4249:4275   */\n      swap1\n      pop\n        /* \"#utility.yul\":4285:4356   */\n      tag_205\n        /* \"#utility.yul\":4353:4354   */\n      0x00\n        /* \"#utility.yul\":4342:4351   */\n      dup4\n        /* \"#utility.yul\":4338:4355   */\n      add\n        /* \"#utility.yul\":4329:4335   */\n      dup5\n        /* \"#utility.yul\":4285:4356   */\n      tag_140\n      jump\t// in\n    tag_205:\n        /* \"#utility.yul\":4141:4363   */\n      swap3\n      swap2\n      pop\n      pop\n      jump\t// out\n        /* \"#utility.yul\":4369:4549   */\n    tag_141:\n        /* \"#utility.yul\":4417:4494   */\n      0x4e487b7100000000000000000000000000000000000000000000000000000000\n        /* \"#utility.yul\":4414:4415   */\n      0x00\n        /* \"#utility.yul\":4407:4495   */\n      mstore\n        /* \"#utility.yul\":4514:4518   */\n      0x11\n        /* \"#utility.yul\":4511:4512   */\n      0x04\n        /* \"#utility.yul\":4504:4519   */\n      mstore\n        /* \"#utility.yul\":4538:4542   */\n      0x24\n        /* \"#utility.yul\":4535:4536   */\n      0x00\n        /* \"#utility.yul\":4528:4543   */\n      revert\n        /* \"#utility.yul\":4555:4749   */\n    tag_57:\n        /* \"#utility.yul\":4595:4599   */\n      0x00\n        /* \"#utility.yul\":4615:4635   */\n      tag_208\n        /* \"#utility.yul\":4633:4634   */\n      dup3\n        /* \"#utility.yul\":4615:4635   */\n      tag_130\n      jump\t// in\n    tag_208:\n        /* \"#utility.yul\":4610:4635   */\n      swap2\n      pop\n        /* \"#utility.yul\":4649:4669   */\n      tag_209\n        /* \"#utility.yul\":4667:4668   */\n      dup4\n        /* \"#utility.yul\":4649:4669   */\n      tag_130\n      jump\t// in\n    tag_209:\n        /* \"#utility.yul\":4644:4669   */\n      swap3\n      pop\n        /* \"#utility.yul\":4693:4694   */\n      dup3\n        /* \"#utility.yul\":4690:4691   */\n      dup3\n        /* \"#utility.yul\":4686:4695   */\n      sub\n        /* \"#utility.yul\":4678:4695   */\n      swap1\n      pop\n        /* \"#utility.yul\":4717:4718   */\n      dup2\n        /* \"#utility.yul\":4711:4715   */\n      dup2\n        /* \"#utility.yul\":4708:4719   */\n      gt\n        /* \"#utility.yul\":4705:4742   */\n      iszero\n      tag_210\n      jumpi\n        /* \"#utility.yul\":4722:4740   */\n      tag_211\n      tag_141\n      jump\t// in\n    tag_211:\n        /* \"#utility.yul\":4705:4742   */\n    tag_210:\n        /* \"#utility.yul\":4555:4749   */\n      swap3\n      swap2\n      pop\n      pop\n      jump\t// out\n        /* \"#utility.yul\":4755:5165   */\n    tag_59:\n        /* \"#utility.yul\":4795:4802   */\n      0x00\n        /* \"#utility.yul\":4818:4838   */\n      tag_213\n        /* \"#utility.yul\":4836:4837   */\n      dup3\n        /* \"#utility.yul\":4818:4838   */\n      tag_130\n      jump\t// in\n    tag_213:\n        /* \"#utility.yul\":4813:4838   */\n      swap2\n      pop\n        /* \"#utility.yul\":4852:4872   */\n      tag_214\n        /* \"#utility.yul\":4870:4871   */\n      dup4\n        /* \"#utility.yul\":4852:4872   */\n      tag_130\n      jump\t// in\n    tag_214:\n        /* \"#utility.yul\":4847:4872   */\n      swap3\n      pop\n        /* \"#utility.yul\":4907:4908   */\n      dup3\n        /* \"#utility.yul\":4904:4905   */\n      dup3\n        /* \"#utility.yul\":4900:4909   */\n      mul\n        /* \"#utility.yul\":4929:4959   */\n      tag_215\n        /* \"#utility.yul\":4947:4958   */\n      dup2\n        /* \"#utility.yul\":4929:4959   */\n      tag_130\n      jump\t// in\n    tag_215:\n        /* \"#utility.yul\":4918:4959   */\n      swap2\n      pop\n        /* \"#utility.yul\":5108:5109   */\n      dup3\n        /* \"#utility.yul\":5099:5106   */\n      dup3\n        /* \"#utility.yul\":5095:5110   */\n      div\n        /* \"#utility.yul\":5092:5093   */\n      dup5\n        /* \"#utility.yul\":5089:5111   */\n      eq\n        /* \"#utility.yul\":5069:5070   */\n      dup4\n        /* \"#utility.yul\":5062:5071   */\n      iszero\n        /* \"#utility.yul\":5042:5125   */\n      or\n        /* \"#utility.yul\":5019:5158   */\n      tag_216\n      jumpi\n        /* \"#utility.yul\":5138:5156   */\n      tag_217\n      tag_141\n      jump\t// in\n    tag_217:\n        /* \"#utility.yul\":5019:5158   */\n    tag_216:\n        /* \"#utility.yul\":4803:5165   */\n      pop\n        /* \"#utility.yul\":4755:5165   */\n      swap3\n      swap2\n      pop\n      pop\n      jump\t// out\n        /* \"#utility.yul\":5171:5351   */\n    tag_142:\n        /* \"#utility.yul\":5219:5296   */\n      0x4e487b7100000000000000000000000000000000000000000000000000000000\n        /* \"#utility.yul\":5216:5217   */\n      0x00\n        /* \"#utility.yul\":5209:5297   */\n      mstore\n        /* \"#utility.yul\":5316:5320   */\n      0x12\n        /* \"#utility.yul\":5313:5314   */\n      0x04\n        /* \"#utility.yul\":5306:5321   */\n      mstore\n        /* \"#utility.yul\":5340:5344   */\n      0x24\n        /* \"#utility.yul\":5337:5338   */\n      0x00\n        /* \"#utility.yul\":5330:5345   */\n      revert\n        /* \"#utility.yul\":5357:5542   */\n    tag_62:\n        /* \"#utility.yul\":5397:5398   */\n      0x00\n        /* \"#utility.yul\":5414:5434   */\n      tag_220\n        /* \"#utility.yul\":5432:5433   */\n      dup3\n        /* \"#utility.yul\":5414:5434   */\n      tag_130\n      jump\t// in\n    tag_220:\n        /* \"#utility.yul\":5409:5434   */\n      swap2\n      pop\n        /* \"#utility.yul\":5448:5468   */\n      tag_221\n        /* \"#utility.yul\":5466:5467   */\n      dup4\n        /* \"#utility.yul\":5448:5468   */\n      tag_130\n      jump\t// in\n    tag_221:\n        /* \"#utility.yul\":5443:5468   */\n      swap3\n      pop\n        /* \"#utility.yul\":5487:5488   */\n      dup3\n        /* \"#utility.yul\":5477:5512   */\n      tag_222\n      jumpi\n        /* \"#utility.yul\":5492:5510   */\n      tag_223\n      tag_142\n      jump\t// in\n    tag_223:\n        /* \"#utility.yul\":5477:5512   */\n    tag_222:\n        /* \"#utility.yul\":5534:5535   */\n      dup3\n        /* \"#utility.yul\":5531:5532   */\n      dup3\n        /* \"#utility.yul\":5527:5536   */\n      div\n        /* \"#utility.yul\":5522:5536   */\n      swap1\n      pop\n        /* \"#utility.yul\":5357:5542   */\n      swap3\n      swap2\n      pop\n      pop\n      jump\t// out\n        /* \"#utility.yul\":5548:5717   */\n    tag_143:\n        /* \"#utility.yul\":5632:5643   */\n      0x00\n        /* \"#utility.yul\":5666:5672   */\n      dup3\n        /* \"#utility.yul\":5661:5664   */\n      dup3\n        /* \"#utility.yul\":5654:5673   */\n      mstore\n        /* \"#utility.yul\":5706:5710   */\n      0x20\n        /* \"#utility.yul\":5701:5704   */\n      dup3\n        /* \"#utility.yul\":5697:5711   */\n      add\n        /* \"#utility.yul\":5682:5711   */\n      swap1\n      pop\n        /* \"#utility.yul\":5548:5717   */\n      swap3\n      swap2\n      pop\n      pop\n      jump\t// out\n        /* \"#utility.yul\":5723:5901   */\n    tag_144:\n        /* \"#utility.yul\":5863:5893   */\n      0x426f72726f7765722068617320676f6f6420636f6c6c61746572616c00000000\n        /* \"#utility.yul\":5859:5860   */\n      0x00\n        /* \"#utility.yul\":5851:5857   */\n      dup3\n        /* \"#utility.yul\":5847:5861   */\n      add\n        /* \"#utility.yul\":5840:5894   */\n      mstore\n        /* \"#utility.yul\":5723:5901   */\n      pop\n      jump\t// out\n        /* \"#utility.yul\":5907:6273   */\n    tag_145:\n        /* \"#utility.yul\":6049:6052   */\n      0x00\n        /* \"#utility.yul\":6070:6137   */\n      tag_227\n        /* \"#utility.yul\":6134:6136   */\n      0x1c\n        /* \"#utility.yul\":6129:6132   */\n      dup4\n        /* \"#utility.yul\":6070:6137   */\n      tag_143\n      jump\t// in\n    tag_227:\n        /* \"#utility.yul\":6063:6137   */\n      swap2\n      pop\n        /* \"#utility.yul\":6146:6239   */\n      tag_228\n        /* \"#utility.yul\":6235:6238   */\n      dup3\n        /* \"#utility.yul\":6146:6239   */\n      tag_144\n      jump\t// in\n    tag_228:\n        /* \"#utility.yul\":6264:6266   */\n      0x20\n        /* \"#utility.yul\":6259:6262   */\n      dup3\n        /* \"#utility.yul\":6255:6267   */\n      add\n        /* \"#utility.yul\":6248:6267   */\n      swap1\n      pop\n        /* \"#utility.yul\":5907:6273   */\n      swap2\n      swap1\n      pop\n      jump\t// out\n        /* \"#utility.yul\":6279:6698   */\n    tag_72:\n        /* \"#utility.yul\":6445:6449   */\n      0x00\n        /* \"#utility.yul\":6483:6485   */\n      0x20\n        /* \"#utility.yul\":6472:6481   */\n      dup3\n        /* \"#utility.yul\":6468:6486   */\n      add\n        /* \"#utility.yul\":6460:6486   */\n      swap1\n      pop\n        /* \"#utility.yul\":6532:6541   */\n      dup2\n        /* \"#utility.yul\":6526:6530   */\n      dup2\n        /* \"#utility.yul\":6522:6542   */\n      sub\n        /* \"#utility.yul\":6518:6519   */\n      0x00\n        /* \"#utility.yul\":6507:6516   */\n      dup4\n        /* \"#utility.yul\":6503:6520   */\n      add\n        /* \"#utility.yul\":6496:6543   */\n      mstore\n        /* \"#utility.yul\":6560:6691   */\n      tag_230\n        /* \"#utility.yul\":6686:6690   */\n      dup2\n        /* \"#utility.yul\":6560:6691   */\n      tag_145\n      jump\t// in\n    tag_230:\n        /* \"#utility.yul\":6552:6691   */\n      swap1\n      pop\n        /* \"#utility.yul\":6279:6698   */\n      swap2\n      swap1\n      pop\n      jump\t// out\n        /* \"#utility.yul\":6704:6822   */\n    tag_146:\n        /* \"#utility.yul\":6791:6815   */\n      tag_232\n        /* \"#utility.yul\":6809:6814   */\n      dup2\n        /* \"#utility.yul\":6791:6815   */\n      tag_127\n      jump\t// in\n    tag_232:\n        /* \"#utility.yul\":6786:6789   */\n      dup3\n        /* \"#utility.yul\":6779:6816   */\n      mstore\n        /* \"#utility.yul\":6704:6822   */\n      pop\n      pop\n      jump\t// out\n        /* \"#utility.yul\":6828:7270   */\n    tag_77:\n        /* \"#utility.yul\":6977:6981   */\n      0x00\n        /* \"#utility.yul\":7015:7017   */\n      0x60\n        /* \"#utility.yul\":7004:7013   */\n      dup3\n        /* \"#utility.yul\":7000:7018   */\n      add\n        /* \"#utility.yul\":6992:7018   */\n      swap1\n      pop\n        /* \"#utility.yul\":7028:7099   */\n      tag_234\n        /* \"#utility.yul\":7096:7097   */\n      0x00\n        /* \"#utility.yul\":7085:7094   */\n      dup4\n        /* \"#utility.yul\":7081:7098   */\n      add\n        /* \"#utility.yul\":7072:7078   */\n      dup7\n        /* \"#utility.yul\":7028:7099   */\n      tag_146\n      jump\t// in\n    tag_234:\n        /* \"#utility.yul\":7109:7181   */\n      tag_235\n        /* \"#utility.yul\":7177:7179   */\n      0x20\n        /* \"#utility.yul\":7166:7175   */\n      dup4\n        /* \"#utility.yul\":7162:7180   */\n      add\n        /* \"#utility.yul\":7153:7159   */\n      dup6\n        /* \"#utility.yul\":7109:7181   */\n      tag_146\n      jump\t// in\n    tag_235:\n        /* \"#utility.yul\":7191:7263   */\n      tag_236\n        /* \"#utility.yul\":7259:7261   */\n      0x40\n        /* \"#utility.yul\":7248:7257   */\n      dup4\n        /* \"#utility.yul\":7244:7262   */\n      add\n        /* \"#utility.yul\":7235:7241   */\n      dup5\n        /* \"#utility.yul\":7191:7263   */\n      tag_140\n      jump\t// in\n    tag_236:\n        /* \"#utility.yul\":6828:7270   */\n      swap5\n      swap4\n      pop\n      pop\n      pop\n      pop\n      jump\t// out\n        /* \"#utility.yul\":7276:7366   */\n    tag_147:\n        /* \"#utility.yul\":7310:7317   */\n      0x00\n        /* \"#utility.yul\":7353:7358   */\n      dup2\n        /* \"#utility.yul\":7346:7359   */\n      iszero\n        /* \"#utility.yul\":7339:7360   */\n      iszero\n        /* \"#utility.yul\":7328:7360   */\n      swap1\n      pop\n        /* \"#utility.yul\":7276:7366   */\n      swap2\n      swap1\n      pop\n      jump\t// out\n        /* \"#utility.yul\":7372:7488   */\n    tag_148:\n        /* \"#utility.yul\":7442:7463   */\n      tag_239\n        /* \"#utility.yul\":7457:7462   */\n      dup2\n        /* \"#utility.yul\":7442:7463   */\n      tag_147\n      jump\t// in\n    tag_239:\n        /* \"#utility.yul\":7435:7440   */\n      dup2\n        /* \"#utility.yul\":7432:7464   */\n      eq\n        /* \"#utility.yul\":7422:7482   */\n      tag_240\n      jumpi\n        /* \"#utility.yul\":7478:7479   */\n      0x00\n        /* \"#utility.yul\":7475:7476   */\n      dup1\n        /* \"#utility.yul\":7468:7480   */\n      revert\n        /* \"#utility.yul\":7422:7482   */\n    tag_240:\n        /* \"#utility.yul\":7372:7488   */\n      pop\n      jump\t// out\n        /* \"#utility.yul\":7494:7631   */\n    tag_149:\n        /* \"#utility.yul\":7548:7553   */\n      0x00\n        /* \"#utility.yul\":7579:7585   */\n      dup2\n        /* \"#utility.yul\":7573:7586   */\n      mload\n        /* \"#utility.yul\":7564:7586   */\n      swap1\n      pop\n        /* \"#utility.yul\":7595:7625   */\n      tag_242\n        /* \"#utility.yul\":7619:7624   */\n      dup2\n        /* \"#utility.yul\":7595:7625   */\n      tag_148\n      jump\t// in\n    tag_242:\n        /* \"#utility.yul\":7494:7631   */\n      swap3\n      swap2\n      pop\n      pop\n      jump\t// out\n        /* \"#utility.yul\":7637:7982   */\n    tag_81:\n        /* \"#utility.yul\":7704:7710   */\n      0x00\n        /* \"#utility.yul\":7753:7755   */\n      0x20\n        /* \"#utility.yul\":7741:7750   */\n      dup3\n        /* \"#utility.yul\":7732:7739   */\n      dup5\n        /* \"#utility.yul\":7728:7751   */\n      sub\n        /* \"#utility.yul\":7724:7756   */\n      slt\n        /* \"#utility.yul\":7721:7840   */\n      iszero\n      tag_244\n      jumpi\n        /* \"#utility.yul\":7759:7838   */\n      tag_245\n      tag_124\n      jump\t// in\n    tag_245:\n        /* \"#utility.yul\":7721:7840   */\n    tag_244:\n        /* \"#utility.yul\":7879:7880   */\n      0x00\n        /* \"#utility.yul\":7904:7965   */\n      tag_246\n        /* \"#utility.yul\":7957:7964   */\n      dup5\n        /* \"#utility.yul\":7948:7954   */\n      dup3\n        /* \"#utility.yul\":7937:7946   */\n      dup6\n        /* \"#utility.yul\":7933:7955   */\n      add\n        /* \"#utility.yul\":7904:7965   */\n      tag_149\n      jump\t// in\n    tag_246:\n        /* \"#utility.yul\":7894:7965   */\n      swap2\n      pop\n        /* \"#utility.yul\":7850:7975   */\n      pop\n        /* \"#utility.yul\":7637:7982   */\n      swap3\n      swap2\n      pop\n      pop\n      jump\t// out\n        /* \"#utility.yul\":7988:8179   */\n    tag_84:\n        /* \"#utility.yul\":8028:8031   */\n      0x00\n        /* \"#utility.yul\":8047:8067   */\n      tag_248\n        /* \"#utility.yul\":8065:8066   */\n      dup3\n        /* \"#utility.yul\":8047:8067   */\n      tag_130\n      jump\t// in\n    tag_248:\n        /* \"#utility.yul\":8042:8067   */\n      swap2\n      pop\n        /* \"#utility.yul\":8081:8101   */\n      tag_249\n        /* \"#utility.yul\":8099:8100   */\n      dup4\n        /* \"#utility.yul\":8081:8101   */\n      tag_130\n      jump\t// in\n    tag_249:\n        /* \"#utility.yul\":8076:8101   */\n      swap3\n      pop\n        /* \"#utility.yul\":8124:8125   */\n      dup3\n        /* \"#utility.yul\":8121:8122   */\n      dup3\n        /* \"#utility.yul\":8117:8126   */\n      add\n        /* \"#utility.yul\":8110:8126   */\n      swap1\n      pop\n        /* \"#utility.yul\":8145:8148   */\n      dup1\n        /* \"#utility.yul\":8142:8143   */\n      dup3\n        /* \"#utility.yul\":8139:8149   */\n      gt\n        /* \"#utility.yul\":8136:8172   */\n      iszero\n      tag_250\n      jumpi\n        /* \"#utility.yul\":8152:8170   */\n      tag_251\n      tag_141\n      jump\t// in\n    tag_251:\n        /* \"#utility.yul\":8136:8172   */\n    tag_250:\n        /* \"#utility.yul\":7988:8179   */\n      swap3\n      swap2\n      pop\n      pop\n      jump\t// out\n        /* \"#utility.yul\":8185:8367   */\n    tag_150:\n        /* \"#utility.yul\":8325:8359   */\n      0x556e646572636f6c6c61746572616c697a65642024534541474c44206c6f616e\n        /* \"#utility.yul\":8321:8322   */\n      0x00\n        /* \"#utility.yul\":8313:8319   */\n      dup3\n        /* \"#utility.yul\":8309:8323   */\n      add\n        /* \"#utility.yul\":8302:8360   */\n      mstore\n        /* \"#utility.yul\":8185:8367   */\n      pop\n      jump\t// out\n        /* \"#utility.yul\":8373:8739   */\n    tag_151:\n        /* \"#utility.yul\":8515:8518   */\n      0x00\n        /* \"#utility.yul\":8536:8603   */\n      tag_254\n        /* \"#utility.yul\":8600:8602   */\n      0x20\n        /* \"#utility.yul\":8595:8598   */\n      dup4\n        /* \"#utility.yul\":8536:8603   */\n      tag_143\n      jump\t// in\n    tag_254:\n        /* \"#utility.yul\":8529:8603   */\n      swap2\n      pop\n        /* \"#utility.yul\":8612:8705   */\n      tag_255\n        /* \"#utility.yul\":8701:8704   */\n      dup3\n        /* \"#utility.yul\":8612:8705   */\n      tag_150\n      jump\t// in\n    tag_255:\n        /* \"#utility.yul\":8730:8732   */\n      0x20\n        /* \"#utility.yul\":8725:8728   */\n      dup3\n        /* \"#utility.yul\":8721:8733   */\n      add\n        /* \"#utility.yul\":8714:8733   */\n      swap1\n      pop\n        /* \"#utility.yul\":8373:8739   */\n      swap2\n      swap1\n      pop\n      jump\t// out\n        /* \"#utility.yul\":8745:9164   */\n    tag_95:\n        /* \"#utility.yul\":8911:8915   */\n      0x00\n        /* \"#utility.yul\":8949:8951   */\n      0x20\n        /* \"#utility.yul\":8938:8947   */\n      dup3\n        /* \"#utility.yul\":8934:8952   */\n      add\n        /* \"#utility.yul\":8926:8952   */\n      swap1\n      pop\n        /* \"#utility.yul\":8998:9007   */\n      dup2\n        /* \"#utility.yul\":8992:8996   */\n      dup2\n        /* \"#utility.yul\":8988:9008   */\n      sub\n        /* \"#utility.yul\":8984:8985   */\n      0x00\n        /* \"#utility.yul\":8973:8982   */\n      dup4\n        /* \"#utility.yul\":8969:8986   */\n      add\n        /* \"#utility.yul\":8962:9009   */\n      mstore\n        /* \"#utility.yul\":9026:9157   */\n      tag_257\n        /* \"#utility.yul\":9152:9156   */\n      dup2\n        /* \"#utility.yul\":9026:9157   */\n      tag_151\n      jump\t// in\n    tag_257:\n        /* \"#utility.yul\":9018:9157   */\n      swap1\n      pop\n        /* \"#utility.yul\":8745:9164   */\n      swap2\n      swap1\n      pop\n      jump\t// out\n        /* \"#utility.yul\":9170:9502   */\n    tag_97:\n        /* \"#utility.yul\":9291:9295   */\n      0x00\n        /* \"#utility.yul\":9329:9331   */\n      0x40\n        /* \"#utility.yul\":9318:9327   */\n      dup3\n        /* \"#utility.yul\":9314:9332   */\n      add\n        /* \"#utility.yul\":9306:9332   */\n      swap1\n      pop\n        /* \"#utility.yul\":9342:9413   */\n      tag_259\n        /* \"#utility.yul\":9410:9411   */\n      0x00\n        /* \"#utility.yul\":9399:9408   */\n      dup4\n        /* \"#utility.yul\":9395:9412   */\n      add\n        /* \"#utility.yul\":9386:9392   */\n      dup6\n        /* \"#utility.yul\":9342:9413   */\n      tag_146\n      jump\t// in\n    tag_259:\n        /* \"#utility.yul\":9423:9495   */\n      tag_260\n        /* \"#utility.yul\":9491:9493   */\n      0x20\n        /* \"#utility.yul\":9480:9489   */\n      dup4\n        /* \"#utility.yul\":9476:9494   */\n      add\n        /* \"#utility.yul\":9467:9473   */\n      dup5\n        /* \"#utility.yul\":9423:9495   */\n      tag_140\n      jump\t// in\n    tag_260:\n        /* \"#utility.yul\":9170:9502   */\n      swap4\n      swap3\n      pop\n      pop\n      pop\n      jump\t// out\n        /* \"#utility.yul\":9508:9730   */\n    tag_105:\n        /* \"#utility.yul\":9601:9605   */\n      0x00\n        /* \"#utility.yul\":9639:9641   */\n      0x20\n        /* \"#utility.yul\":9628:9637   */\n      dup3\n        /* \"#utility.yul\":9624:9642   */\n      add\n        /* \"#utility.yul\":9616:9642   */\n      swap1\n      pop\n        /* \"#utility.yul\":9652:9723   */\n      tag_262\n        /* \"#utility.yul\":9720:9721   */\n      0x00\n        /* \"#utility.yul\":9709:9718   */\n      dup4\n        /* \"#utility.yul\":9705:9722   */\n      add\n        /* \"#utility.yul\":9696:9702   */\n      dup5\n        /* \"#utility.yul\":9652:9723   */\n      tag_146\n      jump\t// in\n    tag_262:\n        /* \"#utility.yul\":9508:9730   */\n      swap3\n      swap2\n      pop\n      pop\n      jump\t// out\n        /* \"#utility.yul\":9736:9879   */\n    tag_152:\n        /* \"#utility.yul\":9793:9798   */\n      0x00\n        /* \"#utility.yul\":9824:9830   */\n      dup2\n        /* \"#utility.yul\":9818:9831   */\n      mload\n        /* \"#utility.yul\":9809:9831   */\n      swap1\n      pop\n        /* \"#utility.yul\":9840:9873   */\n      tag_264\n        /* \"#utility.yul\":9867:9872   */\n      dup2\n        /* \"#utility.yul\":9840:9873   */\n      tag_138\n      jump\t// in\n    tag_264:\n        /* \"#utility.yul\":9736:9879   */\n      swap3\n      swap2\n      pop\n      pop\n      jump\t// out\n        /* \"#utility.yul\":9885:10236   */\n    tag_109:\n        /* \"#utility.yul\":9955:9961   */\n      0x00\n        /* \"#utility.yul\":10004:10006   */\n      0x20\n        /* \"#utility.yul\":9992:10001   */\n      dup3\n        /* \"#utility.yul\":9983:9990   */\n      dup5\n        /* \"#utility.yul\":9979:10002   */\n      sub\n        /* \"#utility.yul\":9975:10007   */\n      slt\n        /* \"#utility.yul\":9972:10091   */\n      iszero\n      tag_266\n      jumpi\n        /* \"#utility.yul\":10010:10089   */\n      tag_267\n      tag_124\n      jump\t// in\n    tag_267:\n        /* \"#utility.yul\":9972:10091   */\n    tag_266:\n        /* \"#utility.yul\":10130:10131   */\n      0x00\n        /* \"#utility.yul\":10155:10219   */\n      tag_268\n        /* \"#utility.yul\":10211:10218   */\n      dup5\n        /* \"#utility.yul\":10202:10208   */\n      dup3\n        /* \"#utility.yul\":10191:10200   */\n      dup6\n        /* \"#utility.yul\":10187:10209   */\n      add\n        /* \"#utility.yul\":10155:10219   */\n      tag_152\n      jump\t// in\n    tag_268:\n        /* \"#utility.yul\":10145:10219   */\n      swap2\n      pop\n        /* \"#utility.yul\":10101:10229   */\n      pop\n        /* \"#utility.yul\":9885:10236   */\n      swap3\n      swap2\n      pop\n      pop\n      jump\t// out\n        /* \"#utility.yul\":10242:10420   */\n    tag_153:\n        /* \"#utility.yul\":10382:10412   */\n      0x496e73756666696369656e742024534541474c4420746f206c656e6400000000\n        /* \"#utility.yul\":10378:10379   */\n      0x00\n        /* \"#utility.yul\":10370:10376   */\n      dup3\n        /* \"#utility.yul\":10366:10380   */\n      add\n        /* \"#utility.yul\":10359:10413   */\n      mstore\n        /* \"#utility.yul\":10242:10420   */\n      pop\n      jump\t// out\n        /* \"#utility.yul\":10426:10792   */\n    tag_154:\n        /* \"#utility.yul\":10568:10571   */\n      0x00\n        /* \"#utility.yul\":10589:10656   */\n      tag_271\n        /* \"#utility.yul\":10653:10655   */\n      0x1c\n        /* \"#utility.yul\":10648:10651   */\n      dup4\n        /* \"#utility.yul\":10589:10656   */\n      tag_143\n      jump\t// in\n    tag_271:\n        /* \"#utility.yul\":10582:10656   */\n      swap2\n      pop\n        /* \"#utility.yul\":10665:10758   */\n      tag_272\n        /* \"#utility.yul\":10754:10757   */\n      dup3\n        /* \"#utility.yul\":10665:10758   */\n      tag_153\n      jump\t// in\n    tag_272:\n        /* \"#utility.yul\":10783:10785   */\n      0x20\n        /* \"#utility.yul\":10778:10781   */\n      dup3\n        /* \"#utility.yul\":10774:10786   */\n      add\n        /* \"#utility.yul\":10767:10786   */\n      swap1\n      pop\n        /* \"#utility.yul\":10426:10792   */\n      swap2\n      swap1\n      pop\n      jump\t// out\n        /* \"#utility.yul\":10798:11217   */\n    tag_112:\n        /* \"#utility.yul\":10964:10968   */\n      0x00\n        /* \"#utility.yul\":11002:11004   */\n      0x20\n        /* \"#utility.yul\":10991:11000   */\n      dup3\n        /* \"#utility.yul\":10987:11005   */\n      add\n        /* \"#utility.yul\":10979:11005   */\n      swap1\n      pop\n        /* \"#utility.yul\":11051:11060   */\n      dup2\n        /* \"#utility.yul\":11045:11049   */\n      dup2\n        /* \"#utility.yul\":11041:11061   */\n      sub\n        /* \"#utility.yul\":11037:11038   */\n      0x00\n        /* \"#utility.yul\":11026:11035   */\n      dup4\n        /* \"#utility.yul\":11022:11039   */\n      add\n        /* \"#utility.yul\":11015:11062   */\n      mstore\n        /* \"#utility.yul\":11079:11210   */\n      tag_274\n        /* \"#utility.yul\":11205:11209   */\n      dup2\n        /* \"#utility.yul\":11079:11210   */\n      tag_154\n      jump\t// in\n    tag_274:\n        /* \"#utility.yul\":11071:11210   */\n      swap1\n      pop\n        /* \"#utility.yul\":10798:11217   */\n      swap2\n      swap1\n      pop\n      jump\t// out\n\n    auxdata: 0xa2646970667358221220413a9d65f6bdc38cb8b2f132f45666de7b8dcdae40a5ba14487ebae6db5baa9c64736f6c63430008180033\n}\n",
				"bytecode": {
					"linkReferences": {},
					"object": "60c060405234801562000010575f80fd5b50604051620011553803806200115583398181016040528101906200003691906200011e565b8173ffffffffffffffffffffffffffffffffffffffff1660808173ffffffffffffffffffffffffffffffffffffffff16815250508073ffffffffffffffffffffffffffffffffffffffff1660a08173ffffffffffffffffffffffffffffffffffffffff1681525050505062000163565b5f80fd5b5f73ffffffffffffffffffffffffffffffffffffffff82169050919050565b5f620000d582620000aa565b9050919050565b5f620000e882620000c9565b9050919050565b620000fa81620000dc565b811462000105575f80fd5b50565b5f815190506200011881620000ef565b92915050565b5f8060408385031215620001375762000136620000a6565b5b5f620001468582860162000108565b9250506020620001598582860162000108565b9150509250929050565b60805160a051610fad620001a85f395f81816102e80152818161043901528181610763015261088801525f81816105340152818161069d01526109850152610fad5ff3fe608060405260043610610085575f3560e01c80633c47d1ef116100585780633c47d1ef1461013f578063465a7007146101695780639835e09214610185578063c5ebeaec146101a1578063fbec6f21146101c957610085565b80630e0359a01461008957806314547f8f146100c55780632f865568146100ef578063371fd8e614610117575b5f80fd5b348015610094575f80fd5b506100af60048036038101906100aa9190610a4e565b6101f3565b6040516100bc9190610ad1565b60405180910390f35b3480156100d0575f80fd5b506100d96102e6565b6040516100e69190610b45565b60405180910390f35b3480156100fa575f80fd5b5061011560048036038101906101109190610a4e565b61030a565b005b348015610122575f80fd5b5061013d60048036038101906101389190610b88565b6103b6565b005b34801561014a575f80fd5b506101536104d9565b6040516101609190610bc2565b60405180910390f35b610183600480360381019061017e9190610b88565b6104de565b005b61019f600480360381019061019a9190610b88565b6105d3565b005b3480156101ac575f80fd5b506101c760048036038101906101c29190610b88565b61073b565b005b3480156101d4575f80fd5b506101dd610983565b6040516101ea9190610b45565b60405180910390f35b6101fb6109d2565b5f808373ffffffffffffffffffffffffffffffffffffffff1673ffffffffffffffffffffffffffffffffffffffff1681526020019081526020015f206040518060600160405290815f82015481526020016001820154815260200160028201548152505090505f816020015111156102d7575f81604001514361027e9190610c08565b90505f606460018385602001516102959190610c3b565b61029f9190610c3b565b6102a99190610ca9565b905080835f015110156102bc575f6102cc565b80835f01516102cb9190610c08565b5b835f01818152505050505b43816040018181525050919050565b7f000000000000000000000000000000000000000000000000000000000000000081565b5f610314826101f3565b905061031f816109a7565b1561035f576040517f08c379a000000000000000000000000000000000000000000000000000000000815260040161035690610d33565b60405180910390fd5b5f808373ffffffffffffffffffffffffffffffffffffffff1673ffffffffffffffffffffffffffffffffffffffff1681526020019081526020015f205f8082015f9055600182015f9055600282015f905550505050565b5f6103c0336101f3565b905081816020018181516103d49190610c08565b91508181525050805f803373ffffffffffffffffffffffffffffffffffffffff1673ffffffffffffffffffffffffffffffffffffffff1681526020019081526020015f205f820151815f015560208201518160010155604082015181600201559050507f000000000000000000000000000000000000000000000000000000000000000073ffffffffffffffffffffffffffffffffffffffff166323b872dd3330856040518463ffffffff1660e01b815260040161049493929190610d60565b6020604051808303815f875af11580156104b0573d5f803e3d5ffd5b505050506040513d601f19601f820116820180604052508101906104d49190610dca565b505050565b600181565b805f803373ffffffffffffffffffffffffffffffffffffffff1673ffffffffffffffffffffffffffffffffffffffff1681526020019081526020015f205f015f82825461052b9190610df5565b925050819055507f000000000000000000000000000000000000000000000000000000000000000073ffffffffffffffffffffffffffffffffffffffff166323b872dd3330846040518463ffffffff1660e01b815260040161058f93929190610d60565b6020604051808303815f875af11580156105ab573d5f803e3d5ffd5b505050506040513d601f19601f820116820180604052508101906105cf9190610dca565b5050565b5f6105dd336101f3565b905081815f018181516105f09190610c08565b91508181525050610600816109a7565b61063f576040517f08c379a000000000000000000000000000000000000000000000000000000000815260040161063690610e72565b60405180910390fd5b805f803373ffffffffffffffffffffffffffffffffffffffff1673ffffffffffffffffffffffffffffffffffffffff1681526020019081526020015f205f820151815f015560208201518160010155604082015181600201559050507f000000000000000000000000000000000000000000000000000000000000000073ffffffffffffffffffffffffffffffffffffffff1663a9059cbb33846040518363ffffffff1660e01b81526004016106f6929190610e90565b6020604051808303815f875af1158015610712573d5f803e3d5ffd5b505050506040513d601f19601f820116820180604052508101906107369190610dca565b505050565b5f610745336101f3565b905081816020018181516107599190610df5565b915081815250505f7f000000000000000000000000000000000000000000000000000000000000000073ffffffffffffffffffffffffffffffffffffffff166370a08231306040518263ffffffff1660e01b81526004016107ba9190610eb7565b602060405180830381865afa1580156107d5573d5f803e3d5ffd5b505050506040513d601f19601f820116820180604052508101906107f99190610ee4565b90508083111561083e576040517f08c379a000000000000000000000000000000000000000000000000000000000815260040161083590610f59565b60405180910390fd5b610847826109a7565b610886576040517f08c379a000000000000000000000000000000000000000000000000000000000815260040161087d90610e72565b60405180910390fd5b7f000000000000000000000000000000000000000000000000000000000000000073ffffffffffffffffffffffffffffffffffffffff1663a9059cbb33856040518363ffffffff1660e01b81526004016108e1929190610e90565b6020604051808303815f875af11580156108fd573d5f803e3d5ffd5b505050506040513d601f19601f820116820180604052508101906109219190610dca565b50815f803373ffffffffffffffffffffffffffffffffffffffff1673ffffffffffffffffffffffffffffffffffffffff1681526020019081526020015f205f820151815f01556020820151816001015560408201518160020155905050505050565b7f000000000000000000000000000000000000000000000000000000000000000081565b5f816020015160046109b99190610c3b565b825f015160036109c99190610c3b565b10159050919050565b60405180606001604052805f81526020015f81526020015f81525090565b5f80fd5b5f73ffffffffffffffffffffffffffffffffffffffff82169050919050565b5f610a1d826109f4565b9050919050565b610a2d81610a13565b8114610a37575f80fd5b50565b5f81359050610a4881610a24565b92915050565b5f60208284031215610a6357610a626109f0565b5b5f610a7084828501610a3a565b91505092915050565b5f819050919050565b610a8b81610a79565b82525050565b606082015f820151610aa55f850182610a82565b506020820151610ab86020850182610a82565b506040820151610acb6040850182610a82565b50505050565b5f606082019050610ae45f830184610a91565b92915050565b5f819050919050565b5f610b0d610b08610b03846109f4565b610aea565b6109f4565b9050919050565b5f610b1e82610af3565b9050919050565b5f610b2f82610b14565b9050919050565b610b3f81610b25565b82525050565b5f602082019050610b585f830184610b36565b92915050565b610b6781610a79565b8114610b71575f80fd5b50565b5f81359050610b8281610b5e565b92915050565b5f60208284031215610b9d57610b9c6109f0565b5b5f610baa84828501610b74565b91505092915050565b610bbc81610a79565b82525050565b5f602082019050610bd55f830184610bb3565b92915050565b7f4e487b71000000000000000000000000000000000000000000000000000000005f52601160045260245ffd5b5f610c1282610a79565b9150610c1d83610a79565b9250828203905081811115610c3557610c34610bdb565b5b92915050565b5f610c4582610a79565b9150610c5083610a79565b9250828202610c5e81610a79565b91508282048414831517610c7557610c74610bdb565b5b5092915050565b7f4e487b71000000000000000000000000000000000000000000000000000000005f52601260045260245ffd5b5f610cb382610a79565b9150610cbe83610a79565b925082610cce57610ccd610c7c565b5b828204905092915050565b5f82825260208201905092915050565b7f426f72726f7765722068617320676f6f6420636f6c6c61746572616c000000005f82015250565b5f610d1d601c83610cd9565b9150610d2882610ce9565b602082019050919050565b5f6020820190508181035f830152610d4a81610d11565b9050919050565b610d5a81610a13565b82525050565b5f606082019050610d735f830186610d51565b610d806020830185610d51565b610d8d6040830184610bb3565b949350505050565b5f8115159050919050565b610da981610d95565b8114610db3575f80fd5b50565b5f81519050610dc481610da0565b92915050565b5f60208284031215610ddf57610dde6109f0565b5b5f610dec84828501610db6565b91505092915050565b5f610dff82610a79565b9150610e0a83610a79565b9250828201905080821115610e2257610e21610bdb565b5b92915050565b7f556e646572636f6c6c61746572616c697a65642024534541474c44206c6f616e5f82015250565b5f610e5c602083610cd9565b9150610e6782610e28565b602082019050919050565b5f6020820190508181035f830152610e8981610e50565b9050919050565b5f604082019050610ea35f830185610d51565b610eb06020830184610bb3565b9392505050565b5f602082019050610eca5f830184610d51565b92915050565b5f81519050610ede81610b5e565b92915050565b5f60208284031215610ef957610ef86109f0565b5b5f610f0684828501610ed0565b91505092915050565b7f496e73756666696369656e742024534541474c4420746f206c656e64000000005f82015250565b5f610f43601c83610cd9565b9150610f4e82610f0f565b602082019050919050565b5f6020820190508181035f830152610f7081610f37565b905091905056fea2646970667358221220413a9d65f6bdc38cb8b2f132f45666de7b8dcdae40a5ba14487ebae6db5baa9c64736f6c63430008180033",
					"opcodes": "PUSH1 0xC0 PUSH1 0x40 MSTORE CALLVALUE DUP1 ISZERO PUSH3 0x10 JUMPI PUSH0 DUP1 REVERT JUMPDEST POP PUSH1 0x40 MLOAD PUSH3 0x1155 CODESIZE SUB DUP1 PUSH3 0x1155 DUP4 CODECOPY DUP2 DUP2 ADD PUSH1 0x40 MSTORE DUP2 ADD SWAP1 PUSH3 0x36 SWAP2 SWAP1 PUSH3 0x11E JUMP JUMPDEST DUP2 PUSH20 0xFFFFFFFFFFFFFFFFFFFFFFFFFFFFFFFFFFFFFFFF AND PUSH1 0x80 DUP2 PUSH20 0xFFFFFFFFFFFFFFFFFFFFFFFFFFFFFFFFFFFFFFFF AND DUP2 MSTORE POP POP DUP1 PUSH20 0xFFFFFFFFFFFFFFFFFFFFFFFFFFFFFFFFFFFFFFFF AND PUSH1 0xA0 DUP2 PUSH20 0xFFFFFFFFFFFFFFFFFFFFFFFFFFFFFFFFFFFFFFFF AND DUP2 MSTORE POP POP POP POP PUSH3 0x163 JUMP JUMPDEST PUSH0 DUP1 REVERT JUMPDEST PUSH0 PUSH20 0xFFFFFFFFFFFFFFFFFFFFFFFFFFFFFFFFFFFFFFFF DUP3 AND SWAP1 POP SWAP2 SWAP1 POP JUMP JUMPDEST PUSH0 PUSH3 0xD5 DUP3 PUSH3 0xAA JUMP JUMPDEST SWAP1 POP SWAP2 SWAP1 POP JUMP JUMPDEST PUSH0 PUSH3 0xE8 DUP3 PUSH3 0xC9 JUMP JUMPDEST SWAP1 POP SWAP2 SWAP1 POP JUMP JUMPDEST PUSH3 0xFA DUP2 PUSH3 0xDC JUMP JUMPDEST DUP2 EQ PUSH3 0x105 JUMPI PUSH0 DUP1 REVERT JUMPDEST POP JUMP JUMPDEST PUSH0 DUP2 MLOAD SWAP1 POP PUSH3 0x118 DUP2 PUSH3 0xEF JUMP JUMPDEST SWAP3 SWAP2 POP POP JUMP JUMPDEST PUSH0 DUP1 PUSH1 0x40 DUP4 DUP6 SUB SLT ISZERO PUSH3 0x137 JUMPI PUSH3 0x136 PUSH3 0xA6 JUMP JUMPDEST JUMPDEST PUSH0 PUSH3 0x146 DUP6 DUP3 DUP7 ADD PUSH3 0x108 JUMP JUMPDEST SWAP3 POP POP PUSH1 0x20 PUSH3 0x159 DUP6 DUP3 DUP7 ADD PUSH3 0x108 JUMP JUMPDEST SWAP2 POP POP SWAP3 POP SWAP3 SWAP1 POP JUMP JUMPDEST PUSH1 0x80 MLOAD PUSH1 0xA0 MLOAD PUSH2 0xFAD PUSH3 0x1A8 PUSH0 CODECOPY PUSH0 DUP2 DUP2 PUSH2 0x2E8 ADD MSTORE DUP2 DUP2 PUSH2 0x439 ADD MSTORE DUP2 DUP2 PUSH2 0x763 ADD MSTORE PUSH2 0x888 ADD MSTORE PUSH0 DUP2 DUP2 PUSH2 0x534 ADD MSTORE DUP2 DUP2 PUSH2 0x69D ADD MSTORE PUSH2 0x985 ADD MSTORE PUSH2 0xFAD PUSH0 RETURN INVALID PUSH1 0x80 PUSH1 0x40 MSTORE PUSH1 0x4 CALLDATASIZE LT PUSH2 0x85 JUMPI PUSH0 CALLDATALOAD PUSH1 0xE0 SHR DUP1 PUSH4 0x3C47D1EF GT PUSH2 0x58 JUMPI DUP1 PUSH4 0x3C47D1EF EQ PUSH2 0x13F JUMPI DUP1 PUSH4 0x465A7007 EQ PUSH2 0x169 JUMPI DUP1 PUSH4 0x9835E092 EQ PUSH2 0x185 JUMPI DUP1 PUSH4 0xC5EBEAEC EQ PUSH2 0x1A1 JUMPI DUP1 PUSH4 0xFBEC6F21 EQ PUSH2 0x1C9 JUMPI PUSH2 0x85 JUMP JUMPDEST DUP1 PUSH4 0xE0359A0 EQ PUSH2 0x89 JUMPI DUP1 PUSH4 0x14547F8F EQ PUSH2 0xC5 JUMPI DUP1 PUSH4 0x2F865568 EQ PUSH2 0xEF JUMPI DUP1 PUSH4 0x371FD8E6 EQ PUSH2 0x117 JUMPI JUMPDEST PUSH0 DUP1 REVERT JUMPDEST CALLVALUE DUP1 ISZERO PUSH2 0x94 JUMPI PUSH0 DUP1 REVERT JUMPDEST POP PUSH2 0xAF PUSH1 0x4 DUP1 CALLDATASIZE SUB DUP2 ADD SWAP1 PUSH2 0xAA SWAP2 SWAP1 PUSH2 0xA4E JUMP JUMPDEST PUSH2 0x1F3 JUMP JUMPDEST PUSH1 0x40 MLOAD PUSH2 0xBC SWAP2 SWAP1 PUSH2 0xAD1 JUMP JUMPDEST PUSH1 0x40 MLOAD DUP1 SWAP2 SUB SWAP1 RETURN JUMPDEST CALLVALUE DUP1 ISZERO PUSH2 0xD0 JUMPI PUSH0 DUP1 REVERT JUMPDEST POP PUSH2 0xD9 PUSH2 0x2E6 JUMP JUMPDEST PUSH1 0x40 MLOAD PUSH2 0xE6 SWAP2 SWAP1 PUSH2 0xB45 JUMP JUMPDEST PUSH1 0x40 MLOAD DUP1 SWAP2 SUB SWAP1 RETURN JUMPDEST CALLVALUE DUP1 ISZERO PUSH2 0xFA JUMPI PUSH0 DUP1 REVERT JUMPDEST POP PUSH2 0x115 PUSH1 0x4 DUP1 CALLDATASIZE SUB DUP2 ADD SWAP1 PUSH2 0x110 SWAP2 SWAP1 PUSH2 0xA4E JUMP JUMPDEST PUSH2 0x30A JUMP JUMPDEST STOP JUMPDEST CALLVALUE DUP1 ISZERO PUSH2 0x122 JUMPI PUSH0 DUP1 REVERT JUMPDEST POP PUSH2 0x13D PUSH1 0x4 DUP1 CALLDATASIZE SUB DUP2 ADD SWAP1 PUSH2 0x138 SWAP2 SWAP1 PUSH2 0xB88 JUMP JUMPDEST PUSH2 0x3B6 JUMP JUMPDEST STOP JUMPDEST CALLVALUE DUP1 ISZERO PUSH2 0x14A JUMPI PUSH0 DUP1 REVERT JUMPDEST POP PUSH2 0x153 PUSH2 0x4D9 JUMP JUMPDEST PUSH1 0x40 MLOAD PUSH2 0x160 SWAP2 SWAP1 PUSH2 0xBC2 JUMP JUMPDEST PUSH1 0x40 MLOAD DUP1 SWAP2 SUB SWAP1 RETURN JUMPDEST PUSH2 0x183 PUSH1 0x4 DUP1 CALLDATASIZE SUB DUP2 ADD SWAP1 PUSH2 0x17E SWAP2 SWAP1 PUSH2 0xB88 JUMP JUMPDEST PUSH2 0x4DE JUMP JUMPDEST STOP JUMPDEST PUSH2 0x19F PUSH1 0x4 DUP1 CALLDATASIZE SUB DUP2 ADD SWAP1 PUSH2 0x19A SWAP2 SWAP1 PUSH2 0xB88 JUMP JUMPDEST PUSH2 0x5D3 JUMP JUMPDEST STOP JUMPDEST CALLVALUE DUP1 ISZERO PUSH2 0x1AC JUMPI PUSH0 DUP1 REVERT JUMPDEST POP PUSH2 0x1C7 PUSH1 0x4 DUP1 CALLDATASIZE SUB DUP2 ADD SWAP1 PUSH2 0x1C2 SWAP2 SWAP1 PUSH2 0xB88 JUMP JUMPDEST PUSH2 0x73B JUMP JUMPDEST STOP JUMPDEST CALLVALUE DUP1 ISZERO PUSH2 0x1D4 JUMPI PUSH0 DUP1 REVERT JUMPDEST POP PUSH2 0x1DD PUSH2 0x983 JUMP JUMPDEST PUSH1 0x40 MLOAD PUSH2 0x1EA SWAP2 SWAP1 PUSH2 0xB45 JUMP JUMPDEST PUSH1 0x40 MLOAD DUP1 SWAP2 SUB SWAP1 RETURN JUMPDEST PUSH2 0x1FB PUSH2 0x9D2 JUMP JUMPDEST PUSH0 DUP1 DUP4 PUSH20 0xFFFFFFFFFFFFFFFFFFFFFFFFFFFFFFFFFFFFFFFF AND PUSH20 0xFFFFFFFFFFFFFFFFFFFFFFFFFFFFFFFFFFFFFFFF AND DUP2 MSTORE PUSH1 0x20 ADD SWAP1 DUP2 MSTORE PUSH1 0x20 ADD PUSH0 KECCAK256 PUSH1 0x40 MLOAD DUP1 PUSH1 0x60 ADD PUSH1 0x40 MSTORE SWAP1 DUP2 PUSH0 DUP3 ADD SLOAD DUP2 MSTORE PUSH1 0x20 ADD PUSH1 0x1 DUP3 ADD SLOAD DUP2 MSTORE PUSH1 0x20 ADD PUSH1 0x2 DUP3 ADD SLOAD DUP2 MSTORE POP POP SWAP1 POP PUSH0 DUP2 PUSH1 0x20 ADD MLOAD GT ISZERO PUSH2 0x2D7 JUMPI PUSH0 DUP2 PUSH1 0x40 ADD MLOAD NUMBER PUSH2 0x27E SWAP2 SWAP1 PUSH2 0xC08 JUMP JUMPDEST SWAP1 POP PUSH0 PUSH1 0x64 PUSH1 0x1 DUP4 DUP6 PUSH1 0x20 ADD MLOAD PUSH2 0x295 SWAP2 SWAP1 PUSH2 0xC3B JUMP JUMPDEST PUSH2 0x29F SWAP2 SWAP1 PUSH2 0xC3B JUMP JUMPDEST PUSH2 0x2A9 SWAP2 SWAP1 PUSH2 0xCA9 JUMP JUMPDEST SWAP1 POP DUP1 DUP4 PUSH0 ADD MLOAD LT ISZERO PUSH2 0x2BC JUMPI PUSH0 PUSH2 0x2CC JUMP JUMPDEST DUP1 DUP4 PUSH0 ADD MLOAD PUSH2 0x2CB SWAP2 SWAP1 PUSH2 0xC08 JUMP JUMPDEST JUMPDEST DUP4 PUSH0 ADD DUP2 DUP2 MSTORE POP POP POP POP JUMPDEST NUMBER DUP2 PUSH1 0x40 ADD DUP2 DUP2 MSTORE POP POP SWAP2 SWAP1 POP JUMP JUMPDEST PUSH32 0x0 DUP2 JUMP JUMPDEST PUSH0 PUSH2 0x314 DUP3 PUSH2 0x1F3 JUMP JUMPDEST SWAP1 POP PUSH2 0x31F DUP2 PUSH2 0x9A7 JUMP JUMPDEST ISZERO PUSH2 0x35F JUMPI PUSH1 0x40 MLOAD PUSH32 0x8C379A000000000000000000000000000000000000000000000000000000000 DUP2 MSTORE PUSH1 0x4 ADD PUSH2 0x356 SWAP1 PUSH2 0xD33 JUMP JUMPDEST PUSH1 0x40 MLOAD DUP1 SWAP2 SUB SWAP1 REVERT JUMPDEST PUSH0 DUP1 DUP4 PUSH20 0xFFFFFFFFFFFFFFFFFFFFFFFFFFFFFFFFFFFFFFFF AND PUSH20 0xFFFFFFFFFFFFFFFFFFFFFFFFFFFFFFFFFFFFFFFF AND DUP2 MSTORE PUSH1 0x20 ADD SWAP1 DUP2 MSTORE PUSH1 0x20 ADD PUSH0 KECCAK256 PUSH0 DUP1 DUP3 ADD PUSH0 SWAP1 SSTORE PUSH1 0x1 DUP3 ADD PUSH0 SWAP1 SSTORE PUSH1 0x2 DUP3 ADD PUSH0 SWAP1 SSTORE POP POP POP POP JUMP JUMPDEST PUSH0 PUSH2 0x3C0 CALLER PUSH2 0x1F3 JUMP JUMPDEST SWAP1 POP DUP2 DUP2 PUSH1 0x20 ADD DUP2 DUP2 MLOAD PUSH2 0x3D4 SWAP2 SWAP1 PUSH2 0xC08 JUMP JUMPDEST SWAP2 POP DUP2 DUP2 MSTORE POP POP DUP1 PUSH0 DUP1 CALLER PUSH20 0xFFFFFFFFFFFFFFFFFFFFFFFFFFFFFFFFFFFFFFFF AND PUSH20 0xFFFFFFFFFFFFFFFFFFFFFFFFFFFFFFFFFFFFFFFF AND DUP2 MSTORE PUSH1 0x20 ADD SWAP1 DUP2 MSTORE PUSH1 0x20 ADD PUSH0 KECCAK256 PUSH0 DUP3 ADD MLOAD DUP2 PUSH0 ADD SSTORE PUSH1 0x20 DUP3 ADD MLOAD DUP2 PUSH1 0x1 ADD SSTORE PUSH1 0x40 DUP3 ADD MLOAD DUP2 PUSH1 0x2 ADD SSTORE SWAP1 POP POP PUSH32 0x0 PUSH20 0xFFFFFFFFFFFFFFFFFFFFFFFFFFFFFFFFFFFFFFFF AND PUSH4 0x23B872DD CALLER ADDRESS DUP6 PUSH1 0x40 MLOAD DUP5 PUSH4 0xFFFFFFFF AND PUSH1 0xE0 SHL DUP2 MSTORE PUSH1 0x4 ADD PUSH2 0x494 SWAP4 SWAP3 SWAP2 SWAP1 PUSH2 0xD60 JUMP JUMPDEST PUSH1 0x20 PUSH1 0x40 MLOAD DUP1 DUP4 SUB DUP2 PUSH0 DUP8 GAS CALL ISZERO DUP1 ISZERO PUSH2 0x4B0 JUMPI RETURNDATASIZE PUSH0 DUP1 RETURNDATACOPY RETURNDATASIZE PUSH0 REVERT JUMPDEST POP POP POP POP PUSH1 0x40 MLOAD RETURNDATASIZE PUSH1 0x1F NOT PUSH1 0x1F DUP3 ADD AND DUP3 ADD DUP1 PUSH1 0x40 MSTORE POP DUP2 ADD SWAP1 PUSH2 0x4D4 SWAP2 SWAP1 PUSH2 0xDCA JUMP JUMPDEST POP POP POP JUMP JUMPDEST PUSH1 0x1 DUP2 JUMP JUMPDEST DUP1 PUSH0 DUP1 CALLER PUSH20 0xFFFFFFFFFFFFFFFFFFFFFFFFFFFFFFFFFFFFFFFF AND PUSH20 0xFFFFFFFFFFFFFFFFFFFFFFFFFFFFFFFFFFFFFFFF AND DUP2 MSTORE PUSH1 0x20 ADD SWAP1 DUP2 MSTORE PUSH1 0x20 ADD PUSH0 KECCAK256 PUSH0 ADD PUSH0 DUP3 DUP3 SLOAD PUSH2 0x52B SWAP2 SWAP1 PUSH2 0xDF5 JUMP JUMPDEST SWAP3 POP POP DUP2 SWAP1 SSTORE POP PUSH32 0x0 PUSH20 0xFFFFFFFFFFFFFFFFFFFFFFFFFFFFFFFFFFFFFFFF AND PUSH4 0x23B872DD CALLER ADDRESS DUP5 PUSH1 0x40 MLOAD DUP5 PUSH4 0xFFFFFFFF AND PUSH1 0xE0 SHL DUP2 MSTORE PUSH1 0x4 ADD PUSH2 0x58F SWAP4 SWAP3 SWAP2 SWAP1 PUSH2 0xD60 JUMP JUMPDEST PUSH1 0x20 PUSH1 0x40 MLOAD DUP1 DUP4 SUB DUP2 PUSH0 DUP8 GAS CALL ISZERO DUP1 ISZERO PUSH2 0x5AB JUMPI RETURNDATASIZE PUSH0 DUP1 RETURNDATACOPY RETURNDATASIZE PUSH0 REVERT JUMPDEST POP POP POP POP PUSH1 0x40 MLOAD RETURNDATASIZE PUSH1 0x1F NOT PUSH1 0x1F DUP3 ADD AND DUP3 ADD DUP1 PUSH1 0x40 MSTORE POP DUP2 ADD SWAP1 PUSH2 0x5CF SWAP2 SWAP1 PUSH2 0xDCA JUMP JUMPDEST POP POP JUMP JUMPDEST PUSH0 PUSH2 0x5DD CALLER PUSH2 0x1F3 JUMP JUMPDEST SWAP1 POP DUP2 DUP2 PUSH0 ADD DUP2 DUP2 MLOAD PUSH2 0x5F0 SWAP2 SWAP1 PUSH2 0xC08 JUMP JUMPDEST SWAP2 POP DUP2 DUP2 MSTORE POP POP PUSH2 0x600 DUP2 PUSH2 0x9A7 JUMP JUMPDEST PUSH2 0x63F JUMPI PUSH1 0x40 MLOAD PUSH32 0x8C379A000000000000000000000000000000000000000000000000000000000 DUP2 MSTORE PUSH1 0x4 ADD PUSH2 0x636 SWAP1 PUSH2 0xE72 JUMP JUMPDEST PUSH1 0x40 MLOAD DUP1 SWAP2 SUB SWAP1 REVERT JUMPDEST DUP1 PUSH0 DUP1 CALLER PUSH20 0xFFFFFFFFFFFFFFFFFFFFFFFFFFFFFFFFFFFFFFFF AND PUSH20 0xFFFFFFFFFFFFFFFFFFFFFFFFFFFFFFFFFFFFFFFF AND DUP2 MSTORE PUSH1 0x20 ADD SWAP1 DUP2 MSTORE PUSH1 0x20 ADD PUSH0 KECCAK256 PUSH0 DUP3 ADD MLOAD DUP2 PUSH0 ADD SSTORE PUSH1 0x20 DUP3 ADD MLOAD DUP2 PUSH1 0x1 ADD SSTORE PUSH1 0x40 DUP3 ADD MLOAD DUP2 PUSH1 0x2 ADD SSTORE SWAP1 POP POP PUSH32 0x0 PUSH20 0xFFFFFFFFFFFFFFFFFFFFFFFFFFFFFFFFFFFFFFFF AND PUSH4 0xA9059CBB CALLER DUP5 PUSH1 0x40 MLOAD DUP4 PUSH4 0xFFFFFFFF AND PUSH1 0xE0 SHL DUP2 MSTORE PUSH1 0x4 ADD PUSH2 0x6F6 SWAP3 SWAP2 SWAP1 PUSH2 0xE90 JUMP JUMPDEST PUSH1 0x20 PUSH1 0x40 MLOAD DUP1 DUP4 SUB DUP2 PUSH0 DUP8 GAS CALL ISZERO DUP1 ISZERO PUSH2 0x712 JUMPI RETURNDATASIZE PUSH0 DUP1 RETURNDATACOPY RETURNDATASIZE PUSH0 REVERT JUMPDEST POP POP POP POP PUSH1 0x40 MLOAD RETURNDATASIZE PUSH1 0x1F NOT PUSH1 0x1F DUP3 ADD AND DUP3 ADD DUP1 PUSH1 0x40 MSTORE POP DUP2 ADD SWAP1 PUSH2 0x736 SWAP2 SWAP1 PUSH2 0xDCA JUMP JUMPDEST POP POP POP JUMP JUMPDEST PUSH0 PUSH2 0x745 CALLER PUSH2 0x1F3 JUMP JUMPDEST SWAP1 POP DUP2 DUP2 PUSH1 0x20 ADD DUP2 DUP2 MLOAD PUSH2 0x759 SWAP2 SWAP1 PUSH2 0xDF5 JUMP JUMPDEST SWAP2 POP DUP2 DUP2 MSTORE POP POP PUSH0 PUSH32 0x0 PUSH20 0xFFFFFFFFFFFFFFFFFFFFFFFFFFFFFFFFFFFFFFFF AND PUSH4 0x70A08231 ADDRESS PUSH1 0x40 MLOAD DUP3 PUSH4 0xFFFFFFFF AND PUSH1 0xE0 SHL DUP2 MSTORE PUSH1 0x4 ADD PUSH2 0x7BA SWAP2 SWAP1 PUSH2 0xEB7 JUMP JUMPDEST PUSH1 0x20 PUSH1 0x40 MLOAD DUP1 DUP4 SUB DUP2 DUP7 GAS STATICCALL ISZERO DUP1 ISZERO PUSH2 0x7D5 JUMPI RETURNDATASIZE PUSH0 DUP1 RETURNDATACOPY RETURNDATASIZE PUSH0 REVERT JUMPDEST POP POP POP POP PUSH1 0x40 MLOAD RETURNDATASIZE PUSH1 0x1F NOT PUSH1 0x1F DUP3 ADD AND DUP3 ADD DUP1 PUSH1 0x40 MSTORE POP DUP2 ADD SWAP1 PUSH2 0x7F9 SWAP2 SWAP1 PUSH2 0xEE4 JUMP JUMPDEST SWAP1 POP DUP1 DUP4 GT ISZERO PUSH2 0x83E JUMPI PUSH1 0x40 MLOAD PUSH32 0x8C379A000000000000000000000000000000000000000000000000000000000 DUP2 MSTORE PUSH1 0x4 ADD PUSH2 0x835 SWAP1 PUSH2 0xF59 JUMP JUMPDEST PUSH1 0x40 MLOAD DUP1 SWAP2 SUB SWAP1 REVERT JUMPDEST PUSH2 0x847 DUP3 PUSH2 0x9A7 JUMP JUMPDEST PUSH2 0x886 JUMPI PUSH1 0x40 MLOAD PUSH32 0x8C379A000000000000000000000000000000000000000000000000000000000 DUP2 MSTORE PUSH1 0x4 ADD PUSH2 0x87D SWAP1 PUSH2 0xE72 JUMP JUMPDEST PUSH1 0x40 MLOAD DUP1 SWAP2 SUB SWAP1 REVERT JUMPDEST PUSH32 0x0 PUSH20 0xFFFFFFFFFFFFFFFFFFFFFFFFFFFFFFFFFFFFFFFF AND PUSH4 0xA9059CBB CALLER DUP6 PUSH1 0x40 MLOAD DUP4 PUSH4 0xFFFFFFFF AND PUSH1 0xE0 SHL DUP2 MSTORE PUSH1 0x4 ADD PUSH2 0x8E1 SWAP3 SWAP2 SWAP1 PUSH2 0xE90 JUMP JUMPDEST PUSH1 0x20 PUSH1 0x40 MLOAD DUP1 DUP4 SUB DUP2 PUSH0 DUP8 GAS CALL ISZERO DUP1 ISZERO PUSH2 0x8FD JUMPI RETURNDATASIZE PUSH0 DUP1 RETURNDATACOPY RETURNDATASIZE PUSH0 REVERT JUMPDEST POP POP POP POP PUSH1 0x40 MLOAD RETURNDATASIZE PUSH1 0x1F NOT PUSH1 0x1F DUP3 ADD AND DUP3 ADD DUP1 PUSH1 0x40 MSTORE POP DUP2 ADD SWAP1 PUSH2 0x921 SWAP2 SWAP1 PUSH2 0xDCA JUMP JUMPDEST POP DUP2 PUSH0 DUP1 CALLER PUSH20 0xFFFFFFFFFFFFFFFFFFFFFFFFFFFFFFFFFFFFFFFF AND PUSH20 0xFFFFFFFFFFFFFFFFFFFFFFFFFFFFFFFFFFFFFFFF AND DUP2 MSTORE PUSH1 0x20 ADD SWAP1 DUP2 MSTORE PUSH1 0x20 ADD PUSH0 KECCAK256 PUSH0 DUP3 ADD MLOAD DUP2 PUSH0 ADD SSTORE PUSH1 0x20 DUP3 ADD MLOAD DUP2 PUSH1 0x1 ADD SSTORE PUSH1 0x40 DUP3 ADD MLOAD DUP2 PUSH1 0x2 ADD SSTORE SWAP1 POP POP POP POP POP JUMP JUMPDEST PUSH32 0x0 DUP2 JUMP JUMPDEST PUSH0 DUP2 PUSH1 0x20 ADD MLOAD PUSH1 0x4 PUSH2 0x9B9 SWAP2 SWAP1 PUSH2 0xC3B JUMP JUMPDEST DUP3 PUSH0 ADD MLOAD PUSH1 0x3 PUSH2 0x9C9 SWAP2 SWAP1 PUSH2 0xC3B JUMP JUMPDEST LT ISZERO SWAP1 POP SWAP2 SWAP1 POP JUMP JUMPDEST PUSH1 0x40 MLOAD DUP1 PUSH1 0x60 ADD PUSH1 0x40 MSTORE DUP1 PUSH0 DUP2 MSTORE PUSH1 0x20 ADD PUSH0 DUP2 MSTORE PUSH1 0x20 ADD PUSH0 DUP2 MSTORE POP SWAP1 JUMP JUMPDEST PUSH0 DUP1 REVERT JUMPDEST PUSH0 PUSH20 0xFFFFFFFFFFFFFFFFFFFFFFFFFFFFFFFFFFFFFFFF DUP3 AND SWAP1 POP SWAP2 SWAP1 POP JUMP JUMPDEST PUSH0 PUSH2 0xA1D DUP3 PUSH2 0x9F4 JUMP JUMPDEST SWAP1 POP SWAP2 SWAP1 POP JUMP JUMPDEST PUSH2 0xA2D DUP2 PUSH2 0xA13 JUMP JUMPDEST DUP2 EQ PUSH2 0xA37 JUMPI PUSH0 DUP1 REVERT JUMPDEST POP JUMP JUMPDEST PUSH0 DUP2 CALLDATALOAD SWAP1 POP PUSH2 0xA48 DUP2 PUSH2 0xA24 JUMP JUMPDEST SWAP3 SWAP2 POP POP JUMP JUMPDEST PUSH0 PUSH1 0x20 DUP3 DUP5 SUB SLT ISZERO PUSH2 0xA63 JUMPI PUSH2 0xA62 PUSH2 0x9F0 JUMP JUMPDEST JUMPDEST PUSH0 PUSH2 0xA70 DUP5 DUP3 DUP6 ADD PUSH2 0xA3A JUMP JUMPDEST SWAP2 POP POP SWAP3 SWAP2 POP POP JUMP JUMPDEST PUSH0 DUP2 SWAP1 POP SWAP2 SWAP1 POP JUMP JUMPDEST PUSH2 0xA8B DUP2 PUSH2 0xA79 JUMP JUMPDEST DUP3 MSTORE POP POP JUMP JUMPDEST PUSH1 0x60 DUP3 ADD PUSH0 DUP3 ADD MLOAD PUSH2 0xAA5 PUSH0 DUP6 ADD DUP3 PUSH2 0xA82 JUMP JUMPDEST POP PUSH1 0x20 DUP3 ADD MLOAD PUSH2 0xAB8 PUSH1 0x20 DUP6 ADD DUP3 PUSH2 0xA82 JUMP JUMPDEST POP PUSH1 0x40 DUP3 ADD MLOAD PUSH2 0xACB PUSH1 0x40 DUP6 ADD DUP3 PUSH2 0xA82 JUMP JUMPDEST POP POP POP POP JUMP JUMPDEST PUSH0 PUSH1 0x60 DUP3 ADD SWAP1 POP PUSH2 0xAE4 PUSH0 DUP4 ADD DUP5 PUSH2 0xA91 JUMP JUMPDEST SWAP3 SWAP2 POP POP JUMP JUMPDEST PUSH0 DUP2 SWAP1 POP SWAP2 SWAP1 POP JUMP JUMPDEST PUSH0 PUSH2 0xB0D PUSH2 0xB08 PUSH2 0xB03 DUP5 PUSH2 0x9F4 JUMP JUMPDEST PUSH2 0xAEA JUMP JUMPDEST PUSH2 0x9F4 JUMP JUMPDEST SWAP1 POP SWAP2 SWAP1 POP JUMP JUMPDEST PUSH0 PUSH2 0xB1E DUP3 PUSH2 0xAF3 JUMP JUMPDEST SWAP1 POP SWAP2 SWAP1 POP JUMP JUMPDEST PUSH0 PUSH2 0xB2F DUP3 PUSH2 0xB14 JUMP JUMPDEST SWAP1 POP SWAP2 SWAP1 POP JUMP JUMPDEST PUSH2 0xB3F DUP2 PUSH2 0xB25 JUMP JUMPDEST DUP3 MSTORE POP POP JUMP JUMPDEST PUSH0 PUSH1 0x20 DUP3 ADD SWAP1 POP PUSH2 0xB58 PUSH0 DUP4 ADD DUP5 PUSH2 0xB36 JUMP JUMPDEST SWAP3 SWAP2 POP POP JUMP JUMPDEST PUSH2 0xB67 DUP2 PUSH2 0xA79 JUMP JUMPDEST DUP2 EQ PUSH2 0xB71 JUMPI PUSH0 DUP1 REVERT JUMPDEST POP JUMP JUMPDEST PUSH0 DUP2 CALLDATALOAD SWAP1 POP PUSH2 0xB82 DUP2 PUSH2 0xB5E JUMP JUMPDEST SWAP3 SWAP2 POP POP JUMP JUMPDEST PUSH0 PUSH1 0x20 DUP3 DUP5 SUB SLT ISZERO PUSH2 0xB9D JUMPI PUSH2 0xB9C PUSH2 0x9F0 JUMP JUMPDEST JUMPDEST PUSH0 PUSH2 0xBAA DUP5 DUP3 DUP6 ADD PUSH2 0xB74 JUMP JUMPDEST SWAP2 POP POP SWAP3 SWAP2 POP POP JUMP JUMPDEST PUSH2 0xBBC DUP2 PUSH2 0xA79 JUMP JUMPDEST DUP3 MSTORE POP POP JUMP JUMPDEST PUSH0 PUSH1 0x20 DUP3 ADD SWAP1 POP PUSH2 0xBD5 PUSH0 DUP4 ADD DUP5 PUSH2 0xBB3 JUMP JUMPDEST SWAP3 SWAP2 POP POP JUMP JUMPDEST PUSH32 0x4E487B7100000000000000000000000000000000000000000000000000000000 PUSH0 MSTORE PUSH1 0x11 PUSH1 0x4 MSTORE PUSH1 0x24 PUSH0 REVERT JUMPDEST PUSH0 PUSH2 0xC12 DUP3 PUSH2 0xA79 JUMP JUMPDEST SWAP2 POP PUSH2 0xC1D DUP4 PUSH2 0xA79 JUMP JUMPDEST SWAP3 POP DUP3 DUP3 SUB SWAP1 POP DUP2 DUP2 GT ISZERO PUSH2 0xC35 JUMPI PUSH2 0xC34 PUSH2 0xBDB JUMP JUMPDEST JUMPDEST SWAP3 SWAP2 POP POP JUMP JUMPDEST PUSH0 PUSH2 0xC45 DUP3 PUSH2 0xA79 JUMP JUMPDEST SWAP2 POP PUSH2 0xC50 DUP4 PUSH2 0xA79 JUMP JUMPDEST SWAP3 POP DUP3 DUP3 MUL PUSH2 0xC5E DUP2 PUSH2 0xA79 JUMP JUMPDEST SWAP2 POP DUP3 DUP3 DIV DUP5 EQ DUP4 ISZERO OR PUSH2 0xC75 JUMPI PUSH2 0xC74 PUSH2 0xBDB JUMP JUMPDEST JUMPDEST POP SWAP3 SWAP2 POP POP JUMP JUMPDEST PUSH32 0x4E487B7100000000000000000000000000000000000000000000000000000000 PUSH0 MSTORE PUSH1 0x12 PUSH1 0x4 MSTORE PUSH1 0x24 PUSH0 REVERT JUMPDEST PUSH0 PUSH2 0xCB3 DUP3 PUSH2 0xA79 JUMP JUMPDEST SWAP2 POP PUSH2 0xCBE DUP4 PUSH2 0xA79 JUMP JUMPDEST SWAP3 POP DUP3 PUSH2 0xCCE JUMPI PUSH2 0xCCD PUSH2 0xC7C JUMP JUMPDEST JUMPDEST DUP3 DUP3 DIV SWAP1 POP SWAP3 SWAP2 POP POP JUMP JUMPDEST PUSH0 DUP3 DUP3 MSTORE PUSH1 0x20 DUP3 ADD SWAP1 POP SWAP3 SWAP2 POP POP JUMP JUMPDEST PUSH32 0x426F72726F7765722068617320676F6F6420636F6C6C61746572616C00000000 PUSH0 DUP3 ADD MSTORE POP JUMP JUMPDEST PUSH0 PUSH2 0xD1D PUSH1 0x1C DUP4 PUSH2 0xCD9 JUMP JUMPDEST SWAP2 POP PUSH2 0xD28 DUP3 PUSH2 0xCE9 JUMP JUMPDEST PUSH1 0x20 DUP3 ADD SWAP1 POP SWAP2 SWAP1 POP JUMP JUMPDEST PUSH0 PUSH1 0x20 DUP3 ADD SWAP1 POP DUP2 DUP2 SUB PUSH0 DUP4 ADD MSTORE PUSH2 0xD4A DUP2 PUSH2 0xD11 JUMP JUMPDEST SWAP1 POP SWAP2 SWAP1 POP JUMP JUMPDEST PUSH2 0xD5A DUP2 PUSH2 0xA13 JUMP JUMPDEST DUP3 MSTORE POP POP JUMP JUMPDEST PUSH0 PUSH1 0x60 DUP3 ADD SWAP1 POP PUSH2 0xD73 PUSH0 DUP4 ADD DUP7 PUSH2 0xD51 JUMP JUMPDEST PUSH2 0xD80 PUSH1 0x20 DUP4 ADD DUP6 PUSH2 0xD51 JUMP JUMPDEST PUSH2 0xD8D PUSH1 0x40 DUP4 ADD DUP5 PUSH2 0xBB3 JUMP JUMPDEST SWAP5 SWAP4 POP POP POP POP JUMP JUMPDEST PUSH0 DUP2 ISZERO ISZERO SWAP1 POP SWAP2 SWAP1 POP JUMP JUMPDEST PUSH2 0xDA9 DUP2 PUSH2 0xD95 JUMP JUMPDEST DUP2 EQ PUSH2 0xDB3 JUMPI PUSH0 DUP1 REVERT JUMPDEST POP JUMP JUMPDEST PUSH0 DUP2 MLOAD SWAP1 POP PUSH2 0xDC4 DUP2 PUSH2 0xDA0 JUMP JUMPDEST SWAP3 SWAP2 POP POP JUMP JUMPDEST PUSH0 PUSH1 0x20 DUP3 DUP5 SUB SLT ISZERO PUSH2 0xDDF JUMPI PUSH2 0xDDE PUSH2 0x9F0 JUMP JUMPDEST JUMPDEST PUSH0 PUSH2 0xDEC DUP5 DUP3 DUP6 ADD PUSH2 0xDB6 JUMP JUMPDEST SWAP2 POP POP SWAP3 SWAP2 POP POP JUMP JUMPDEST PUSH0 PUSH2 0xDFF DUP3 PUSH2 0xA79 JUMP JUMPDEST SWAP2 POP PUSH2 0xE0A DUP4 PUSH2 0xA79 JUMP JUMPDEST SWAP3 POP DUP3 DUP3 ADD SWAP1 POP DUP1 DUP3 GT ISZERO PUSH2 0xE22 JUMPI PUSH2 0xE21 PUSH2 0xBDB JUMP JUMPDEST JUMPDEST SWAP3 SWAP2 POP POP JUMP JUMPDEST PUSH32 0x556E646572636F6C6C61746572616C697A65642024534541474C44206C6F616E PUSH0 DUP3 ADD MSTORE POP JUMP JUMPDEST PUSH0 PUSH2 0xE5C PUSH1 0x20 DUP4 PUSH2 0xCD9 JUMP JUMPDEST SWAP2 POP PUSH2 0xE67 DUP3 PUSH2 0xE28 JUMP JUMPDEST PUSH1 0x20 DUP3 ADD SWAP1 POP SWAP2 SWAP1 POP JUMP JUMPDEST PUSH0 PUSH1 0x20 DUP3 ADD SWAP1 POP DUP2 DUP2 SUB PUSH0 DUP4 ADD MSTORE PUSH2 0xE89 DUP2 PUSH2 0xE50 JUMP JUMPDEST SWAP1 POP SWAP2 SWAP1 POP JUMP JUMPDEST PUSH0 PUSH1 0x40 DUP3 ADD SWAP1 POP PUSH2 0xEA3 PUSH0 DUP4 ADD DUP6 PUSH2 0xD51 JUMP JUMPDEST PUSH2 0xEB0 PUSH1 0x20 DUP4 ADD DUP5 PUSH2 0xBB3 JUMP JUMPDEST SWAP4 SWAP3 POP POP POP JUMP JUMPDEST PUSH0 PUSH1 0x20 DUP3 ADD SWAP1 POP PUSH2 0xECA PUSH0 DUP4 ADD DUP5 PUSH2 0xD51 JUMP JUMPDEST SWAP3 SWAP2 POP POP JUMP JUMPDEST PUSH0 DUP2 MLOAD SWAP1 POP PUSH2 0xEDE DUP2 PUSH2 0xB5E JUMP JUMPDEST SWAP3 SWAP2 POP POP JUMP JUMPDEST PUSH0 PUSH1 0x20 DUP3 DUP5 SUB SLT ISZERO PUSH2 0xEF9 JUMPI PUSH2 0xEF8 PUSH2 0x9F0 JUMP JUMPDEST JUMPDEST PUSH0 PUSH2 0xF06 DUP5 DUP3 DUP6 ADD PUSH2 0xED0 JUMP JUMPDEST SWAP2 POP POP SWAP3 SWAP2 POP POP JUMP JUMPDEST PUSH32 0x496E73756666696369656E742024534541474C4420746F206C656E6400000000 PUSH0 DUP3 ADD MSTORE POP JUMP JUMPDEST PUSH0 PUSH2 0xF43 PUSH1 0x1C DUP4 PUSH2 0xCD9 JUMP JUMPDEST SWAP2 POP PUSH2 0xF4E DUP3 PUSH2 0xF0F JUMP JUMPDEST PUSH1 0x20 DUP3 ADD SWAP1 POP SWAP2 SWAP1 POP JUMP JUMPDEST PUSH0 PUSH1 0x20 DUP3 ADD SWAP1 POP DUP2 DUP2 SUB PUSH0 DUP4 ADD MSTORE PUSH2 0xF70 DUP2 PUSH2 0xF37 JUMP JUMPDEST SWAP1 POP SWAP2 SWAP1 POP JUMP INVALID LOG2 PUSH5 0x6970667358 0x22 SLT KECCAK256 COINBASE GASPRICE SWAP14 PUSH6 0xF6BDC38CB8B2 CALL ORIGIN DELEGATECALL JUMP PUSH7 0xDE7B8DCDAE40A5 0xBA EQ BASEFEE PUSH31 0xBAE6DB5BAA9C64736F6C634300081800330000000000000000000000000000 "
				},
				"gasEstimates": {
					"creation": {
						"codeDepositCost": "802600",
						"executionCost": "infinite",
						"totalCost": "infinite"
					},
					"external": {
						"INTEREST_RATE_PERCENT()": "325",
						"borrow(uint256)": "infinite",
						"depositGold(uint256)": "infinite",
						"gold()": "infinite",
						"liquidate(address)": "infinite",
						"repay(uint256)": "infinite",
						"seagold()": "infinite",
						"updatedAccount(address)": "infinite",
						"withdrawGold(uint256)": "infinite"
					},
					"internal": {
						"_hasEnoughCollateral(struct SharkVault.LoanAccount memory)": "infinite"
					}
				},
				"methodIdentifiers": {
					"INTEREST_RATE_PERCENT()": "3c47d1ef",
					"borrow(uint256)": "c5ebeaec",
					"depositGold(uint256)": "465a7007",
					"gold()": "fbec6f21",
					"liquidate(address)": "2f865568",
					"repay(uint256)": "371fd8e6",
					"seagold()": "14547f8f",
					"updatedAccount(address)": "0e0359a0",
					"withdrawGold(uint256)": "9835e092"
				}
			},
			"storageLayout": {
				"storage": [
					{
						"astId": 203,
						"contract": "Node-Guardian_Cream_Rkt/Src/Contracts/SharkVault.sol:SharkVault",
						"label": "accounts",
						"offset": 0,
						"slot": "0",
						"type": "t_mapping(t_address,t_struct(LoanAccount)198_storage)"
					}
				],
				"types": {
					"t_address": {
						"encoding": "inplace",
						"label": "address",
						"numberOfBytes": "20"
					},
					"t_mapping(t_address,t_struct(LoanAccount)198_storage)": {
						"encoding": "mapping",
						"key": "t_address",
						"label": "mapping(address => struct SharkVault.LoanAccount)",
						"numberOfBytes": "32",
						"value": "t_struct(LoanAccount)198_storage"
					},
					"t_struct(LoanAccount)198_storage": {
						"encoding": "inplace",
						"label": "struct SharkVault.LoanAccount",
						"members": [
							{
								"astId": 193,
								"contract": "Node-Guardian_Cream_Rkt/Src/Contracts/SharkVault.sol:SharkVault",
								"label": "depositedGold",
								"offset": 0,
								"slot": "0",
								"type": "t_uint256"
							},
							{
								"astId": 195,
								"contract": "Node-Guardian_Cream_Rkt/Src/Contracts/SharkVault.sol:SharkVault",
								"label": "borrowedSeagold",
								"offset": 0,
								"slot": "1",
								"type": "t_uint256"
							},
							{
								"astId": 197,
								"contract": "Node-Guardian_Cream_Rkt/Src/Contracts/SharkVault.sol:SharkVault",
								"label": "lastBlock",
								"offset": 0,
								"slot": "2",
								"type": "t_uint256"
							}
						],
						"numberOfBytes": "96"
					},
					"t_uint256": {
						"encoding": "inplace",
						"label": "uint256",
						"numberOfBytes": "32"
					}
				}
			},
			"userdoc": {
				"kind": "user",
				"methods": {
					"borrow(uint256)": {
						"notice": "Borrow seagold."
					},
					"depositGold(uint256)": {
						"notice": "Deposit gold as collateral. "
					},
					"liquidate(address)": {
						"notice": "Liquidate an existing undercollateralized loan.  The smart contract effectively seizes the gold collateral."
					},
					"repay(uint256)": {
						"notice": "Repay borrowed seagold."
					},
					"updatedAccount(address)": {
						"notice": "Get the loan account of a user, with updated interest."
					},
					"withdrawGold(uint256)": {
						"notice": "Withdraw gold collateral."
					}
				},
				"version": 1
			}
		}
	}
}